{
	"src/contracts/NFTMarket.sol": {
		"NFTMarket": {
			"abi": [
				{
					"inputs": [
						{
							"internalType": "address",
							"name": "_NFTAddress",
							"type": "address"
						}
					],
					"stateMutability": "nonpayable",
					"type": "constructor"
				},
				{
					"inputs": [
						{
							"internalType": "address",
							"name": "buyer",
							"type": "address"
						},
						{
							"internalType": "uint256",
							"name": "orderId",
							"type": "uint256"
						}
					],
					"name": "buyNFT",
					"outputs": [],
					"stateMutability": "payable",
					"type": "function"
				},
				{
					"inputs": [],
					"name": "contractBalance",
					"outputs": [
						{
							"internalType": "uint256",
							"name": "",
							"type": "uint256"
						}
					],
					"stateMutability": "view",
					"type": "function"
				},
				{
					"inputs": [],
					"name": "getAllListedNFTs",
					"outputs": [
						{
							"internalType": "uint256[]",
							"name": "",
							"type": "uint256[]"
						}
					],
					"stateMutability": "view",
					"type": "function"
				},
				{
					"inputs": [],
					"name": "getAllOrderIds",
					"outputs": [
						{
							"internalType": "uint256[]",
							"name": "",
							"type": "uint256[]"
						}
					],
					"stateMutability": "view",
					"type": "function"
				},
				{
					"inputs": [],
					"name": "getAllOrders",
					"outputs": [
						{
							"components": [
								{
									"internalType": "uint256",
									"name": "orderId",
									"type": "uint256"
								},
								{
									"internalType": "uint256",
									"name": "tokenId",
									"type": "uint256"
								},
								{
									"internalType": "address",
									"name": "sellAddr",
									"type": "address"
								},
								{
									"internalType": "uint256",
									"name": "price",
									"type": "uint256"
								}
							],
							"internalType": "struct NFTMarket.Order[]",
							"name": "",
							"type": "tuple[]"
						}
					],
					"stateMutability": "view",
					"type": "function"
				},
				{
					"inputs": [],
					"name": "getExistAllOrder",
					"outputs": [
						{
							"internalType": "uint256",
							"name": "",
							"type": "uint256"
						}
					],
					"stateMutability": "view",
					"type": "function"
				},
				{
					"inputs": [
						{
							"internalType": "uint256",
							"name": "page",
							"type": "uint256"
						},
						{
							"internalType": "uint256",
							"name": "pageSize",
							"type": "uint256"
						}
					],
					"name": "getOrdersByPage",
					"outputs": [
						{
							"components": [
								{
									"internalType": "uint256",
									"name": "orderId",
									"type": "uint256"
								},
								{
									"internalType": "uint256",
									"name": "tokenId",
									"type": "uint256"
								},
								{
									"internalType": "address",
									"name": "sellAddr",
									"type": "address"
								},
								{
									"internalType": "uint256",
									"name": "price",
									"type": "uint256"
								}
							],
							"internalType": "struct NFTMarket.Order[]",
							"name": "",
							"type": "tuple[]"
						}
					],
					"stateMutability": "view",
					"type": "function"
				},
				{
					"inputs": [
						{
							"internalType": "address",
							"name": "user",
							"type": "address"
						}
					],
					"name": "getUserOrder",
					"outputs": [
						{
							"internalType": "uint256[]",
							"name": "",
							"type": "uint256[]"
						}
					],
					"stateMutability": "view",
					"type": "function"
				},
				{
					"inputs": [
						{
							"internalType": "uint256",
							"name": "orderId",
							"type": "uint256"
						}
					],
					"name": "getorderData",
					"outputs": [
						{
							"internalType": "uint256",
							"name": "tokenId",
							"type": "uint256"
						},
						{
							"internalType": "address",
							"name": "sellerAddr",
							"type": "address"
						},
						{
							"internalType": "uint256",
							"name": "price",
							"type": "uint256"
						}
					],
					"stateMutability": "view",
					"type": "function"
				},
				{
					"inputs": [
						{
							"internalType": "address",
							"name": "seller",
							"type": "address"
						},
						{
							"internalType": "uint256",
							"name": "price",
							"type": "uint256"
						},
						{
							"internalType": "uint256",
							"name": "tokenId",
							"type": "uint256"
						}
					],
					"name": "list",
					"outputs": [],
					"stateMutability": "nonpayable",
					"type": "function"
				},
				{
					"inputs": [
						{
							"internalType": "address",
							"name": "seller",
							"type": "address"
						},
						{
							"internalType": "uint256",
							"name": "orderId",
							"type": "uint256"
						}
					],
					"name": "unlistNFT",
					"outputs": [],
					"stateMutability": "nonpayable",
					"type": "function"
				}
			],
			"devdoc": {
				"kind": "dev",
				"methods": {},
				"version": 1
			},
			"evm": {
				"assembly": "    /* \"src/contracts/NFTMarket.sol\":125:5745  contract NFTMarket {... */\n  mstore(0x40, 0x80)\n    /* \"src/contracts/NFTMarket.sol\":151:256  constructor(address _NFTAddress) {... */\n  callvalue\n  dup1\n  iszero\n  tag_1\n  jumpi\n  0x00\n  dup1\n  revert\ntag_1:\n  pop\n  mload(0x40)\n  sub(codesize, bytecodeSize)\n  dup1\n  bytecodeSize\n  dup4\n  codecopy\n  dup2\n  dup2\n  add\n  0x40\n  mstore\n  dup2\n  add\n  swap1\n  tag_2\n  swap2\n  swap1\n  tag_3\n  jump\t// in\ntag_2:\n    /* \"src/contracts/NFTMarket.sol\":208:219  _NFTAddress */\n  dup1\n    /* \"src/contracts/NFTMarket.sol\":195:205  NFTAddress */\n  0x00\n  dup1\n    /* \"src/contracts/NFTMarket.sol\":195:219  NFTAddress = _NFTAddress */\n  0x0100\n  exp\n  dup2\n  sload\n  dup2\n  0xffffffffffffffffffffffffffffffffffffffff\n  mul\n  not\n  and\n  swap1\n  dup4\n  0xffffffffffffffffffffffffffffffffffffffff\n  and\n  mul\n  or\n  swap1\n  sstore\n  pop\n    /* \"src/contracts/NFTMarket.sol\":238:248  msg.sender */\n  caller\n    /* \"src/contracts/NFTMarket.sol\":230:235  owner */\n  0x01\n  0x00\n    /* \"src/contracts/NFTMarket.sol\":230:248  owner = msg.sender */\n  0x0100\n  exp\n  dup2\n  sload\n  dup2\n  0xffffffffffffffffffffffffffffffffffffffff\n  mul\n  not\n  and\n  swap1\n  dup4\n  0xffffffffffffffffffffffffffffffffffffffff\n  and\n  mul\n  or\n  swap1\n  sstore\n  pop\n    /* \"src/contracts/NFTMarket.sol\":151:256  constructor(address _NFTAddress) {... */\n  pop\n    /* \"src/contracts/NFTMarket.sol\":125:5745  contract NFTMarket {... */\n  jump(tag_6)\n    /* \"#utility.yul\":88:205   */\ntag_8:\n    /* \"#utility.yul\":197:198   */\n  0x00\n    /* \"#utility.yul\":194:195   */\n  dup1\n    /* \"#utility.yul\":187:199   */\n  revert\n    /* \"#utility.yul\":334:460   */\ntag_10:\n    /* \"#utility.yul\":371:378   */\n  0x00\n    /* \"#utility.yul\":411:453   */\n  0xffffffffffffffffffffffffffffffffffffffff\n    /* \"#utility.yul\":404:409   */\n  dup3\n    /* \"#utility.yul\":400:454   */\n  and\n    /* \"#utility.yul\":389:454   */\n  swap1\n  pop\n    /* \"#utility.yul\":334:460   */\n  swap2\n  swap1\n  pop\n  jump\t// out\n    /* \"#utility.yul\":466:562   */\ntag_11:\n    /* \"#utility.yul\":503:510   */\n  0x00\n    /* \"#utility.yul\":532:556   */\n  tag_20\n    /* \"#utility.yul\":550:555   */\n  dup3\n    /* \"#utility.yul\":532:556   */\n  tag_10\n  jump\t// in\ntag_20:\n    /* \"#utility.yul\":521:556   */\n  swap1\n  pop\n    /* \"#utility.yul\":466:562   */\n  swap2\n  swap1\n  pop\n  jump\t// out\n    /* \"#utility.yul\":568:690   */\ntag_12:\n    /* \"#utility.yul\":641:665   */\n  tag_22\n    /* \"#utility.yul\":659:664   */\n  dup2\n    /* \"#utility.yul\":641:665   */\n  tag_11\n  jump\t// in\ntag_22:\n    /* \"#utility.yul\":634:639   */\n  dup2\n    /* \"#utility.yul\":631:666   */\n  eq\n    /* \"#utility.yul\":621:684   */\n  tag_23\n  jumpi\n    /* \"#utility.yul\":680:681   */\n  0x00\n    /* \"#utility.yul\":677:678   */\n  dup1\n    /* \"#utility.yul\":670:682   */\n  revert\n    /* \"#utility.yul\":621:684   */\ntag_23:\n    /* \"#utility.yul\":568:690   */\n  pop\n  jump\t// out\n    /* \"#utility.yul\":696:839   */\ntag_13:\n    /* \"#utility.yul\":753:758   */\n  0x00\n    /* \"#utility.yul\":784:790   */\n  dup2\n    /* \"#utility.yul\":778:791   */\n  mload\n    /* \"#utility.yul\":769:791   */\n  swap1\n  pop\n    /* \"#utility.yul\":800:833   */\n  tag_25\n    /* \"#utility.yul\":827:832   */\n  dup2\n    /* \"#utility.yul\":800:833   */\n  tag_12\n  jump\t// in\ntag_25:\n    /* \"#utility.yul\":696:839   */\n  swap3\n  swap2\n  pop\n  pop\n  jump\t// out\n    /* \"#utility.yul\":845:1196   */\ntag_3:\n    /* \"#utility.yul\":915:921   */\n  0x00\n    /* \"#utility.yul\":964:966   */\n  0x20\n    /* \"#utility.yul\":952:961   */\n  dup3\n    /* \"#utility.yul\":943:950   */\n  dup5\n    /* \"#utility.yul\":939:962   */\n  sub\n    /* \"#utility.yul\":935:967   */\n  slt\n    /* \"#utility.yul\":932:1051   */\n  iszero\n  tag_27\n  jumpi\n    /* \"#utility.yul\":970:1049   */\n  tag_28\n  tag_8\n  jump\t// in\ntag_28:\n    /* \"#utility.yul\":932:1051   */\ntag_27:\n    /* \"#utility.yul\":1090:1091   */\n  0x00\n    /* \"#utility.yul\":1115:1179   */\n  tag_29\n    /* \"#utility.yul\":1171:1178   */\n  dup5\n    /* \"#utility.yul\":1162:1168   */\n  dup3\n    /* \"#utility.yul\":1151:1160   */\n  dup6\n    /* \"#utility.yul\":1147:1169   */\n  add\n    /* \"#utility.yul\":1115:1179   */\n  tag_13\n  jump\t// in\ntag_29:\n    /* \"#utility.yul\":1105:1179   */\n  swap2\n  pop\n    /* \"#utility.yul\":1061:1189   */\n  pop\n    /* \"#utility.yul\":845:1196   */\n  swap3\n  swap2\n  pop\n  pop\n  jump\t// out\n    /* \"src/contracts/NFTMarket.sol\":125:5745  contract NFTMarket {... */\ntag_6:\n  dataSize(sub_0)\n  dup1\n  dataOffset(sub_0)\n  0x00\n  codecopy\n  0x00\n  return\nstop\n\nsub_0: assembly {\n        /* \"src/contracts/NFTMarket.sol\":125:5745  contract NFTMarket {... */\n      mstore(0x40, 0x80)\n      jumpi(tag_1, lt(calldatasize, 0x04))\n      shr(0xe0, calldataload(0x00))\n      dup1\n      0x7bea0d1c\n      gt\n      tag_13\n      jumpi\n      dup1\n      0x7bea0d1c\n      eq\n      tag_7\n      jumpi\n      dup1\n      0x7fc27efd\n      eq\n      tag_8\n      jumpi\n      dup1\n      0x8b7afe2e\n      eq\n      tag_9\n      jumpi\n      dup1\n      0xa82ba76f\n      eq\n      tag_10\n      jumpi\n      dup1\n      0xc6362a59\n      eq\n      tag_11\n      jumpi\n      dup1\n      0xdda342bb\n      eq\n      tag_12\n      jumpi\n      jump(tag_1)\n    tag_13:\n      dup1\n      0x41a6506b\n      eq\n      tag_2\n      jumpi\n      dup1\n      0x4b2b612a\n      eq\n      tag_3\n      jumpi\n      dup1\n      0x4b58ffaa\n      eq\n      tag_4\n      jumpi\n      dup1\n      0x4e9c378f\n      eq\n      tag_5\n      jumpi\n      dup1\n      0x5879e79b\n      eq\n      tag_6\n      jumpi\n    tag_1:\n      0x00\n      dup1\n      revert\n        /* \"src/contracts/NFTMarket.sol\":3366:3722  function getUserOrder(address user) public view returns (uint[] memory) {... */\n    tag_2:\n      callvalue\n      dup1\n      iszero\n      tag_14\n      jumpi\n      0x00\n      dup1\n      revert\n    tag_14:\n      pop\n      tag_15\n      0x04\n      dup1\n      calldatasize\n      sub\n      dup2\n      add\n      swap1\n      tag_16\n      swap2\n      swap1\n      tag_17\n      jump\t// in\n    tag_16:\n      tag_18\n      jump\t// in\n    tag_15:\n      mload(0x40)\n      tag_19\n      swap2\n      swap1\n      tag_20\n      jump\t// in\n    tag_19:\n      mload(0x40)\n      dup1\n      swap2\n      sub\n      swap1\n      return\n        /* \"src/contracts/NFTMarket.sol\":4223:4499  function getAllOrderIds() public view returns (uint[] memory) {... */\n    tag_3:\n      callvalue\n      dup1\n      iszero\n      tag_21\n      jumpi\n      0x00\n      dup1\n      revert\n    tag_21:\n      pop\n      tag_22\n      tag_23\n      jump\t// in\n    tag_22:\n      mload(0x40)\n      tag_24\n      swap2\n      swap1\n      tag_20\n      jump\t// in\n    tag_24:\n      mload(0x40)\n      dup1\n      swap2\n      sub\n      swap1\n      return\n        /* \"src/contracts/NFTMarket.sol\":3911:4189  function getAllListedNFTs() public view returns (uint[] memory) {... */\n    tag_4:\n      callvalue\n      dup1\n      iszero\n      tag_25\n      jumpi\n      0x00\n      dup1\n      revert\n    tag_25:\n      pop\n      tag_26\n      tag_27\n      jump\t// in\n    tag_26:\n      mload(0x40)\n      tag_28\n      swap2\n      swap1\n      tag_20\n      jump\t// in\n    tag_28:\n      mload(0x40)\n      dup1\n      swap2\n      sub\n      swap1\n      return\n        /* \"src/contracts/NFTMarket.sol\":3771:3865  function getExistAllOrder() public view returns (uint256) {... */\n    tag_5:\n      callvalue\n      dup1\n      iszero\n      tag_29\n      jumpi\n      0x00\n      dup1\n      revert\n    tag_29:\n      pop\n      tag_30\n      tag_31\n      jump\t// in\n    tag_30:\n      mload(0x40)\n      tag_32\n      swap2\n      swap1\n      tag_33\n      jump\t// in\n    tag_32:\n      mload(0x40)\n      dup1\n      swap2\n      sub\n      swap1\n      return\n        /* \"src/contracts/NFTMarket.sol\":4842:5740  function getOrdersByPage(uint page, uint pageSize) public view returns (Order[] memory) {... */\n    tag_6:\n      callvalue\n      dup1\n      iszero\n      tag_34\n      jumpi\n      0x00\n      dup1\n      revert\n    tag_34:\n      pop\n      tag_35\n      0x04\n      dup1\n      calldatasize\n      sub\n      dup2\n      add\n      swap1\n      tag_36\n      swap2\n      swap1\n      tag_37\n      jump\t// in\n    tag_36:\n      tag_38\n      jump\t// in\n    tag_35:\n      mload(0x40)\n      tag_39\n      swap2\n      swap1\n      tag_40\n      jump\t// in\n    tag_39:\n      mload(0x40)\n      dup1\n      swap2\n      sub\n      swap1\n      return\n        /* \"src/contracts/NFTMarket.sol\":4542:4799  function getAllOrders() public view returns (Order[] memory) {... */\n    tag_7:\n      callvalue\n      dup1\n      iszero\n      tag_41\n      jumpi\n      0x00\n      dup1\n      revert\n    tag_41:\n      pop\n      tag_42\n      tag_43\n      jump\t// in\n    tag_42:\n      mload(0x40)\n      tag_44\n      swap2\n      swap1\n      tag_40\n      jump\t// in\n    tag_44:\n      mload(0x40)\n      dup1\n      swap2\n      sub\n      swap1\n      return\n        /* \"src/contracts/NFTMarket.sol\":2657:2986  function unlistNFT(address seller,uint orderId) public onlyOwner{... */\n    tag_8:\n      callvalue\n      dup1\n      iszero\n      tag_45\n      jumpi\n      0x00\n      dup1\n      revert\n    tag_45:\n      pop\n      tag_46\n      0x04\n      dup1\n      calldatasize\n      sub\n      dup2\n      add\n      swap1\n      tag_47\n      swap2\n      swap1\n      tag_48\n      jump\t// in\n    tag_47:\n      tag_49\n      jump\t// in\n    tag_46:\n      stop\n        /* \"src/contracts/NFTMarket.sol\":313:343  uint256 public contractBalance */\n    tag_9:\n      callvalue\n      dup1\n      iszero\n      tag_50\n      jumpi\n      0x00\n      dup1\n      revert\n    tag_50:\n      pop\n      tag_51\n      tag_52\n      jump\t// in\n    tag_51:\n      mload(0x40)\n      tag_53\n      swap2\n      swap1\n      tag_33\n      jump\t// in\n    tag_53:\n      mload(0x40)\n      dup1\n      swap2\n      sub\n      swap1\n      return\n        /* \"src/contracts/NFTMarket.sol\":1378:1959  function buyNFT(address buyer, uint orderId) public payable onlyOwner{... */\n    tag_10:\n      tag_54\n      0x04\n      dup1\n      calldatasize\n      sub\n      dup2\n      add\n      swap1\n      tag_55\n      swap2\n      swap1\n      tag_48\n      jump\t// in\n    tag_55:\n      tag_56\n      jump\t// in\n    tag_54:\n      stop\n        /* \"src/contracts/NFTMarket.sol\":3039:3307  function getorderData(... */\n    tag_11:\n      callvalue\n      dup1\n      iszero\n      tag_57\n      jumpi\n      0x00\n      dup1\n      revert\n    tag_57:\n      pop\n      tag_58\n      0x04\n      dup1\n      calldatasize\n      sub\n      dup2\n      add\n      swap1\n      tag_59\n      swap2\n      swap1\n      tag_60\n      jump\t// in\n    tag_59:\n      tag_61\n      jump\t// in\n    tag_58:\n      mload(0x40)\n      tag_62\n      swap4\n      swap3\n      swap2\n      swap1\n      tag_63\n      jump\t// in\n    tag_62:\n      mload(0x40)\n      dup1\n      swap2\n      sub\n      swap1\n      return\n        /* \"src/contracts/NFTMarket.sol\":912:1353  function list(address seller, uint price, uint tokenId) public onlyOwner{... */\n    tag_12:\n      callvalue\n      dup1\n      iszero\n      tag_64\n      jumpi\n      0x00\n      dup1\n      revert\n    tag_64:\n      pop\n      tag_65\n      0x04\n      dup1\n      calldatasize\n      sub\n      dup2\n      add\n      swap1\n      tag_66\n      swap2\n      swap1\n      tag_67\n      jump\t// in\n    tag_66:\n      tag_68\n      jump\t// in\n    tag_65:\n      stop\n        /* \"src/contracts/NFTMarket.sol\":3366:3722  function getUserOrder(address user) public view returns (uint[] memory) {... */\n    tag_18:\n        /* \"src/contracts/NFTMarket.sol\":3423:3436  uint[] memory */\n      0x60\n        /* \"src/contracts/NFTMarket.sol\":3449:3469  uint userTotalOrders */\n      0x00\n        /* \"src/contracts/NFTMarket.sol\":3472:3486  userTotalOrder */\n      0x06\n        /* \"src/contracts/NFTMarket.sol\":3472:3492  userTotalOrder[user] */\n      0x00\n        /* \"src/contracts/NFTMarket.sol\":3487:3491  user */\n      dup5\n        /* \"src/contracts/NFTMarket.sol\":3472:3492  userTotalOrder[user] */\n      0xffffffffffffffffffffffffffffffffffffffff\n      and\n      0xffffffffffffffffffffffffffffffffffffffff\n      and\n      dup2\n      mstore\n      0x20\n      add\n      swap1\n      dup2\n      mstore\n      0x20\n      add\n      0x00\n      keccak256\n      sload\n        /* \"src/contracts/NFTMarket.sol\":3449:3492  uint userTotalOrders = userTotalOrder[user] */\n      swap1\n      pop\n        /* \"src/contracts/NFTMarket.sol\":3503:3523  uint[] memory orders */\n      0x00\n        /* \"src/contracts/NFTMarket.sol\":3537:3552  userTotalOrders */\n      dup2\n        /* \"src/contracts/NFTMarket.sol\":3526:3553  new uint[](userTotalOrders) */\n      0xffffffffffffffff\n      dup2\n      gt\n      iszero\n      tag_70\n      jumpi\n      tag_71\n      tag_72\n      jump\t// in\n    tag_71:\n    tag_70:\n      mload(0x40)\n      swap1\n      dup1\n      dup3\n      mstore\n      dup1\n      0x20\n      mul\n      0x20\n      add\n      dup3\n      add\n      0x40\n      mstore\n      dup1\n      iszero\n      tag_73\n      jumpi\n      dup2\n      0x20\n      add\n      0x20\n      dup3\n      mul\n      dup1\n      calldatasize\n      dup4\n      calldatacopy\n      dup1\n      dup3\n      add\n      swap2\n      pop\n      pop\n      swap1\n      pop\n    tag_73:\n      pop\n        /* \"src/contracts/NFTMarket.sol\":3503:3553  uint[] memory orders = new uint[](userTotalOrders) */\n      swap1\n      pop\n        /* \"src/contracts/NFTMarket.sol\":3569:3582  uint256 index */\n      0x00\n        /* \"src/contracts/NFTMarket.sol\":3564:3691  for (uint256 index = 0; index < userTotalOrders; index++) {... */\n    tag_74:\n        /* \"src/contracts/NFTMarket.sol\":3596:3611  userTotalOrders */\n      dup3\n        /* \"src/contracts/NFTMarket.sol\":3588:3593  index */\n      dup2\n        /* \"src/contracts/NFTMarket.sol\":3588:3611  index < userTotalOrders */\n      lt\n        /* \"src/contracts/NFTMarket.sol\":3564:3691  for (uint256 index = 0; index < userTotalOrders; index++) {... */\n      iszero\n      tag_75\n      jumpi\n        /* \"src/contracts/NFTMarket.sol\":3653:3662  userOrder */\n      0x05\n        /* \"src/contracts/NFTMarket.sol\":3653:3668  userOrder[user] */\n      0x00\n        /* \"src/contracts/NFTMarket.sol\":3663:3667  user */\n      dup7\n        /* \"src/contracts/NFTMarket.sol\":3653:3668  userOrder[user] */\n      0xffffffffffffffffffffffffffffffffffffffff\n      and\n      0xffffffffffffffffffffffffffffffffffffffff\n      and\n      dup2\n      mstore\n      0x20\n      add\n      swap1\n      dup2\n      mstore\n      0x20\n      add\n      0x00\n      keccak256\n        /* \"src/contracts/NFTMarket.sol\":3653:3679  userOrder[user][index + 1] */\n      0x00\n        /* \"src/contracts/NFTMarket.sol\":3677:3678  1 */\n      0x01\n        /* \"src/contracts/NFTMarket.sol\":3669:3674  index */\n      dup4\n        /* \"src/contracts/NFTMarket.sol\":3669:3678  index + 1 */\n      tag_77\n      swap2\n      swap1\n      tag_78\n      jump\t// in\n    tag_77:\n        /* \"src/contracts/NFTMarket.sol\":3653:3679  userOrder[user][index + 1] */\n      dup2\n      mstore\n      0x20\n      add\n      swap1\n      dup2\n      mstore\n      0x20\n      add\n      0x00\n      keccak256\n      sload\n        /* \"src/contracts/NFTMarket.sol\":3637:3643  orders */\n      dup3\n        /* \"src/contracts/NFTMarket.sol\":3644:3649  index */\n      dup3\n        /* \"src/contracts/NFTMarket.sol\":3637:3650  orders[index] */\n      dup2\n      mload\n      dup2\n      lt\n      tag_79\n      jumpi\n      tag_80\n      tag_81\n      jump\t// in\n    tag_80:\n    tag_79:\n      0x20\n      mul\n      0x20\n      add\n      add\n        /* \"src/contracts/NFTMarket.sol\":3637:3679  orders[index] = userOrder[user][index + 1] */\n      dup2\n      dup2\n      mstore\n      pop\n      pop\n        /* \"src/contracts/NFTMarket.sol\":3613:3620  index++ */\n      dup1\n      dup1\n      0x01\n      add\n      swap2\n      pop\n      pop\n        /* \"src/contracts/NFTMarket.sol\":3564:3691  for (uint256 index = 0; index < userTotalOrders; index++) {... */\n      jump(tag_74)\n    tag_75:\n      pop\n        /* \"src/contracts/NFTMarket.sol\":3708:3714  orders */\n      dup1\n        /* \"src/contracts/NFTMarket.sol\":3701:3714  return orders */\n      swap3\n      pop\n      pop\n      pop\n        /* \"src/contracts/NFTMarket.sol\":3366:3722  function getUserOrder(address user) public view returns (uint[] memory) {... */\n      swap2\n      swap1\n      pop\n      jump\t// out\n        /* \"src/contracts/NFTMarket.sol\":4223:4499  function getAllOrderIds() public view returns (uint[] memory) {... */\n    tag_23:\n        /* \"src/contracts/NFTMarket.sol\":4270:4283  uint[] memory */\n      0x60\n        /* \"src/contracts/NFTMarket.sol\":4296:4318  uint[] memory orderIds */\n      0x00\n        /* \"src/contracts/NFTMarket.sol\":4332:4342  totalOrder */\n      sload(0x07)\n        /* \"src/contracts/NFTMarket.sol\":4321:4343  new uint[](totalOrder) */\n      0xffffffffffffffff\n      dup2\n      gt\n      iszero\n      tag_83\n      jumpi\n      tag_84\n      tag_72\n      jump\t// in\n    tag_84:\n    tag_83:\n      mload(0x40)\n      swap1\n      dup1\n      dup3\n      mstore\n      dup1\n      0x20\n      mul\n      0x20\n      add\n      dup3\n      add\n      0x40\n      mstore\n      dup1\n      iszero\n      tag_85\n      jumpi\n      dup2\n      0x20\n      add\n      0x20\n      dup3\n      mul\n      dup1\n      calldatasize\n      dup4\n      calldatacopy\n      dup1\n      dup3\n      add\n      swap2\n      pop\n      pop\n      swap1\n      pop\n    tag_85:\n      pop\n        /* \"src/contracts/NFTMarket.sol\":4296:4343  uint[] memory orderIds = new uint[](totalOrder) */\n      swap1\n      pop\n        /* \"src/contracts/NFTMarket.sol\":4359:4368  uint256 i */\n      0x00\n        /* \"src/contracts/NFTMarket.sol\":4371:4372  1 */\n      0x01\n        /* \"src/contracts/NFTMarket.sol\":4359:4372  uint256 i = 1 */\n      swap1\n      pop\n        /* \"src/contracts/NFTMarket.sol\":4354:4460  for (uint256 i = 1; i <= totalOrder; i++) {... */\n    tag_86:\n        /* \"src/contracts/NFTMarket.sol\":4379:4389  totalOrder */\n      sload(0x07)\n        /* \"src/contracts/NFTMarket.sol\":4374:4375  i */\n      dup2\n        /* \"src/contracts/NFTMarket.sol\":4374:4389  i <= totalOrder */\n      gt\n        /* \"src/contracts/NFTMarket.sol\":4354:4460  for (uint256 i = 1; i <= totalOrder; i++) {... */\n      tag_87\n      jumpi\n        /* \"src/contracts/NFTMarket.sol\":4429:4437  allOrder */\n      0x04\n        /* \"src/contracts/NFTMarket.sol\":4429:4440  allOrder[i] */\n      0x00\n        /* \"src/contracts/NFTMarket.sol\":4438:4439  i */\n      dup3\n        /* \"src/contracts/NFTMarket.sol\":4429:4440  allOrder[i] */\n      dup2\n      mstore\n      0x20\n      add\n      swap1\n      dup2\n      mstore\n      0x20\n      add\n      0x00\n      keccak256\n        /* \"src/contracts/NFTMarket.sol\":4429:4448  allOrder[i].orderId */\n      0x00\n      add\n      sload\n        /* \"src/contracts/NFTMarket.sol\":4411:4419  orderIds */\n      dup3\n        /* \"src/contracts/NFTMarket.sol\":4424:4425  1 */\n      0x01\n        /* \"src/contracts/NFTMarket.sol\":4420:4421  i */\n      dup4\n        /* \"src/contracts/NFTMarket.sol\":4420:4425  i - 1 */\n      tag_89\n      swap2\n      swap1\n      tag_90\n      jump\t// in\n    tag_89:\n        /* \"src/contracts/NFTMarket.sol\":4411:4426  orderIds[i - 1] */\n      dup2\n      mload\n      dup2\n      lt\n      tag_91\n      jumpi\n      tag_92\n      tag_81\n      jump\t// in\n    tag_92:\n    tag_91:\n      0x20\n      mul\n      0x20\n      add\n      add\n        /* \"src/contracts/NFTMarket.sol\":4411:4448  orderIds[i - 1] = allOrder[i].orderId */\n      dup2\n      dup2\n      mstore\n      pop\n      pop\n        /* \"src/contracts/NFTMarket.sol\":4391:4394  i++ */\n      dup1\n      dup1\n      tag_93\n      swap1\n      tag_94\n      jump\t// in\n    tag_93:\n      swap2\n      pop\n      pop\n        /* \"src/contracts/NFTMarket.sol\":4354:4460  for (uint256 i = 1; i <= totalOrder; i++) {... */\n      jump(tag_86)\n    tag_87:\n      pop\n        /* \"src/contracts/NFTMarket.sol\":4477:4485  orderIds */\n      dup1\n        /* \"src/contracts/NFTMarket.sol\":4470:4485  return orderIds */\n      swap2\n      pop\n      pop\n        /* \"src/contracts/NFTMarket.sol\":4223:4499  function getAllOrderIds() public view returns (uint[] memory) {... */\n      swap1\n      jump\t// out\n        /* \"src/contracts/NFTMarket.sol\":3911:4189  function getAllListedNFTs() public view returns (uint[] memory) {... */\n    tag_27:\n        /* \"src/contracts/NFTMarket.sol\":3960:3973  uint[] memory */\n      0x60\n        /* \"src/contracts/NFTMarket.sol\":3986:4008  uint[] memory orderIds */\n      0x00\n        /* \"src/contracts/NFTMarket.sol\":4022:4032  totalOrder */\n      sload(0x07)\n        /* \"src/contracts/NFTMarket.sol\":4011:4033  new uint[](totalOrder) */\n      0xffffffffffffffff\n      dup2\n      gt\n      iszero\n      tag_96\n      jumpi\n      tag_97\n      tag_72\n      jump\t// in\n    tag_97:\n    tag_96:\n      mload(0x40)\n      swap1\n      dup1\n      dup3\n      mstore\n      dup1\n      0x20\n      mul\n      0x20\n      add\n      dup3\n      add\n      0x40\n      mstore\n      dup1\n      iszero\n      tag_98\n      jumpi\n      dup2\n      0x20\n      add\n      0x20\n      dup3\n      mul\n      dup1\n      calldatasize\n      dup4\n      calldatacopy\n      dup1\n      dup3\n      add\n      swap2\n      pop\n      pop\n      swap1\n      pop\n    tag_98:\n      pop\n        /* \"src/contracts/NFTMarket.sol\":3986:4033  uint[] memory orderIds = new uint[](totalOrder) */\n      swap1\n      pop\n        /* \"src/contracts/NFTMarket.sol\":4049:4058  uint256 i */\n      0x00\n        /* \"src/contracts/NFTMarket.sol\":4061:4062  1 */\n      0x01\n        /* \"src/contracts/NFTMarket.sol\":4049:4062  uint256 i = 1 */\n      swap1\n      pop\n        /* \"src/contracts/NFTMarket.sol\":4044:4150  for (uint256 i = 1; i <= totalOrder; i++) {... */\n    tag_99:\n        /* \"src/contracts/NFTMarket.sol\":4069:4079  totalOrder */\n      sload(0x07)\n        /* \"src/contracts/NFTMarket.sol\":4064:4065  i */\n      dup2\n        /* \"src/contracts/NFTMarket.sol\":4064:4079  i <= totalOrder */\n      gt\n        /* \"src/contracts/NFTMarket.sol\":4044:4150  for (uint256 i = 1; i <= totalOrder; i++) {... */\n      tag_100\n      jumpi\n        /* \"src/contracts/NFTMarket.sol\":4119:4127  allOrder */\n      0x04\n        /* \"src/contracts/NFTMarket.sol\":4119:4130  allOrder[i] */\n      0x00\n        /* \"src/contracts/NFTMarket.sol\":4128:4129  i */\n      dup3\n        /* \"src/contracts/NFTMarket.sol\":4119:4130  allOrder[i] */\n      dup2\n      mstore\n      0x20\n      add\n      swap1\n      dup2\n      mstore\n      0x20\n      add\n      0x00\n      keccak256\n        /* \"src/contracts/NFTMarket.sol\":4119:4138  allOrder[i].tokenId */\n      0x01\n      add\n      sload\n        /* \"src/contracts/NFTMarket.sol\":4101:4109  orderIds */\n      dup3\n        /* \"src/contracts/NFTMarket.sol\":4114:4115  1 */\n      0x01\n        /* \"src/contracts/NFTMarket.sol\":4110:4111  i */\n      dup4\n        /* \"src/contracts/NFTMarket.sol\":4110:4115  i - 1 */\n      tag_102\n      swap2\n      swap1\n      tag_90\n      jump\t// in\n    tag_102:\n        /* \"src/contracts/NFTMarket.sol\":4101:4116  orderIds[i - 1] */\n      dup2\n      mload\n      dup2\n      lt\n      tag_103\n      jumpi\n      tag_104\n      tag_81\n      jump\t// in\n    tag_104:\n    tag_103:\n      0x20\n      mul\n      0x20\n      add\n      add\n        /* \"src/contracts/NFTMarket.sol\":4101:4138  orderIds[i - 1] = allOrder[i].tokenId */\n      dup2\n      dup2\n      mstore\n      pop\n      pop\n        /* \"src/contracts/NFTMarket.sol\":4081:4084  i++ */\n      dup1\n      dup1\n      tag_105\n      swap1\n      tag_94\n      jump\t// in\n    tag_105:\n      swap2\n      pop\n      pop\n        /* \"src/contracts/NFTMarket.sol\":4044:4150  for (uint256 i = 1; i <= totalOrder; i++) {... */\n      jump(tag_99)\n    tag_100:\n      pop\n        /* \"src/contracts/NFTMarket.sol\":4167:4175  orderIds */\n      dup1\n        /* \"src/contracts/NFTMarket.sol\":4160:4175  return orderIds */\n      swap2\n      pop\n      pop\n        /* \"src/contracts/NFTMarket.sol\":3911:4189  function getAllListedNFTs() public view returns (uint[] memory) {... */\n      swap1\n      jump\t// out\n        /* \"src/contracts/NFTMarket.sol\":3771:3865  function getExistAllOrder() public view returns (uint256) {... */\n    tag_31:\n        /* \"src/contracts/NFTMarket.sol\":3820:3827  uint256 */\n      0x00\n        /* \"src/contracts/NFTMarket.sol\":3847:3857  totalOrder */\n      sload(0x07)\n        /* \"src/contracts/NFTMarket.sol\":3840:3857  return totalOrder */\n      swap1\n      pop\n        /* \"src/contracts/NFTMarket.sol\":3771:3865  function getExistAllOrder() public view returns (uint256) {... */\n      swap1\n      jump\t// out\n        /* \"src/contracts/NFTMarket.sol\":4842:5740  function getOrdersByPage(uint page, uint pageSize) public view returns (Order[] memory) {... */\n    tag_38:\n        /* \"src/contracts/NFTMarket.sol\":4914:4928  Order[] memory */\n      0x60\n        /* \"src/contracts/NFTMarket.sol\":4956:4957  0 */\n      0x00\n        /* \"src/contracts/NFTMarket.sol\":4949:4953  page */\n      dup4\n        /* \"src/contracts/NFTMarket.sol\":4949:4957  page > 0 */\n      gt\n        /* \"src/contracts/NFTMarket.sol\":4941:4998  require(page > 0, \"Page number should be greater than 0\") */\n      tag_108\n      jumpi\n      mload(0x40)\n      0x08c379a000000000000000000000000000000000000000000000000000000000\n      dup2\n      mstore\n      0x04\n      add\n      tag_109\n      swap1\n      tag_110\n      jump\t// in\n    tag_109:\n      mload(0x40)\n      dup1\n      swap2\n      sub\n      swap1\n      revert\n    tag_108:\n        /* \"src/contracts/NFTMarket.sol\":5028:5029  0 */\n      0x00\n        /* \"src/contracts/NFTMarket.sol\":5017:5025  pageSize */\n      dup3\n        /* \"src/contracts/NFTMarket.sol\":5017:5029  pageSize > 0 */\n      gt\n        /* \"src/contracts/NFTMarket.sol\":5009:5068  require(pageSize > 0, \"Page size should be greater than 0\") */\n      tag_111\n      jumpi\n      mload(0x40)\n      0x08c379a000000000000000000000000000000000000000000000000000000000\n      dup2\n      mstore\n      0x04\n      add\n      tag_112\n      swap1\n      tag_113\n      jump\t// in\n    tag_112:\n      mload(0x40)\n      dup1\n      swap2\n      sub\n      swap1\n      revert\n    tag_111:\n        /* \"src/contracts/NFTMarket.sol\":5081:5096  uint startIndex */\n      0x00\n        /* \"src/contracts/NFTMarket.sol\":5123:5124  1 */\n      0x01\n        /* \"src/contracts/NFTMarket.sol\":5112:5120  pageSize */\n      dup4\n        /* \"src/contracts/NFTMarket.sol\":5107:5108  1 */\n      0x01\n        /* \"src/contracts/NFTMarket.sol\":5100:5104  page */\n      dup7\n        /* \"src/contracts/NFTMarket.sol\":5100:5108  page - 1 */\n      tag_114\n      swap2\n      swap1\n      tag_90\n      jump\t// in\n    tag_114:\n        /* \"src/contracts/NFTMarket.sol\":5099:5120  (page - 1) * pageSize */\n      tag_115\n      swap2\n      swap1\n      tag_116\n      jump\t// in\n    tag_115:\n        /* \"src/contracts/NFTMarket.sol\":5099:5124  (page - 1) * pageSize + 1 */\n      tag_117\n      swap2\n      swap1\n      tag_78\n      jump\t// in\n    tag_117:\n        /* \"src/contracts/NFTMarket.sol\":5081:5124  uint startIndex = (page - 1) * pageSize + 1 */\n      swap1\n      pop\n        /* \"src/contracts/NFTMarket.sol\":5135:5148  uint endIndex */\n      0x00\n        /* \"src/contracts/NFTMarket.sol\":5158:5166  pageSize */\n      dup4\n        /* \"src/contracts/NFTMarket.sol\":5151:5155  page */\n      dup6\n        /* \"src/contracts/NFTMarket.sol\":5151:5166  page * pageSize */\n      tag_118\n      swap2\n      swap1\n      tag_116\n      jump\t// in\n    tag_118:\n        /* \"src/contracts/NFTMarket.sol\":5135:5166  uint endIndex = page * pageSize */\n      swap1\n      pop\n        /* \"src/contracts/NFTMarket.sol\":5270:5280  totalOrder */\n      sload(0x07)\n        /* \"src/contracts/NFTMarket.sol\":5257:5267  startIndex */\n      dup3\n        /* \"src/contracts/NFTMarket.sol\":5257:5280  startIndex < totalOrder */\n      lt\n        /* \"src/contracts/NFTMarket.sol\":5249:5325  require(startIndex < totalOrder, \"page should less than total Order number\") */\n      tag_119\n      jumpi\n      mload(0x40)\n      0x08c379a000000000000000000000000000000000000000000000000000000000\n      dup2\n      mstore\n      0x04\n      add\n      tag_120\n      swap1\n      tag_121\n      jump\t// in\n    tag_120:\n      mload(0x40)\n      dup1\n      swap2\n      sub\n      swap1\n      revert\n    tag_119:\n        /* \"src/contracts/NFTMarket.sol\":5429:5439  totalOrder */\n      sload(0x07)\n        /* \"src/contracts/NFTMarket.sol\":5418:5426  endIndex */\n      dup2\n        /* \"src/contracts/NFTMarket.sol\":5418:5439  endIndex > totalOrder */\n      gt\n        /* \"src/contracts/NFTMarket.sol\":5414:5489  if (endIndex > totalOrder) {... */\n      iszero\n      tag_122\n      jumpi\n        /* \"src/contracts/NFTMarket.sol\":5467:5477  totalOrder */\n      sload(0x07)\n        /* \"src/contracts/NFTMarket.sol\":5456:5477  endIndex = totalOrder */\n      swap1\n      pop\n        /* \"src/contracts/NFTMarket.sol\":5414:5489  if (endIndex > totalOrder) {... */\n    tag_122:\n        /* \"src/contracts/NFTMarket.sol\":5501:5512  uint length */\n      0x00\n        /* \"src/contracts/NFTMarket.sol\":5539:5540  1 */\n      0x01\n        /* \"src/contracts/NFTMarket.sol\":5526:5536  startIndex */\n      dup4\n        /* \"src/contracts/NFTMarket.sol\":5515:5523  endIndex */\n      dup4\n        /* \"src/contracts/NFTMarket.sol\":5515:5536  endIndex - startIndex */\n      tag_123\n      swap2\n      swap1\n      tag_90\n      jump\t// in\n    tag_123:\n        /* \"src/contracts/NFTMarket.sol\":5515:5540  endIndex - startIndex + 1 */\n      tag_124\n      swap2\n      swap1\n      tag_78\n      jump\t// in\n    tag_124:\n        /* \"src/contracts/NFTMarket.sol\":5501:5540  uint length = endIndex - startIndex + 1 */\n      swap1\n      pop\n        /* \"src/contracts/NFTMarket.sol\":5551:5572  Order[] memory orders */\n      0x00\n        /* \"src/contracts/NFTMarket.sol\":5587:5593  length */\n      dup2\n        /* \"src/contracts/NFTMarket.sol\":5575:5594  new Order[](length) */\n      0xffffffffffffffff\n      dup2\n      gt\n      iszero\n      tag_125\n      jumpi\n      tag_126\n      tag_72\n      jump\t// in\n    tag_126:\n    tag_125:\n      mload(0x40)\n      swap1\n      dup1\n      dup3\n      mstore\n      dup1\n      0x20\n      mul\n      0x20\n      add\n      dup3\n      add\n      0x40\n      mstore\n      dup1\n      iszero\n      tag_127\n      jumpi\n      dup2\n      0x20\n      add\n    tag_128:\n      tag_129\n      tag_130\n      jump\t// in\n    tag_129:\n      dup2\n      mstore\n      0x20\n      add\n      swap1\n      0x01\n      swap1\n      sub\n      swap1\n      dup2\n      tag_128\n      jumpi\n      swap1\n      pop\n    tag_127:\n      pop\n        /* \"src/contracts/NFTMarket.sol\":5551:5594  Order[] memory orders = new Order[](length) */\n      swap1\n      pop\n        /* \"src/contracts/NFTMarket.sol\":5612:5621  uint256 i */\n      0x00\n        /* \"src/contracts/NFTMarket.sol\":5607:5707  for (uint256 i = 0; i < length; i++) {... */\n    tag_131:\n        /* \"src/contracts/NFTMarket.sol\":5631:5637  length */\n      dup3\n        /* \"src/contracts/NFTMarket.sol\":5627:5628  i */\n      dup2\n        /* \"src/contracts/NFTMarket.sol\":5627:5637  i < length */\n      lt\n        /* \"src/contracts/NFTMarket.sol\":5607:5707  for (uint256 i = 0; i < length; i++) {... */\n      iszero\n      tag_132\n      jumpi\n        /* \"src/contracts/NFTMarket.sol\":5671:5679  allOrder */\n      0x04\n        /* \"src/contracts/NFTMarket.sol\":5671:5695  allOrder[startIndex + i] */\n      0x00\n        /* \"src/contracts/NFTMarket.sol\":5693:5694  i */\n      dup3\n        /* \"src/contracts/NFTMarket.sol\":5680:5690  startIndex */\n      dup8\n        /* \"src/contracts/NFTMarket.sol\":5680:5694  startIndex + i */\n      tag_134\n      swap2\n      swap1\n      tag_78\n      jump\t// in\n    tag_134:\n        /* \"src/contracts/NFTMarket.sol\":5671:5695  allOrder[startIndex + i] */\n      dup2\n      mstore\n      0x20\n      add\n      swap1\n      dup2\n      mstore\n      0x20\n      add\n      0x00\n      keccak256\n        /* \"src/contracts/NFTMarket.sol\":5659:5695  orders[i] = allOrder[startIndex + i] */\n      mload(0x40)\n      dup1\n      0x80\n      add\n      0x40\n      mstore\n      swap1\n      dup2\n      0x00\n      dup3\n      add\n      sload\n      dup2\n      mstore\n      0x20\n      add\n      0x01\n      dup3\n      add\n      sload\n      dup2\n      mstore\n      0x20\n      add\n      0x02\n      dup3\n      add\n      0x00\n      swap1\n      sload\n      swap1\n      0x0100\n      exp\n      swap1\n      div\n      0xffffffffffffffffffffffffffffffffffffffff\n      and\n      0xffffffffffffffffffffffffffffffffffffffff\n      and\n      0xffffffffffffffffffffffffffffffffffffffff\n      and\n      dup2\n      mstore\n      0x20\n      add\n      0x03\n      dup3\n      add\n      sload\n      dup2\n      mstore\n      pop\n      pop\n        /* \"src/contracts/NFTMarket.sol\":5659:5665  orders */\n      dup3\n        /* \"src/contracts/NFTMarket.sol\":5666:5667  i */\n      dup3\n        /* \"src/contracts/NFTMarket.sol\":5659:5668  orders[i] */\n      dup2\n      mload\n      dup2\n      lt\n      tag_135\n      jumpi\n      tag_136\n      tag_81\n      jump\t// in\n    tag_136:\n    tag_135:\n      0x20\n      mul\n      0x20\n      add\n      add\n        /* \"src/contracts/NFTMarket.sol\":5659:5695  orders[i] = allOrder[startIndex + i] */\n      dup2\n      swap1\n      mstore\n      pop\n        /* \"src/contracts/NFTMarket.sol\":5639:5642  i++ */\n      dup1\n      dup1\n      0x01\n      add\n      swap2\n      pop\n      pop\n        /* \"src/contracts/NFTMarket.sol\":5607:5707  for (uint256 i = 0; i < length; i++) {... */\n      jump(tag_131)\n    tag_132:\n      pop\n        /* \"src/contracts/NFTMarket.sol\":5726:5732  orders */\n      dup1\n        /* \"src/contracts/NFTMarket.sol\":5719:5732  return orders */\n      swap5\n      pop\n      pop\n      pop\n      pop\n      pop\n        /* \"src/contracts/NFTMarket.sol\":4842:5740  function getOrdersByPage(uint page, uint pageSize) public view returns (Order[] memory) {... */\n      swap3\n      swap2\n      pop\n      pop\n      jump\t// out\n        /* \"src/contracts/NFTMarket.sol\":4542:4799  function getAllOrders() public view returns (Order[] memory) {... */\n    tag_43:\n        /* \"src/contracts/NFTMarket.sol\":4587:4601  Order[] memory */\n      0x60\n        /* \"src/contracts/NFTMarket.sol\":4614:4635  Order[] memory orders */\n      0x00\n        /* \"src/contracts/NFTMarket.sol\":4650:4660  totalOrder */\n      sload(0x07)\n        /* \"src/contracts/NFTMarket.sol\":4638:4661  new Order[](totalOrder) */\n      0xffffffffffffffff\n      dup2\n      gt\n      iszero\n      tag_138\n      jumpi\n      tag_139\n      tag_72\n      jump\t// in\n    tag_139:\n    tag_138:\n      mload(0x40)\n      swap1\n      dup1\n      dup3\n      mstore\n      dup1\n      0x20\n      mul\n      0x20\n      add\n      dup3\n      add\n      0x40\n      mstore\n      dup1\n      iszero\n      tag_140\n      jumpi\n      dup2\n      0x20\n      add\n    tag_141:\n      tag_142\n      tag_130\n      jump\t// in\n    tag_142:\n      dup2\n      mstore\n      0x20\n      add\n      swap1\n      0x01\n      swap1\n      sub\n      swap1\n      dup2\n      tag_141\n      jumpi\n      swap1\n      pop\n    tag_140:\n      pop\n        /* \"src/contracts/NFTMarket.sol\":4614:4661  Order[] memory orders = new Order[](totalOrder) */\n      swap1\n      pop\n        /* \"src/contracts/NFTMarket.sol\":4677:4686  uint256 i */\n      0x00\n        /* \"src/contracts/NFTMarket.sol\":4689:4690  1 */\n      0x01\n        /* \"src/contracts/NFTMarket.sol\":4677:4690  uint256 i = 1 */\n      swap1\n      pop\n        /* \"src/contracts/NFTMarket.sol\":4672:4768  for (uint256 i = 1; i <= totalOrder; i++) {... */\n    tag_143:\n        /* \"src/contracts/NFTMarket.sol\":4697:4707  totalOrder */\n      sload(0x07)\n        /* \"src/contracts/NFTMarket.sol\":4692:4693  i */\n      dup2\n        /* \"src/contracts/NFTMarket.sol\":4692:4707  i <= totalOrder */\n      gt\n        /* \"src/contracts/NFTMarket.sol\":4672:4768  for (uint256 i = 1; i <= totalOrder; i++) {... */\n      tag_144\n      jumpi\n        /* \"src/contracts/NFTMarket.sol\":4745:4753  allOrder */\n      0x04\n        /* \"src/contracts/NFTMarket.sol\":4745:4756  allOrder[i] */\n      0x00\n        /* \"src/contracts/NFTMarket.sol\":4754:4755  i */\n      dup3\n        /* \"src/contracts/NFTMarket.sol\":4745:4756  allOrder[i] */\n      dup2\n      mstore\n      0x20\n      add\n      swap1\n      dup2\n      mstore\n      0x20\n      add\n      0x00\n      keccak256\n        /* \"src/contracts/NFTMarket.sol\":4729:4756  orders[i - 1] = allOrder[i] */\n      mload(0x40)\n      dup1\n      0x80\n      add\n      0x40\n      mstore\n      swap1\n      dup2\n      0x00\n      dup3\n      add\n      sload\n      dup2\n      mstore\n      0x20\n      add\n      0x01\n      dup3\n      add\n      sload\n      dup2\n      mstore\n      0x20\n      add\n      0x02\n      dup3\n      add\n      0x00\n      swap1\n      sload\n      swap1\n      0x0100\n      exp\n      swap1\n      div\n      0xffffffffffffffffffffffffffffffffffffffff\n      and\n      0xffffffffffffffffffffffffffffffffffffffff\n      and\n      0xffffffffffffffffffffffffffffffffffffffff\n      and\n      dup2\n      mstore\n      0x20\n      add\n      0x03\n      dup3\n      add\n      sload\n      dup2\n      mstore\n      pop\n      pop\n        /* \"src/contracts/NFTMarket.sol\":4729:4735  orders */\n      dup3\n        /* \"src/contracts/NFTMarket.sol\":4740:4741  1 */\n      0x01\n        /* \"src/contracts/NFTMarket.sol\":4736:4737  i */\n      dup4\n        /* \"src/contracts/NFTMarket.sol\":4736:4741  i - 1 */\n      tag_146\n      swap2\n      swap1\n      tag_90\n      jump\t// in\n    tag_146:\n        /* \"src/contracts/NFTMarket.sol\":4729:4742  orders[i - 1] */\n      dup2\n      mload\n      dup2\n      lt\n      tag_147\n      jumpi\n      tag_148\n      tag_81\n      jump\t// in\n    tag_148:\n    tag_147:\n      0x20\n      mul\n      0x20\n      add\n      add\n        /* \"src/contracts/NFTMarket.sol\":4729:4756  orders[i - 1] = allOrder[i] */\n      dup2\n      swap1\n      mstore\n      pop\n        /* \"src/contracts/NFTMarket.sol\":4709:4712  i++ */\n      dup1\n      dup1\n      tag_149\n      swap1\n      tag_94\n      jump\t// in\n    tag_149:\n      swap2\n      pop\n      pop\n        /* \"src/contracts/NFTMarket.sol\":4672:4768  for (uint256 i = 1; i <= totalOrder; i++) {... */\n      jump(tag_143)\n    tag_144:\n      pop\n        /* \"src/contracts/NFTMarket.sol\":4785:4791  orders */\n      dup1\n        /* \"src/contracts/NFTMarket.sol\":4778:4791  return orders */\n      swap2\n      pop\n      pop\n        /* \"src/contracts/NFTMarket.sol\":4542:4799  function getAllOrders() public view returns (Order[] memory) {... */\n      swap1\n      jump\t// out\n        /* \"src/contracts/NFTMarket.sol\":2657:2986  function unlistNFT(address seller,uint orderId) public onlyOwner{... */\n    tag_49:\n        /* \"src/contracts/NFTMarket.sol\":403:408  owner */\n      0x01\n      0x00\n      swap1\n      sload\n      swap1\n      0x0100\n      exp\n      swap1\n      div\n      0xffffffffffffffffffffffffffffffffffffffff\n      and\n        /* \"src/contracts/NFTMarket.sol\":389:408  msg.sender == owner */\n      0xffffffffffffffffffffffffffffffffffffffff\n      and\n        /* \"src/contracts/NFTMarket.sol\":389:399  msg.sender */\n      caller\n        /* \"src/contracts/NFTMarket.sol\":389:408  msg.sender == owner */\n      0xffffffffffffffffffffffffffffffffffffffff\n      and\n      eq\n        /* \"src/contracts/NFTMarket.sol\":381:409  require(msg.sender == owner) */\n      tag_151\n      jumpi\n      0x00\n      dup1\n      revert\n    tag_151:\n        /* \"src/contracts/NFTMarket.sol\":2750:2759  orderData */\n      0x03\n        /* \"src/contracts/NFTMarket.sol\":2750:2768  orderData[orderId] */\n      0x00\n        /* \"src/contracts/NFTMarket.sol\":2760:2767  orderId */\n      dup3\n        /* \"src/contracts/NFTMarket.sol\":2750:2768  orderData[orderId] */\n      dup2\n      mstore\n      0x20\n      add\n      swap1\n      dup2\n      mstore\n      0x20\n      add\n      0x00\n      keccak256\n        /* \"src/contracts/NFTMarket.sol\":2750:2777  orderData[orderId].sellAddr */\n      0x02\n      add\n      0x00\n      swap1\n      sload\n      swap1\n      0x0100\n      exp\n      swap1\n      div\n      0xffffffffffffffffffffffffffffffffffffffff\n      and\n        /* \"src/contracts/NFTMarket.sol\":2740:2777  seller == orderData[orderId].sellAddr */\n      0xffffffffffffffffffffffffffffffffffffffff\n      and\n        /* \"src/contracts/NFTMarket.sol\":2740:2746  seller */\n      dup3\n        /* \"src/contracts/NFTMarket.sol\":2740:2777  seller == orderData[orderId].sellAddr */\n      0xffffffffffffffffffffffffffffffffffffffff\n      and\n      eq\n        /* \"src/contracts/NFTMarket.sol\":2732:2813  require(seller == orderData[orderId].sellAddr, \"msg.sender is not the NFT owner\") */\n      tag_153\n      jumpi\n      mload(0x40)\n      0x08c379a000000000000000000000000000000000000000000000000000000000\n      dup2\n      mstore\n      0x04\n      add\n      tag_154\n      swap1\n      tag_155\n      jump\t// in\n    tag_154:\n      mload(0x40)\n      dup1\n      swap2\n      sub\n      swap1\n      revert\n    tag_153:\n        /* \"src/contracts/NFTMarket.sol\":2824:2836  uint tokenId */\n      0x00\n        /* \"src/contracts/NFTMarket.sol\":2839:2848  orderData */\n      0x03\n        /* \"src/contracts/NFTMarket.sol\":2839:2857  orderData[orderId] */\n      0x00\n        /* \"src/contracts/NFTMarket.sol\":2849:2856  orderId */\n      dup4\n        /* \"src/contracts/NFTMarket.sol\":2839:2857  orderData[orderId] */\n      dup2\n      mstore\n      0x20\n      add\n      swap1\n      dup2\n      mstore\n      0x20\n      add\n      0x00\n      keccak256\n        /* \"src/contracts/NFTMarket.sol\":2839:2865  orderData[orderId].tokenId */\n      0x01\n      add\n      sload\n        /* \"src/contracts/NFTMarket.sol\":2824:2865  uint tokenId = orderData[orderId].tokenId */\n      swap1\n      pop\n        /* \"src/contracts/NFTMarket.sol\":2883:2893  NFTAddress */\n      0x00\n      dup1\n      sload\n      swap1\n      0x0100\n      exp\n      swap1\n      div\n      0xffffffffffffffffffffffffffffffffffffffff\n      and\n        /* \"src/contracts/NFTMarket.sol\":2876:2907  ERC721(NFTAddress).transferFrom */\n      0xffffffffffffffffffffffffffffffffffffffff\n      and\n      0x23b872dd\n        /* \"src/contracts/NFTMarket.sol\":2916:2920  this */\n      address\n        /* \"src/contracts/NFTMarket.sol\":2923:2929  seller */\n      dup6\n        /* \"src/contracts/NFTMarket.sol\":2931:2938  tokenId */\n      dup5\n        /* \"src/contracts/NFTMarket.sol\":2876:2939  ERC721(NFTAddress).transferFrom(address(this), seller, tokenId) */\n      mload(0x40)\n      dup5\n      0xffffffff\n      and\n      0xe0\n      shl\n      dup2\n      mstore\n      0x04\n      add\n      tag_156\n      swap4\n      swap3\n      swap2\n      swap1\n      tag_157\n      jump\t// in\n    tag_156:\n      0x00\n      mload(0x40)\n      dup1\n      dup4\n      sub\n      dup2\n      0x00\n      dup8\n      dup1\n      extcodesize\n      iszero\n      dup1\n      iszero\n      tag_158\n      jumpi\n      0x00\n      dup1\n      revert\n    tag_158:\n      pop\n      gas\n      call\n      iszero\n      dup1\n      iszero\n      tag_160\n      jumpi\n      returndatasize\n      0x00\n      dup1\n      returndatacopy\n      revert(0x00, returndatasize)\n    tag_160:\n      pop\n      pop\n      pop\n      pop\n        /* \"src/contracts/NFTMarket.sol\":2950:2978  removeOrder(seller, orderId) */\n      tag_161\n        /* \"src/contracts/NFTMarket.sol\":2962:2968  seller */\n      dup4\n        /* \"src/contracts/NFTMarket.sol\":2970:2977  orderId */\n      dup4\n        /* \"src/contracts/NFTMarket.sol\":2950:2961  removeOrder */\n      tag_162\n        /* \"src/contracts/NFTMarket.sol\":2950:2978  removeOrder(seller, orderId) */\n      jump\t// in\n    tag_161:\n        /* \"src/contracts/NFTMarket.sol\":2721:2986  {... */\n      pop\n        /* \"src/contracts/NFTMarket.sol\":2657:2986  function unlistNFT(address seller,uint orderId) public onlyOwner{... */\n      pop\n      pop\n      jump\t// out\n        /* \"src/contracts/NFTMarket.sol\":313:343  uint256 public contractBalance */\n    tag_52:\n      sload(0x02)\n      dup2\n      jump\t// out\n        /* \"src/contracts/NFTMarket.sol\":1378:1959  function buyNFT(address buyer, uint orderId) public payable onlyOwner{... */\n    tag_56:\n        /* \"src/contracts/NFTMarket.sol\":403:408  owner */\n      0x01\n      0x00\n      swap1\n      sload\n      swap1\n      0x0100\n      exp\n      swap1\n      div\n      0xffffffffffffffffffffffffffffffffffffffff\n      and\n        /* \"src/contracts/NFTMarket.sol\":389:408  msg.sender == owner */\n      0xffffffffffffffffffffffffffffffffffffffff\n      and\n        /* \"src/contracts/NFTMarket.sol\":389:399  msg.sender */\n      caller\n        /* \"src/contracts/NFTMarket.sol\":389:408  msg.sender == owner */\n      0xffffffffffffffffffffffffffffffffffffffff\n      and\n      eq\n        /* \"src/contracts/NFTMarket.sol\":381:409  require(msg.sender == owner) */\n      tag_164\n      jumpi\n      0x00\n      dup1\n      revert\n    tag_164:\n        /* \"src/contracts/NFTMarket.sol\":1458:1468  uint price */\n      0x00\n        /* \"src/contracts/NFTMarket.sol\":1471:1480  orderData */\n      0x03\n        /* \"src/contracts/NFTMarket.sol\":1471:1489  orderData[orderId] */\n      0x00\n        /* \"src/contracts/NFTMarket.sol\":1481:1488  orderId */\n      dup4\n        /* \"src/contracts/NFTMarket.sol\":1471:1489  orderData[orderId] */\n      dup2\n      mstore\n      0x20\n      add\n      swap1\n      dup2\n      mstore\n      0x20\n      add\n      0x00\n      keccak256\n        /* \"src/contracts/NFTMarket.sol\":1471:1495  orderData[orderId].price */\n      0x03\n      add\n      sload\n        /* \"src/contracts/NFTMarket.sol\":1458:1495  uint price = orderData[orderId].price */\n      swap1\n      pop\n        /* \"src/contracts/NFTMarket.sol\":1506:1518  uint tokenId */\n      0x00\n        /* \"src/contracts/NFTMarket.sol\":1521:1530  orderData */\n      0x03\n        /* \"src/contracts/NFTMarket.sol\":1521:1539  orderData[orderId] */\n      0x00\n        /* \"src/contracts/NFTMarket.sol\":1531:1538  orderId */\n      dup5\n        /* \"src/contracts/NFTMarket.sol\":1521:1539  orderData[orderId] */\n      dup2\n      mstore\n      0x20\n      add\n      swap1\n      dup2\n      mstore\n      0x20\n      add\n      0x00\n      keccak256\n        /* \"src/contracts/NFTMarket.sol\":1521:1547  orderData[orderId].tokenId */\n      0x01\n      add\n      sload\n        /* \"src/contracts/NFTMarket.sol\":1506:1547  uint tokenId = orderData[orderId].tokenId */\n      swap1\n      pop\n        /* \"src/contracts/NFTMarket.sol\":1558:1572  address seller */\n      0x00\n        /* \"src/contracts/NFTMarket.sol\":1575:1584  orderData */\n      0x03\n        /* \"src/contracts/NFTMarket.sol\":1575:1593  orderData[orderId] */\n      0x00\n        /* \"src/contracts/NFTMarket.sol\":1585:1592  orderId */\n      dup6\n        /* \"src/contracts/NFTMarket.sol\":1575:1593  orderData[orderId] */\n      dup2\n      mstore\n      0x20\n      add\n      swap1\n      dup2\n      mstore\n      0x20\n      add\n      0x00\n      keccak256\n        /* \"src/contracts/NFTMarket.sol\":1575:1602  orderData[orderId].sellAddr */\n      0x02\n      add\n      0x00\n      swap1\n      sload\n      swap1\n      0x0100\n      exp\n      swap1\n      div\n      0xffffffffffffffffffffffffffffffffffffffff\n      and\n        /* \"src/contracts/NFTMarket.sol\":1558:1602  address seller = orderData[orderId].sellAddr */\n      swap1\n      pop\n        /* \"src/contracts/NFTMarket.sol\":1636:1641  price */\n      dup3\n        /* \"src/contracts/NFTMarket.sol\":1623:1632  msg.value */\n      callvalue\n        /* \"src/contracts/NFTMarket.sol\":1623:1641  msg.value >= price */\n      lt\n      iszero\n        /* \"src/contracts/NFTMarket.sol\":1615:1661  require(msg.value >= price,\"price is too low\") */\n      tag_166\n      jumpi\n      mload(0x40)\n      0x08c379a000000000000000000000000000000000000000000000000000000000\n      dup2\n      mstore\n      0x04\n      add\n      tag_167\n      swap1\n      tag_168\n      jump\t// in\n    tag_167:\n      mload(0x40)\n      dup1\n      swap2\n      sub\n      swap1\n      revert\n    tag_166:\n        /* \"src/contracts/NFTMarket.sol\":1751:1761  NFTAddress */\n      0x00\n      dup1\n      sload\n      swap1\n      0x0100\n      exp\n      swap1\n      div\n      0xffffffffffffffffffffffffffffffffffffffff\n      and\n        /* \"src/contracts/NFTMarket.sol\":1744:1770  ERC721(NFTAddress).approve */\n      0xffffffffffffffffffffffffffffffffffffffff\n      and\n      0x095ea7b3\n        /* \"src/contracts/NFTMarket.sol\":1779:1783  this */\n      address\n        /* \"src/contracts/NFTMarket.sol\":1785:1792  tokenId */\n      dup5\n        /* \"src/contracts/NFTMarket.sol\":1744:1793  ERC721(NFTAddress).approve(address(this),tokenId) */\n      mload(0x40)\n      dup4\n      0xffffffff\n      and\n      0xe0\n      shl\n      dup2\n      mstore\n      0x04\n      add\n      tag_169\n      swap3\n      swap2\n      swap1\n      tag_170\n      jump\t// in\n    tag_169:\n      0x00\n      mload(0x40)\n      dup1\n      dup4\n      sub\n      dup2\n      0x00\n      dup8\n      dup1\n      extcodesize\n      iszero\n      dup1\n      iszero\n      tag_171\n      jumpi\n      0x00\n      dup1\n      revert\n    tag_171:\n      pop\n      gas\n      call\n      iszero\n      dup1\n      iszero\n      tag_173\n      jumpi\n      returndatasize\n      0x00\n      dup1\n      returndatacopy\n      revert(0x00, returndatasize)\n    tag_173:\n      pop\n      pop\n      pop\n      pop\n        /* \"src/contracts/NFTMarket.sol\":1811:1821  NFTAddress */\n      0x00\n      dup1\n      sload\n      swap1\n      0x0100\n      exp\n      swap1\n      div\n      0xffffffffffffffffffffffffffffffffffffffff\n      and\n        /* \"src/contracts/NFTMarket.sol\":1804:1835  ERC721(NFTAddress).transferFrom */\n      0xffffffffffffffffffffffffffffffffffffffff\n      and\n      0x23b872dd\n        /* \"src/contracts/NFTMarket.sol\":1844:1848  this */\n      address\n        /* \"src/contracts/NFTMarket.sol\":1851:1856  buyer */\n      dup8\n        /* \"src/contracts/NFTMarket.sol\":1858:1865  tokenId */\n      dup6\n        /* \"src/contracts/NFTMarket.sol\":1804:1866  ERC721(NFTAddress).transferFrom(address(this), buyer, tokenId) */\n      mload(0x40)\n      dup5\n      0xffffffff\n      and\n      0xe0\n      shl\n      dup2\n      mstore\n      0x04\n      add\n      tag_174\n      swap4\n      swap3\n      swap2\n      swap1\n      tag_157\n      jump\t// in\n    tag_174:\n      0x00\n      mload(0x40)\n      dup1\n      dup4\n      sub\n      dup2\n      0x00\n      dup8\n      dup1\n      extcodesize\n      iszero\n      dup1\n      iszero\n      tag_175\n      jumpi\n      0x00\n      dup1\n      revert\n    tag_175:\n      pop\n      gas\n      call\n      iszero\n      dup1\n      iszero\n      tag_177\n      jumpi\n      returndatasize\n      0x00\n      dup1\n      returndatacopy\n      revert(0x00, returndatasize)\n    tag_177:\n      pop\n      pop\n      pop\n      pop\n        /* \"src/contracts/NFTMarket.sol\":1887:1893  seller */\n      dup1\n        /* \"src/contracts/NFTMarket.sol\":1879:1903  payable(seller).transfer */\n      0xffffffffffffffffffffffffffffffffffffffff\n      and\n        /* \"src/contracts/NFTMarket.sol\":1879:1910  payable(seller).transfer(price) */\n      0x08fc\n        /* \"src/contracts/NFTMarket.sol\":1904:1909  price */\n      dup5\n        /* \"src/contracts/NFTMarket.sol\":1879:1910  payable(seller).transfer(price) */\n      swap1\n      dup2\n      iszero\n      mul\n      swap1\n      mload(0x40)\n      0x00\n      mload(0x40)\n      dup1\n      dup4\n      sub\n      dup2\n      dup6\n      dup9\n      dup9\n      call\n      swap4\n      pop\n      pop\n      pop\n      pop\n      iszero\n      dup1\n      iszero\n      tag_179\n      jumpi\n      returndatasize\n      0x00\n      dup1\n      returndatacopy\n      revert(0x00, returndatasize)\n    tag_179:\n      pop\n        /* \"src/contracts/NFTMarket.sol\":1923:1951  removeOrder(seller, orderId) */\n      tag_180\n        /* \"src/contracts/NFTMarket.sol\":1935:1941  seller */\n      dup2\n        /* \"src/contracts/NFTMarket.sol\":1943:1950  orderId */\n      dup6\n        /* \"src/contracts/NFTMarket.sol\":1923:1934  removeOrder */\n      tag_162\n        /* \"src/contracts/NFTMarket.sol\":1923:1951  removeOrder(seller, orderId) */\n      jump\t// in\n    tag_180:\n        /* \"src/contracts/NFTMarket.sol\":1447:1959  {... */\n      pop\n      pop\n      pop\n        /* \"src/contracts/NFTMarket.sol\":1378:1959  function buyNFT(address buyer, uint orderId) public payable onlyOwner{... */\n      pop\n      pop\n      jump\t// out\n        /* \"src/contracts/NFTMarket.sol\":3039:3307  function getorderData(... */\n    tag_61:\n        /* \"src/contracts/NFTMarket.sol\":3112:3124  uint tokenId */\n      0x00\n        /* \"src/contracts/NFTMarket.sol\":3126:3144  address sellerAddr */\n      dup1\n        /* \"src/contracts/NFTMarket.sol\":3146:3156  uint price */\n      0x00\n        /* \"src/contracts/NFTMarket.sol\":3179:3188  orderData */\n      0x03\n        /* \"src/contracts/NFTMarket.sol\":3179:3197  orderData[orderId] */\n      0x00\n        /* \"src/contracts/NFTMarket.sol\":3189:3196  orderId */\n      dup6\n        /* \"src/contracts/NFTMarket.sol\":3179:3197  orderData[orderId] */\n      dup2\n      mstore\n      0x20\n      add\n      swap1\n      dup2\n      mstore\n      0x20\n      add\n      0x00\n      keccak256\n        /* \"src/contracts/NFTMarket.sol\":3179:3205  orderData[orderId].tokenId */\n      0x01\n      add\n      sload\n        /* \"src/contracts/NFTMarket.sol\":3169:3205  tokenId = orderData[orderId].tokenId */\n      swap3\n      pop\n        /* \"src/contracts/NFTMarket.sol\":3229:3238  orderData */\n      0x03\n        /* \"src/contracts/NFTMarket.sol\":3229:3247  orderData[orderId] */\n      0x00\n        /* \"src/contracts/NFTMarket.sol\":3239:3246  orderId */\n      dup6\n        /* \"src/contracts/NFTMarket.sol\":3229:3247  orderData[orderId] */\n      dup2\n      mstore\n      0x20\n      add\n      swap1\n      dup2\n      mstore\n      0x20\n      add\n      0x00\n      keccak256\n        /* \"src/contracts/NFTMarket.sol\":3229:3256  orderData[orderId].sellAddr */\n      0x02\n      add\n      0x00\n      swap1\n      sload\n      swap1\n      0x0100\n      exp\n      swap1\n      div\n      0xffffffffffffffffffffffffffffffffffffffff\n      and\n        /* \"src/contracts/NFTMarket.sol\":3216:3256  sellerAddr = orderData[orderId].sellAddr */\n      swap2\n      pop\n        /* \"src/contracts/NFTMarket.sol\":3275:3284  orderData */\n      0x03\n        /* \"src/contracts/NFTMarket.sol\":3275:3293  orderData[orderId] */\n      0x00\n        /* \"src/contracts/NFTMarket.sol\":3285:3292  orderId */\n      dup6\n        /* \"src/contracts/NFTMarket.sol\":3275:3293  orderData[orderId] */\n      dup2\n      mstore\n      0x20\n      add\n      swap1\n      dup2\n      mstore\n      0x20\n      add\n      0x00\n      keccak256\n        /* \"src/contracts/NFTMarket.sol\":3275:3299  orderData[orderId].price */\n      0x03\n      add\n      sload\n        /* \"src/contracts/NFTMarket.sol\":3267:3299  price = orderData[orderId].price */\n      swap1\n      pop\n        /* \"src/contracts/NFTMarket.sol\":3039:3307  function getorderData(... */\n      swap2\n      swap4\n      swap1\n      swap3\n      pop\n      jump\t// out\n        /* \"src/contracts/NFTMarket.sol\":912:1353  function list(address seller, uint price, uint tokenId) public onlyOwner{... */\n    tag_68:\n        /* \"src/contracts/NFTMarket.sol\":403:408  owner */\n      0x01\n      0x00\n      swap1\n      sload\n      swap1\n      0x0100\n      exp\n      swap1\n      div\n      0xffffffffffffffffffffffffffffffffffffffff\n      and\n        /* \"src/contracts/NFTMarket.sol\":389:408  msg.sender == owner */\n      0xffffffffffffffffffffffffffffffffffffffff\n      and\n        /* \"src/contracts/NFTMarket.sol\":389:399  msg.sender */\n      caller\n        /* \"src/contracts/NFTMarket.sol\":389:408  msg.sender == owner */\n      0xffffffffffffffffffffffffffffffffffffffff\n      and\n      eq\n        /* \"src/contracts/NFTMarket.sol\":381:409  require(msg.sender == owner) */\n      tag_183\n      jumpi\n      0x00\n      dup1\n      revert\n    tag_183:\n        /* \"src/contracts/NFTMarket.sol\":1009:1010  1 */\n      0x01\n        /* \"src/contracts/NFTMarket.sol\":995:1005  OrderIndex */\n      0x08\n      0x00\n        /* \"src/contracts/NFTMarket.sol\":995:1010  OrderIndex += 1 */\n      dup3\n      dup3\n      sload\n      tag_185\n      swap2\n      swap1\n      tag_78\n      jump\t// in\n    tag_185:\n      swap3\n      pop\n      pop\n      dup2\n      swap1\n      sstore\n      pop\n        /* \"src/contracts/NFTMarket.sol\":1035:1036  1 */\n      0x01\n        /* \"src/contracts/NFTMarket.sol\":1021:1031  totalOrder */\n      0x07\n      0x00\n        /* \"src/contracts/NFTMarket.sol\":1021:1036  totalOrder += 1 */\n      dup3\n      dup3\n      sload\n      tag_186\n      swap2\n      swap1\n      tag_78\n      jump\t// in\n    tag_186:\n      swap3\n      pop\n      pop\n      dup2\n      swap1\n      sstore\n      pop\n        /* \"src/contracts/NFTMarket.sol\":1071:1112  Order(OrderIndex, tokenId, seller, price) */\n      mload(0x40)\n      dup1\n      0x80\n      add\n      0x40\n      mstore\n      dup1\n        /* \"src/contracts/NFTMarket.sol\":1077:1087  OrderIndex */\n      sload(0x08)\n        /* \"src/contracts/NFTMarket.sol\":1071:1112  Order(OrderIndex, tokenId, seller, price) */\n      dup2\n      mstore\n      0x20\n      add\n        /* \"src/contracts/NFTMarket.sol\":1089:1096  tokenId */\n      dup3\n        /* \"src/contracts/NFTMarket.sol\":1071:1112  Order(OrderIndex, tokenId, seller, price) */\n      dup2\n      mstore\n      0x20\n      add\n        /* \"src/contracts/NFTMarket.sol\":1098:1104  seller */\n      dup5\n        /* \"src/contracts/NFTMarket.sol\":1071:1112  Order(OrderIndex, tokenId, seller, price) */\n      0xffffffffffffffffffffffffffffffffffffffff\n      and\n      dup2\n      mstore\n      0x20\n      add\n        /* \"src/contracts/NFTMarket.sol\":1106:1111  price */\n      dup4\n        /* \"src/contracts/NFTMarket.sol\":1071:1112  Order(OrderIndex, tokenId, seller, price) */\n      dup2\n      mstore\n      pop\n        /* \"src/contracts/NFTMarket.sol\":1047:1056  orderData */\n      0x03\n        /* \"src/contracts/NFTMarket.sol\":1047:1068  orderData[OrderIndex] */\n      0x00\n        /* \"src/contracts/NFTMarket.sol\":1057:1067  OrderIndex */\n      sload(0x08)\n        /* \"src/contracts/NFTMarket.sol\":1047:1068  orderData[OrderIndex] */\n      dup2\n      mstore\n      0x20\n      add\n      swap1\n      dup2\n      mstore\n      0x20\n      add\n      0x00\n      keccak256\n        /* \"src/contracts/NFTMarket.sol\":1047:1112  orderData[OrderIndex] = Order(OrderIndex, tokenId, seller, price) */\n      0x00\n      dup3\n      add\n      mload\n      dup2\n      0x00\n      add\n      sstore\n      0x20\n      dup3\n      add\n      mload\n      dup2\n      0x01\n      add\n      sstore\n      0x40\n      dup3\n      add\n      mload\n      dup2\n      0x02\n      add\n      exp(0x0100, 0x00)\n      dup2\n      sload\n      dup2\n      0xffffffffffffffffffffffffffffffffffffffff\n      mul\n      not\n      and\n      swap1\n      dup4\n      0xffffffffffffffffffffffffffffffffffffffff\n      and\n      mul\n      or\n      swap1\n      sstore\n      pop\n      0x60\n      dup3\n      add\n      mload\n      dup2\n      0x03\n      add\n      sstore\n      swap1\n      pop\n      pop\n        /* \"src/contracts/NFTMarket.sol\":1149:1150  1 */\n      0x01\n        /* \"src/contracts/NFTMarket.sol\":1123:1137  userTotalOrder */\n      0x06\n        /* \"src/contracts/NFTMarket.sol\":1123:1145  userTotalOrder[seller] */\n      0x00\n        /* \"src/contracts/NFTMarket.sol\":1138:1144  seller */\n      dup6\n        /* \"src/contracts/NFTMarket.sol\":1123:1145  userTotalOrder[seller] */\n      0xffffffffffffffffffffffffffffffffffffffff\n      and\n      0xffffffffffffffffffffffffffffffffffffffff\n      and\n      dup2\n      mstore\n      0x20\n      add\n      swap1\n      dup2\n      mstore\n      0x20\n      add\n      0x00\n      keccak256\n      0x00\n        /* \"src/contracts/NFTMarket.sol\":1123:1150  userTotalOrder[seller] += 1 */\n      dup3\n      dup3\n      sload\n      tag_187\n      swap2\n      swap1\n      tag_78\n      jump\t// in\n    tag_187:\n      swap3\n      pop\n      pop\n      dup2\n      swap1\n      sstore\n      pop\n        /* \"src/contracts/NFTMarket.sol\":1205:1215  OrderIndex */\n      sload(0x08)\n        /* \"src/contracts/NFTMarket.sol\":1161:1170  userOrder */\n      0x05\n        /* \"src/contracts/NFTMarket.sol\":1161:1178  userOrder[seller] */\n      0x00\n        /* \"src/contracts/NFTMarket.sol\":1171:1177  seller */\n      dup6\n        /* \"src/contracts/NFTMarket.sol\":1161:1178  userOrder[seller] */\n      0xffffffffffffffffffffffffffffffffffffffff\n      and\n      0xffffffffffffffffffffffffffffffffffffffff\n      and\n      dup2\n      mstore\n      0x20\n      add\n      swap1\n      dup2\n      mstore\n      0x20\n      add\n      0x00\n      keccak256\n        /* \"src/contracts/NFTMarket.sol\":1161:1202  userOrder[seller][userTotalOrder[seller]] */\n      0x00\n        /* \"src/contracts/NFTMarket.sol\":1179:1193  userTotalOrder */\n      0x06\n        /* \"src/contracts/NFTMarket.sol\":1179:1201  userTotalOrder[seller] */\n      0x00\n        /* \"src/contracts/NFTMarket.sol\":1194:1200  seller */\n      dup8\n        /* \"src/contracts/NFTMarket.sol\":1179:1201  userTotalOrder[seller] */\n      0xffffffffffffffffffffffffffffffffffffffff\n      and\n      0xffffffffffffffffffffffffffffffffffffffff\n      and\n      dup2\n      mstore\n      0x20\n      add\n      swap1\n      dup2\n      mstore\n      0x20\n      add\n      0x00\n      keccak256\n      sload\n        /* \"src/contracts/NFTMarket.sol\":1161:1202  userOrder[seller][userTotalOrder[seller]] */\n      dup2\n      mstore\n      0x20\n      add\n      swap1\n      dup2\n      mstore\n      0x20\n      add\n      0x00\n      keccak256\n        /* \"src/contracts/NFTMarket.sol\":1161:1215  userOrder[seller][userTotalOrder[seller]] = OrderIndex */\n      dup2\n      swap1\n      sstore\n      pop\n        /* \"src/contracts/NFTMarket.sol\":1249:1290  Order(OrderIndex, tokenId, seller, price) */\n      mload(0x40)\n      dup1\n      0x80\n      add\n      0x40\n      mstore\n      dup1\n        /* \"src/contracts/NFTMarket.sol\":1255:1265  OrderIndex */\n      sload(0x08)\n        /* \"src/contracts/NFTMarket.sol\":1249:1290  Order(OrderIndex, tokenId, seller, price) */\n      dup2\n      mstore\n      0x20\n      add\n        /* \"src/contracts/NFTMarket.sol\":1267:1274  tokenId */\n      dup3\n        /* \"src/contracts/NFTMarket.sol\":1249:1290  Order(OrderIndex, tokenId, seller, price) */\n      dup2\n      mstore\n      0x20\n      add\n        /* \"src/contracts/NFTMarket.sol\":1276:1282  seller */\n      dup5\n        /* \"src/contracts/NFTMarket.sol\":1249:1290  Order(OrderIndex, tokenId, seller, price) */\n      0xffffffffffffffffffffffffffffffffffffffff\n      and\n      dup2\n      mstore\n      0x20\n      add\n        /* \"src/contracts/NFTMarket.sol\":1284:1289  price */\n      dup4\n        /* \"src/contracts/NFTMarket.sol\":1249:1290  Order(OrderIndex, tokenId, seller, price) */\n      dup2\n      mstore\n      pop\n        /* \"src/contracts/NFTMarket.sol\":1226:1234  allOrder */\n      0x04\n        /* \"src/contracts/NFTMarket.sol\":1226:1246  allOrder[totalOrder] */\n      0x00\n        /* \"src/contracts/NFTMarket.sol\":1235:1245  totalOrder */\n      sload(0x07)\n        /* \"src/contracts/NFTMarket.sol\":1226:1246  allOrder[totalOrder] */\n      dup2\n      mstore\n      0x20\n      add\n      swap1\n      dup2\n      mstore\n      0x20\n      add\n      0x00\n      keccak256\n        /* \"src/contracts/NFTMarket.sol\":1226:1290  allOrder[totalOrder] = Order(OrderIndex, tokenId, seller, price) */\n      0x00\n      dup3\n      add\n      mload\n      dup2\n      0x00\n      add\n      sstore\n      0x20\n      dup3\n      add\n      mload\n      dup2\n      0x01\n      add\n      sstore\n      0x40\n      dup3\n      add\n      mload\n      dup2\n      0x02\n      add\n      exp(0x0100, 0x00)\n      dup2\n      sload\n      dup2\n      0xffffffffffffffffffffffffffffffffffffffff\n      mul\n      not\n      and\n      swap1\n      dup4\n      0xffffffffffffffffffffffffffffffffffffffff\n      and\n      mul\n      or\n      swap1\n      sstore\n      pop\n      0x60\n      dup3\n      add\n      mload\n      dup2\n      0x03\n      add\n      sstore\n      swap1\n      pop\n      pop\n        /* \"src/contracts/NFTMarket.sol\":912:1353  function list(address seller, uint price, uint tokenId) public onlyOwner{... */\n      pop\n      pop\n      pop\n      jump\t// out\n        /* \"src/contracts/NFTMarket.sol\":1993:2649  function removeOrder(address seller, uint orderId) internal {... */\n    tag_162:\n        /* \"src/contracts/NFTMarket.sol\":2064:2079  address _seller */\n      0x00\n        /* \"src/contracts/NFTMarket.sol\":2082:2091  orderData */\n      0x03\n        /* \"src/contracts/NFTMarket.sol\":2082:2100  orderData[orderId] */\n      0x00\n        /* \"src/contracts/NFTMarket.sol\":2092:2099  orderId */\n      dup4\n        /* \"src/contracts/NFTMarket.sol\":2082:2100  orderData[orderId] */\n      dup2\n      mstore\n      0x20\n      add\n      swap1\n      dup2\n      mstore\n      0x20\n      add\n      0x00\n      keccak256\n        /* \"src/contracts/NFTMarket.sol\":2082:2109  orderData[orderId].sellAddr */\n      0x02\n      add\n      0x00\n      swap1\n      sload\n      swap1\n      0x0100\n      exp\n      swap1\n      div\n      0xffffffffffffffffffffffffffffffffffffffff\n      and\n        /* \"src/contracts/NFTMarket.sol\":2064:2109  address _seller = orderData[orderId].sellAddr */\n      swap1\n      pop\n        /* \"src/contracts/NFTMarket.sol\":2138:2145  _seller */\n      dup1\n        /* \"src/contracts/NFTMarket.sol\":2128:2145  seller == _seller */\n      0xffffffffffffffffffffffffffffffffffffffff\n      and\n        /* \"src/contracts/NFTMarket.sol\":2128:2134  seller */\n      dup4\n        /* \"src/contracts/NFTMarket.sol\":2128:2145  seller == _seller */\n      0xffffffffffffffffffffffffffffffffffffffff\n      and\n      eq\n        /* \"src/contracts/NFTMarket.sol\":2120:2196  require(seller == _seller, \"the 'seller' parameter is not the order seller\") */\n      tag_189\n      jumpi\n      mload(0x40)\n      0x08c379a000000000000000000000000000000000000000000000000000000000\n      dup2\n      mstore\n      0x04\n      add\n      tag_190\n      swap1\n      tag_191\n      jump\t// in\n    tag_190:\n      mload(0x40)\n      dup1\n      swap2\n      sub\n      swap1\n      revert\n    tag_189:\n        /* \"src/contracts/NFTMarket.sol\":2214:2227  uint256 index */\n      0x00\n        /* \"src/contracts/NFTMarket.sol\":2230:2231  1 */\n      0x01\n        /* \"src/contracts/NFTMarket.sol\":2214:2231  uint256 index = 1 */\n      swap1\n      pop\n        /* \"src/contracts/NFTMarket.sol\":2209:2523  for (uint256 index = 1; index < userTotalOrder[seller]; index++) {... */\n    tag_192:\n        /* \"src/contracts/NFTMarket.sol\":2241:2255  userTotalOrder */\n      0x06\n        /* \"src/contracts/NFTMarket.sol\":2241:2263  userTotalOrder[seller] */\n      0x00\n        /* \"src/contracts/NFTMarket.sol\":2256:2262  seller */\n      dup6\n        /* \"src/contracts/NFTMarket.sol\":2241:2263  userTotalOrder[seller] */\n      0xffffffffffffffffffffffffffffffffffffffff\n      and\n      0xffffffffffffffffffffffffffffffffffffffff\n      and\n      dup2\n      mstore\n      0x20\n      add\n      swap1\n      dup2\n      mstore\n      0x20\n      add\n      0x00\n      keccak256\n      sload\n        /* \"src/contracts/NFTMarket.sol\":2233:2238  index */\n      dup2\n        /* \"src/contracts/NFTMarket.sol\":2233:2263  index < userTotalOrder[seller] */\n      lt\n        /* \"src/contracts/NFTMarket.sol\":2209:2523  for (uint256 index = 1; index < userTotalOrder[seller]; index++) {... */\n      iszero\n      tag_193\n      jumpi\n        /* \"src/contracts/NFTMarket.sol\":2289:2302  uint _orderId */\n      0x00\n        /* \"src/contracts/NFTMarket.sol\":2305:2314  userOrder */\n      0x05\n        /* \"src/contracts/NFTMarket.sol\":2305:2322  userOrder[seller] */\n      0x00\n        /* \"src/contracts/NFTMarket.sol\":2315:2321  seller */\n      dup7\n        /* \"src/contracts/NFTMarket.sol\":2305:2322  userOrder[seller] */\n      0xffffffffffffffffffffffffffffffffffffffff\n      and\n      0xffffffffffffffffffffffffffffffffffffffff\n      and\n      dup2\n      mstore\n      0x20\n      add\n      swap1\n      dup2\n      mstore\n      0x20\n      add\n      0x00\n      keccak256\n        /* \"src/contracts/NFTMarket.sol\":2305:2329  userOrder[seller][index] */\n      0x00\n        /* \"src/contracts/NFTMarket.sol\":2323:2328  index */\n      dup4\n        /* \"src/contracts/NFTMarket.sol\":2305:2329  userOrder[seller][index] */\n      dup2\n      mstore\n      0x20\n      add\n      swap1\n      dup2\n      mstore\n      0x20\n      add\n      0x00\n      keccak256\n      sload\n        /* \"src/contracts/NFTMarket.sol\":2289:2329  uint _orderId = userOrder[seller][index] */\n      swap1\n      pop\n        /* \"src/contracts/NFTMarket.sol\":2360:2367  orderId */\n      dup4\n        /* \"src/contracts/NFTMarket.sol\":2348:2356  _orderId */\n      dup2\n        /* \"src/contracts/NFTMarket.sol\":2348:2367  _orderId == orderId */\n      sub\n        /* \"src/contracts/NFTMarket.sol\":2344:2512  if (_orderId == orderId) {... */\n      tag_195\n      jumpi\n        /* \"src/contracts/NFTMarket.sol\":2415:2424  userOrder */\n      0x05\n        /* \"src/contracts/NFTMarket.sol\":2415:2432  userOrder[seller] */\n      0x00\n        /* \"src/contracts/NFTMarket.sol\":2425:2431  seller */\n      dup7\n        /* \"src/contracts/NFTMarket.sol\":2415:2432  userOrder[seller] */\n      0xffffffffffffffffffffffffffffffffffffffff\n      and\n      0xffffffffffffffffffffffffffffffffffffffff\n      and\n      dup2\n      mstore\n      0x20\n      add\n      swap1\n      dup2\n      mstore\n      0x20\n      add\n      0x00\n      keccak256\n        /* \"src/contracts/NFTMarket.sol\":2415:2496  userOrder[seller][... */\n      0x00\n        /* \"src/contracts/NFTMarket.sol\":2455:2469  userTotalOrder */\n      0x06\n        /* \"src/contracts/NFTMarket.sol\":2455:2477  userTotalOrder[seller] */\n      0x00\n        /* \"src/contracts/NFTMarket.sol\":2470:2476  seller */\n      dup9\n        /* \"src/contracts/NFTMarket.sol\":2455:2477  userTotalOrder[seller] */\n      0xffffffffffffffffffffffffffffffffffffffff\n      and\n      0xffffffffffffffffffffffffffffffffffffffff\n      and\n      dup2\n      mstore\n      0x20\n      add\n      swap1\n      dup2\n      mstore\n      0x20\n      add\n      0x00\n      keccak256\n      sload\n        /* \"src/contracts/NFTMarket.sol\":2415:2496  userOrder[seller][... */\n      dup2\n      mstore\n      0x20\n      add\n      swap1\n      dup2\n      mstore\n      0x20\n      add\n      0x00\n      keccak256\n      sload\n        /* \"src/contracts/NFTMarket.sol\":2388:2397  userOrder */\n      0x05\n        /* \"src/contracts/NFTMarket.sol\":2388:2405  userOrder[seller] */\n      0x00\n        /* \"src/contracts/NFTMarket.sol\":2398:2404  seller */\n      dup8\n        /* \"src/contracts/NFTMarket.sol\":2388:2405  userOrder[seller] */\n      0xffffffffffffffffffffffffffffffffffffffff\n      and\n      0xffffffffffffffffffffffffffffffffffffffff\n      and\n      dup2\n      mstore\n      0x20\n      add\n      swap1\n      dup2\n      mstore\n      0x20\n      add\n      0x00\n      keccak256\n        /* \"src/contracts/NFTMarket.sol\":2388:2412  userOrder[seller][index] */\n      0x00\n        /* \"src/contracts/NFTMarket.sol\":2406:2411  index */\n      dup5\n        /* \"src/contracts/NFTMarket.sol\":2388:2412  userOrder[seller][index] */\n      dup2\n      mstore\n      0x20\n      add\n      swap1\n      dup2\n      mstore\n      0x20\n      add\n      0x00\n      keccak256\n        /* \"src/contracts/NFTMarket.sol\":2388:2496  userOrder[seller][index] = userOrder[seller][... */\n      dup2\n      swap1\n      sstore\n      pop\n        /* \"src/contracts/NFTMarket.sol\":2344:2512  if (_orderId == orderId) {... */\n    tag_195:\n        /* \"src/contracts/NFTMarket.sol\":2274:2523  {... */\n      pop\n        /* \"src/contracts/NFTMarket.sol\":2265:2272  index++ */\n      dup1\n      dup1\n      0x01\n      add\n      swap2\n      pop\n      pop\n        /* \"src/contracts/NFTMarket.sol\":2209:2523  for (uint256 index = 1; index < userTotalOrder[seller]; index++) {... */\n      jump(tag_192)\n    tag_193:\n      pop\n        /* \"src/contracts/NFTMarket.sol\":2561:2562  1 */\n      0x01\n        /* \"src/contracts/NFTMarket.sol\":2535:2549  userTotalOrder */\n      0x06\n        /* \"src/contracts/NFTMarket.sol\":2535:2557  userTotalOrder[seller] */\n      0x00\n        /* \"src/contracts/NFTMarket.sol\":2550:2556  seller */\n      dup6\n        /* \"src/contracts/NFTMarket.sol\":2535:2557  userTotalOrder[seller] */\n      0xffffffffffffffffffffffffffffffffffffffff\n      and\n      0xffffffffffffffffffffffffffffffffffffffff\n      and\n      dup2\n      mstore\n      0x20\n      add\n      swap1\n      dup2\n      mstore\n      0x20\n      add\n      0x00\n      keccak256\n      0x00\n        /* \"src/contracts/NFTMarket.sol\":2535:2562  userTotalOrder[seller] -= 1 */\n      dup3\n      dup3\n      sload\n      tag_196\n      swap2\n      swap1\n      tag_90\n      jump\t// in\n    tag_196:\n      swap3\n      pop\n      pop\n      dup2\n      swap1\n      sstore\n      pop\n        /* \"src/contracts/NFTMarket.sol\":2595:2603  allOrder */\n      0x04\n        /* \"src/contracts/NFTMarket.sol\":2595:2615  allOrder[totalOrder] */\n      0x00\n        /* \"src/contracts/NFTMarket.sol\":2604:2614  totalOrder */\n      sload(0x07)\n        /* \"src/contracts/NFTMarket.sol\":2595:2615  allOrder[totalOrder] */\n      dup2\n      mstore\n      0x20\n      add\n      swap1\n      dup2\n      mstore\n      0x20\n      add\n      0x00\n      keccak256\n        /* \"src/contracts/NFTMarket.sol\":2575:2583  allOrder */\n      0x04\n        /* \"src/contracts/NFTMarket.sol\":2575:2592  allOrder[orderId] */\n      0x00\n        /* \"src/contracts/NFTMarket.sol\":2584:2591  orderId */\n      dup5\n        /* \"src/contracts/NFTMarket.sol\":2575:2592  allOrder[orderId] */\n      dup2\n      mstore\n      0x20\n      add\n      swap1\n      dup2\n      mstore\n      0x20\n      add\n      0x00\n      keccak256\n        /* \"src/contracts/NFTMarket.sol\":2575:2615  allOrder[orderId] = allOrder[totalOrder] */\n      0x00\n      dup3\n      add\n      sload\n      dup2\n      0x00\n      add\n      sstore\n      0x01\n      dup3\n      add\n      sload\n      dup2\n      0x01\n      add\n      sstore\n      0x02\n      dup3\n      add\n      0x00\n      swap1\n      sload\n      swap1\n      0x0100\n      exp\n      swap1\n      div\n      0xffffffffffffffffffffffffffffffffffffffff\n      and\n      dup2\n      0x02\n      add\n      exp(0x0100, 0x00)\n      dup2\n      sload\n      dup2\n      0xffffffffffffffffffffffffffffffffffffffff\n      mul\n      not\n      and\n      swap1\n      dup4\n      0xffffffffffffffffffffffffffffffffffffffff\n      and\n      mul\n      or\n      swap1\n      sstore\n      pop\n      0x03\n      dup3\n      add\n      sload\n      dup2\n      0x03\n      add\n      sstore\n      swap1\n      pop\n      pop\n        /* \"src/contracts/NFTMarket.sol\":2640:2641  1 */\n      0x01\n        /* \"src/contracts/NFTMarket.sol\":2626:2636  totalOrder */\n      0x07\n      0x00\n        /* \"src/contracts/NFTMarket.sol\":2626:2641  totalOrder -= 1 */\n      dup3\n      dup3\n      sload\n      tag_197\n      swap2\n      swap1\n      tag_90\n      jump\t// in\n    tag_197:\n      swap3\n      pop\n      pop\n      dup2\n      swap1\n      sstore\n      pop\n        /* \"src/contracts/NFTMarket.sol\":2053:2649  {... */\n      pop\n        /* \"src/contracts/NFTMarket.sol\":1993:2649  function removeOrder(address seller, uint orderId) internal {... */\n      pop\n      pop\n      jump\t// out\n    tag_130:\n      mload(0x40)\n      dup1\n      0x80\n      add\n      0x40\n      mstore\n      dup1\n      0x00\n      dup2\n      mstore\n      0x20\n      add\n      0x00\n      dup2\n      mstore\n      0x20\n      add\n      and(0xffffffffffffffffffffffffffffffffffffffff, 0x00)\n      dup2\n      mstore\n      0x20\n      add\n      0x00\n      dup2\n      mstore\n      pop\n      swap1\n      jump\t// out\n        /* \"#utility.yul\":88:205   */\n    tag_199:\n        /* \"#utility.yul\":197:198   */\n      0x00\n        /* \"#utility.yul\":194:195   */\n      dup1\n        /* \"#utility.yul\":187:199   */\n      revert\n        /* \"#utility.yul\":334:460   */\n    tag_201:\n        /* \"#utility.yul\":371:378   */\n      0x00\n        /* \"#utility.yul\":411:453   */\n      0xffffffffffffffffffffffffffffffffffffffff\n        /* \"#utility.yul\":404:409   */\n      dup3\n        /* \"#utility.yul\":400:454   */\n      and\n        /* \"#utility.yul\":389:454   */\n      swap1\n      pop\n        /* \"#utility.yul\":334:460   */\n      swap2\n      swap1\n      pop\n      jump\t// out\n        /* \"#utility.yul\":466:562   */\n    tag_202:\n        /* \"#utility.yul\":503:510   */\n      0x00\n        /* \"#utility.yul\":532:556   */\n      tag_245\n        /* \"#utility.yul\":550:555   */\n      dup3\n        /* \"#utility.yul\":532:556   */\n      tag_201\n      jump\t// in\n    tag_245:\n        /* \"#utility.yul\":521:556   */\n      swap1\n      pop\n        /* \"#utility.yul\":466:562   */\n      swap2\n      swap1\n      pop\n      jump\t// out\n        /* \"#utility.yul\":568:690   */\n    tag_203:\n        /* \"#utility.yul\":641:665   */\n      tag_247\n        /* \"#utility.yul\":659:664   */\n      dup2\n        /* \"#utility.yul\":641:665   */\n      tag_202\n      jump\t// in\n    tag_247:\n        /* \"#utility.yul\":634:639   */\n      dup2\n        /* \"#utility.yul\":631:666   */\n      eq\n        /* \"#utility.yul\":621:684   */\n      tag_248\n      jumpi\n        /* \"#utility.yul\":680:681   */\n      0x00\n        /* \"#utility.yul\":677:678   */\n      dup1\n        /* \"#utility.yul\":670:682   */\n      revert\n        /* \"#utility.yul\":621:684   */\n    tag_248:\n        /* \"#utility.yul\":568:690   */\n      pop\n      jump\t// out\n        /* \"#utility.yul\":696:835   */\n    tag_204:\n        /* \"#utility.yul\":742:747   */\n      0x00\n        /* \"#utility.yul\":780:786   */\n      dup2\n        /* \"#utility.yul\":767:787   */\n      calldataload\n        /* \"#utility.yul\":758:787   */\n      swap1\n      pop\n        /* \"#utility.yul\":796:829   */\n      tag_250\n        /* \"#utility.yul\":823:828   */\n      dup2\n        /* \"#utility.yul\":796:829   */\n      tag_203\n      jump\t// in\n    tag_250:\n        /* \"#utility.yul\":696:835   */\n      swap3\n      swap2\n      pop\n      pop\n      jump\t// out\n        /* \"#utility.yul\":841:1170   */\n    tag_17:\n        /* \"#utility.yul\":900:906   */\n      0x00\n        /* \"#utility.yul\":949:951   */\n      0x20\n        /* \"#utility.yul\":937:946   */\n      dup3\n        /* \"#utility.yul\":928:935   */\n      dup5\n        /* \"#utility.yul\":924:947   */\n      sub\n        /* \"#utility.yul\":920:952   */\n      slt\n        /* \"#utility.yul\":917:1036   */\n      iszero\n      tag_252\n      jumpi\n        /* \"#utility.yul\":955:1034   */\n      tag_253\n      tag_199\n      jump\t// in\n    tag_253:\n        /* \"#utility.yul\":917:1036   */\n    tag_252:\n        /* \"#utility.yul\":1075:1076   */\n      0x00\n        /* \"#utility.yul\":1100:1153   */\n      tag_254\n        /* \"#utility.yul\":1145:1152   */\n      dup5\n        /* \"#utility.yul\":1136:1142   */\n      dup3\n        /* \"#utility.yul\":1125:1134   */\n      dup6\n        /* \"#utility.yul\":1121:1143   */\n      add\n        /* \"#utility.yul\":1100:1153   */\n      tag_204\n      jump\t// in\n    tag_254:\n        /* \"#utility.yul\":1090:1153   */\n      swap2\n      pop\n        /* \"#utility.yul\":1046:1163   */\n      pop\n        /* \"#utility.yul\":841:1170   */\n      swap3\n      swap2\n      pop\n      pop\n      jump\t// out\n        /* \"#utility.yul\":1176:1290   */\n    tag_205:\n        /* \"#utility.yul\":1243:1249   */\n      0x00\n        /* \"#utility.yul\":1277:1282   */\n      dup2\n        /* \"#utility.yul\":1271:1283   */\n      mload\n        /* \"#utility.yul\":1261:1283   */\n      swap1\n      pop\n        /* \"#utility.yul\":1176:1290   */\n      swap2\n      swap1\n      pop\n      jump\t// out\n        /* \"#utility.yul\":1296:1480   */\n    tag_206:\n        /* \"#utility.yul\":1395:1406   */\n      0x00\n        /* \"#utility.yul\":1429:1435   */\n      dup3\n        /* \"#utility.yul\":1424:1427   */\n      dup3\n        /* \"#utility.yul\":1417:1436   */\n      mstore\n        /* \"#utility.yul\":1469:1473   */\n      0x20\n        /* \"#utility.yul\":1464:1467   */\n      dup3\n        /* \"#utility.yul\":1460:1474   */\n      add\n        /* \"#utility.yul\":1445:1474   */\n      swap1\n      pop\n        /* \"#utility.yul\":1296:1480   */\n      swap3\n      swap2\n      pop\n      pop\n      jump\t// out\n        /* \"#utility.yul\":1486:1618   */\n    tag_207:\n        /* \"#utility.yul\":1553:1557   */\n      0x00\n        /* \"#utility.yul\":1576:1579   */\n      dup2\n        /* \"#utility.yul\":1568:1579   */\n      swap1\n      pop\n        /* \"#utility.yul\":1606:1610   */\n      0x20\n        /* \"#utility.yul\":1601:1604   */\n      dup3\n        /* \"#utility.yul\":1597:1611   */\n      add\n        /* \"#utility.yul\":1589:1611   */\n      swap1\n      pop\n        /* \"#utility.yul\":1486:1618   */\n      swap2\n      swap1\n      pop\n      jump\t// out\n        /* \"#utility.yul\":1624:1701   */\n    tag_208:\n        /* \"#utility.yul\":1661:1668   */\n      0x00\n        /* \"#utility.yul\":1690:1695   */\n      dup2\n        /* \"#utility.yul\":1679:1695   */\n      swap1\n      pop\n        /* \"#utility.yul\":1624:1701   */\n      swap2\n      swap1\n      pop\n      jump\t// out\n        /* \"#utility.yul\":1707:1815   */\n    tag_209:\n        /* \"#utility.yul\":1784:1808   */\n      tag_260\n        /* \"#utility.yul\":1802:1807   */\n      dup2\n        /* \"#utility.yul\":1784:1808   */\n      tag_208\n      jump\t// in\n    tag_260:\n        /* \"#utility.yul\":1779:1782   */\n      dup3\n        /* \"#utility.yul\":1772:1809   */\n      mstore\n        /* \"#utility.yul\":1707:1815   */\n      pop\n      pop\n      jump\t// out\n        /* \"#utility.yul\":1821:2000   */\n    tag_210:\n        /* \"#utility.yul\":1890:1900   */\n      0x00\n        /* \"#utility.yul\":1911:1957   */\n      tag_262\n        /* \"#utility.yul\":1953:1956   */\n      dup4\n        /* \"#utility.yul\":1945:1951   */\n      dup4\n        /* \"#utility.yul\":1911:1957   */\n      tag_209\n      jump\t// in\n    tag_262:\n        /* \"#utility.yul\":1989:1993   */\n      0x20\n        /* \"#utility.yul\":1984:1987   */\n      dup4\n        /* \"#utility.yul\":1980:1994   */\n      add\n        /* \"#utility.yul\":1966:1994   */\n      swap1\n      pop\n        /* \"#utility.yul\":1821:2000   */\n      swap3\n      swap2\n      pop\n      pop\n      jump\t// out\n        /* \"#utility.yul\":2006:2119   */\n    tag_211:\n        /* \"#utility.yul\":2076:2080   */\n      0x00\n        /* \"#utility.yul\":2108:2112   */\n      0x20\n        /* \"#utility.yul\":2103:2106   */\n      dup3\n        /* \"#utility.yul\":2099:2113   */\n      add\n        /* \"#utility.yul\":2091:2113   */\n      swap1\n      pop\n        /* \"#utility.yul\":2006:2119   */\n      swap2\n      swap1\n      pop\n      jump\t// out\n        /* \"#utility.yul\":2155:2887   */\n    tag_212:\n        /* \"#utility.yul\":2274:2277   */\n      0x00\n        /* \"#utility.yul\":2303:2357   */\n      tag_265\n        /* \"#utility.yul\":2351:2356   */\n      dup3\n        /* \"#utility.yul\":2303:2357   */\n      tag_205\n      jump\t// in\n    tag_265:\n        /* \"#utility.yul\":2373:2459   */\n      tag_266\n        /* \"#utility.yul\":2452:2458   */\n      dup2\n        /* \"#utility.yul\":2447:2450   */\n      dup6\n        /* \"#utility.yul\":2373:2459   */\n      tag_206\n      jump\t// in\n    tag_266:\n        /* \"#utility.yul\":2366:2459   */\n      swap4\n      pop\n        /* \"#utility.yul\":2483:2539   */\n      tag_267\n        /* \"#utility.yul\":2533:2538   */\n      dup4\n        /* \"#utility.yul\":2483:2539   */\n      tag_207\n      jump\t// in\n    tag_267:\n        /* \"#utility.yul\":2562:2569   */\n      dup1\n        /* \"#utility.yul\":2593:2594   */\n      0x00\n        /* \"#utility.yul\":2578:2862   */\n    tag_268:\n        /* \"#utility.yul\":2603:2609   */\n      dup4\n        /* \"#utility.yul\":2600:2601   */\n      dup2\n        /* \"#utility.yul\":2597:2610   */\n      lt\n        /* \"#utility.yul\":2578:2862   */\n      iszero\n      tag_270\n      jumpi\n        /* \"#utility.yul\":2679:2685   */\n      dup2\n        /* \"#utility.yul\":2673:2686   */\n      mload\n        /* \"#utility.yul\":2706:2769   */\n      tag_271\n        /* \"#utility.yul\":2765:2768   */\n      dup9\n        /* \"#utility.yul\":2750:2763   */\n      dup3\n        /* \"#utility.yul\":2706:2769   */\n      tag_210\n      jump\t// in\n    tag_271:\n        /* \"#utility.yul\":2699:2769   */\n      swap8\n      pop\n        /* \"#utility.yul\":2792:2852   */\n      tag_272\n        /* \"#utility.yul\":2845:2851   */\n      dup4\n        /* \"#utility.yul\":2792:2852   */\n      tag_211\n      jump\t// in\n    tag_272:\n        /* \"#utility.yul\":2782:2852   */\n      swap3\n      pop\n        /* \"#utility.yul\":2638:2862   */\n      pop\n        /* \"#utility.yul\":2625:2626   */\n      0x01\n        /* \"#utility.yul\":2622:2623   */\n      dup2\n        /* \"#utility.yul\":2618:2627   */\n      add\n        /* \"#utility.yul\":2613:2627   */\n      swap1\n      pop\n        /* \"#utility.yul\":2578:2862   */\n      jump(tag_268)\n    tag_270:\n        /* \"#utility.yul\":2582:2596   */\n      pop\n        /* \"#utility.yul\":2878:2881   */\n      dup6\n        /* \"#utility.yul\":2871:2881   */\n      swap4\n      pop\n        /* \"#utility.yul\":2279:2887   */\n      pop\n      pop\n      pop\n        /* \"#utility.yul\":2155:2887   */\n      swap3\n      swap2\n      pop\n      pop\n      jump\t// out\n        /* \"#utility.yul\":2893:3266   */\n    tag_20:\n        /* \"#utility.yul\":3036:3040   */\n      0x00\n        /* \"#utility.yul\":3074:3076   */\n      0x20\n        /* \"#utility.yul\":3063:3072   */\n      dup3\n        /* \"#utility.yul\":3059:3077   */\n      add\n        /* \"#utility.yul\":3051:3077   */\n      swap1\n      pop\n        /* \"#utility.yul\":3123:3132   */\n      dup2\n        /* \"#utility.yul\":3117:3121   */\n      dup2\n        /* \"#utility.yul\":3113:3133   */\n      sub\n        /* \"#utility.yul\":3109:3110   */\n      0x00\n        /* \"#utility.yul\":3098:3107   */\n      dup4\n        /* \"#utility.yul\":3094:3111   */\n      add\n        /* \"#utility.yul\":3087:3134   */\n      mstore\n        /* \"#utility.yul\":3151:3259   */\n      tag_274\n        /* \"#utility.yul\":3254:3258   */\n      dup2\n        /* \"#utility.yul\":3245:3251   */\n      dup5\n        /* \"#utility.yul\":3151:3259   */\n      tag_212\n      jump\t// in\n    tag_274:\n        /* \"#utility.yul\":3143:3259   */\n      swap1\n      pop\n        /* \"#utility.yul\":2893:3266   */\n      swap3\n      swap2\n      pop\n      pop\n      jump\t// out\n        /* \"#utility.yul\":3272:3390   */\n    tag_213:\n        /* \"#utility.yul\":3359:3383   */\n      tag_276\n        /* \"#utility.yul\":3377:3382   */\n      dup2\n        /* \"#utility.yul\":3359:3383   */\n      tag_208\n      jump\t// in\n    tag_276:\n        /* \"#utility.yul\":3354:3357   */\n      dup3\n        /* \"#utility.yul\":3347:3384   */\n      mstore\n        /* \"#utility.yul\":3272:3390   */\n      pop\n      pop\n      jump\t// out\n        /* \"#utility.yul\":3396:3618   */\n    tag_33:\n        /* \"#utility.yul\":3489:3493   */\n      0x00\n        /* \"#utility.yul\":3527:3529   */\n      0x20\n        /* \"#utility.yul\":3516:3525   */\n      dup3\n        /* \"#utility.yul\":3512:3530   */\n      add\n        /* \"#utility.yul\":3504:3530   */\n      swap1\n      pop\n        /* \"#utility.yul\":3540:3611   */\n      tag_278\n        /* \"#utility.yul\":3608:3609   */\n      0x00\n        /* \"#utility.yul\":3597:3606   */\n      dup4\n        /* \"#utility.yul\":3593:3610   */\n      add\n        /* \"#utility.yul\":3584:3590   */\n      dup5\n        /* \"#utility.yul\":3540:3611   */\n      tag_213\n      jump\t// in\n    tag_278:\n        /* \"#utility.yul\":3396:3618   */\n      swap3\n      swap2\n      pop\n      pop\n      jump\t// out\n        /* \"#utility.yul\":3624:3746   */\n    tag_214:\n        /* \"#utility.yul\":3697:3721   */\n      tag_280\n        /* \"#utility.yul\":3715:3720   */\n      dup2\n        /* \"#utility.yul\":3697:3721   */\n      tag_208\n      jump\t// in\n    tag_280:\n        /* \"#utility.yul\":3690:3695   */\n      dup2\n        /* \"#utility.yul\":3687:3722   */\n      eq\n        /* \"#utility.yul\":3677:3740   */\n      tag_281\n      jumpi\n        /* \"#utility.yul\":3736:3737   */\n      0x00\n        /* \"#utility.yul\":3733:3734   */\n      dup1\n        /* \"#utility.yul\":3726:3738   */\n      revert\n        /* \"#utility.yul\":3677:3740   */\n    tag_281:\n        /* \"#utility.yul\":3624:3746   */\n      pop\n      jump\t// out\n        /* \"#utility.yul\":3752:3891   */\n    tag_215:\n        /* \"#utility.yul\":3798:3803   */\n      0x00\n        /* \"#utility.yul\":3836:3842   */\n      dup2\n        /* \"#utility.yul\":3823:3843   */\n      calldataload\n        /* \"#utility.yul\":3814:3843   */\n      swap1\n      pop\n        /* \"#utility.yul\":3852:3885   */\n      tag_283\n        /* \"#utility.yul\":3879:3884   */\n      dup2\n        /* \"#utility.yul\":3852:3885   */\n      tag_214\n      jump\t// in\n    tag_283:\n        /* \"#utility.yul\":3752:3891   */\n      swap3\n      swap2\n      pop\n      pop\n      jump\t// out\n        /* \"#utility.yul\":3897:4371   */\n    tag_37:\n        /* \"#utility.yul\":3965:3971   */\n      0x00\n        /* \"#utility.yul\":3973:3979   */\n      dup1\n        /* \"#utility.yul\":4022:4024   */\n      0x40\n        /* \"#utility.yul\":4010:4019   */\n      dup4\n        /* \"#utility.yul\":4001:4008   */\n      dup6\n        /* \"#utility.yul\":3997:4020   */\n      sub\n        /* \"#utility.yul\":3993:4025   */\n      slt\n        /* \"#utility.yul\":3990:4109   */\n      iszero\n      tag_285\n      jumpi\n        /* \"#utility.yul\":4028:4107   */\n      tag_286\n      tag_199\n      jump\t// in\n    tag_286:\n        /* \"#utility.yul\":3990:4109   */\n    tag_285:\n        /* \"#utility.yul\":4148:4149   */\n      0x00\n        /* \"#utility.yul\":4173:4226   */\n      tag_287\n        /* \"#utility.yul\":4218:4225   */\n      dup6\n        /* \"#utility.yul\":4209:4215   */\n      dup3\n        /* \"#utility.yul\":4198:4207   */\n      dup7\n        /* \"#utility.yul\":4194:4216   */\n      add\n        /* \"#utility.yul\":4173:4226   */\n      tag_215\n      jump\t// in\n    tag_287:\n        /* \"#utility.yul\":4163:4226   */\n      swap3\n      pop\n        /* \"#utility.yul\":4119:4236   */\n      pop\n        /* \"#utility.yul\":4275:4277   */\n      0x20\n        /* \"#utility.yul\":4301:4354   */\n      tag_288\n        /* \"#utility.yul\":4346:4353   */\n      dup6\n        /* \"#utility.yul\":4337:4343   */\n      dup3\n        /* \"#utility.yul\":4326:4335   */\n      dup7\n        /* \"#utility.yul\":4322:4344   */\n      add\n        /* \"#utility.yul\":4301:4354   */\n      tag_215\n      jump\t// in\n    tag_288:\n        /* \"#utility.yul\":4291:4354   */\n      swap2\n      pop\n        /* \"#utility.yul\":4246:4364   */\n      pop\n        /* \"#utility.yul\":3897:4371   */\n      swap3\n      pop\n      swap3\n      swap1\n      pop\n      jump\t// out\n        /* \"#utility.yul\":4377:4514   */\n    tag_216:\n        /* \"#utility.yul\":4467:4473   */\n      0x00\n        /* \"#utility.yul\":4501:4506   */\n      dup2\n        /* \"#utility.yul\":4495:4507   */\n      mload\n        /* \"#utility.yul\":4485:4507   */\n      swap1\n      pop\n        /* \"#utility.yul\":4377:4514   */\n      swap2\n      swap1\n      pop\n      jump\t// out\n        /* \"#utility.yul\":4520:4727   */\n    tag_217:\n        /* \"#utility.yul\":4642:4653   */\n      0x00\n        /* \"#utility.yul\":4676:4682   */\n      dup3\n        /* \"#utility.yul\":4671:4674   */\n      dup3\n        /* \"#utility.yul\":4664:4683   */\n      mstore\n        /* \"#utility.yul\":4716:4720   */\n      0x20\n        /* \"#utility.yul\":4711:4714   */\n      dup3\n        /* \"#utility.yul\":4707:4721   */\n      add\n        /* \"#utility.yul\":4692:4721   */\n      swap1\n      pop\n        /* \"#utility.yul\":4520:4727   */\n      swap3\n      swap2\n      pop\n      pop\n      jump\t// out\n        /* \"#utility.yul\":4733:4888   */\n    tag_218:\n        /* \"#utility.yul\":4823:4827   */\n      0x00\n        /* \"#utility.yul\":4846:4849   */\n      dup2\n        /* \"#utility.yul\":4838:4849   */\n      swap1\n      pop\n        /* \"#utility.yul\":4876:4880   */\n      0x20\n        /* \"#utility.yul\":4871:4874   */\n      dup3\n        /* \"#utility.yul\":4867:4881   */\n      add\n        /* \"#utility.yul\":4859:4881   */\n      swap1\n      pop\n        /* \"#utility.yul\":4733:4888   */\n      swap2\n      swap1\n      pop\n      jump\t// out\n        /* \"#utility.yul\":4894:5002   */\n    tag_219:\n        /* \"#utility.yul\":4971:4995   */\n      tag_293\n        /* \"#utility.yul\":4989:4994   */\n      dup2\n        /* \"#utility.yul\":4971:4995   */\n      tag_202\n      jump\t// in\n    tag_293:\n        /* \"#utility.yul\":4966:4969   */\n      dup3\n        /* \"#utility.yul\":4959:4996   */\n      mstore\n        /* \"#utility.yul\":4894:5002   */\n      pop\n      pop\n      jump\t// out\n        /* \"#utility.yul\":5064:5916   */\n    tag_220:\n        /* \"#utility.yul\":5197:5201   */\n      0x80\n        /* \"#utility.yul\":5192:5195   */\n      dup3\n        /* \"#utility.yul\":5188:5202   */\n      add\n        /* \"#utility.yul\":5287:5291   */\n      0x00\n        /* \"#utility.yul\":5280:5285   */\n      dup3\n        /* \"#utility.yul\":5276:5292   */\n      add\n        /* \"#utility.yul\":5270:5293   */\n      mload\n        /* \"#utility.yul\":5306:5369   */\n      tag_295\n        /* \"#utility.yul\":5363:5367   */\n      0x00\n        /* \"#utility.yul\":5358:5361   */\n      dup6\n        /* \"#utility.yul\":5354:5368   */\n      add\n        /* \"#utility.yul\":5340:5352   */\n      dup3\n        /* \"#utility.yul\":5306:5369   */\n      tag_209\n      jump\t// in\n    tag_295:\n        /* \"#utility.yul\":5212:5379   */\n      pop\n        /* \"#utility.yul\":5464:5468   */\n      0x20\n        /* \"#utility.yul\":5457:5462   */\n      dup3\n        /* \"#utility.yul\":5453:5469   */\n      add\n        /* \"#utility.yul\":5447:5470   */\n      mload\n        /* \"#utility.yul\":5483:5546   */\n      tag_296\n        /* \"#utility.yul\":5540:5544   */\n      0x20\n        /* \"#utility.yul\":5535:5538   */\n      dup6\n        /* \"#utility.yul\":5531:5545   */\n      add\n        /* \"#utility.yul\":5517:5529   */\n      dup3\n        /* \"#utility.yul\":5483:5546   */\n      tag_209\n      jump\t// in\n    tag_296:\n        /* \"#utility.yul\":5389:5556   */\n      pop\n        /* \"#utility.yul\":5642:5646   */\n      0x40\n        /* \"#utility.yul\":5635:5640   */\n      dup3\n        /* \"#utility.yul\":5631:5647   */\n      add\n        /* \"#utility.yul\":5625:5648   */\n      mload\n        /* \"#utility.yul\":5661:5724   */\n      tag_297\n        /* \"#utility.yul\":5718:5722   */\n      0x40\n        /* \"#utility.yul\":5713:5716   */\n      dup6\n        /* \"#utility.yul\":5709:5723   */\n      add\n        /* \"#utility.yul\":5695:5707   */\n      dup3\n        /* \"#utility.yul\":5661:5724   */\n      tag_219\n      jump\t// in\n    tag_297:\n        /* \"#utility.yul\":5566:5734   */\n      pop\n        /* \"#utility.yul\":5817:5821   */\n      0x60\n        /* \"#utility.yul\":5810:5815   */\n      dup3\n        /* \"#utility.yul\":5806:5822   */\n      add\n        /* \"#utility.yul\":5800:5823   */\n      mload\n        /* \"#utility.yul\":5836:5899   */\n      tag_298\n        /* \"#utility.yul\":5893:5897   */\n      0x60\n        /* \"#utility.yul\":5888:5891   */\n      dup6\n        /* \"#utility.yul\":5884:5898   */\n      add\n        /* \"#utility.yul\":5870:5882   */\n      dup3\n        /* \"#utility.yul\":5836:5899   */\n      tag_209\n      jump\t// in\n    tag_298:\n        /* \"#utility.yul\":5744:5909   */\n      pop\n        /* \"#utility.yul\":5166:5916   */\n      pop\n        /* \"#utility.yul\":5064:5916   */\n      pop\n      pop\n      jump\t// out\n        /* \"#utility.yul\":5922:6193   */\n    tag_221:\n        /* \"#utility.yul\":6037:6047   */\n      0x00\n        /* \"#utility.yul\":6058:6150   */\n      tag_300\n        /* \"#utility.yul\":6146:6149   */\n      dup4\n        /* \"#utility.yul\":6138:6144   */\n      dup4\n        /* \"#utility.yul\":6058:6150   */\n      tag_220\n      jump\t// in\n    tag_300:\n        /* \"#utility.yul\":6182:6186   */\n      0x80\n        /* \"#utility.yul\":6177:6180   */\n      dup4\n        /* \"#utility.yul\":6173:6187   */\n      add\n        /* \"#utility.yul\":6159:6187   */\n      swap1\n      pop\n        /* \"#utility.yul\":5922:6193   */\n      swap3\n      swap2\n      pop\n      pop\n      jump\t// out\n        /* \"#utility.yul\":6199:6335   */\n    tag_222:\n        /* \"#utility.yul\":6292:6296   */\n      0x00\n        /* \"#utility.yul\":6324:6328   */\n      0x20\n        /* \"#utility.yul\":6319:6322   */\n      dup3\n        /* \"#utility.yul\":6315:6329   */\n      add\n        /* \"#utility.yul\":6307:6329   */\n      swap1\n      pop\n        /* \"#utility.yul\":6199:6335   */\n      swap2\n      swap1\n      pop\n      jump\t// out\n        /* \"#utility.yul\":6401:7317   */\n    tag_223:\n        /* \"#utility.yul\":6566:6569   */\n      0x00\n        /* \"#utility.yul\":6595:6672   */\n      tag_303\n        /* \"#utility.yul\":6666:6671   */\n      dup3\n        /* \"#utility.yul\":6595:6672   */\n      tag_216\n      jump\t// in\n    tag_303:\n        /* \"#utility.yul\":6688:6797   */\n      tag_304\n        /* \"#utility.yul\":6790:6796   */\n      dup2\n        /* \"#utility.yul\":6785:6788   */\n      dup6\n        /* \"#utility.yul\":6688:6797   */\n      tag_217\n      jump\t// in\n    tag_304:\n        /* \"#utility.yul\":6681:6797   */\n      swap4\n      pop\n        /* \"#utility.yul\":6821:6900   */\n      tag_305\n        /* \"#utility.yul\":6894:6899   */\n      dup4\n        /* \"#utility.yul\":6821:6900   */\n      tag_218\n      jump\t// in\n    tag_305:\n        /* \"#utility.yul\":6923:6930   */\n      dup1\n        /* \"#utility.yul\":6954:6955   */\n      0x00\n        /* \"#utility.yul\":6939:7292   */\n    tag_306:\n        /* \"#utility.yul\":6964:6970   */\n      dup4\n        /* \"#utility.yul\":6961:6962   */\n      dup2\n        /* \"#utility.yul\":6958:6971   */\n      lt\n        /* \"#utility.yul\":6939:7292   */\n      iszero\n      tag_308\n      jumpi\n        /* \"#utility.yul\":7040:7046   */\n      dup2\n        /* \"#utility.yul\":7034:7047   */\n      mload\n        /* \"#utility.yul\":7067:7176   */\n      tag_309\n        /* \"#utility.yul\":7172:7175   */\n      dup9\n        /* \"#utility.yul\":7157:7170   */\n      dup3\n        /* \"#utility.yul\":7067:7176   */\n      tag_221\n      jump\t// in\n    tag_309:\n        /* \"#utility.yul\":7060:7176   */\n      swap8\n      pop\n        /* \"#utility.yul\":7199:7282   */\n      tag_310\n        /* \"#utility.yul\":7275:7281   */\n      dup4\n        /* \"#utility.yul\":7199:7282   */\n      tag_222\n      jump\t// in\n    tag_310:\n        /* \"#utility.yul\":7189:7282   */\n      swap3\n      pop\n        /* \"#utility.yul\":6999:7292   */\n      pop\n        /* \"#utility.yul\":6986:6987   */\n      0x01\n        /* \"#utility.yul\":6983:6984   */\n      dup2\n        /* \"#utility.yul\":6979:6988   */\n      add\n        /* \"#utility.yul\":6974:6988   */\n      swap1\n      pop\n        /* \"#utility.yul\":6939:7292   */\n      jump(tag_306)\n    tag_308:\n        /* \"#utility.yul\":6943:6957   */\n      pop\n        /* \"#utility.yul\":7308:7311   */\n      dup6\n        /* \"#utility.yul\":7301:7311   */\n      swap4\n      pop\n        /* \"#utility.yul\":6571:7317   */\n      pop\n      pop\n      pop\n        /* \"#utility.yul\":6401:7317   */\n      swap3\n      swap2\n      pop\n      pop\n      jump\t// out\n        /* \"#utility.yul\":7323:7788   */\n    tag_40:\n        /* \"#utility.yul\":7512:7516   */\n      0x00\n        /* \"#utility.yul\":7550:7552   */\n      0x20\n        /* \"#utility.yul\":7539:7548   */\n      dup3\n        /* \"#utility.yul\":7535:7553   */\n      add\n        /* \"#utility.yul\":7527:7553   */\n      swap1\n      pop\n        /* \"#utility.yul\":7599:7608   */\n      dup2\n        /* \"#utility.yul\":7593:7597   */\n      dup2\n        /* \"#utility.yul\":7589:7609   */\n      sub\n        /* \"#utility.yul\":7585:7586   */\n      0x00\n        /* \"#utility.yul\":7574:7583   */\n      dup4\n        /* \"#utility.yul\":7570:7587   */\n      add\n        /* \"#utility.yul\":7563:7610   */\n      mstore\n        /* \"#utility.yul\":7627:7781   */\n      tag_312\n        /* \"#utility.yul\":7776:7780   */\n      dup2\n        /* \"#utility.yul\":7767:7773   */\n      dup5\n        /* \"#utility.yul\":7627:7781   */\n      tag_223\n      jump\t// in\n    tag_312:\n        /* \"#utility.yul\":7619:7781   */\n      swap1\n      pop\n        /* \"#utility.yul\":7323:7788   */\n      swap3\n      swap2\n      pop\n      pop\n      jump\t// out\n        /* \"#utility.yul\":7794:8268   */\n    tag_48:\n        /* \"#utility.yul\":7862:7868   */\n      0x00\n        /* \"#utility.yul\":7870:7876   */\n      dup1\n        /* \"#utility.yul\":7919:7921   */\n      0x40\n        /* \"#utility.yul\":7907:7916   */\n      dup4\n        /* \"#utility.yul\":7898:7905   */\n      dup6\n        /* \"#utility.yul\":7894:7917   */\n      sub\n        /* \"#utility.yul\":7890:7922   */\n      slt\n        /* \"#utility.yul\":7887:8006   */\n      iszero\n      tag_314\n      jumpi\n        /* \"#utility.yul\":7925:8004   */\n      tag_315\n      tag_199\n      jump\t// in\n    tag_315:\n        /* \"#utility.yul\":7887:8006   */\n    tag_314:\n        /* \"#utility.yul\":8045:8046   */\n      0x00\n        /* \"#utility.yul\":8070:8123   */\n      tag_316\n        /* \"#utility.yul\":8115:8122   */\n      dup6\n        /* \"#utility.yul\":8106:8112   */\n      dup3\n        /* \"#utility.yul\":8095:8104   */\n      dup7\n        /* \"#utility.yul\":8091:8113   */\n      add\n        /* \"#utility.yul\":8070:8123   */\n      tag_204\n      jump\t// in\n    tag_316:\n        /* \"#utility.yul\":8060:8123   */\n      swap3\n      pop\n        /* \"#utility.yul\":8016:8133   */\n      pop\n        /* \"#utility.yul\":8172:8174   */\n      0x20\n        /* \"#utility.yul\":8198:8251   */\n      tag_317\n        /* \"#utility.yul\":8243:8250   */\n      dup6\n        /* \"#utility.yul\":8234:8240   */\n      dup3\n        /* \"#utility.yul\":8223:8232   */\n      dup7\n        /* \"#utility.yul\":8219:8241   */\n      add\n        /* \"#utility.yul\":8198:8251   */\n      tag_215\n      jump\t// in\n    tag_317:\n        /* \"#utility.yul\":8188:8251   */\n      swap2\n      pop\n        /* \"#utility.yul\":8143:8261   */\n      pop\n        /* \"#utility.yul\":7794:8268   */\n      swap3\n      pop\n      swap3\n      swap1\n      pop\n      jump\t// out\n        /* \"#utility.yul\":8274:8603   */\n    tag_60:\n        /* \"#utility.yul\":8333:8339   */\n      0x00\n        /* \"#utility.yul\":8382:8384   */\n      0x20\n        /* \"#utility.yul\":8370:8379   */\n      dup3\n        /* \"#utility.yul\":8361:8368   */\n      dup5\n        /* \"#utility.yul\":8357:8380   */\n      sub\n        /* \"#utility.yul\":8353:8385   */\n      slt\n        /* \"#utility.yul\":8350:8469   */\n      iszero\n      tag_319\n      jumpi\n        /* \"#utility.yul\":8388:8467   */\n      tag_320\n      tag_199\n      jump\t// in\n    tag_320:\n        /* \"#utility.yul\":8350:8469   */\n    tag_319:\n        /* \"#utility.yul\":8508:8509   */\n      0x00\n        /* \"#utility.yul\":8533:8586   */\n      tag_321\n        /* \"#utility.yul\":8578:8585   */\n      dup5\n        /* \"#utility.yul\":8569:8575   */\n      dup3\n        /* \"#utility.yul\":8558:8567   */\n      dup6\n        /* \"#utility.yul\":8554:8576   */\n      add\n        /* \"#utility.yul\":8533:8586   */\n      tag_215\n      jump\t// in\n    tag_321:\n        /* \"#utility.yul\":8523:8586   */\n      swap2\n      pop\n        /* \"#utility.yul\":8479:8596   */\n      pop\n        /* \"#utility.yul\":8274:8603   */\n      swap3\n      swap2\n      pop\n      pop\n      jump\t// out\n        /* \"#utility.yul\":8609:8727   */\n    tag_224:\n        /* \"#utility.yul\":8696:8720   */\n      tag_323\n        /* \"#utility.yul\":8714:8719   */\n      dup2\n        /* \"#utility.yul\":8696:8720   */\n      tag_202\n      jump\t// in\n    tag_323:\n        /* \"#utility.yul\":8691:8694   */\n      dup3\n        /* \"#utility.yul\":8684:8721   */\n      mstore\n        /* \"#utility.yul\":8609:8727   */\n      pop\n      pop\n      jump\t// out\n        /* \"#utility.yul\":8733:9175   */\n    tag_63:\n        /* \"#utility.yul\":8882:8886   */\n      0x00\n        /* \"#utility.yul\":8920:8922   */\n      0x60\n        /* \"#utility.yul\":8909:8918   */\n      dup3\n        /* \"#utility.yul\":8905:8923   */\n      add\n        /* \"#utility.yul\":8897:8923   */\n      swap1\n      pop\n        /* \"#utility.yul\":8933:9004   */\n      tag_325\n        /* \"#utility.yul\":9001:9002   */\n      0x00\n        /* \"#utility.yul\":8990:8999   */\n      dup4\n        /* \"#utility.yul\":8986:9003   */\n      add\n        /* \"#utility.yul\":8977:8983   */\n      dup7\n        /* \"#utility.yul\":8933:9004   */\n      tag_213\n      jump\t// in\n    tag_325:\n        /* \"#utility.yul\":9014:9086   */\n      tag_326\n        /* \"#utility.yul\":9082:9084   */\n      0x20\n        /* \"#utility.yul\":9071:9080   */\n      dup4\n        /* \"#utility.yul\":9067:9085   */\n      add\n        /* \"#utility.yul\":9058:9064   */\n      dup6\n        /* \"#utility.yul\":9014:9086   */\n      tag_224\n      jump\t// in\n    tag_326:\n        /* \"#utility.yul\":9096:9168   */\n      tag_327\n        /* \"#utility.yul\":9164:9166   */\n      0x40\n        /* \"#utility.yul\":9153:9162   */\n      dup4\n        /* \"#utility.yul\":9149:9167   */\n      add\n        /* \"#utility.yul\":9140:9146   */\n      dup5\n        /* \"#utility.yul\":9096:9168   */\n      tag_213\n      jump\t// in\n    tag_327:\n        /* \"#utility.yul\":8733:9175   */\n      swap5\n      swap4\n      pop\n      pop\n      pop\n      pop\n      jump\t// out\n        /* \"#utility.yul\":9181:9800   */\n    tag_67:\n        /* \"#utility.yul\":9258:9264   */\n      0x00\n        /* \"#utility.yul\":9266:9272   */\n      dup1\n        /* \"#utility.yul\":9274:9280   */\n      0x00\n        /* \"#utility.yul\":9323:9325   */\n      0x60\n        /* \"#utility.yul\":9311:9320   */\n      dup5\n        /* \"#utility.yul\":9302:9309   */\n      dup7\n        /* \"#utility.yul\":9298:9321   */\n      sub\n        /* \"#utility.yul\":9294:9326   */\n      slt\n        /* \"#utility.yul\":9291:9410   */\n      iszero\n      tag_329\n      jumpi\n        /* \"#utility.yul\":9329:9408   */\n      tag_330\n      tag_199\n      jump\t// in\n    tag_330:\n        /* \"#utility.yul\":9291:9410   */\n    tag_329:\n        /* \"#utility.yul\":9449:9450   */\n      0x00\n        /* \"#utility.yul\":9474:9527   */\n      tag_331\n        /* \"#utility.yul\":9519:9526   */\n      dup7\n        /* \"#utility.yul\":9510:9516   */\n      dup3\n        /* \"#utility.yul\":9499:9508   */\n      dup8\n        /* \"#utility.yul\":9495:9517   */\n      add\n        /* \"#utility.yul\":9474:9527   */\n      tag_204\n      jump\t// in\n    tag_331:\n        /* \"#utility.yul\":9464:9527   */\n      swap4\n      pop\n        /* \"#utility.yul\":9420:9537   */\n      pop\n        /* \"#utility.yul\":9576:9578   */\n      0x20\n        /* \"#utility.yul\":9602:9655   */\n      tag_332\n        /* \"#utility.yul\":9647:9654   */\n      dup7\n        /* \"#utility.yul\":9638:9644   */\n      dup3\n        /* \"#utility.yul\":9627:9636   */\n      dup8\n        /* \"#utility.yul\":9623:9645   */\n      add\n        /* \"#utility.yul\":9602:9655   */\n      tag_215\n      jump\t// in\n    tag_332:\n        /* \"#utility.yul\":9592:9655   */\n      swap3\n      pop\n        /* \"#utility.yul\":9547:9665   */\n      pop\n        /* \"#utility.yul\":9704:9706   */\n      0x40\n        /* \"#utility.yul\":9730:9783   */\n      tag_333\n        /* \"#utility.yul\":9775:9782   */\n      dup7\n        /* \"#utility.yul\":9766:9772   */\n      dup3\n        /* \"#utility.yul\":9755:9764   */\n      dup8\n        /* \"#utility.yul\":9751:9773   */\n      add\n        /* \"#utility.yul\":9730:9783   */\n      tag_215\n      jump\t// in\n    tag_333:\n        /* \"#utility.yul\":9720:9783   */\n      swap2\n      pop\n        /* \"#utility.yul\":9675:9793   */\n      pop\n        /* \"#utility.yul\":9181:9800   */\n      swap3\n      pop\n      swap3\n      pop\n      swap3\n      jump\t// out\n        /* \"#utility.yul\":9806:9986   */\n    tag_72:\n        /* \"#utility.yul\":9854:9931   */\n      0x4e487b7100000000000000000000000000000000000000000000000000000000\n        /* \"#utility.yul\":9851:9852   */\n      0x00\n        /* \"#utility.yul\":9844:9932   */\n      mstore\n        /* \"#utility.yul\":9951:9955   */\n      0x41\n        /* \"#utility.yul\":9948:9949   */\n      0x04\n        /* \"#utility.yul\":9941:9956   */\n      mstore\n        /* \"#utility.yul\":9975:9979   */\n      0x24\n        /* \"#utility.yul\":9972:9973   */\n      0x00\n        /* \"#utility.yul\":9965:9980   */\n      revert\n        /* \"#utility.yul\":9992:10172   */\n    tag_225:\n        /* \"#utility.yul\":10040:10117   */\n      0x4e487b7100000000000000000000000000000000000000000000000000000000\n        /* \"#utility.yul\":10037:10038   */\n      0x00\n        /* \"#utility.yul\":10030:10118   */\n      mstore\n        /* \"#utility.yul\":10137:10141   */\n      0x11\n        /* \"#utility.yul\":10134:10135   */\n      0x04\n        /* \"#utility.yul\":10127:10142   */\n      mstore\n        /* \"#utility.yul\":10161:10165   */\n      0x24\n        /* \"#utility.yul\":10158:10159   */\n      0x00\n        /* \"#utility.yul\":10151:10166   */\n      revert\n        /* \"#utility.yul\":10178:10369   */\n    tag_78:\n        /* \"#utility.yul\":10218:10221   */\n      0x00\n        /* \"#utility.yul\":10237:10257   */\n      tag_337\n        /* \"#utility.yul\":10255:10256   */\n      dup3\n        /* \"#utility.yul\":10237:10257   */\n      tag_208\n      jump\t// in\n    tag_337:\n        /* \"#utility.yul\":10232:10257   */\n      swap2\n      pop\n        /* \"#utility.yul\":10271:10291   */\n      tag_338\n        /* \"#utility.yul\":10289:10290   */\n      dup4\n        /* \"#utility.yul\":10271:10291   */\n      tag_208\n      jump\t// in\n    tag_338:\n        /* \"#utility.yul\":10266:10291   */\n      swap3\n      pop\n        /* \"#utility.yul\":10314:10315   */\n      dup3\n        /* \"#utility.yul\":10311:10312   */\n      dup3\n        /* \"#utility.yul\":10307:10316   */\n      add\n        /* \"#utility.yul\":10300:10316   */\n      swap1\n      pop\n        /* \"#utility.yul\":10335:10338   */\n      dup1\n        /* \"#utility.yul\":10332:10333   */\n      dup3\n        /* \"#utility.yul\":10329:10339   */\n      gt\n        /* \"#utility.yul\":10326:10362   */\n      iszero\n      tag_339\n      jumpi\n        /* \"#utility.yul\":10342:10360   */\n      tag_340\n      tag_225\n      jump\t// in\n    tag_340:\n        /* \"#utility.yul\":10326:10362   */\n    tag_339:\n        /* \"#utility.yul\":10178:10369   */\n      swap3\n      swap2\n      pop\n      pop\n      jump\t// out\n        /* \"#utility.yul\":10375:10555   */\n    tag_81:\n        /* \"#utility.yul\":10423:10500   */\n      0x4e487b7100000000000000000000000000000000000000000000000000000000\n        /* \"#utility.yul\":10420:10421   */\n      0x00\n        /* \"#utility.yul\":10413:10501   */\n      mstore\n        /* \"#utility.yul\":10520:10524   */\n      0x32\n        /* \"#utility.yul\":10517:10518   */\n      0x04\n        /* \"#utility.yul\":10510:10525   */\n      mstore\n        /* \"#utility.yul\":10544:10548   */\n      0x24\n        /* \"#utility.yul\":10541:10542   */\n      0x00\n        /* \"#utility.yul\":10534:10549   */\n      revert\n        /* \"#utility.yul\":10561:10755   */\n    tag_90:\n        /* \"#utility.yul\":10601:10605   */\n      0x00\n        /* \"#utility.yul\":10621:10641   */\n      tag_343\n        /* \"#utility.yul\":10639:10640   */\n      dup3\n        /* \"#utility.yul\":10621:10641   */\n      tag_208\n      jump\t// in\n    tag_343:\n        /* \"#utility.yul\":10616:10641   */\n      swap2\n      pop\n        /* \"#utility.yul\":10655:10675   */\n      tag_344\n        /* \"#utility.yul\":10673:10674   */\n      dup4\n        /* \"#utility.yul\":10655:10675   */\n      tag_208\n      jump\t// in\n    tag_344:\n        /* \"#utility.yul\":10650:10675   */\n      swap3\n      pop\n        /* \"#utility.yul\":10699:10700   */\n      dup3\n        /* \"#utility.yul\":10696:10697   */\n      dup3\n        /* \"#utility.yul\":10692:10701   */\n      sub\n        /* \"#utility.yul\":10684:10701   */\n      swap1\n      pop\n        /* \"#utility.yul\":10723:10724   */\n      dup2\n        /* \"#utility.yul\":10717:10721   */\n      dup2\n        /* \"#utility.yul\":10714:10725   */\n      gt\n        /* \"#utility.yul\":10711:10748   */\n      iszero\n      tag_345\n      jumpi\n        /* \"#utility.yul\":10728:10746   */\n      tag_346\n      tag_225\n      jump\t// in\n    tag_346:\n        /* \"#utility.yul\":10711:10748   */\n    tag_345:\n        /* \"#utility.yul\":10561:10755   */\n      swap3\n      swap2\n      pop\n      pop\n      jump\t// out\n        /* \"#utility.yul\":10761:10994   */\n    tag_94:\n        /* \"#utility.yul\":10800:10803   */\n      0x00\n        /* \"#utility.yul\":10823:10847   */\n      tag_348\n        /* \"#utility.yul\":10841:10846   */\n      dup3\n        /* \"#utility.yul\":10823:10847   */\n      tag_208\n      jump\t// in\n    tag_348:\n        /* \"#utility.yul\":10814:10847   */\n      swap2\n      pop\n        /* \"#utility.yul\":10869:10935   */\n      0xffffffffffffffffffffffffffffffffffffffffffffffffffffffffffffffff\n        /* \"#utility.yul\":10862:10867   */\n      dup3\n        /* \"#utility.yul\":10859:10936   */\n      sub\n        /* \"#utility.yul\":10856:10959   */\n      tag_349\n      jumpi\n        /* \"#utility.yul\":10939:10957   */\n      tag_350\n      tag_225\n      jump\t// in\n    tag_350:\n        /* \"#utility.yul\":10856:10959   */\n    tag_349:\n        /* \"#utility.yul\":10986:10987   */\n      0x01\n        /* \"#utility.yul\":10979:10984   */\n      dup3\n        /* \"#utility.yul\":10975:10988   */\n      add\n        /* \"#utility.yul\":10968:10988   */\n      swap1\n      pop\n        /* \"#utility.yul\":10761:10994   */\n      swap2\n      swap1\n      pop\n      jump\t// out\n        /* \"#utility.yul\":11000:11169   */\n    tag_226:\n        /* \"#utility.yul\":11084:11095   */\n      0x00\n        /* \"#utility.yul\":11118:11124   */\n      dup3\n        /* \"#utility.yul\":11113:11116   */\n      dup3\n        /* \"#utility.yul\":11106:11125   */\n      mstore\n        /* \"#utility.yul\":11158:11162   */\n      0x20\n        /* \"#utility.yul\":11153:11156   */\n      dup3\n        /* \"#utility.yul\":11149:11163   */\n      add\n        /* \"#utility.yul\":11134:11163   */\n      swap1\n      pop\n        /* \"#utility.yul\":11000:11169   */\n      swap3\n      swap2\n      pop\n      pop\n      jump\t// out\n        /* \"#utility.yul\":11175:11398   */\n    tag_227:\n        /* \"#utility.yul\":11315:11349   */\n      0x50616765206e756d6265722073686f756c642062652067726561746572207468\n        /* \"#utility.yul\":11311:11312   */\n      0x00\n        /* \"#utility.yul\":11303:11309   */\n      dup3\n        /* \"#utility.yul\":11299:11313   */\n      add\n        /* \"#utility.yul\":11292:11350   */\n      mstore\n        /* \"#utility.yul\":11384:11390   */\n      0x616e203000000000000000000000000000000000000000000000000000000000\n        /* \"#utility.yul\":11379:11381   */\n      0x20\n        /* \"#utility.yul\":11371:11377   */\n      dup3\n        /* \"#utility.yul\":11367:11382   */\n      add\n        /* \"#utility.yul\":11360:11391   */\n      mstore\n        /* \"#utility.yul\":11175:11398   */\n      pop\n      jump\t// out\n        /* \"#utility.yul\":11404:11770   */\n    tag_228:\n        /* \"#utility.yul\":11546:11549   */\n      0x00\n        /* \"#utility.yul\":11567:11634   */\n      tag_354\n        /* \"#utility.yul\":11631:11633   */\n      0x24\n        /* \"#utility.yul\":11626:11629   */\n      dup4\n        /* \"#utility.yul\":11567:11634   */\n      tag_226\n      jump\t// in\n    tag_354:\n        /* \"#utility.yul\":11560:11634   */\n      swap2\n      pop\n        /* \"#utility.yul\":11643:11736   */\n      tag_355\n        /* \"#utility.yul\":11732:11735   */\n      dup3\n        /* \"#utility.yul\":11643:11736   */\n      tag_227\n      jump\t// in\n    tag_355:\n        /* \"#utility.yul\":11761:11763   */\n      0x40\n        /* \"#utility.yul\":11756:11759   */\n      dup3\n        /* \"#utility.yul\":11752:11764   */\n      add\n        /* \"#utility.yul\":11745:11764   */\n      swap1\n      pop\n        /* \"#utility.yul\":11404:11770   */\n      swap2\n      swap1\n      pop\n      jump\t// out\n        /* \"#utility.yul\":11776:12195   */\n    tag_110:\n        /* \"#utility.yul\":11942:11946   */\n      0x00\n        /* \"#utility.yul\":11980:11982   */\n      0x20\n        /* \"#utility.yul\":11969:11978   */\n      dup3\n        /* \"#utility.yul\":11965:11983   */\n      add\n        /* \"#utility.yul\":11957:11983   */\n      swap1\n      pop\n        /* \"#utility.yul\":12029:12038   */\n      dup2\n        /* \"#utility.yul\":12023:12027   */\n      dup2\n        /* \"#utility.yul\":12019:12039   */\n      sub\n        /* \"#utility.yul\":12015:12016   */\n      0x00\n        /* \"#utility.yul\":12004:12013   */\n      dup4\n        /* \"#utility.yul\":12000:12017   */\n      add\n        /* \"#utility.yul\":11993:12040   */\n      mstore\n        /* \"#utility.yul\":12057:12188   */\n      tag_357\n        /* \"#utility.yul\":12183:12187   */\n      dup2\n        /* \"#utility.yul\":12057:12188   */\n      tag_228\n      jump\t// in\n    tag_357:\n        /* \"#utility.yul\":12049:12188   */\n      swap1\n      pop\n        /* \"#utility.yul\":11776:12195   */\n      swap2\n      swap1\n      pop\n      jump\t// out\n        /* \"#utility.yul\":12201:12422   */\n    tag_229:\n        /* \"#utility.yul\":12341:12375   */\n      0x506167652073697a652073686f756c642062652067726561746572207468616e\n        /* \"#utility.yul\":12337:12338   */\n      0x00\n        /* \"#utility.yul\":12329:12335   */\n      dup3\n        /* \"#utility.yul\":12325:12339   */\n      add\n        /* \"#utility.yul\":12318:12376   */\n      mstore\n        /* \"#utility.yul\":12410:12414   */\n      0x2030000000000000000000000000000000000000000000000000000000000000\n        /* \"#utility.yul\":12405:12407   */\n      0x20\n        /* \"#utility.yul\":12397:12403   */\n      dup3\n        /* \"#utility.yul\":12393:12408   */\n      add\n        /* \"#utility.yul\":12386:12415   */\n      mstore\n        /* \"#utility.yul\":12201:12422   */\n      pop\n      jump\t// out\n        /* \"#utility.yul\":12428:12794   */\n    tag_230:\n        /* \"#utility.yul\":12570:12573   */\n      0x00\n        /* \"#utility.yul\":12591:12658   */\n      tag_360\n        /* \"#utility.yul\":12655:12657   */\n      0x22\n        /* \"#utility.yul\":12650:12653   */\n      dup4\n        /* \"#utility.yul\":12591:12658   */\n      tag_226\n      jump\t// in\n    tag_360:\n        /* \"#utility.yul\":12584:12658   */\n      swap2\n      pop\n        /* \"#utility.yul\":12667:12760   */\n      tag_361\n        /* \"#utility.yul\":12756:12759   */\n      dup3\n        /* \"#utility.yul\":12667:12760   */\n      tag_229\n      jump\t// in\n    tag_361:\n        /* \"#utility.yul\":12785:12787   */\n      0x40\n        /* \"#utility.yul\":12780:12783   */\n      dup3\n        /* \"#utility.yul\":12776:12788   */\n      add\n        /* \"#utility.yul\":12769:12788   */\n      swap1\n      pop\n        /* \"#utility.yul\":12428:12794   */\n      swap2\n      swap1\n      pop\n      jump\t// out\n        /* \"#utility.yul\":12800:13219   */\n    tag_113:\n        /* \"#utility.yul\":12966:12970   */\n      0x00\n        /* \"#utility.yul\":13004:13006   */\n      0x20\n        /* \"#utility.yul\":12993:13002   */\n      dup3\n        /* \"#utility.yul\":12989:13007   */\n      add\n        /* \"#utility.yul\":12981:13007   */\n      swap1\n      pop\n        /* \"#utility.yul\":13053:13062   */\n      dup2\n        /* \"#utility.yul\":13047:13051   */\n      dup2\n        /* \"#utility.yul\":13043:13063   */\n      sub\n        /* \"#utility.yul\":13039:13040   */\n      0x00\n        /* \"#utility.yul\":13028:13037   */\n      dup4\n        /* \"#utility.yul\":13024:13041   */\n      add\n        /* \"#utility.yul\":13017:13064   */\n      mstore\n        /* \"#utility.yul\":13081:13212   */\n      tag_363\n        /* \"#utility.yul\":13207:13211   */\n      dup2\n        /* \"#utility.yul\":13081:13212   */\n      tag_230\n      jump\t// in\n    tag_363:\n        /* \"#utility.yul\":13073:13212   */\n      swap1\n      pop\n        /* \"#utility.yul\":12800:13219   */\n      swap2\n      swap1\n      pop\n      jump\t// out\n        /* \"#utility.yul\":13225:13635   */\n    tag_116:\n        /* \"#utility.yul\":13265:13272   */\n      0x00\n        /* \"#utility.yul\":13288:13308   */\n      tag_365\n        /* \"#utility.yul\":13306:13307   */\n      dup3\n        /* \"#utility.yul\":13288:13308   */\n      tag_208\n      jump\t// in\n    tag_365:\n        /* \"#utility.yul\":13283:13308   */\n      swap2\n      pop\n        /* \"#utility.yul\":13322:13342   */\n      tag_366\n        /* \"#utility.yul\":13340:13341   */\n      dup4\n        /* \"#utility.yul\":13322:13342   */\n      tag_208\n      jump\t// in\n    tag_366:\n        /* \"#utility.yul\":13317:13342   */\n      swap3\n      pop\n        /* \"#utility.yul\":13377:13378   */\n      dup3\n        /* \"#utility.yul\":13374:13375   */\n      dup3\n        /* \"#utility.yul\":13370:13379   */\n      mul\n        /* \"#utility.yul\":13399:13429   */\n      tag_367\n        /* \"#utility.yul\":13417:13428   */\n      dup2\n        /* \"#utility.yul\":13399:13429   */\n      tag_208\n      jump\t// in\n    tag_367:\n        /* \"#utility.yul\":13388:13429   */\n      swap2\n      pop\n        /* \"#utility.yul\":13578:13579   */\n      dup3\n        /* \"#utility.yul\":13569:13576   */\n      dup3\n        /* \"#utility.yul\":13565:13580   */\n      div\n        /* \"#utility.yul\":13562:13563   */\n      dup5\n        /* \"#utility.yul\":13559:13581   */\n      eq\n        /* \"#utility.yul\":13539:13540   */\n      dup4\n        /* \"#utility.yul\":13532:13541   */\n      iszero\n        /* \"#utility.yul\":13512:13595   */\n      or\n        /* \"#utility.yul\":13489:13628   */\n      tag_368\n      jumpi\n        /* \"#utility.yul\":13608:13626   */\n      tag_369\n      tag_225\n      jump\t// in\n    tag_369:\n        /* \"#utility.yul\":13489:13628   */\n    tag_368:\n        /* \"#utility.yul\":13273:13635   */\n      pop\n        /* \"#utility.yul\":13225:13635   */\n      swap3\n      swap2\n      pop\n      pop\n      jump\t// out\n        /* \"#utility.yul\":13641:13868   */\n    tag_231:\n        /* \"#utility.yul\":13781:13815   */\n      0x706167652073686f756c64206c657373207468616e20746f74616c204f726465\n        /* \"#utility.yul\":13777:13778   */\n      0x00\n        /* \"#utility.yul\":13769:13775   */\n      dup3\n        /* \"#utility.yul\":13765:13779   */\n      add\n        /* \"#utility.yul\":13758:13816   */\n      mstore\n        /* \"#utility.yul\":13850:13860   */\n      0x72206e756d626572000000000000000000000000000000000000000000000000\n        /* \"#utility.yul\":13845:13847   */\n      0x20\n        /* \"#utility.yul\":13837:13843   */\n      dup3\n        /* \"#utility.yul\":13833:13848   */\n      add\n        /* \"#utility.yul\":13826:13861   */\n      mstore\n        /* \"#utility.yul\":13641:13868   */\n      pop\n      jump\t// out\n        /* \"#utility.yul\":13874:14240   */\n    tag_232:\n        /* \"#utility.yul\":14016:14019   */\n      0x00\n        /* \"#utility.yul\":14037:14104   */\n      tag_372\n        /* \"#utility.yul\":14101:14103   */\n      0x28\n        /* \"#utility.yul\":14096:14099   */\n      dup4\n        /* \"#utility.yul\":14037:14104   */\n      tag_226\n      jump\t// in\n    tag_372:\n        /* \"#utility.yul\":14030:14104   */\n      swap2\n      pop\n        /* \"#utility.yul\":14113:14206   */\n      tag_373\n        /* \"#utility.yul\":14202:14205   */\n      dup3\n        /* \"#utility.yul\":14113:14206   */\n      tag_231\n      jump\t// in\n    tag_373:\n        /* \"#utility.yul\":14231:14233   */\n      0x40\n        /* \"#utility.yul\":14226:14229   */\n      dup3\n        /* \"#utility.yul\":14222:14234   */\n      add\n        /* \"#utility.yul\":14215:14234   */\n      swap1\n      pop\n        /* \"#utility.yul\":13874:14240   */\n      swap2\n      swap1\n      pop\n      jump\t// out\n        /* \"#utility.yul\":14246:14665   */\n    tag_121:\n        /* \"#utility.yul\":14412:14416   */\n      0x00\n        /* \"#utility.yul\":14450:14452   */\n      0x20\n        /* \"#utility.yul\":14439:14448   */\n      dup3\n        /* \"#utility.yul\":14435:14453   */\n      add\n        /* \"#utility.yul\":14427:14453   */\n      swap1\n      pop\n        /* \"#utility.yul\":14499:14508   */\n      dup2\n        /* \"#utility.yul\":14493:14497   */\n      dup2\n        /* \"#utility.yul\":14489:14509   */\n      sub\n        /* \"#utility.yul\":14485:14486   */\n      0x00\n        /* \"#utility.yul\":14474:14483   */\n      dup4\n        /* \"#utility.yul\":14470:14487   */\n      add\n        /* \"#utility.yul\":14463:14510   */\n      mstore\n        /* \"#utility.yul\":14527:14658   */\n      tag_375\n        /* \"#utility.yul\":14653:14657   */\n      dup2\n        /* \"#utility.yul\":14527:14658   */\n      tag_232\n      jump\t// in\n    tag_375:\n        /* \"#utility.yul\":14519:14658   */\n      swap1\n      pop\n        /* \"#utility.yul\":14246:14665   */\n      swap2\n      swap1\n      pop\n      jump\t// out\n        /* \"#utility.yul\":14671:14852   */\n    tag_233:\n        /* \"#utility.yul\":14811:14844   */\n      0x6d73672e73656e646572206973206e6f7420746865204e4654206f776e657200\n        /* \"#utility.yul\":14807:14808   */\n      0x00\n        /* \"#utility.yul\":14799:14805   */\n      dup3\n        /* \"#utility.yul\":14795:14809   */\n      add\n        /* \"#utility.yul\":14788:14845   */\n      mstore\n        /* \"#utility.yul\":14671:14852   */\n      pop\n      jump\t// out\n        /* \"#utility.yul\":14858:15224   */\n    tag_234:\n        /* \"#utility.yul\":15000:15003   */\n      0x00\n        /* \"#utility.yul\":15021:15088   */\n      tag_378\n        /* \"#utility.yul\":15085:15087   */\n      0x1f\n        /* \"#utility.yul\":15080:15083   */\n      dup4\n        /* \"#utility.yul\":15021:15088   */\n      tag_226\n      jump\t// in\n    tag_378:\n        /* \"#utility.yul\":15014:15088   */\n      swap2\n      pop\n        /* \"#utility.yul\":15097:15190   */\n      tag_379\n        /* \"#utility.yul\":15186:15189   */\n      dup3\n        /* \"#utility.yul\":15097:15190   */\n      tag_233\n      jump\t// in\n    tag_379:\n        /* \"#utility.yul\":15215:15217   */\n      0x20\n        /* \"#utility.yul\":15210:15213   */\n      dup3\n        /* \"#utility.yul\":15206:15218   */\n      add\n        /* \"#utility.yul\":15199:15218   */\n      swap1\n      pop\n        /* \"#utility.yul\":14858:15224   */\n      swap2\n      swap1\n      pop\n      jump\t// out\n        /* \"#utility.yul\":15230:15649   */\n    tag_155:\n        /* \"#utility.yul\":15396:15400   */\n      0x00\n        /* \"#utility.yul\":15434:15436   */\n      0x20\n        /* \"#utility.yul\":15423:15432   */\n      dup3\n        /* \"#utility.yul\":15419:15437   */\n      add\n        /* \"#utility.yul\":15411:15437   */\n      swap1\n      pop\n        /* \"#utility.yul\":15483:15492   */\n      dup2\n        /* \"#utility.yul\":15477:15481   */\n      dup2\n        /* \"#utility.yul\":15473:15493   */\n      sub\n        /* \"#utility.yul\":15469:15470   */\n      0x00\n        /* \"#utility.yul\":15458:15467   */\n      dup4\n        /* \"#utility.yul\":15454:15471   */\n      add\n        /* \"#utility.yul\":15447:15494   */\n      mstore\n        /* \"#utility.yul\":15511:15642   */\n      tag_381\n        /* \"#utility.yul\":15637:15641   */\n      dup2\n        /* \"#utility.yul\":15511:15642   */\n      tag_234\n      jump\t// in\n    tag_381:\n        /* \"#utility.yul\":15503:15642   */\n      swap1\n      pop\n        /* \"#utility.yul\":15230:15649   */\n      swap2\n      swap1\n      pop\n      jump\t// out\n        /* \"#utility.yul\":15655:16097   */\n    tag_157:\n        /* \"#utility.yul\":15804:15808   */\n      0x00\n        /* \"#utility.yul\":15842:15844   */\n      0x60\n        /* \"#utility.yul\":15831:15840   */\n      dup3\n        /* \"#utility.yul\":15827:15845   */\n      add\n        /* \"#utility.yul\":15819:15845   */\n      swap1\n      pop\n        /* \"#utility.yul\":15855:15926   */\n      tag_383\n        /* \"#utility.yul\":15923:15924   */\n      0x00\n        /* \"#utility.yul\":15912:15921   */\n      dup4\n        /* \"#utility.yul\":15908:15925   */\n      add\n        /* \"#utility.yul\":15899:15905   */\n      dup7\n        /* \"#utility.yul\":15855:15926   */\n      tag_224\n      jump\t// in\n    tag_383:\n        /* \"#utility.yul\":15936:16008   */\n      tag_384\n        /* \"#utility.yul\":16004:16006   */\n      0x20\n        /* \"#utility.yul\":15993:16002   */\n      dup4\n        /* \"#utility.yul\":15989:16007   */\n      add\n        /* \"#utility.yul\":15980:15986   */\n      dup6\n        /* \"#utility.yul\":15936:16008   */\n      tag_224\n      jump\t// in\n    tag_384:\n        /* \"#utility.yul\":16018:16090   */\n      tag_385\n        /* \"#utility.yul\":16086:16088   */\n      0x40\n        /* \"#utility.yul\":16075:16084   */\n      dup4\n        /* \"#utility.yul\":16071:16089   */\n      add\n        /* \"#utility.yul\":16062:16068   */\n      dup5\n        /* \"#utility.yul\":16018:16090   */\n      tag_213\n      jump\t// in\n    tag_385:\n        /* \"#utility.yul\":15655:16097   */\n      swap5\n      swap4\n      pop\n      pop\n      pop\n      pop\n      jump\t// out\n        /* \"#utility.yul\":16103:16269   */\n    tag_235:\n        /* \"#utility.yul\":16243:16261   */\n      0x707269636520697320746f6f206c6f7700000000000000000000000000000000\n        /* \"#utility.yul\":16239:16240   */\n      0x00\n        /* \"#utility.yul\":16231:16237   */\n      dup3\n        /* \"#utility.yul\":16227:16241   */\n      add\n        /* \"#utility.yul\":16220:16262   */\n      mstore\n        /* \"#utility.yul\":16103:16269   */\n      pop\n      jump\t// out\n        /* \"#utility.yul\":16275:16641   */\n    tag_236:\n        /* \"#utility.yul\":16417:16420   */\n      0x00\n        /* \"#utility.yul\":16438:16505   */\n      tag_388\n        /* \"#utility.yul\":16502:16504   */\n      0x10\n        /* \"#utility.yul\":16497:16500   */\n      dup4\n        /* \"#utility.yul\":16438:16505   */\n      tag_226\n      jump\t// in\n    tag_388:\n        /* \"#utility.yul\":16431:16505   */\n      swap2\n      pop\n        /* \"#utility.yul\":16514:16607   */\n      tag_389\n        /* \"#utility.yul\":16603:16606   */\n      dup3\n        /* \"#utility.yul\":16514:16607   */\n      tag_235\n      jump\t// in\n    tag_389:\n        /* \"#utility.yul\":16632:16634   */\n      0x20\n        /* \"#utility.yul\":16627:16630   */\n      dup3\n        /* \"#utility.yul\":16623:16635   */\n      add\n        /* \"#utility.yul\":16616:16635   */\n      swap1\n      pop\n        /* \"#utility.yul\":16275:16641   */\n      swap2\n      swap1\n      pop\n      jump\t// out\n        /* \"#utility.yul\":16647:17066   */\n    tag_168:\n        /* \"#utility.yul\":16813:16817   */\n      0x00\n        /* \"#utility.yul\":16851:16853   */\n      0x20\n        /* \"#utility.yul\":16840:16849   */\n      dup3\n        /* \"#utility.yul\":16836:16854   */\n      add\n        /* \"#utility.yul\":16828:16854   */\n      swap1\n      pop\n        /* \"#utility.yul\":16900:16909   */\n      dup2\n        /* \"#utility.yul\":16894:16898   */\n      dup2\n        /* \"#utility.yul\":16890:16910   */\n      sub\n        /* \"#utility.yul\":16886:16887   */\n      0x00\n        /* \"#utility.yul\":16875:16884   */\n      dup4\n        /* \"#utility.yul\":16871:16888   */\n      add\n        /* \"#utility.yul\":16864:16911   */\n      mstore\n        /* \"#utility.yul\":16928:17059   */\n      tag_391\n        /* \"#utility.yul\":17054:17058   */\n      dup2\n        /* \"#utility.yul\":16928:17059   */\n      tag_236\n      jump\t// in\n    tag_391:\n        /* \"#utility.yul\":16920:17059   */\n      swap1\n      pop\n        /* \"#utility.yul\":16647:17066   */\n      swap2\n      swap1\n      pop\n      jump\t// out\n        /* \"#utility.yul\":17072:17404   */\n    tag_170:\n        /* \"#utility.yul\":17193:17197   */\n      0x00\n        /* \"#utility.yul\":17231:17233   */\n      0x40\n        /* \"#utility.yul\":17220:17229   */\n      dup3\n        /* \"#utility.yul\":17216:17234   */\n      add\n        /* \"#utility.yul\":17208:17234   */\n      swap1\n      pop\n        /* \"#utility.yul\":17244:17315   */\n      tag_393\n        /* \"#utility.yul\":17312:17313   */\n      0x00\n        /* \"#utility.yul\":17301:17310   */\n      dup4\n        /* \"#utility.yul\":17297:17314   */\n      add\n        /* \"#utility.yul\":17288:17294   */\n      dup6\n        /* \"#utility.yul\":17244:17315   */\n      tag_224\n      jump\t// in\n    tag_393:\n        /* \"#utility.yul\":17325:17397   */\n      tag_394\n        /* \"#utility.yul\":17393:17395   */\n      0x20\n        /* \"#utility.yul\":17382:17391   */\n      dup4\n        /* \"#utility.yul\":17378:17396   */\n      add\n        /* \"#utility.yul\":17369:17375   */\n      dup5\n        /* \"#utility.yul\":17325:17397   */\n      tag_213\n      jump\t// in\n    tag_394:\n        /* \"#utility.yul\":17072:17404   */\n      swap4\n      swap3\n      pop\n      pop\n      pop\n      jump\t// out\n        /* \"#utility.yul\":17410:17643   */\n    tag_237:\n        /* \"#utility.yul\":17550:17584   */\n      0x746865202773656c6c65722720706172616d65746572206973206e6f74207468\n        /* \"#utility.yul\":17546:17547   */\n      0x00\n        /* \"#utility.yul\":17538:17544   */\n      dup3\n        /* \"#utility.yul\":17534:17548   */\n      add\n        /* \"#utility.yul\":17527:17585   */\n      mstore\n        /* \"#utility.yul\":17619:17635   */\n      0x65206f726465722073656c6c6572000000000000000000000000000000000000\n        /* \"#utility.yul\":17614:17616   */\n      0x20\n        /* \"#utility.yul\":17606:17612   */\n      dup3\n        /* \"#utility.yul\":17602:17617   */\n      add\n        /* \"#utility.yul\":17595:17636   */\n      mstore\n        /* \"#utility.yul\":17410:17643   */\n      pop\n      jump\t// out\n        /* \"#utility.yul\":17649:18015   */\n    tag_238:\n        /* \"#utility.yul\":17791:17794   */\n      0x00\n        /* \"#utility.yul\":17812:17879   */\n      tag_397\n        /* \"#utility.yul\":17876:17878   */\n      0x2e\n        /* \"#utility.yul\":17871:17874   */\n      dup4\n        /* \"#utility.yul\":17812:17879   */\n      tag_226\n      jump\t// in\n    tag_397:\n        /* \"#utility.yul\":17805:17879   */\n      swap2\n      pop\n        /* \"#utility.yul\":17888:17981   */\n      tag_398\n        /* \"#utility.yul\":17977:17980   */\n      dup3\n        /* \"#utility.yul\":17888:17981   */\n      tag_237\n      jump\t// in\n    tag_398:\n        /* \"#utility.yul\":18006:18008   */\n      0x40\n        /* \"#utility.yul\":18001:18004   */\n      dup3\n        /* \"#utility.yul\":17997:18009   */\n      add\n        /* \"#utility.yul\":17990:18009   */\n      swap1\n      pop\n        /* \"#utility.yul\":17649:18015   */\n      swap2\n      swap1\n      pop\n      jump\t// out\n        /* \"#utility.yul\":18021:18440   */\n    tag_191:\n        /* \"#utility.yul\":18187:18191   */\n      0x00\n        /* \"#utility.yul\":18225:18227   */\n      0x20\n        /* \"#utility.yul\":18214:18223   */\n      dup3\n        /* \"#utility.yul\":18210:18228   */\n      add\n        /* \"#utility.yul\":18202:18228   */\n      swap1\n      pop\n        /* \"#utility.yul\":18274:18283   */\n      dup2\n        /* \"#utility.yul\":18268:18272   */\n      dup2\n        /* \"#utility.yul\":18264:18284   */\n      sub\n        /* \"#utility.yul\":18260:18261   */\n      0x00\n        /* \"#utility.yul\":18249:18258   */\n      dup4\n        /* \"#utility.yul\":18245:18262   */\n      add\n        /* \"#utility.yul\":18238:18285   */\n      mstore\n        /* \"#utility.yul\":18302:18433   */\n      tag_400\n        /* \"#utility.yul\":18428:18432   */\n      dup2\n        /* \"#utility.yul\":18302:18433   */\n      tag_238\n      jump\t// in\n    tag_400:\n        /* \"#utility.yul\":18294:18433   */\n      swap1\n      pop\n        /* \"#utility.yul\":18021:18440   */\n      swap2\n      swap1\n      pop\n      jump\t// out\n\n    auxdata: 0xa2646970667358221220fdbb3992f07dfd6f509cfdaa3573c394f267802174fd61fbbb408bba3fbd7c5c64736f6c63430008180033\n}\n",
				"bytecode": {
					"linkReferences": {},
					"object": "60806040523480156200001157600080fd5b5060405162001f4c38038062001f4c833981810160405281019062000037919062000129565b806000806101000a81548173ffffffffffffffffffffffffffffffffffffffff021916908373ffffffffffffffffffffffffffffffffffffffff16021790555033600160006101000a81548173ffffffffffffffffffffffffffffffffffffffff021916908373ffffffffffffffffffffffffffffffffffffffff160217905550506200015b565b600080fd5b600073ffffffffffffffffffffffffffffffffffffffff82169050919050565b6000620000f182620000c4565b9050919050565b6200010381620000e4565b81146200010f57600080fd5b50565b6000815190506200012381620000f8565b92915050565b600060208284031215620001425762000141620000bf565b5b6000620001528482850162000112565b91505092915050565b611de1806200016b6000396000f3fe60806040526004361061009c5760003560e01c80637bea0d1c116100645780637bea0d1c1461019c5780637fc27efd146101c75780638b7afe2e146101f0578063a82ba76f1461021b578063c6362a5914610237578063dda342bb146102765761009c565b806341a6506b146100a15780634b2b612a146100de5780634b58ffaa146101095780634e9c378f146101345780635879e79b1461015f575b600080fd5b3480156100ad57600080fd5b506100c860048036038101906100c391906114b3565b61029f565b6040516100d591906115a8565b60405180910390f35b3480156100ea57600080fd5b506100f36103d1565b60405161010091906115a8565b60405180910390f35b34801561011557600080fd5b5061011e61048f565b60405161012b91906115a8565b60405180910390f35b34801561014057600080fd5b5061014961054d565b60405161015691906115d9565b60405180910390f35b34801561016b57600080fd5b5061018660048036038101906101819190611620565b610557565b6040516101939190611773565b60405180910390f35b3480156101a857600080fd5b506101b16107c0565b6040516101be9190611773565b60405180910390f35b3480156101d357600080fd5b506101ee60048036038101906101e99190611795565b610903565b005b3480156101fc57600080fd5b50610205610aba565b60405161021291906115d9565b60405180910390f35b61023560048036038101906102309190611795565b610ac0565b005b34801561024357600080fd5b5061025e600480360381019061025991906117d5565b610d42565b60405161026d93929190611811565b60405180910390f35b34801561028257600080fd5b5061029d60048036038101906102989190611848565b610db9565b005b60606000600660008473ffffffffffffffffffffffffffffffffffffffff1673ffffffffffffffffffffffffffffffffffffffff16815260200190815260200160002054905060008167ffffffffffffffff8111156103015761030061189b565b5b60405190808252806020026020018201604052801561032f5781602001602082028036833780820191505090505b50905060005b828110156103c657600560008673ffffffffffffffffffffffffffffffffffffffff1673ffffffffffffffffffffffffffffffffffffffff168152602001908152602001600020600060018361038b91906118f9565b8152602001908152602001600020548282815181106103ad576103ac61192d565b5b6020026020010181815250508080600101915050610335565b508092505050919050565b6060600060075467ffffffffffffffff8111156103f1576103f061189b565b5b60405190808252806020026020018201604052801561041f5781602001602082028036833780820191505090505b5090506000600190505b600754811161048757600460008281526020019081526020016000206000015482600183610457919061195c565b815181106104685761046761192d565b5b602002602001018181525050808061047f90611990565b915050610429565b508091505090565b6060600060075467ffffffffffffffff8111156104af576104ae61189b565b5b6040519080825280602002602001820160405280156104dd5781602001602082028036833780820191505090505b5090506000600190505b600754811161054557600460008281526020019081526020016000206001015482600183610515919061195c565b815181106105265761052561192d565b5b602002602001018181525050808061053d90611990565b9150506104e7565b508091505090565b6000600754905090565b60606000831161059c576040517f08c379a000000000000000000000000000000000000000000000000000000000815260040161059390611a5b565b60405180910390fd5b600082116105df576040517f08c379a00000000000000000000000000000000000000000000000000000000081526004016105d690611aed565b60405180910390fd5b60006001836001866105f1919061195c565b6105fb9190611b0d565b61060591906118f9565b9050600083856106159190611b0d565b9050600754821061065b576040517f08c379a000000000000000000000000000000000000000000000000000000000815260040161065290611bc1565b60405180910390fd5b60075481111561066b5760075490505b60006001838361067b919061195c565b61068591906118f9565b905060008167ffffffffffffffff8111156106a3576106a261189b565b5b6040519080825280602002602001820160405280156106dc57816020015b6106c9611412565b8152602001906001900390816106c15790505b50905060005b828110156107b2576004600082876106fa91906118f9565b815260200190815260200160002060405180608001604052908160008201548152602001600182015481526020016002820160009054906101000a900473ffffffffffffffffffffffffffffffffffffffff1673ffffffffffffffffffffffffffffffffffffffff1673ffffffffffffffffffffffffffffffffffffffff16815260200160038201548152505082828151811061079a5761079961192d565b5b602002602001018190525080806001019150506106e2565b508094505050505092915050565b6060600060075467ffffffffffffffff8111156107e0576107df61189b565b5b60405190808252806020026020018201604052801561081957816020015b610806611412565b8152602001906001900390816107fe5790505b5090506000600190505b60075481116108fb576004600082815260200190815260200160002060405180608001604052908160008201548152602001600182015481526020016002820160009054906101000a900473ffffffffffffffffffffffffffffffffffffffff1673ffffffffffffffffffffffffffffffffffffffff1673ffffffffffffffffffffffffffffffffffffffff168152602001600382015481525050826001836108cc919061195c565b815181106108dd576108dc61192d565b5b602002602001018190525080806108f390611990565b915050610823565b508091505090565b600160009054906101000a900473ffffffffffffffffffffffffffffffffffffffff1673ffffffffffffffffffffffffffffffffffffffff163373ffffffffffffffffffffffffffffffffffffffff161461095d57600080fd5b6003600082815260200190815260200160002060020160009054906101000a900473ffffffffffffffffffffffffffffffffffffffff1673ffffffffffffffffffffffffffffffffffffffff168273ffffffffffffffffffffffffffffffffffffffff1614610a01576040517f08c379a00000000000000000000000000000000000000000000000000000000081526004016109f890611c2d565b60405180910390fd5b60006003600083815260200190815260200160002060010154905060008054906101000a900473ffffffffffffffffffffffffffffffffffffffff1673ffffffffffffffffffffffffffffffffffffffff166323b872dd3085846040518463ffffffff1660e01b8152600401610a7993929190611c4d565b600060405180830381600087803b158015610a9357600080fd5b505af1158015610aa7573d6000803e3d6000fd5b50505050610ab583836110a5565b505050565b60025481565b600160009054906101000a900473ffffffffffffffffffffffffffffffffffffffff1673ffffffffffffffffffffffffffffffffffffffff163373ffffffffffffffffffffffffffffffffffffffff1614610b1a57600080fd5b60006003600083815260200190815260200160002060030154905060006003600084815260200190815260200160002060010154905060006003600085815260200190815260200160002060020160009054906101000a900473ffffffffffffffffffffffffffffffffffffffff16905082341015610bce576040517f08c379a0000000000000000000000000000000000000000000000000000000008152600401610bc590611cd0565b60405180910390fd5b60008054906101000a900473ffffffffffffffffffffffffffffffffffffffff1673ffffffffffffffffffffffffffffffffffffffff1663095ea7b330846040518363ffffffff1660e01b8152600401610c29929190611cf0565b600060405180830381600087803b158015610c4357600080fd5b505af1158015610c57573d6000803e3d6000fd5b5050505060008054906101000a900473ffffffffffffffffffffffffffffffffffffffff1673ffffffffffffffffffffffffffffffffffffffff166323b872dd3087856040518463ffffffff1660e01b8152600401610cb893929190611c4d565b600060405180830381600087803b158015610cd257600080fd5b505af1158015610ce6573d6000803e3d6000fd5b505050508073ffffffffffffffffffffffffffffffffffffffff166108fc849081150290604051600060405180830381858888f19350505050158015610d30573d6000803e3d6000fd5b50610d3b81856110a5565b5050505050565b6000806000600360008581526020019081526020016000206001015492506003600085815260200190815260200160002060020160009054906101000a900473ffffffffffffffffffffffffffffffffffffffff169150600360008581526020019081526020016000206003015490509193909250565b600160009054906101000a900473ffffffffffffffffffffffffffffffffffffffff1673ffffffffffffffffffffffffffffffffffffffff163373ffffffffffffffffffffffffffffffffffffffff1614610e1357600080fd5b600160086000828254610e2691906118f9565b92505081905550600160076000828254610e4091906118f9565b92505081905550604051806080016040528060085481526020018281526020018473ffffffffffffffffffffffffffffffffffffffff16815260200183815250600360006008548152602001908152602001600020600082015181600001556020820151816001015560408201518160020160006101000a81548173ffffffffffffffffffffffffffffffffffffffff021916908373ffffffffffffffffffffffffffffffffffffffff160217905550606082015181600301559050506001600660008573ffffffffffffffffffffffffffffffffffffffff1673ffffffffffffffffffffffffffffffffffffffff1681526020019081526020016000206000828254610f4d91906118f9565b92505081905550600854600560008573ffffffffffffffffffffffffffffffffffffffff1673ffffffffffffffffffffffffffffffffffffffff1681526020019081526020016000206000600660008773ffffffffffffffffffffffffffffffffffffffff1673ffffffffffffffffffffffffffffffffffffffff16815260200190815260200160002054815260200190815260200160002081905550604051806080016040528060085481526020018281526020018473ffffffffffffffffffffffffffffffffffffffff16815260200183815250600460006007548152602001908152602001600020600082015181600001556020820151816001015560408201518160020160006101000a81548173ffffffffffffffffffffffffffffffffffffffff021916908373ffffffffffffffffffffffffffffffffffffffff16021790555060608201518160030155905050505050565b60006003600083815260200190815260200160002060020160009054906101000a900473ffffffffffffffffffffffffffffffffffffffff1690508073ffffffffffffffffffffffffffffffffffffffff168373ffffffffffffffffffffffffffffffffffffffff161461114e576040517f08c379a000000000000000000000000000000000000000000000000000000000815260040161114590611d8b565b60405180910390fd5b6000600190505b600660008573ffffffffffffffffffffffffffffffffffffffff1673ffffffffffffffffffffffffffffffffffffffff168152602001908152602001600020548110156112eb576000600560008673ffffffffffffffffffffffffffffffffffffffff1673ffffffffffffffffffffffffffffffffffffffff16815260200190815260200160002060008381526020019081526020016000205490508381036112dd57600560008673ffffffffffffffffffffffffffffffffffffffff1673ffffffffffffffffffffffffffffffffffffffff1681526020019081526020016000206000600660008873ffffffffffffffffffffffffffffffffffffffff1673ffffffffffffffffffffffffffffffffffffffff16815260200190815260200160002054815260200190815260200160002054600560008773ffffffffffffffffffffffffffffffffffffffff1673ffffffffffffffffffffffffffffffffffffffff1681526020019081526020016000206000848152602001908152602001600020819055505b508080600101915050611155565b506001600660008573ffffffffffffffffffffffffffffffffffffffff1673ffffffffffffffffffffffffffffffffffffffff168152602001908152602001600020600082825461133c919061195c565b925050819055506004600060075481526020019081526020016000206004600084815260200190815260200160002060008201548160000155600182015481600101556002820160009054906101000a900473ffffffffffffffffffffffffffffffffffffffff168160020160006101000a81548173ffffffffffffffffffffffffffffffffffffffff021916908373ffffffffffffffffffffffffffffffffffffffff16021790555060038201548160030155905050600160076000828254611406919061195c565b92505081905550505050565b60405180608001604052806000815260200160008152602001600073ffffffffffffffffffffffffffffffffffffffff168152602001600081525090565b600080fd5b600073ffffffffffffffffffffffffffffffffffffffff82169050919050565b600061148082611455565b9050919050565b61149081611475565b811461149b57600080fd5b50565b6000813590506114ad81611487565b92915050565b6000602082840312156114c9576114c8611450565b5b60006114d78482850161149e565b91505092915050565b600081519050919050565b600082825260208201905092915050565b6000819050602082019050919050565b6000819050919050565b61151f8161150c565b82525050565b60006115318383611516565b60208301905092915050565b6000602082019050919050565b6000611555826114e0565b61155f81856114eb565b935061156a836114fc565b8060005b8381101561159b5781516115828882611525565b975061158d8361153d565b92505060018101905061156e565b5085935050505092915050565b600060208201905081810360008301526115c2818461154a565b905092915050565b6115d38161150c565b82525050565b60006020820190506115ee60008301846115ca565b92915050565b6115fd8161150c565b811461160857600080fd5b50565b60008135905061161a816115f4565b92915050565b6000806040838503121561163757611636611450565b5b60006116458582860161160b565b92505060206116568582860161160b565b9150509250929050565b600081519050919050565b600082825260208201905092915050565b6000819050602082019050919050565b61169581611475565b82525050565b6080820160008201516116b16000850182611516565b5060208201516116c46020850182611516565b5060408201516116d7604085018261168c565b5060608201516116ea6060850182611516565b50505050565b60006116fc838361169b565b60808301905092915050565b6000602082019050919050565b600061172082611660565b61172a818561166b565b93506117358361167c565b8060005b8381101561176657815161174d88826116f0565b975061175883611708565b925050600181019050611739565b5085935050505092915050565b6000602082019050818103600083015261178d8184611715565b905092915050565b600080604083850312156117ac576117ab611450565b5b60006117ba8582860161149e565b92505060206117cb8582860161160b565b9150509250929050565b6000602082840312156117eb576117ea611450565b5b60006117f98482850161160b565b91505092915050565b61180b81611475565b82525050565b600060608201905061182660008301866115ca565b6118336020830185611802565b61184060408301846115ca565b949350505050565b60008060006060848603121561186157611860611450565b5b600061186f8682870161149e565b93505060206118808682870161160b565b92505060406118918682870161160b565b9150509250925092565b7f4e487b7100000000000000000000000000000000000000000000000000000000600052604160045260246000fd5b7f4e487b7100000000000000000000000000000000000000000000000000000000600052601160045260246000fd5b60006119048261150c565b915061190f8361150c565b9250828201905080821115611927576119266118ca565b5b92915050565b7f4e487b7100000000000000000000000000000000000000000000000000000000600052603260045260246000fd5b60006119678261150c565b91506119728361150c565b925082820390508181111561198a576119896118ca565b5b92915050565b600061199b8261150c565b91507fffffffffffffffffffffffffffffffffffffffffffffffffffffffffffffffff82036119cd576119cc6118ca565b5b600182019050919050565b600082825260208201905092915050565b7f50616765206e756d6265722073686f756c64206265206772656174657220746860008201527f616e203000000000000000000000000000000000000000000000000000000000602082015250565b6000611a456024836119d8565b9150611a50826119e9565b604082019050919050565b60006020820190508181036000830152611a7481611a38565b9050919050565b7f506167652073697a652073686f756c642062652067726561746572207468616e60008201527f2030000000000000000000000000000000000000000000000000000000000000602082015250565b6000611ad76022836119d8565b9150611ae282611a7b565b604082019050919050565b60006020820190508181036000830152611b0681611aca565b9050919050565b6000611b188261150c565b9150611b238361150c565b9250828202611b318161150c565b91508282048414831517611b4857611b476118ca565b5b5092915050565b7f706167652073686f756c64206c657373207468616e20746f74616c204f72646560008201527f72206e756d626572000000000000000000000000000000000000000000000000602082015250565b6000611bab6028836119d8565b9150611bb682611b4f565b604082019050919050565b60006020820190508181036000830152611bda81611b9e565b9050919050565b7f6d73672e73656e646572206973206e6f7420746865204e4654206f776e657200600082015250565b6000611c17601f836119d8565b9150611c2282611be1565b602082019050919050565b60006020820190508181036000830152611c4681611c0a565b9050919050565b6000606082019050611c626000830186611802565b611c6f6020830185611802565b611c7c60408301846115ca565b949350505050565b7f707269636520697320746f6f206c6f7700000000000000000000000000000000600082015250565b6000611cba6010836119d8565b9150611cc582611c84565b602082019050919050565b60006020820190508181036000830152611ce981611cad565b9050919050565b6000604082019050611d056000830185611802565b611d1260208301846115ca565b9392505050565b7f746865202773656c6c65722720706172616d65746572206973206e6f7420746860008201527f65206f726465722073656c6c6572000000000000000000000000000000000000602082015250565b6000611d75602e836119d8565b9150611d8082611d19565b604082019050919050565b60006020820190508181036000830152611da481611d68565b905091905056fea2646970667358221220fdbb3992f07dfd6f509cfdaa3573c394f267802174fd61fbbb408bba3fbd7c5c64736f6c63430008180033",
					"opcodes": "PUSH1 0x80 PUSH1 0x40 MSTORE CALLVALUE DUP1 ISZERO PUSH3 0x11 JUMPI PUSH1 0x0 DUP1 REVERT JUMPDEST POP PUSH1 0x40 MLOAD PUSH3 0x1F4C CODESIZE SUB DUP1 PUSH3 0x1F4C DUP4 CODECOPY DUP2 DUP2 ADD PUSH1 0x40 MSTORE DUP2 ADD SWAP1 PUSH3 0x37 SWAP2 SWAP1 PUSH3 0x129 JUMP JUMPDEST DUP1 PUSH1 0x0 DUP1 PUSH2 0x100 EXP DUP2 SLOAD DUP2 PUSH20 0xFFFFFFFFFFFFFFFFFFFFFFFFFFFFFFFFFFFFFFFF MUL NOT AND SWAP1 DUP4 PUSH20 0xFFFFFFFFFFFFFFFFFFFFFFFFFFFFFFFFFFFFFFFF AND MUL OR SWAP1 SSTORE POP CALLER PUSH1 0x1 PUSH1 0x0 PUSH2 0x100 EXP DUP2 SLOAD DUP2 PUSH20 0xFFFFFFFFFFFFFFFFFFFFFFFFFFFFFFFFFFFFFFFF MUL NOT AND SWAP1 DUP4 PUSH20 0xFFFFFFFFFFFFFFFFFFFFFFFFFFFFFFFFFFFFFFFF AND MUL OR SWAP1 SSTORE POP POP PUSH3 0x15B JUMP JUMPDEST PUSH1 0x0 DUP1 REVERT JUMPDEST PUSH1 0x0 PUSH20 0xFFFFFFFFFFFFFFFFFFFFFFFFFFFFFFFFFFFFFFFF DUP3 AND SWAP1 POP SWAP2 SWAP1 POP JUMP JUMPDEST PUSH1 0x0 PUSH3 0xF1 DUP3 PUSH3 0xC4 JUMP JUMPDEST SWAP1 POP SWAP2 SWAP1 POP JUMP JUMPDEST PUSH3 0x103 DUP2 PUSH3 0xE4 JUMP JUMPDEST DUP2 EQ PUSH3 0x10F JUMPI PUSH1 0x0 DUP1 REVERT JUMPDEST POP JUMP JUMPDEST PUSH1 0x0 DUP2 MLOAD SWAP1 POP PUSH3 0x123 DUP2 PUSH3 0xF8 JUMP JUMPDEST SWAP3 SWAP2 POP POP JUMP JUMPDEST PUSH1 0x0 PUSH1 0x20 DUP3 DUP5 SUB SLT ISZERO PUSH3 0x142 JUMPI PUSH3 0x141 PUSH3 0xBF JUMP JUMPDEST JUMPDEST PUSH1 0x0 PUSH3 0x152 DUP5 DUP3 DUP6 ADD PUSH3 0x112 JUMP JUMPDEST SWAP2 POP POP SWAP3 SWAP2 POP POP JUMP JUMPDEST PUSH2 0x1DE1 DUP1 PUSH3 0x16B PUSH1 0x0 CODECOPY PUSH1 0x0 RETURN INVALID PUSH1 0x80 PUSH1 0x40 MSTORE PUSH1 0x4 CALLDATASIZE LT PUSH2 0x9C JUMPI PUSH1 0x0 CALLDATALOAD PUSH1 0xE0 SHR DUP1 PUSH4 0x7BEA0D1C GT PUSH2 0x64 JUMPI DUP1 PUSH4 0x7BEA0D1C EQ PUSH2 0x19C JUMPI DUP1 PUSH4 0x7FC27EFD EQ PUSH2 0x1C7 JUMPI DUP1 PUSH4 0x8B7AFE2E EQ PUSH2 0x1F0 JUMPI DUP1 PUSH4 0xA82BA76F EQ PUSH2 0x21B JUMPI DUP1 PUSH4 0xC6362A59 EQ PUSH2 0x237 JUMPI DUP1 PUSH4 0xDDA342BB EQ PUSH2 0x276 JUMPI PUSH2 0x9C JUMP JUMPDEST DUP1 PUSH4 0x41A6506B EQ PUSH2 0xA1 JUMPI DUP1 PUSH4 0x4B2B612A EQ PUSH2 0xDE JUMPI DUP1 PUSH4 0x4B58FFAA EQ PUSH2 0x109 JUMPI DUP1 PUSH4 0x4E9C378F EQ PUSH2 0x134 JUMPI DUP1 PUSH4 0x5879E79B EQ PUSH2 0x15F JUMPI JUMPDEST PUSH1 0x0 DUP1 REVERT JUMPDEST CALLVALUE DUP1 ISZERO PUSH2 0xAD JUMPI PUSH1 0x0 DUP1 REVERT JUMPDEST POP PUSH2 0xC8 PUSH1 0x4 DUP1 CALLDATASIZE SUB DUP2 ADD SWAP1 PUSH2 0xC3 SWAP2 SWAP1 PUSH2 0x14B3 JUMP JUMPDEST PUSH2 0x29F JUMP JUMPDEST PUSH1 0x40 MLOAD PUSH2 0xD5 SWAP2 SWAP1 PUSH2 0x15A8 JUMP JUMPDEST PUSH1 0x40 MLOAD DUP1 SWAP2 SUB SWAP1 RETURN JUMPDEST CALLVALUE DUP1 ISZERO PUSH2 0xEA JUMPI PUSH1 0x0 DUP1 REVERT JUMPDEST POP PUSH2 0xF3 PUSH2 0x3D1 JUMP JUMPDEST PUSH1 0x40 MLOAD PUSH2 0x100 SWAP2 SWAP1 PUSH2 0x15A8 JUMP JUMPDEST PUSH1 0x40 MLOAD DUP1 SWAP2 SUB SWAP1 RETURN JUMPDEST CALLVALUE DUP1 ISZERO PUSH2 0x115 JUMPI PUSH1 0x0 DUP1 REVERT JUMPDEST POP PUSH2 0x11E PUSH2 0x48F JUMP JUMPDEST PUSH1 0x40 MLOAD PUSH2 0x12B SWAP2 SWAP1 PUSH2 0x15A8 JUMP JUMPDEST PUSH1 0x40 MLOAD DUP1 SWAP2 SUB SWAP1 RETURN JUMPDEST CALLVALUE DUP1 ISZERO PUSH2 0x140 JUMPI PUSH1 0x0 DUP1 REVERT JUMPDEST POP PUSH2 0x149 PUSH2 0x54D JUMP JUMPDEST PUSH1 0x40 MLOAD PUSH2 0x156 SWAP2 SWAP1 PUSH2 0x15D9 JUMP JUMPDEST PUSH1 0x40 MLOAD DUP1 SWAP2 SUB SWAP1 RETURN JUMPDEST CALLVALUE DUP1 ISZERO PUSH2 0x16B JUMPI PUSH1 0x0 DUP1 REVERT JUMPDEST POP PUSH2 0x186 PUSH1 0x4 DUP1 CALLDATASIZE SUB DUP2 ADD SWAP1 PUSH2 0x181 SWAP2 SWAP1 PUSH2 0x1620 JUMP JUMPDEST PUSH2 0x557 JUMP JUMPDEST PUSH1 0x40 MLOAD PUSH2 0x193 SWAP2 SWAP1 PUSH2 0x1773 JUMP JUMPDEST PUSH1 0x40 MLOAD DUP1 SWAP2 SUB SWAP1 RETURN JUMPDEST CALLVALUE DUP1 ISZERO PUSH2 0x1A8 JUMPI PUSH1 0x0 DUP1 REVERT JUMPDEST POP PUSH2 0x1B1 PUSH2 0x7C0 JUMP JUMPDEST PUSH1 0x40 MLOAD PUSH2 0x1BE SWAP2 SWAP1 PUSH2 0x1773 JUMP JUMPDEST PUSH1 0x40 MLOAD DUP1 SWAP2 SUB SWAP1 RETURN JUMPDEST CALLVALUE DUP1 ISZERO PUSH2 0x1D3 JUMPI PUSH1 0x0 DUP1 REVERT JUMPDEST POP PUSH2 0x1EE PUSH1 0x4 DUP1 CALLDATASIZE SUB DUP2 ADD SWAP1 PUSH2 0x1E9 SWAP2 SWAP1 PUSH2 0x1795 JUMP JUMPDEST PUSH2 0x903 JUMP JUMPDEST STOP JUMPDEST CALLVALUE DUP1 ISZERO PUSH2 0x1FC JUMPI PUSH1 0x0 DUP1 REVERT JUMPDEST POP PUSH2 0x205 PUSH2 0xABA JUMP JUMPDEST PUSH1 0x40 MLOAD PUSH2 0x212 SWAP2 SWAP1 PUSH2 0x15D9 JUMP JUMPDEST PUSH1 0x40 MLOAD DUP1 SWAP2 SUB SWAP1 RETURN JUMPDEST PUSH2 0x235 PUSH1 0x4 DUP1 CALLDATASIZE SUB DUP2 ADD SWAP1 PUSH2 0x230 SWAP2 SWAP1 PUSH2 0x1795 JUMP JUMPDEST PUSH2 0xAC0 JUMP JUMPDEST STOP JUMPDEST CALLVALUE DUP1 ISZERO PUSH2 0x243 JUMPI PUSH1 0x0 DUP1 REVERT JUMPDEST POP PUSH2 0x25E PUSH1 0x4 DUP1 CALLDATASIZE SUB DUP2 ADD SWAP1 PUSH2 0x259 SWAP2 SWAP1 PUSH2 0x17D5 JUMP JUMPDEST PUSH2 0xD42 JUMP JUMPDEST PUSH1 0x40 MLOAD PUSH2 0x26D SWAP4 SWAP3 SWAP2 SWAP1 PUSH2 0x1811 JUMP JUMPDEST PUSH1 0x40 MLOAD DUP1 SWAP2 SUB SWAP1 RETURN JUMPDEST CALLVALUE DUP1 ISZERO PUSH2 0x282 JUMPI PUSH1 0x0 DUP1 REVERT JUMPDEST POP PUSH2 0x29D PUSH1 0x4 DUP1 CALLDATASIZE SUB DUP2 ADD SWAP1 PUSH2 0x298 SWAP2 SWAP1 PUSH2 0x1848 JUMP JUMPDEST PUSH2 0xDB9 JUMP JUMPDEST STOP JUMPDEST PUSH1 0x60 PUSH1 0x0 PUSH1 0x6 PUSH1 0x0 DUP5 PUSH20 0xFFFFFFFFFFFFFFFFFFFFFFFFFFFFFFFFFFFFFFFF AND PUSH20 0xFFFFFFFFFFFFFFFFFFFFFFFFFFFFFFFFFFFFFFFF AND DUP2 MSTORE PUSH1 0x20 ADD SWAP1 DUP2 MSTORE PUSH1 0x20 ADD PUSH1 0x0 KECCAK256 SLOAD SWAP1 POP PUSH1 0x0 DUP2 PUSH8 0xFFFFFFFFFFFFFFFF DUP2 GT ISZERO PUSH2 0x301 JUMPI PUSH2 0x300 PUSH2 0x189B JUMP JUMPDEST JUMPDEST PUSH1 0x40 MLOAD SWAP1 DUP1 DUP3 MSTORE DUP1 PUSH1 0x20 MUL PUSH1 0x20 ADD DUP3 ADD PUSH1 0x40 MSTORE DUP1 ISZERO PUSH2 0x32F JUMPI DUP2 PUSH1 0x20 ADD PUSH1 0x20 DUP3 MUL DUP1 CALLDATASIZE DUP4 CALLDATACOPY DUP1 DUP3 ADD SWAP2 POP POP SWAP1 POP JUMPDEST POP SWAP1 POP PUSH1 0x0 JUMPDEST DUP3 DUP2 LT ISZERO PUSH2 0x3C6 JUMPI PUSH1 0x5 PUSH1 0x0 DUP7 PUSH20 0xFFFFFFFFFFFFFFFFFFFFFFFFFFFFFFFFFFFFFFFF AND PUSH20 0xFFFFFFFFFFFFFFFFFFFFFFFFFFFFFFFFFFFFFFFF AND DUP2 MSTORE PUSH1 0x20 ADD SWAP1 DUP2 MSTORE PUSH1 0x20 ADD PUSH1 0x0 KECCAK256 PUSH1 0x0 PUSH1 0x1 DUP4 PUSH2 0x38B SWAP2 SWAP1 PUSH2 0x18F9 JUMP JUMPDEST DUP2 MSTORE PUSH1 0x20 ADD SWAP1 DUP2 MSTORE PUSH1 0x20 ADD PUSH1 0x0 KECCAK256 SLOAD DUP3 DUP3 DUP2 MLOAD DUP2 LT PUSH2 0x3AD JUMPI PUSH2 0x3AC PUSH2 0x192D JUMP JUMPDEST JUMPDEST PUSH1 0x20 MUL PUSH1 0x20 ADD ADD DUP2 DUP2 MSTORE POP POP DUP1 DUP1 PUSH1 0x1 ADD SWAP2 POP POP PUSH2 0x335 JUMP JUMPDEST POP DUP1 SWAP3 POP POP POP SWAP2 SWAP1 POP JUMP JUMPDEST PUSH1 0x60 PUSH1 0x0 PUSH1 0x7 SLOAD PUSH8 0xFFFFFFFFFFFFFFFF DUP2 GT ISZERO PUSH2 0x3F1 JUMPI PUSH2 0x3F0 PUSH2 0x189B JUMP JUMPDEST JUMPDEST PUSH1 0x40 MLOAD SWAP1 DUP1 DUP3 MSTORE DUP1 PUSH1 0x20 MUL PUSH1 0x20 ADD DUP3 ADD PUSH1 0x40 MSTORE DUP1 ISZERO PUSH2 0x41F JUMPI DUP2 PUSH1 0x20 ADD PUSH1 0x20 DUP3 MUL DUP1 CALLDATASIZE DUP4 CALLDATACOPY DUP1 DUP3 ADD SWAP2 POP POP SWAP1 POP JUMPDEST POP SWAP1 POP PUSH1 0x0 PUSH1 0x1 SWAP1 POP JUMPDEST PUSH1 0x7 SLOAD DUP2 GT PUSH2 0x487 JUMPI PUSH1 0x4 PUSH1 0x0 DUP3 DUP2 MSTORE PUSH1 0x20 ADD SWAP1 DUP2 MSTORE PUSH1 0x20 ADD PUSH1 0x0 KECCAK256 PUSH1 0x0 ADD SLOAD DUP3 PUSH1 0x1 DUP4 PUSH2 0x457 SWAP2 SWAP1 PUSH2 0x195C JUMP JUMPDEST DUP2 MLOAD DUP2 LT PUSH2 0x468 JUMPI PUSH2 0x467 PUSH2 0x192D JUMP JUMPDEST JUMPDEST PUSH1 0x20 MUL PUSH1 0x20 ADD ADD DUP2 DUP2 MSTORE POP POP DUP1 DUP1 PUSH2 0x47F SWAP1 PUSH2 0x1990 JUMP JUMPDEST SWAP2 POP POP PUSH2 0x429 JUMP JUMPDEST POP DUP1 SWAP2 POP POP SWAP1 JUMP JUMPDEST PUSH1 0x60 PUSH1 0x0 PUSH1 0x7 SLOAD PUSH8 0xFFFFFFFFFFFFFFFF DUP2 GT ISZERO PUSH2 0x4AF JUMPI PUSH2 0x4AE PUSH2 0x189B JUMP JUMPDEST JUMPDEST PUSH1 0x40 MLOAD SWAP1 DUP1 DUP3 MSTORE DUP1 PUSH1 0x20 MUL PUSH1 0x20 ADD DUP3 ADD PUSH1 0x40 MSTORE DUP1 ISZERO PUSH2 0x4DD JUMPI DUP2 PUSH1 0x20 ADD PUSH1 0x20 DUP3 MUL DUP1 CALLDATASIZE DUP4 CALLDATACOPY DUP1 DUP3 ADD SWAP2 POP POP SWAP1 POP JUMPDEST POP SWAP1 POP PUSH1 0x0 PUSH1 0x1 SWAP1 POP JUMPDEST PUSH1 0x7 SLOAD DUP2 GT PUSH2 0x545 JUMPI PUSH1 0x4 PUSH1 0x0 DUP3 DUP2 MSTORE PUSH1 0x20 ADD SWAP1 DUP2 MSTORE PUSH1 0x20 ADD PUSH1 0x0 KECCAK256 PUSH1 0x1 ADD SLOAD DUP3 PUSH1 0x1 DUP4 PUSH2 0x515 SWAP2 SWAP1 PUSH2 0x195C JUMP JUMPDEST DUP2 MLOAD DUP2 LT PUSH2 0x526 JUMPI PUSH2 0x525 PUSH2 0x192D JUMP JUMPDEST JUMPDEST PUSH1 0x20 MUL PUSH1 0x20 ADD ADD DUP2 DUP2 MSTORE POP POP DUP1 DUP1 PUSH2 0x53D SWAP1 PUSH2 0x1990 JUMP JUMPDEST SWAP2 POP POP PUSH2 0x4E7 JUMP JUMPDEST POP DUP1 SWAP2 POP POP SWAP1 JUMP JUMPDEST PUSH1 0x0 PUSH1 0x7 SLOAD SWAP1 POP SWAP1 JUMP JUMPDEST PUSH1 0x60 PUSH1 0x0 DUP4 GT PUSH2 0x59C JUMPI PUSH1 0x40 MLOAD PUSH32 0x8C379A000000000000000000000000000000000000000000000000000000000 DUP2 MSTORE PUSH1 0x4 ADD PUSH2 0x593 SWAP1 PUSH2 0x1A5B JUMP JUMPDEST PUSH1 0x40 MLOAD DUP1 SWAP2 SUB SWAP1 REVERT JUMPDEST PUSH1 0x0 DUP3 GT PUSH2 0x5DF JUMPI PUSH1 0x40 MLOAD PUSH32 0x8C379A000000000000000000000000000000000000000000000000000000000 DUP2 MSTORE PUSH1 0x4 ADD PUSH2 0x5D6 SWAP1 PUSH2 0x1AED JUMP JUMPDEST PUSH1 0x40 MLOAD DUP1 SWAP2 SUB SWAP1 REVERT JUMPDEST PUSH1 0x0 PUSH1 0x1 DUP4 PUSH1 0x1 DUP7 PUSH2 0x5F1 SWAP2 SWAP1 PUSH2 0x195C JUMP JUMPDEST PUSH2 0x5FB SWAP2 SWAP1 PUSH2 0x1B0D JUMP JUMPDEST PUSH2 0x605 SWAP2 SWAP1 PUSH2 0x18F9 JUMP JUMPDEST SWAP1 POP PUSH1 0x0 DUP4 DUP6 PUSH2 0x615 SWAP2 SWAP1 PUSH2 0x1B0D JUMP JUMPDEST SWAP1 POP PUSH1 0x7 SLOAD DUP3 LT PUSH2 0x65B JUMPI PUSH1 0x40 MLOAD PUSH32 0x8C379A000000000000000000000000000000000000000000000000000000000 DUP2 MSTORE PUSH1 0x4 ADD PUSH2 0x652 SWAP1 PUSH2 0x1BC1 JUMP JUMPDEST PUSH1 0x40 MLOAD DUP1 SWAP2 SUB SWAP1 REVERT JUMPDEST PUSH1 0x7 SLOAD DUP2 GT ISZERO PUSH2 0x66B JUMPI PUSH1 0x7 SLOAD SWAP1 POP JUMPDEST PUSH1 0x0 PUSH1 0x1 DUP4 DUP4 PUSH2 0x67B SWAP2 SWAP1 PUSH2 0x195C JUMP JUMPDEST PUSH2 0x685 SWAP2 SWAP1 PUSH2 0x18F9 JUMP JUMPDEST SWAP1 POP PUSH1 0x0 DUP2 PUSH8 0xFFFFFFFFFFFFFFFF DUP2 GT ISZERO PUSH2 0x6A3 JUMPI PUSH2 0x6A2 PUSH2 0x189B JUMP JUMPDEST JUMPDEST PUSH1 0x40 MLOAD SWAP1 DUP1 DUP3 MSTORE DUP1 PUSH1 0x20 MUL PUSH1 0x20 ADD DUP3 ADD PUSH1 0x40 MSTORE DUP1 ISZERO PUSH2 0x6DC JUMPI DUP2 PUSH1 0x20 ADD JUMPDEST PUSH2 0x6C9 PUSH2 0x1412 JUMP JUMPDEST DUP2 MSTORE PUSH1 0x20 ADD SWAP1 PUSH1 0x1 SWAP1 SUB SWAP1 DUP2 PUSH2 0x6C1 JUMPI SWAP1 POP JUMPDEST POP SWAP1 POP PUSH1 0x0 JUMPDEST DUP3 DUP2 LT ISZERO PUSH2 0x7B2 JUMPI PUSH1 0x4 PUSH1 0x0 DUP3 DUP8 PUSH2 0x6FA SWAP2 SWAP1 PUSH2 0x18F9 JUMP JUMPDEST DUP2 MSTORE PUSH1 0x20 ADD SWAP1 DUP2 MSTORE PUSH1 0x20 ADD PUSH1 0x0 KECCAK256 PUSH1 0x40 MLOAD DUP1 PUSH1 0x80 ADD PUSH1 0x40 MSTORE SWAP1 DUP2 PUSH1 0x0 DUP3 ADD SLOAD DUP2 MSTORE PUSH1 0x20 ADD PUSH1 0x1 DUP3 ADD SLOAD DUP2 MSTORE PUSH1 0x20 ADD PUSH1 0x2 DUP3 ADD PUSH1 0x0 SWAP1 SLOAD SWAP1 PUSH2 0x100 EXP SWAP1 DIV PUSH20 0xFFFFFFFFFFFFFFFFFFFFFFFFFFFFFFFFFFFFFFFF AND PUSH20 0xFFFFFFFFFFFFFFFFFFFFFFFFFFFFFFFFFFFFFFFF AND PUSH20 0xFFFFFFFFFFFFFFFFFFFFFFFFFFFFFFFFFFFFFFFF AND DUP2 MSTORE PUSH1 0x20 ADD PUSH1 0x3 DUP3 ADD SLOAD DUP2 MSTORE POP POP DUP3 DUP3 DUP2 MLOAD DUP2 LT PUSH2 0x79A JUMPI PUSH2 0x799 PUSH2 0x192D JUMP JUMPDEST JUMPDEST PUSH1 0x20 MUL PUSH1 0x20 ADD ADD DUP2 SWAP1 MSTORE POP DUP1 DUP1 PUSH1 0x1 ADD SWAP2 POP POP PUSH2 0x6E2 JUMP JUMPDEST POP DUP1 SWAP5 POP POP POP POP POP SWAP3 SWAP2 POP POP JUMP JUMPDEST PUSH1 0x60 PUSH1 0x0 PUSH1 0x7 SLOAD PUSH8 0xFFFFFFFFFFFFFFFF DUP2 GT ISZERO PUSH2 0x7E0 JUMPI PUSH2 0x7DF PUSH2 0x189B JUMP JUMPDEST JUMPDEST PUSH1 0x40 MLOAD SWAP1 DUP1 DUP3 MSTORE DUP1 PUSH1 0x20 MUL PUSH1 0x20 ADD DUP3 ADD PUSH1 0x40 MSTORE DUP1 ISZERO PUSH2 0x819 JUMPI DUP2 PUSH1 0x20 ADD JUMPDEST PUSH2 0x806 PUSH2 0x1412 JUMP JUMPDEST DUP2 MSTORE PUSH1 0x20 ADD SWAP1 PUSH1 0x1 SWAP1 SUB SWAP1 DUP2 PUSH2 0x7FE JUMPI SWAP1 POP JUMPDEST POP SWAP1 POP PUSH1 0x0 PUSH1 0x1 SWAP1 POP JUMPDEST PUSH1 0x7 SLOAD DUP2 GT PUSH2 0x8FB JUMPI PUSH1 0x4 PUSH1 0x0 DUP3 DUP2 MSTORE PUSH1 0x20 ADD SWAP1 DUP2 MSTORE PUSH1 0x20 ADD PUSH1 0x0 KECCAK256 PUSH1 0x40 MLOAD DUP1 PUSH1 0x80 ADD PUSH1 0x40 MSTORE SWAP1 DUP2 PUSH1 0x0 DUP3 ADD SLOAD DUP2 MSTORE PUSH1 0x20 ADD PUSH1 0x1 DUP3 ADD SLOAD DUP2 MSTORE PUSH1 0x20 ADD PUSH1 0x2 DUP3 ADD PUSH1 0x0 SWAP1 SLOAD SWAP1 PUSH2 0x100 EXP SWAP1 DIV PUSH20 0xFFFFFFFFFFFFFFFFFFFFFFFFFFFFFFFFFFFFFFFF AND PUSH20 0xFFFFFFFFFFFFFFFFFFFFFFFFFFFFFFFFFFFFFFFF AND PUSH20 0xFFFFFFFFFFFFFFFFFFFFFFFFFFFFFFFFFFFFFFFF AND DUP2 MSTORE PUSH1 0x20 ADD PUSH1 0x3 DUP3 ADD SLOAD DUP2 MSTORE POP POP DUP3 PUSH1 0x1 DUP4 PUSH2 0x8CC SWAP2 SWAP1 PUSH2 0x195C JUMP JUMPDEST DUP2 MLOAD DUP2 LT PUSH2 0x8DD JUMPI PUSH2 0x8DC PUSH2 0x192D JUMP JUMPDEST JUMPDEST PUSH1 0x20 MUL PUSH1 0x20 ADD ADD DUP2 SWAP1 MSTORE POP DUP1 DUP1 PUSH2 0x8F3 SWAP1 PUSH2 0x1990 JUMP JUMPDEST SWAP2 POP POP PUSH2 0x823 JUMP JUMPDEST POP DUP1 SWAP2 POP POP SWAP1 JUMP JUMPDEST PUSH1 0x1 PUSH1 0x0 SWAP1 SLOAD SWAP1 PUSH2 0x100 EXP SWAP1 DIV PUSH20 0xFFFFFFFFFFFFFFFFFFFFFFFFFFFFFFFFFFFFFFFF AND PUSH20 0xFFFFFFFFFFFFFFFFFFFFFFFFFFFFFFFFFFFFFFFF AND CALLER PUSH20 0xFFFFFFFFFFFFFFFFFFFFFFFFFFFFFFFFFFFFFFFF AND EQ PUSH2 0x95D JUMPI PUSH1 0x0 DUP1 REVERT JUMPDEST PUSH1 0x3 PUSH1 0x0 DUP3 DUP2 MSTORE PUSH1 0x20 ADD SWAP1 DUP2 MSTORE PUSH1 0x20 ADD PUSH1 0x0 KECCAK256 PUSH1 0x2 ADD PUSH1 0x0 SWAP1 SLOAD SWAP1 PUSH2 0x100 EXP SWAP1 DIV PUSH20 0xFFFFFFFFFFFFFFFFFFFFFFFFFFFFFFFFFFFFFFFF AND PUSH20 0xFFFFFFFFFFFFFFFFFFFFFFFFFFFFFFFFFFFFFFFF AND DUP3 PUSH20 0xFFFFFFFFFFFFFFFFFFFFFFFFFFFFFFFFFFFFFFFF AND EQ PUSH2 0xA01 JUMPI PUSH1 0x40 MLOAD PUSH32 0x8C379A000000000000000000000000000000000000000000000000000000000 DUP2 MSTORE PUSH1 0x4 ADD PUSH2 0x9F8 SWAP1 PUSH2 0x1C2D JUMP JUMPDEST PUSH1 0x40 MLOAD DUP1 SWAP2 SUB SWAP1 REVERT JUMPDEST PUSH1 0x0 PUSH1 0x3 PUSH1 0x0 DUP4 DUP2 MSTORE PUSH1 0x20 ADD SWAP1 DUP2 MSTORE PUSH1 0x20 ADD PUSH1 0x0 KECCAK256 PUSH1 0x1 ADD SLOAD SWAP1 POP PUSH1 0x0 DUP1 SLOAD SWAP1 PUSH2 0x100 EXP SWAP1 DIV PUSH20 0xFFFFFFFFFFFFFFFFFFFFFFFFFFFFFFFFFFFFFFFF AND PUSH20 0xFFFFFFFFFFFFFFFFFFFFFFFFFFFFFFFFFFFFFFFF AND PUSH4 0x23B872DD ADDRESS DUP6 DUP5 PUSH1 0x40 MLOAD DUP5 PUSH4 0xFFFFFFFF AND PUSH1 0xE0 SHL DUP2 MSTORE PUSH1 0x4 ADD PUSH2 0xA79 SWAP4 SWAP3 SWAP2 SWAP1 PUSH2 0x1C4D JUMP JUMPDEST PUSH1 0x0 PUSH1 0x40 MLOAD DUP1 DUP4 SUB DUP2 PUSH1 0x0 DUP8 DUP1 EXTCODESIZE ISZERO DUP1 ISZERO PUSH2 0xA93 JUMPI PUSH1 0x0 DUP1 REVERT JUMPDEST POP GAS CALL ISZERO DUP1 ISZERO PUSH2 0xAA7 JUMPI RETURNDATASIZE PUSH1 0x0 DUP1 RETURNDATACOPY RETURNDATASIZE PUSH1 0x0 REVERT JUMPDEST POP POP POP POP PUSH2 0xAB5 DUP4 DUP4 PUSH2 0x10A5 JUMP JUMPDEST POP POP POP JUMP JUMPDEST PUSH1 0x2 SLOAD DUP2 JUMP JUMPDEST PUSH1 0x1 PUSH1 0x0 SWAP1 SLOAD SWAP1 PUSH2 0x100 EXP SWAP1 DIV PUSH20 0xFFFFFFFFFFFFFFFFFFFFFFFFFFFFFFFFFFFFFFFF AND PUSH20 0xFFFFFFFFFFFFFFFFFFFFFFFFFFFFFFFFFFFFFFFF AND CALLER PUSH20 0xFFFFFFFFFFFFFFFFFFFFFFFFFFFFFFFFFFFFFFFF AND EQ PUSH2 0xB1A JUMPI PUSH1 0x0 DUP1 REVERT JUMPDEST PUSH1 0x0 PUSH1 0x3 PUSH1 0x0 DUP4 DUP2 MSTORE PUSH1 0x20 ADD SWAP1 DUP2 MSTORE PUSH1 0x20 ADD PUSH1 0x0 KECCAK256 PUSH1 0x3 ADD SLOAD SWAP1 POP PUSH1 0x0 PUSH1 0x3 PUSH1 0x0 DUP5 DUP2 MSTORE PUSH1 0x20 ADD SWAP1 DUP2 MSTORE PUSH1 0x20 ADD PUSH1 0x0 KECCAK256 PUSH1 0x1 ADD SLOAD SWAP1 POP PUSH1 0x0 PUSH1 0x3 PUSH1 0x0 DUP6 DUP2 MSTORE PUSH1 0x20 ADD SWAP1 DUP2 MSTORE PUSH1 0x20 ADD PUSH1 0x0 KECCAK256 PUSH1 0x2 ADD PUSH1 0x0 SWAP1 SLOAD SWAP1 PUSH2 0x100 EXP SWAP1 DIV PUSH20 0xFFFFFFFFFFFFFFFFFFFFFFFFFFFFFFFFFFFFFFFF AND SWAP1 POP DUP3 CALLVALUE LT ISZERO PUSH2 0xBCE JUMPI PUSH1 0x40 MLOAD PUSH32 0x8C379A000000000000000000000000000000000000000000000000000000000 DUP2 MSTORE PUSH1 0x4 ADD PUSH2 0xBC5 SWAP1 PUSH2 0x1CD0 JUMP JUMPDEST PUSH1 0x40 MLOAD DUP1 SWAP2 SUB SWAP1 REVERT JUMPDEST PUSH1 0x0 DUP1 SLOAD SWAP1 PUSH2 0x100 EXP SWAP1 DIV PUSH20 0xFFFFFFFFFFFFFFFFFFFFFFFFFFFFFFFFFFFFFFFF AND PUSH20 0xFFFFFFFFFFFFFFFFFFFFFFFFFFFFFFFFFFFFFFFF AND PUSH4 0x95EA7B3 ADDRESS DUP5 PUSH1 0x40 MLOAD DUP4 PUSH4 0xFFFFFFFF AND PUSH1 0xE0 SHL DUP2 MSTORE PUSH1 0x4 ADD PUSH2 0xC29 SWAP3 SWAP2 SWAP1 PUSH2 0x1CF0 JUMP JUMPDEST PUSH1 0x0 PUSH1 0x40 MLOAD DUP1 DUP4 SUB DUP2 PUSH1 0x0 DUP8 DUP1 EXTCODESIZE ISZERO DUP1 ISZERO PUSH2 0xC43 JUMPI PUSH1 0x0 DUP1 REVERT JUMPDEST POP GAS CALL ISZERO DUP1 ISZERO PUSH2 0xC57 JUMPI RETURNDATASIZE PUSH1 0x0 DUP1 RETURNDATACOPY RETURNDATASIZE PUSH1 0x0 REVERT JUMPDEST POP POP POP POP PUSH1 0x0 DUP1 SLOAD SWAP1 PUSH2 0x100 EXP SWAP1 DIV PUSH20 0xFFFFFFFFFFFFFFFFFFFFFFFFFFFFFFFFFFFFFFFF AND PUSH20 0xFFFFFFFFFFFFFFFFFFFFFFFFFFFFFFFFFFFFFFFF AND PUSH4 0x23B872DD ADDRESS DUP8 DUP6 PUSH1 0x40 MLOAD DUP5 PUSH4 0xFFFFFFFF AND PUSH1 0xE0 SHL DUP2 MSTORE PUSH1 0x4 ADD PUSH2 0xCB8 SWAP4 SWAP3 SWAP2 SWAP1 PUSH2 0x1C4D JUMP JUMPDEST PUSH1 0x0 PUSH1 0x40 MLOAD DUP1 DUP4 SUB DUP2 PUSH1 0x0 DUP8 DUP1 EXTCODESIZE ISZERO DUP1 ISZERO PUSH2 0xCD2 JUMPI PUSH1 0x0 DUP1 REVERT JUMPDEST POP GAS CALL ISZERO DUP1 ISZERO PUSH2 0xCE6 JUMPI RETURNDATASIZE PUSH1 0x0 DUP1 RETURNDATACOPY RETURNDATASIZE PUSH1 0x0 REVERT JUMPDEST POP POP POP POP DUP1 PUSH20 0xFFFFFFFFFFFFFFFFFFFFFFFFFFFFFFFFFFFFFFFF AND PUSH2 0x8FC DUP5 SWAP1 DUP2 ISZERO MUL SWAP1 PUSH1 0x40 MLOAD PUSH1 0x0 PUSH1 0x40 MLOAD DUP1 DUP4 SUB DUP2 DUP6 DUP9 DUP9 CALL SWAP4 POP POP POP POP ISZERO DUP1 ISZERO PUSH2 0xD30 JUMPI RETURNDATASIZE PUSH1 0x0 DUP1 RETURNDATACOPY RETURNDATASIZE PUSH1 0x0 REVERT JUMPDEST POP PUSH2 0xD3B DUP2 DUP6 PUSH2 0x10A5 JUMP JUMPDEST POP POP POP POP POP JUMP JUMPDEST PUSH1 0x0 DUP1 PUSH1 0x0 PUSH1 0x3 PUSH1 0x0 DUP6 DUP2 MSTORE PUSH1 0x20 ADD SWAP1 DUP2 MSTORE PUSH1 0x20 ADD PUSH1 0x0 KECCAK256 PUSH1 0x1 ADD SLOAD SWAP3 POP PUSH1 0x3 PUSH1 0x0 DUP6 DUP2 MSTORE PUSH1 0x20 ADD SWAP1 DUP2 MSTORE PUSH1 0x20 ADD PUSH1 0x0 KECCAK256 PUSH1 0x2 ADD PUSH1 0x0 SWAP1 SLOAD SWAP1 PUSH2 0x100 EXP SWAP1 DIV PUSH20 0xFFFFFFFFFFFFFFFFFFFFFFFFFFFFFFFFFFFFFFFF AND SWAP2 POP PUSH1 0x3 PUSH1 0x0 DUP6 DUP2 MSTORE PUSH1 0x20 ADD SWAP1 DUP2 MSTORE PUSH1 0x20 ADD PUSH1 0x0 KECCAK256 PUSH1 0x3 ADD SLOAD SWAP1 POP SWAP2 SWAP4 SWAP1 SWAP3 POP JUMP JUMPDEST PUSH1 0x1 PUSH1 0x0 SWAP1 SLOAD SWAP1 PUSH2 0x100 EXP SWAP1 DIV PUSH20 0xFFFFFFFFFFFFFFFFFFFFFFFFFFFFFFFFFFFFFFFF AND PUSH20 0xFFFFFFFFFFFFFFFFFFFFFFFFFFFFFFFFFFFFFFFF AND CALLER PUSH20 0xFFFFFFFFFFFFFFFFFFFFFFFFFFFFFFFFFFFFFFFF AND EQ PUSH2 0xE13 JUMPI PUSH1 0x0 DUP1 REVERT JUMPDEST PUSH1 0x1 PUSH1 0x8 PUSH1 0x0 DUP3 DUP3 SLOAD PUSH2 0xE26 SWAP2 SWAP1 PUSH2 0x18F9 JUMP JUMPDEST SWAP3 POP POP DUP2 SWAP1 SSTORE POP PUSH1 0x1 PUSH1 0x7 PUSH1 0x0 DUP3 DUP3 SLOAD PUSH2 0xE40 SWAP2 SWAP1 PUSH2 0x18F9 JUMP JUMPDEST SWAP3 POP POP DUP2 SWAP1 SSTORE POP PUSH1 0x40 MLOAD DUP1 PUSH1 0x80 ADD PUSH1 0x40 MSTORE DUP1 PUSH1 0x8 SLOAD DUP2 MSTORE PUSH1 0x20 ADD DUP3 DUP2 MSTORE PUSH1 0x20 ADD DUP5 PUSH20 0xFFFFFFFFFFFFFFFFFFFFFFFFFFFFFFFFFFFFFFFF AND DUP2 MSTORE PUSH1 0x20 ADD DUP4 DUP2 MSTORE POP PUSH1 0x3 PUSH1 0x0 PUSH1 0x8 SLOAD DUP2 MSTORE PUSH1 0x20 ADD SWAP1 DUP2 MSTORE PUSH1 0x20 ADD PUSH1 0x0 KECCAK256 PUSH1 0x0 DUP3 ADD MLOAD DUP2 PUSH1 0x0 ADD SSTORE PUSH1 0x20 DUP3 ADD MLOAD DUP2 PUSH1 0x1 ADD SSTORE PUSH1 0x40 DUP3 ADD MLOAD DUP2 PUSH1 0x2 ADD PUSH1 0x0 PUSH2 0x100 EXP DUP2 SLOAD DUP2 PUSH20 0xFFFFFFFFFFFFFFFFFFFFFFFFFFFFFFFFFFFFFFFF MUL NOT AND SWAP1 DUP4 PUSH20 0xFFFFFFFFFFFFFFFFFFFFFFFFFFFFFFFFFFFFFFFF AND MUL OR SWAP1 SSTORE POP PUSH1 0x60 DUP3 ADD MLOAD DUP2 PUSH1 0x3 ADD SSTORE SWAP1 POP POP PUSH1 0x1 PUSH1 0x6 PUSH1 0x0 DUP6 PUSH20 0xFFFFFFFFFFFFFFFFFFFFFFFFFFFFFFFFFFFFFFFF AND PUSH20 0xFFFFFFFFFFFFFFFFFFFFFFFFFFFFFFFFFFFFFFFF AND DUP2 MSTORE PUSH1 0x20 ADD SWAP1 DUP2 MSTORE PUSH1 0x20 ADD PUSH1 0x0 KECCAK256 PUSH1 0x0 DUP3 DUP3 SLOAD PUSH2 0xF4D SWAP2 SWAP1 PUSH2 0x18F9 JUMP JUMPDEST SWAP3 POP POP DUP2 SWAP1 SSTORE POP PUSH1 0x8 SLOAD PUSH1 0x5 PUSH1 0x0 DUP6 PUSH20 0xFFFFFFFFFFFFFFFFFFFFFFFFFFFFFFFFFFFFFFFF AND PUSH20 0xFFFFFFFFFFFFFFFFFFFFFFFFFFFFFFFFFFFFFFFF AND DUP2 MSTORE PUSH1 0x20 ADD SWAP1 DUP2 MSTORE PUSH1 0x20 ADD PUSH1 0x0 KECCAK256 PUSH1 0x0 PUSH1 0x6 PUSH1 0x0 DUP8 PUSH20 0xFFFFFFFFFFFFFFFFFFFFFFFFFFFFFFFFFFFFFFFF AND PUSH20 0xFFFFFFFFFFFFFFFFFFFFFFFFFFFFFFFFFFFFFFFF AND DUP2 MSTORE PUSH1 0x20 ADD SWAP1 DUP2 MSTORE PUSH1 0x20 ADD PUSH1 0x0 KECCAK256 SLOAD DUP2 MSTORE PUSH1 0x20 ADD SWAP1 DUP2 MSTORE PUSH1 0x20 ADD PUSH1 0x0 KECCAK256 DUP2 SWAP1 SSTORE POP PUSH1 0x40 MLOAD DUP1 PUSH1 0x80 ADD PUSH1 0x40 MSTORE DUP1 PUSH1 0x8 SLOAD DUP2 MSTORE PUSH1 0x20 ADD DUP3 DUP2 MSTORE PUSH1 0x20 ADD DUP5 PUSH20 0xFFFFFFFFFFFFFFFFFFFFFFFFFFFFFFFFFFFFFFFF AND DUP2 MSTORE PUSH1 0x20 ADD DUP4 DUP2 MSTORE POP PUSH1 0x4 PUSH1 0x0 PUSH1 0x7 SLOAD DUP2 MSTORE PUSH1 0x20 ADD SWAP1 DUP2 MSTORE PUSH1 0x20 ADD PUSH1 0x0 KECCAK256 PUSH1 0x0 DUP3 ADD MLOAD DUP2 PUSH1 0x0 ADD SSTORE PUSH1 0x20 DUP3 ADD MLOAD DUP2 PUSH1 0x1 ADD SSTORE PUSH1 0x40 DUP3 ADD MLOAD DUP2 PUSH1 0x2 ADD PUSH1 0x0 PUSH2 0x100 EXP DUP2 SLOAD DUP2 PUSH20 0xFFFFFFFFFFFFFFFFFFFFFFFFFFFFFFFFFFFFFFFF MUL NOT AND SWAP1 DUP4 PUSH20 0xFFFFFFFFFFFFFFFFFFFFFFFFFFFFFFFFFFFFFFFF AND MUL OR SWAP1 SSTORE POP PUSH1 0x60 DUP3 ADD MLOAD DUP2 PUSH1 0x3 ADD SSTORE SWAP1 POP POP POP POP POP JUMP JUMPDEST PUSH1 0x0 PUSH1 0x3 PUSH1 0x0 DUP4 DUP2 MSTORE PUSH1 0x20 ADD SWAP1 DUP2 MSTORE PUSH1 0x20 ADD PUSH1 0x0 KECCAK256 PUSH1 0x2 ADD PUSH1 0x0 SWAP1 SLOAD SWAP1 PUSH2 0x100 EXP SWAP1 DIV PUSH20 0xFFFFFFFFFFFFFFFFFFFFFFFFFFFFFFFFFFFFFFFF AND SWAP1 POP DUP1 PUSH20 0xFFFFFFFFFFFFFFFFFFFFFFFFFFFFFFFFFFFFFFFF AND DUP4 PUSH20 0xFFFFFFFFFFFFFFFFFFFFFFFFFFFFFFFFFFFFFFFF AND EQ PUSH2 0x114E JUMPI PUSH1 0x40 MLOAD PUSH32 0x8C379A000000000000000000000000000000000000000000000000000000000 DUP2 MSTORE PUSH1 0x4 ADD PUSH2 0x1145 SWAP1 PUSH2 0x1D8B JUMP JUMPDEST PUSH1 0x40 MLOAD DUP1 SWAP2 SUB SWAP1 REVERT JUMPDEST PUSH1 0x0 PUSH1 0x1 SWAP1 POP JUMPDEST PUSH1 0x6 PUSH1 0x0 DUP6 PUSH20 0xFFFFFFFFFFFFFFFFFFFFFFFFFFFFFFFFFFFFFFFF AND PUSH20 0xFFFFFFFFFFFFFFFFFFFFFFFFFFFFFFFFFFFFFFFF AND DUP2 MSTORE PUSH1 0x20 ADD SWAP1 DUP2 MSTORE PUSH1 0x20 ADD PUSH1 0x0 KECCAK256 SLOAD DUP2 LT ISZERO PUSH2 0x12EB JUMPI PUSH1 0x0 PUSH1 0x5 PUSH1 0x0 DUP7 PUSH20 0xFFFFFFFFFFFFFFFFFFFFFFFFFFFFFFFFFFFFFFFF AND PUSH20 0xFFFFFFFFFFFFFFFFFFFFFFFFFFFFFFFFFFFFFFFF AND DUP2 MSTORE PUSH1 0x20 ADD SWAP1 DUP2 MSTORE PUSH1 0x20 ADD PUSH1 0x0 KECCAK256 PUSH1 0x0 DUP4 DUP2 MSTORE PUSH1 0x20 ADD SWAP1 DUP2 MSTORE PUSH1 0x20 ADD PUSH1 0x0 KECCAK256 SLOAD SWAP1 POP DUP4 DUP2 SUB PUSH2 0x12DD JUMPI PUSH1 0x5 PUSH1 0x0 DUP7 PUSH20 0xFFFFFFFFFFFFFFFFFFFFFFFFFFFFFFFFFFFFFFFF AND PUSH20 0xFFFFFFFFFFFFFFFFFFFFFFFFFFFFFFFFFFFFFFFF AND DUP2 MSTORE PUSH1 0x20 ADD SWAP1 DUP2 MSTORE PUSH1 0x20 ADD PUSH1 0x0 KECCAK256 PUSH1 0x0 PUSH1 0x6 PUSH1 0x0 DUP9 PUSH20 0xFFFFFFFFFFFFFFFFFFFFFFFFFFFFFFFFFFFFFFFF AND PUSH20 0xFFFFFFFFFFFFFFFFFFFFFFFFFFFFFFFFFFFFFFFF AND DUP2 MSTORE PUSH1 0x20 ADD SWAP1 DUP2 MSTORE PUSH1 0x20 ADD PUSH1 0x0 KECCAK256 SLOAD DUP2 MSTORE PUSH1 0x20 ADD SWAP1 DUP2 MSTORE PUSH1 0x20 ADD PUSH1 0x0 KECCAK256 SLOAD PUSH1 0x5 PUSH1 0x0 DUP8 PUSH20 0xFFFFFFFFFFFFFFFFFFFFFFFFFFFFFFFFFFFFFFFF AND PUSH20 0xFFFFFFFFFFFFFFFFFFFFFFFFFFFFFFFFFFFFFFFF AND DUP2 MSTORE PUSH1 0x20 ADD SWAP1 DUP2 MSTORE PUSH1 0x20 ADD PUSH1 0x0 KECCAK256 PUSH1 0x0 DUP5 DUP2 MSTORE PUSH1 0x20 ADD SWAP1 DUP2 MSTORE PUSH1 0x20 ADD PUSH1 0x0 KECCAK256 DUP2 SWAP1 SSTORE POP JUMPDEST POP DUP1 DUP1 PUSH1 0x1 ADD SWAP2 POP POP PUSH2 0x1155 JUMP JUMPDEST POP PUSH1 0x1 PUSH1 0x6 PUSH1 0x0 DUP6 PUSH20 0xFFFFFFFFFFFFFFFFFFFFFFFFFFFFFFFFFFFFFFFF AND PUSH20 0xFFFFFFFFFFFFFFFFFFFFFFFFFFFFFFFFFFFFFFFF AND DUP2 MSTORE PUSH1 0x20 ADD SWAP1 DUP2 MSTORE PUSH1 0x20 ADD PUSH1 0x0 KECCAK256 PUSH1 0x0 DUP3 DUP3 SLOAD PUSH2 0x133C SWAP2 SWAP1 PUSH2 0x195C JUMP JUMPDEST SWAP3 POP POP DUP2 SWAP1 SSTORE POP PUSH1 0x4 PUSH1 0x0 PUSH1 0x7 SLOAD DUP2 MSTORE PUSH1 0x20 ADD SWAP1 DUP2 MSTORE PUSH1 0x20 ADD PUSH1 0x0 KECCAK256 PUSH1 0x4 PUSH1 0x0 DUP5 DUP2 MSTORE PUSH1 0x20 ADD SWAP1 DUP2 MSTORE PUSH1 0x20 ADD PUSH1 0x0 KECCAK256 PUSH1 0x0 DUP3 ADD SLOAD DUP2 PUSH1 0x0 ADD SSTORE PUSH1 0x1 DUP3 ADD SLOAD DUP2 PUSH1 0x1 ADD SSTORE PUSH1 0x2 DUP3 ADD PUSH1 0x0 SWAP1 SLOAD SWAP1 PUSH2 0x100 EXP SWAP1 DIV PUSH20 0xFFFFFFFFFFFFFFFFFFFFFFFFFFFFFFFFFFFFFFFF AND DUP2 PUSH1 0x2 ADD PUSH1 0x0 PUSH2 0x100 EXP DUP2 SLOAD DUP2 PUSH20 0xFFFFFFFFFFFFFFFFFFFFFFFFFFFFFFFFFFFFFFFF MUL NOT AND SWAP1 DUP4 PUSH20 0xFFFFFFFFFFFFFFFFFFFFFFFFFFFFFFFFFFFFFFFF AND MUL OR SWAP1 SSTORE POP PUSH1 0x3 DUP3 ADD SLOAD DUP2 PUSH1 0x3 ADD SSTORE SWAP1 POP POP PUSH1 0x1 PUSH1 0x7 PUSH1 0x0 DUP3 DUP3 SLOAD PUSH2 0x1406 SWAP2 SWAP1 PUSH2 0x195C JUMP JUMPDEST SWAP3 POP POP DUP2 SWAP1 SSTORE POP POP POP POP JUMP JUMPDEST PUSH1 0x40 MLOAD DUP1 PUSH1 0x80 ADD PUSH1 0x40 MSTORE DUP1 PUSH1 0x0 DUP2 MSTORE PUSH1 0x20 ADD PUSH1 0x0 DUP2 MSTORE PUSH1 0x20 ADD PUSH1 0x0 PUSH20 0xFFFFFFFFFFFFFFFFFFFFFFFFFFFFFFFFFFFFFFFF AND DUP2 MSTORE PUSH1 0x20 ADD PUSH1 0x0 DUP2 MSTORE POP SWAP1 JUMP JUMPDEST PUSH1 0x0 DUP1 REVERT JUMPDEST PUSH1 0x0 PUSH20 0xFFFFFFFFFFFFFFFFFFFFFFFFFFFFFFFFFFFFFFFF DUP3 AND SWAP1 POP SWAP2 SWAP1 POP JUMP JUMPDEST PUSH1 0x0 PUSH2 0x1480 DUP3 PUSH2 0x1455 JUMP JUMPDEST SWAP1 POP SWAP2 SWAP1 POP JUMP JUMPDEST PUSH2 0x1490 DUP2 PUSH2 0x1475 JUMP JUMPDEST DUP2 EQ PUSH2 0x149B JUMPI PUSH1 0x0 DUP1 REVERT JUMPDEST POP JUMP JUMPDEST PUSH1 0x0 DUP2 CALLDATALOAD SWAP1 POP PUSH2 0x14AD DUP2 PUSH2 0x1487 JUMP JUMPDEST SWAP3 SWAP2 POP POP JUMP JUMPDEST PUSH1 0x0 PUSH1 0x20 DUP3 DUP5 SUB SLT ISZERO PUSH2 0x14C9 JUMPI PUSH2 0x14C8 PUSH2 0x1450 JUMP JUMPDEST JUMPDEST PUSH1 0x0 PUSH2 0x14D7 DUP5 DUP3 DUP6 ADD PUSH2 0x149E JUMP JUMPDEST SWAP2 POP POP SWAP3 SWAP2 POP POP JUMP JUMPDEST PUSH1 0x0 DUP2 MLOAD SWAP1 POP SWAP2 SWAP1 POP JUMP JUMPDEST PUSH1 0x0 DUP3 DUP3 MSTORE PUSH1 0x20 DUP3 ADD SWAP1 POP SWAP3 SWAP2 POP POP JUMP JUMPDEST PUSH1 0x0 DUP2 SWAP1 POP PUSH1 0x20 DUP3 ADD SWAP1 POP SWAP2 SWAP1 POP JUMP JUMPDEST PUSH1 0x0 DUP2 SWAP1 POP SWAP2 SWAP1 POP JUMP JUMPDEST PUSH2 0x151F DUP2 PUSH2 0x150C JUMP JUMPDEST DUP3 MSTORE POP POP JUMP JUMPDEST PUSH1 0x0 PUSH2 0x1531 DUP4 DUP4 PUSH2 0x1516 JUMP JUMPDEST PUSH1 0x20 DUP4 ADD SWAP1 POP SWAP3 SWAP2 POP POP JUMP JUMPDEST PUSH1 0x0 PUSH1 0x20 DUP3 ADD SWAP1 POP SWAP2 SWAP1 POP JUMP JUMPDEST PUSH1 0x0 PUSH2 0x1555 DUP3 PUSH2 0x14E0 JUMP JUMPDEST PUSH2 0x155F DUP2 DUP6 PUSH2 0x14EB JUMP JUMPDEST SWAP4 POP PUSH2 0x156A DUP4 PUSH2 0x14FC JUMP JUMPDEST DUP1 PUSH1 0x0 JUMPDEST DUP4 DUP2 LT ISZERO PUSH2 0x159B JUMPI DUP2 MLOAD PUSH2 0x1582 DUP9 DUP3 PUSH2 0x1525 JUMP JUMPDEST SWAP8 POP PUSH2 0x158D DUP4 PUSH2 0x153D JUMP JUMPDEST SWAP3 POP POP PUSH1 0x1 DUP2 ADD SWAP1 POP PUSH2 0x156E JUMP JUMPDEST POP DUP6 SWAP4 POP POP POP POP SWAP3 SWAP2 POP POP JUMP JUMPDEST PUSH1 0x0 PUSH1 0x20 DUP3 ADD SWAP1 POP DUP2 DUP2 SUB PUSH1 0x0 DUP4 ADD MSTORE PUSH2 0x15C2 DUP2 DUP5 PUSH2 0x154A JUMP JUMPDEST SWAP1 POP SWAP3 SWAP2 POP POP JUMP JUMPDEST PUSH2 0x15D3 DUP2 PUSH2 0x150C JUMP JUMPDEST DUP3 MSTORE POP POP JUMP JUMPDEST PUSH1 0x0 PUSH1 0x20 DUP3 ADD SWAP1 POP PUSH2 0x15EE PUSH1 0x0 DUP4 ADD DUP5 PUSH2 0x15CA JUMP JUMPDEST SWAP3 SWAP2 POP POP JUMP JUMPDEST PUSH2 0x15FD DUP2 PUSH2 0x150C JUMP JUMPDEST DUP2 EQ PUSH2 0x1608 JUMPI PUSH1 0x0 DUP1 REVERT JUMPDEST POP JUMP JUMPDEST PUSH1 0x0 DUP2 CALLDATALOAD SWAP1 POP PUSH2 0x161A DUP2 PUSH2 0x15F4 JUMP JUMPDEST SWAP3 SWAP2 POP POP JUMP JUMPDEST PUSH1 0x0 DUP1 PUSH1 0x40 DUP4 DUP6 SUB SLT ISZERO PUSH2 0x1637 JUMPI PUSH2 0x1636 PUSH2 0x1450 JUMP JUMPDEST JUMPDEST PUSH1 0x0 PUSH2 0x1645 DUP6 DUP3 DUP7 ADD PUSH2 0x160B JUMP JUMPDEST SWAP3 POP POP PUSH1 0x20 PUSH2 0x1656 DUP6 DUP3 DUP7 ADD PUSH2 0x160B JUMP JUMPDEST SWAP2 POP POP SWAP3 POP SWAP3 SWAP1 POP JUMP JUMPDEST PUSH1 0x0 DUP2 MLOAD SWAP1 POP SWAP2 SWAP1 POP JUMP JUMPDEST PUSH1 0x0 DUP3 DUP3 MSTORE PUSH1 0x20 DUP3 ADD SWAP1 POP SWAP3 SWAP2 POP POP JUMP JUMPDEST PUSH1 0x0 DUP2 SWAP1 POP PUSH1 0x20 DUP3 ADD SWAP1 POP SWAP2 SWAP1 POP JUMP JUMPDEST PUSH2 0x1695 DUP2 PUSH2 0x1475 JUMP JUMPDEST DUP3 MSTORE POP POP JUMP JUMPDEST PUSH1 0x80 DUP3 ADD PUSH1 0x0 DUP3 ADD MLOAD PUSH2 0x16B1 PUSH1 0x0 DUP6 ADD DUP3 PUSH2 0x1516 JUMP JUMPDEST POP PUSH1 0x20 DUP3 ADD MLOAD PUSH2 0x16C4 PUSH1 0x20 DUP6 ADD DUP3 PUSH2 0x1516 JUMP JUMPDEST POP PUSH1 0x40 DUP3 ADD MLOAD PUSH2 0x16D7 PUSH1 0x40 DUP6 ADD DUP3 PUSH2 0x168C JUMP JUMPDEST POP PUSH1 0x60 DUP3 ADD MLOAD PUSH2 0x16EA PUSH1 0x60 DUP6 ADD DUP3 PUSH2 0x1516 JUMP JUMPDEST POP POP POP POP JUMP JUMPDEST PUSH1 0x0 PUSH2 0x16FC DUP4 DUP4 PUSH2 0x169B JUMP JUMPDEST PUSH1 0x80 DUP4 ADD SWAP1 POP SWAP3 SWAP2 POP POP JUMP JUMPDEST PUSH1 0x0 PUSH1 0x20 DUP3 ADD SWAP1 POP SWAP2 SWAP1 POP JUMP JUMPDEST PUSH1 0x0 PUSH2 0x1720 DUP3 PUSH2 0x1660 JUMP JUMPDEST PUSH2 0x172A DUP2 DUP6 PUSH2 0x166B JUMP JUMPDEST SWAP4 POP PUSH2 0x1735 DUP4 PUSH2 0x167C JUMP JUMPDEST DUP1 PUSH1 0x0 JUMPDEST DUP4 DUP2 LT ISZERO PUSH2 0x1766 JUMPI DUP2 MLOAD PUSH2 0x174D DUP9 DUP3 PUSH2 0x16F0 JUMP JUMPDEST SWAP8 POP PUSH2 0x1758 DUP4 PUSH2 0x1708 JUMP JUMPDEST SWAP3 POP POP PUSH1 0x1 DUP2 ADD SWAP1 POP PUSH2 0x1739 JUMP JUMPDEST POP DUP6 SWAP4 POP POP POP POP SWAP3 SWAP2 POP POP JUMP JUMPDEST PUSH1 0x0 PUSH1 0x20 DUP3 ADD SWAP1 POP DUP2 DUP2 SUB PUSH1 0x0 DUP4 ADD MSTORE PUSH2 0x178D DUP2 DUP5 PUSH2 0x1715 JUMP JUMPDEST SWAP1 POP SWAP3 SWAP2 POP POP JUMP JUMPDEST PUSH1 0x0 DUP1 PUSH1 0x40 DUP4 DUP6 SUB SLT ISZERO PUSH2 0x17AC JUMPI PUSH2 0x17AB PUSH2 0x1450 JUMP JUMPDEST JUMPDEST PUSH1 0x0 PUSH2 0x17BA DUP6 DUP3 DUP7 ADD PUSH2 0x149E JUMP JUMPDEST SWAP3 POP POP PUSH1 0x20 PUSH2 0x17CB DUP6 DUP3 DUP7 ADD PUSH2 0x160B JUMP JUMPDEST SWAP2 POP POP SWAP3 POP SWAP3 SWAP1 POP JUMP JUMPDEST PUSH1 0x0 PUSH1 0x20 DUP3 DUP5 SUB SLT ISZERO PUSH2 0x17EB JUMPI PUSH2 0x17EA PUSH2 0x1450 JUMP JUMPDEST JUMPDEST PUSH1 0x0 PUSH2 0x17F9 DUP5 DUP3 DUP6 ADD PUSH2 0x160B JUMP JUMPDEST SWAP2 POP POP SWAP3 SWAP2 POP POP JUMP JUMPDEST PUSH2 0x180B DUP2 PUSH2 0x1475 JUMP JUMPDEST DUP3 MSTORE POP POP JUMP JUMPDEST PUSH1 0x0 PUSH1 0x60 DUP3 ADD SWAP1 POP PUSH2 0x1826 PUSH1 0x0 DUP4 ADD DUP7 PUSH2 0x15CA JUMP JUMPDEST PUSH2 0x1833 PUSH1 0x20 DUP4 ADD DUP6 PUSH2 0x1802 JUMP JUMPDEST PUSH2 0x1840 PUSH1 0x40 DUP4 ADD DUP5 PUSH2 0x15CA JUMP JUMPDEST SWAP5 SWAP4 POP POP POP POP JUMP JUMPDEST PUSH1 0x0 DUP1 PUSH1 0x0 PUSH1 0x60 DUP5 DUP7 SUB SLT ISZERO PUSH2 0x1861 JUMPI PUSH2 0x1860 PUSH2 0x1450 JUMP JUMPDEST JUMPDEST PUSH1 0x0 PUSH2 0x186F DUP7 DUP3 DUP8 ADD PUSH2 0x149E JUMP JUMPDEST SWAP4 POP POP PUSH1 0x20 PUSH2 0x1880 DUP7 DUP3 DUP8 ADD PUSH2 0x160B JUMP JUMPDEST SWAP3 POP POP PUSH1 0x40 PUSH2 0x1891 DUP7 DUP3 DUP8 ADD PUSH2 0x160B JUMP JUMPDEST SWAP2 POP POP SWAP3 POP SWAP3 POP SWAP3 JUMP JUMPDEST PUSH32 0x4E487B7100000000000000000000000000000000000000000000000000000000 PUSH1 0x0 MSTORE PUSH1 0x41 PUSH1 0x4 MSTORE PUSH1 0x24 PUSH1 0x0 REVERT JUMPDEST PUSH32 0x4E487B7100000000000000000000000000000000000000000000000000000000 PUSH1 0x0 MSTORE PUSH1 0x11 PUSH1 0x4 MSTORE PUSH1 0x24 PUSH1 0x0 REVERT JUMPDEST PUSH1 0x0 PUSH2 0x1904 DUP3 PUSH2 0x150C JUMP JUMPDEST SWAP2 POP PUSH2 0x190F DUP4 PUSH2 0x150C JUMP JUMPDEST SWAP3 POP DUP3 DUP3 ADD SWAP1 POP DUP1 DUP3 GT ISZERO PUSH2 0x1927 JUMPI PUSH2 0x1926 PUSH2 0x18CA JUMP JUMPDEST JUMPDEST SWAP3 SWAP2 POP POP JUMP JUMPDEST PUSH32 0x4E487B7100000000000000000000000000000000000000000000000000000000 PUSH1 0x0 MSTORE PUSH1 0x32 PUSH1 0x4 MSTORE PUSH1 0x24 PUSH1 0x0 REVERT JUMPDEST PUSH1 0x0 PUSH2 0x1967 DUP3 PUSH2 0x150C JUMP JUMPDEST SWAP2 POP PUSH2 0x1972 DUP4 PUSH2 0x150C JUMP JUMPDEST SWAP3 POP DUP3 DUP3 SUB SWAP1 POP DUP2 DUP2 GT ISZERO PUSH2 0x198A JUMPI PUSH2 0x1989 PUSH2 0x18CA JUMP JUMPDEST JUMPDEST SWAP3 SWAP2 POP POP JUMP JUMPDEST PUSH1 0x0 PUSH2 0x199B DUP3 PUSH2 0x150C JUMP JUMPDEST SWAP2 POP PUSH32 0xFFFFFFFFFFFFFFFFFFFFFFFFFFFFFFFFFFFFFFFFFFFFFFFFFFFFFFFFFFFFFFFF DUP3 SUB PUSH2 0x19CD JUMPI PUSH2 0x19CC PUSH2 0x18CA JUMP JUMPDEST JUMPDEST PUSH1 0x1 DUP3 ADD SWAP1 POP SWAP2 SWAP1 POP JUMP JUMPDEST PUSH1 0x0 DUP3 DUP3 MSTORE PUSH1 0x20 DUP3 ADD SWAP1 POP SWAP3 SWAP2 POP POP JUMP JUMPDEST PUSH32 0x50616765206E756D6265722073686F756C642062652067726561746572207468 PUSH1 0x0 DUP3 ADD MSTORE PUSH32 0x616E203000000000000000000000000000000000000000000000000000000000 PUSH1 0x20 DUP3 ADD MSTORE POP JUMP JUMPDEST PUSH1 0x0 PUSH2 0x1A45 PUSH1 0x24 DUP4 PUSH2 0x19D8 JUMP JUMPDEST SWAP2 POP PUSH2 0x1A50 DUP3 PUSH2 0x19E9 JUMP JUMPDEST PUSH1 0x40 DUP3 ADD SWAP1 POP SWAP2 SWAP1 POP JUMP JUMPDEST PUSH1 0x0 PUSH1 0x20 DUP3 ADD SWAP1 POP DUP2 DUP2 SUB PUSH1 0x0 DUP4 ADD MSTORE PUSH2 0x1A74 DUP2 PUSH2 0x1A38 JUMP JUMPDEST SWAP1 POP SWAP2 SWAP1 POP JUMP JUMPDEST PUSH32 0x506167652073697A652073686F756C642062652067726561746572207468616E PUSH1 0x0 DUP3 ADD MSTORE PUSH32 0x2030000000000000000000000000000000000000000000000000000000000000 PUSH1 0x20 DUP3 ADD MSTORE POP JUMP JUMPDEST PUSH1 0x0 PUSH2 0x1AD7 PUSH1 0x22 DUP4 PUSH2 0x19D8 JUMP JUMPDEST SWAP2 POP PUSH2 0x1AE2 DUP3 PUSH2 0x1A7B JUMP JUMPDEST PUSH1 0x40 DUP3 ADD SWAP1 POP SWAP2 SWAP1 POP JUMP JUMPDEST PUSH1 0x0 PUSH1 0x20 DUP3 ADD SWAP1 POP DUP2 DUP2 SUB PUSH1 0x0 DUP4 ADD MSTORE PUSH2 0x1B06 DUP2 PUSH2 0x1ACA JUMP JUMPDEST SWAP1 POP SWAP2 SWAP1 POP JUMP JUMPDEST PUSH1 0x0 PUSH2 0x1B18 DUP3 PUSH2 0x150C JUMP JUMPDEST SWAP2 POP PUSH2 0x1B23 DUP4 PUSH2 0x150C JUMP JUMPDEST SWAP3 POP DUP3 DUP3 MUL PUSH2 0x1B31 DUP2 PUSH2 0x150C JUMP JUMPDEST SWAP2 POP DUP3 DUP3 DIV DUP5 EQ DUP4 ISZERO OR PUSH2 0x1B48 JUMPI PUSH2 0x1B47 PUSH2 0x18CA JUMP JUMPDEST JUMPDEST POP SWAP3 SWAP2 POP POP JUMP JUMPDEST PUSH32 0x706167652073686F756C64206C657373207468616E20746F74616C204F726465 PUSH1 0x0 DUP3 ADD MSTORE PUSH32 0x72206E756D626572000000000000000000000000000000000000000000000000 PUSH1 0x20 DUP3 ADD MSTORE POP JUMP JUMPDEST PUSH1 0x0 PUSH2 0x1BAB PUSH1 0x28 DUP4 PUSH2 0x19D8 JUMP JUMPDEST SWAP2 POP PUSH2 0x1BB6 DUP3 PUSH2 0x1B4F JUMP JUMPDEST PUSH1 0x40 DUP3 ADD SWAP1 POP SWAP2 SWAP1 POP JUMP JUMPDEST PUSH1 0x0 PUSH1 0x20 DUP3 ADD SWAP1 POP DUP2 DUP2 SUB PUSH1 0x0 DUP4 ADD MSTORE PUSH2 0x1BDA DUP2 PUSH2 0x1B9E JUMP JUMPDEST SWAP1 POP SWAP2 SWAP1 POP JUMP JUMPDEST PUSH32 0x6D73672E73656E646572206973206E6F7420746865204E4654206F776E657200 PUSH1 0x0 DUP3 ADD MSTORE POP JUMP JUMPDEST PUSH1 0x0 PUSH2 0x1C17 PUSH1 0x1F DUP4 PUSH2 0x19D8 JUMP JUMPDEST SWAP2 POP PUSH2 0x1C22 DUP3 PUSH2 0x1BE1 JUMP JUMPDEST PUSH1 0x20 DUP3 ADD SWAP1 POP SWAP2 SWAP1 POP JUMP JUMPDEST PUSH1 0x0 PUSH1 0x20 DUP3 ADD SWAP1 POP DUP2 DUP2 SUB PUSH1 0x0 DUP4 ADD MSTORE PUSH2 0x1C46 DUP2 PUSH2 0x1C0A JUMP JUMPDEST SWAP1 POP SWAP2 SWAP1 POP JUMP JUMPDEST PUSH1 0x0 PUSH1 0x60 DUP3 ADD SWAP1 POP PUSH2 0x1C62 PUSH1 0x0 DUP4 ADD DUP7 PUSH2 0x1802 JUMP JUMPDEST PUSH2 0x1C6F PUSH1 0x20 DUP4 ADD DUP6 PUSH2 0x1802 JUMP JUMPDEST PUSH2 0x1C7C PUSH1 0x40 DUP4 ADD DUP5 PUSH2 0x15CA JUMP JUMPDEST SWAP5 SWAP4 POP POP POP POP JUMP JUMPDEST PUSH32 0x707269636520697320746F6F206C6F7700000000000000000000000000000000 PUSH1 0x0 DUP3 ADD MSTORE POP JUMP JUMPDEST PUSH1 0x0 PUSH2 0x1CBA PUSH1 0x10 DUP4 PUSH2 0x19D8 JUMP JUMPDEST SWAP2 POP PUSH2 0x1CC5 DUP3 PUSH2 0x1C84 JUMP JUMPDEST PUSH1 0x20 DUP3 ADD SWAP1 POP SWAP2 SWAP1 POP JUMP JUMPDEST PUSH1 0x0 PUSH1 0x20 DUP3 ADD SWAP1 POP DUP2 DUP2 SUB PUSH1 0x0 DUP4 ADD MSTORE PUSH2 0x1CE9 DUP2 PUSH2 0x1CAD JUMP JUMPDEST SWAP1 POP SWAP2 SWAP1 POP JUMP JUMPDEST PUSH1 0x0 PUSH1 0x40 DUP3 ADD SWAP1 POP PUSH2 0x1D05 PUSH1 0x0 DUP4 ADD DUP6 PUSH2 0x1802 JUMP JUMPDEST PUSH2 0x1D12 PUSH1 0x20 DUP4 ADD DUP5 PUSH2 0x15CA JUMP JUMPDEST SWAP4 SWAP3 POP POP POP JUMP JUMPDEST PUSH32 0x746865202773656C6C65722720706172616D65746572206973206E6F74207468 PUSH1 0x0 DUP3 ADD MSTORE PUSH32 0x65206F726465722073656C6C6572000000000000000000000000000000000000 PUSH1 0x20 DUP3 ADD MSTORE POP JUMP JUMPDEST PUSH1 0x0 PUSH2 0x1D75 PUSH1 0x2E DUP4 PUSH2 0x19D8 JUMP JUMPDEST SWAP2 POP PUSH2 0x1D80 DUP3 PUSH2 0x1D19 JUMP JUMPDEST PUSH1 0x40 DUP3 ADD SWAP1 POP SWAP2 SWAP1 POP JUMP JUMPDEST PUSH1 0x0 PUSH1 0x20 DUP3 ADD SWAP1 POP DUP2 DUP2 SUB PUSH1 0x0 DUP4 ADD MSTORE PUSH2 0x1DA4 DUP2 PUSH2 0x1D68 JUMP JUMPDEST SWAP1 POP SWAP2 SWAP1 POP JUMP INVALID LOG2 PUSH5 0x6970667358 0x22 SLT KECCAK256 REVERT 0xBB CODECOPY SWAP3 CREATE PUSH30 0xFD6F509CFDAA3573C394F267802174FD61FBBB408BBA3FBD7C5C64736F6C PUSH4 0x43000818 STOP CALLER "
				},
				"gasEstimates": {
					"creation": {
						"codeDepositCost": "1529800",
						"executionCost": "infinite",
						"totalCost": "infinite"
					},
					"external": {
						"buyNFT(address,uint256)": "infinite",
						"contractBalance()": "2473",
						"getAllListedNFTs()": "infinite",
						"getAllOrderIds()": "infinite",
						"getAllOrders()": "infinite",
						"getExistAllOrder()": "2504",
						"getOrdersByPage(uint256,uint256)": "infinite",
						"getUserOrder(address)": "infinite",
						"getorderData(uint256)": "infinite",
						"list(address,uint256,uint256)": "infinite",
						"unlistNFT(address,uint256)": "infinite"
					},
					"internal": {
						"removeOrder(address,uint256)": "infinite"
					}
				},
				"methodIdentifiers": {
					"buyNFT(address,uint256)": "a82ba76f",
					"contractBalance()": "8b7afe2e",
					"getAllListedNFTs()": "4b58ffaa",
					"getAllOrderIds()": "4b2b612a",
					"getAllOrders()": "7bea0d1c",
					"getExistAllOrder()": "4e9c378f",
					"getOrdersByPage(uint256,uint256)": "5879e79b",
					"getUserOrder(address)": "41a6506b",
					"getorderData(uint256)": "c6362a59",
					"list(address,uint256,uint256)": "dda342bb",
					"unlistNFT(address,uint256)": "7fc27efd"
				}
			},
			"storageLayout": {
				"storage": [
					{
						"astId": 2808,
						"contract": "src/contracts/NFTMarket.sol:NFTMarket",
						"label": "NFTAddress",
						"offset": 0,
						"slot": "0",
						"type": "t_address"
					},
					{
						"astId": 2810,
						"contract": "src/contracts/NFTMarket.sol:NFTMarket",
						"label": "owner",
						"offset": 0,
						"slot": "1",
						"type": "t_address"
					},
					{
						"astId": 2812,
						"contract": "src/contracts/NFTMarket.sol:NFTMarket",
						"label": "contractBalance",
						"offset": 0,
						"slot": "2",
						"type": "t_uint256"
					},
					{
						"astId": 2837,
						"contract": "src/contracts/NFTMarket.sol:NFTMarket",
						"label": "orderData",
						"offset": 0,
						"slot": "3",
						"type": "t_mapping(t_uint256,t_struct(Order)2832_storage)"
					},
					{
						"astId": 2842,
						"contract": "src/contracts/NFTMarket.sol:NFTMarket",
						"label": "allOrder",
						"offset": 0,
						"slot": "4",
						"type": "t_mapping(t_uint256,t_struct(Order)2832_storage)"
					},
					{
						"astId": 2848,
						"contract": "src/contracts/NFTMarket.sol:NFTMarket",
						"label": "userOrder",
						"offset": 0,
						"slot": "5",
						"type": "t_mapping(t_address,t_mapping(t_uint256,t_uint256))"
					},
					{
						"astId": 2852,
						"contract": "src/contracts/NFTMarket.sol:NFTMarket",
						"label": "userTotalOrder",
						"offset": 0,
						"slot": "6",
						"type": "t_mapping(t_address,t_uint256)"
					},
					{
						"astId": 2854,
						"contract": "src/contracts/NFTMarket.sol:NFTMarket",
						"label": "totalOrder",
						"offset": 0,
						"slot": "7",
						"type": "t_uint256"
					},
					{
						"astId": 2856,
						"contract": "src/contracts/NFTMarket.sol:NFTMarket",
						"label": "OrderIndex",
						"offset": 0,
						"slot": "8",
						"type": "t_uint256"
					}
				],
				"types": {
					"t_address": {
						"encoding": "inplace",
						"label": "address",
						"numberOfBytes": "20"
					},
					"t_mapping(t_address,t_mapping(t_uint256,t_uint256))": {
						"encoding": "mapping",
						"key": "t_address",
						"label": "mapping(address => mapping(uint256 => uint256))",
						"numberOfBytes": "32",
						"value": "t_mapping(t_uint256,t_uint256)"
					},
					"t_mapping(t_address,t_uint256)": {
						"encoding": "mapping",
						"key": "t_address",
						"label": "mapping(address => uint256)",
						"numberOfBytes": "32",
						"value": "t_uint256"
					},
					"t_mapping(t_uint256,t_struct(Order)2832_storage)": {
						"encoding": "mapping",
						"key": "t_uint256",
						"label": "mapping(uint256 => struct NFTMarket.Order)",
						"numberOfBytes": "32",
						"value": "t_struct(Order)2832_storage"
					},
					"t_mapping(t_uint256,t_uint256)": {
						"encoding": "mapping",
						"key": "t_uint256",
						"label": "mapping(uint256 => uint256)",
						"numberOfBytes": "32",
						"value": "t_uint256"
					},
					"t_struct(Order)2832_storage": {
						"encoding": "inplace",
						"label": "struct NFTMarket.Order",
						"members": [
							{
								"astId": 2825,
								"contract": "src/contracts/NFTMarket.sol:NFTMarket",
								"label": "orderId",
								"offset": 0,
								"slot": "0",
								"type": "t_uint256"
							},
							{
								"astId": 2827,
								"contract": "src/contracts/NFTMarket.sol:NFTMarket",
								"label": "tokenId",
								"offset": 0,
								"slot": "1",
								"type": "t_uint256"
							},
							{
								"astId": 2829,
								"contract": "src/contracts/NFTMarket.sol:NFTMarket",
								"label": "sellAddr",
								"offset": 0,
								"slot": "2",
								"type": "t_address"
							},
							{
								"astId": 2831,
								"contract": "src/contracts/NFTMarket.sol:NFTMarket",
								"label": "price",
								"offset": 0,
								"slot": "3",
								"type": "t_uint256"
							}
						],
						"numberOfBytes": "128"
					},
					"t_uint256": {
						"encoding": "inplace",
						"label": "uint256",
						"numberOfBytes": "32"
					}
				}
			},
			"userdoc": {
				"kind": "user",
				"methods": {},
				"version": 1
			}
		}
	}
}