{
	"NFTMarket.sol": {
		"NFTMarket": {
			"abi": [
				{
					"inputs": [
						{
							"internalType": "address",
							"name": "_NFTAddress",
							"type": "address"
						}
					],
					"stateMutability": "nonpayable",
					"type": "constructor"
				},
				{
					"inputs": [
						{
							"internalType": "address",
							"name": "buyer",
							"type": "address"
						},
						{
							"internalType": "uint256",
							"name": "orderId",
							"type": "uint256"
						}
					],
					"name": "buyNFT",
					"outputs": [],
					"stateMutability": "payable",
					"type": "function"
				},
				{
					"inputs": [],
					"name": "contractBalance",
					"outputs": [
						{
							"internalType": "uint256",
							"name": "",
							"type": "uint256"
						}
					],
					"stateMutability": "view",
					"type": "function"
				},
				{
					"inputs": [],
					"name": "getExistAllOrder",
					"outputs": [
						{
							"internalType": "uint256",
							"name": "",
							"type": "uint256"
						}
					],
					"stateMutability": "view",
					"type": "function"
				},
				{
					"inputs": [
						{
							"internalType": "address",
							"name": "user",
							"type": "address"
						}
					],
					"name": "getUserOrder",
					"outputs": [
						{
							"internalType": "uint256[]",
							"name": "",
							"type": "uint256[]"
						}
					],
					"stateMutability": "view",
					"type": "function"
				},
				{
					"inputs": [
						{
							"internalType": "uint256",
							"name": "orderId",
							"type": "uint256"
						}
					],
					"name": "getorderData",
					"outputs": [
						{
							"internalType": "uint256",
							"name": "tokenId",
							"type": "uint256"
						},
						{
							"internalType": "address",
							"name": "sellerAddr",
							"type": "address"
						},
						{
							"internalType": "uint256",
							"name": "price",
							"type": "uint256"
						}
					],
					"stateMutability": "view",
					"type": "function"
				},
				{
					"inputs": [
						{
							"internalType": "address",
							"name": "seller",
							"type": "address"
						},
						{
							"internalType": "uint256",
							"name": "price",
							"type": "uint256"
						},
						{
							"internalType": "uint256",
							"name": "tokenId",
							"type": "uint256"
						}
					],
					"name": "list",
					"outputs": [],
					"stateMutability": "nonpayable",
					"type": "function"
				},
				{
					"inputs": [
						{
							"internalType": "address",
							"name": "seller",
							"type": "address"
						},
						{
							"internalType": "uint256",
							"name": "orderId",
							"type": "uint256"
						}
					],
					"name": "unlistNFT",
					"outputs": [],
					"stateMutability": "nonpayable",
					"type": "function"
				}
			],
			"devdoc": {
				"kind": "dev",
				"methods": {},
				"version": 1
			},
			"evm": {
				"assembly": "    /* \"NFTMarket.sol\":125:3756  contract NFTMarket {... */\n  mstore(0x40, 0x80)\n    /* \"NFTMarket.sol\":151:256  constructor(address _NFTAddress) {... */\n  callvalue\n  dup1\n  iszero\n  tag_1\n  jumpi\n  0x00\n  dup1\n  revert\ntag_1:\n  pop\n  mload(0x40)\n  sub(codesize, bytecodeSize)\n  dup1\n  bytecodeSize\n  dup4\n  codecopy\n  dup2\n  dup2\n  add\n  0x40\n  mstore\n  dup2\n  add\n  swap1\n  tag_2\n  swap2\n  swap1\n  tag_3\n  jump\t// in\ntag_2:\n    /* \"NFTMarket.sol\":208:219  _NFTAddress */\n  dup1\n    /* \"NFTMarket.sol\":195:205  NFTAddress */\n  0x00\n  dup1\n    /* \"NFTMarket.sol\":195:219  NFTAddress = _NFTAddress */\n  0x0100\n  exp\n  dup2\n  sload\n  dup2\n  0xffffffffffffffffffffffffffffffffffffffff\n  mul\n  not\n  and\n  swap1\n  dup4\n  0xffffffffffffffffffffffffffffffffffffffff\n  and\n  mul\n  or\n  swap1\n  sstore\n  pop\n    /* \"NFTMarket.sol\":238:248  msg.sender */\n  caller\n    /* \"NFTMarket.sol\":230:235  owner */\n  0x01\n  0x00\n    /* \"NFTMarket.sol\":230:248  owner = msg.sender */\n  0x0100\n  exp\n  dup2\n  sload\n  dup2\n  0xffffffffffffffffffffffffffffffffffffffff\n  mul\n  not\n  and\n  swap1\n  dup4\n  0xffffffffffffffffffffffffffffffffffffffff\n  and\n  mul\n  or\n  swap1\n  sstore\n  pop\n    /* \"NFTMarket.sol\":151:256  constructor(address _NFTAddress) {... */\n  pop\n    /* \"NFTMarket.sol\":125:3756  contract NFTMarket {... */\n  jump(tag_6)\n    /* \"#utility.yul\":88:205   */\ntag_8:\n    /* \"#utility.yul\":197:198   */\n  0x00\n    /* \"#utility.yul\":194:195   */\n  dup1\n    /* \"#utility.yul\":187:199   */\n  revert\n    /* \"#utility.yul\":334:460   */\ntag_10:\n    /* \"#utility.yul\":371:378   */\n  0x00\n    /* \"#utility.yul\":411:453   */\n  0xffffffffffffffffffffffffffffffffffffffff\n    /* \"#utility.yul\":404:409   */\n  dup3\n    /* \"#utility.yul\":400:454   */\n  and\n    /* \"#utility.yul\":389:454   */\n  swap1\n  pop\n    /* \"#utility.yul\":334:460   */\n  swap2\n  swap1\n  pop\n  jump\t// out\n    /* \"#utility.yul\":466:562   */\ntag_11:\n    /* \"#utility.yul\":503:510   */\n  0x00\n    /* \"#utility.yul\":532:556   */\n  tag_20\n    /* \"#utility.yul\":550:555   */\n  dup3\n    /* \"#utility.yul\":532:556   */\n  tag_10\n  jump\t// in\ntag_20:\n    /* \"#utility.yul\":521:556   */\n  swap1\n  pop\n    /* \"#utility.yul\":466:562   */\n  swap2\n  swap1\n  pop\n  jump\t// out\n    /* \"#utility.yul\":568:690   */\ntag_12:\n    /* \"#utility.yul\":641:665   */\n  tag_22\n    /* \"#utility.yul\":659:664   */\n  dup2\n    /* \"#utility.yul\":641:665   */\n  tag_11\n  jump\t// in\ntag_22:\n    /* \"#utility.yul\":634:639   */\n  dup2\n    /* \"#utility.yul\":631:666   */\n  eq\n    /* \"#utility.yul\":621:684   */\n  tag_23\n  jumpi\n    /* \"#utility.yul\":680:681   */\n  0x00\n    /* \"#utility.yul\":677:678   */\n  dup1\n    /* \"#utility.yul\":670:682   */\n  revert\n    /* \"#utility.yul\":621:684   */\ntag_23:\n    /* \"#utility.yul\":568:690   */\n  pop\n  jump\t// out\n    /* \"#utility.yul\":696:839   */\ntag_13:\n    /* \"#utility.yul\":753:758   */\n  0x00\n    /* \"#utility.yul\":784:790   */\n  dup2\n    /* \"#utility.yul\":778:791   */\n  mload\n    /* \"#utility.yul\":769:791   */\n  swap1\n  pop\n    /* \"#utility.yul\":800:833   */\n  tag_25\n    /* \"#utility.yul\":827:832   */\n  dup2\n    /* \"#utility.yul\":800:833   */\n  tag_12\n  jump\t// in\ntag_25:\n    /* \"#utility.yul\":696:839   */\n  swap3\n  swap2\n  pop\n  pop\n  jump\t// out\n    /* \"#utility.yul\":845:1196   */\ntag_3:\n    /* \"#utility.yul\":915:921   */\n  0x00\n    /* \"#utility.yul\":964:966   */\n  0x20\n    /* \"#utility.yul\":952:961   */\n  dup3\n    /* \"#utility.yul\":943:950   */\n  dup5\n    /* \"#utility.yul\":939:962   */\n  sub\n    /* \"#utility.yul\":935:967   */\n  slt\n    /* \"#utility.yul\":932:1051   */\n  iszero\n  tag_27\n  jumpi\n    /* \"#utility.yul\":970:1049   */\n  tag_28\n  tag_8\n  jump\t// in\ntag_28:\n    /* \"#utility.yul\":932:1051   */\ntag_27:\n    /* \"#utility.yul\":1090:1091   */\n  0x00\n    /* \"#utility.yul\":1115:1179   */\n  tag_29\n    /* \"#utility.yul\":1171:1178   */\n  dup5\n    /* \"#utility.yul\":1162:1168   */\n  dup3\n    /* \"#utility.yul\":1151:1160   */\n  dup6\n    /* \"#utility.yul\":1147:1169   */\n  add\n    /* \"#utility.yul\":1115:1179   */\n  tag_13\n  jump\t// in\ntag_29:\n    /* \"#utility.yul\":1105:1179   */\n  swap2\n  pop\n    /* \"#utility.yul\":1061:1189   */\n  pop\n    /* \"#utility.yul\":845:1196   */\n  swap3\n  swap2\n  pop\n  pop\n  jump\t// out\n    /* \"NFTMarket.sol\":125:3756  contract NFTMarket {... */\ntag_6:\n  dataSize(sub_0)\n  dup1\n  dataOffset(sub_0)\n  0x00\n  codecopy\n  0x00\n  return\nstop\n\nsub_0: assembly {\n        /* \"NFTMarket.sol\":125:3756  contract NFTMarket {... */\n      mstore(0x40, 0x80)\n      jumpi(tag_1, lt(calldatasize, 0x04))\n      shr(0xe0, calldataload(0x00))\n      dup1\n      0x8b7afe2e\n      gt\n      tag_9\n      jumpi\n      dup1\n      0x8b7afe2e\n      eq\n      tag_5\n      jumpi\n      dup1\n      0xa82ba76f\n      eq\n      tag_6\n      jumpi\n      dup1\n      0xc6362a59\n      eq\n      tag_7\n      jumpi\n      dup1\n      0xdda342bb\n      eq\n      tag_8\n      jumpi\n      jump(tag_1)\n    tag_9:\n      dup1\n      0x41a6506b\n      eq\n      tag_2\n      jumpi\n      dup1\n      0x4e9c378f\n      eq\n      tag_3\n      jumpi\n      dup1\n      0x7fc27efd\n      eq\n      tag_4\n      jumpi\n    tag_1:\n      0x00\n      dup1\n      revert\n        /* \"NFTMarket.sol\":3254:3610  function getUserOrder(address user) public view returns (uint[] memory) {... */\n    tag_2:\n      callvalue\n      dup1\n      iszero\n      tag_10\n      jumpi\n      0x00\n      dup1\n      revert\n    tag_10:\n      pop\n      tag_11\n      0x04\n      dup1\n      calldatasize\n      sub\n      dup2\n      add\n      swap1\n      tag_12\n      swap2\n      swap1\n      tag_13\n      jump\t// in\n    tag_12:\n      tag_14\n      jump\t// in\n    tag_11:\n      mload(0x40)\n      tag_15\n      swap2\n      swap1\n      tag_16\n      jump\t// in\n    tag_15:\n      mload(0x40)\n      dup1\n      swap2\n      sub\n      swap1\n      return\n        /* \"NFTMarket.sol\":3659:3753  function getExistAllOrder() public view returns (uint256) {... */\n    tag_3:\n      callvalue\n      dup1\n      iszero\n      tag_17\n      jumpi\n      0x00\n      dup1\n      revert\n    tag_17:\n      pop\n      tag_18\n      tag_19\n      jump\t// in\n    tag_18:\n      mload(0x40)\n      tag_20\n      swap2\n      swap1\n      tag_21\n      jump\t// in\n    tag_20:\n      mload(0x40)\n      dup1\n      swap2\n      sub\n      swap1\n      return\n        /* \"NFTMarket.sol\":2554:2874  function unlistNFT(address seller,uint orderId) public {... */\n    tag_4:\n      callvalue\n      dup1\n      iszero\n      tag_22\n      jumpi\n      0x00\n      dup1\n      revert\n    tag_22:\n      pop\n      tag_23\n      0x04\n      dup1\n      calldatasize\n      sub\n      dup2\n      add\n      swap1\n      tag_24\n      swap2\n      swap1\n      tag_25\n      jump\t// in\n    tag_24:\n      tag_26\n      jump\t// in\n    tag_23:\n      stop\n        /* \"NFTMarket.sol\":313:343  uint256 public contractBalance */\n    tag_5:\n      callvalue\n      dup1\n      iszero\n      tag_27\n      jumpi\n      0x00\n      dup1\n      revert\n    tag_27:\n      pop\n      tag_28\n      tag_29\n      jump\t// in\n    tag_28:\n      mload(0x40)\n      tag_30\n      swap2\n      swap1\n      tag_21\n      jump\t// in\n    tag_30:\n      mload(0x40)\n      dup1\n      swap2\n      sub\n      swap1\n      return\n        /* \"NFTMarket.sol\":1284:1856  function buyNFT(address buyer, uint orderId) public payable {... */\n    tag_6:\n      tag_31\n      0x04\n      dup1\n      calldatasize\n      sub\n      dup2\n      add\n      swap1\n      tag_32\n      swap2\n      swap1\n      tag_25\n      jump\t// in\n    tag_32:\n      tag_33\n      jump\t// in\n    tag_31:\n      stop\n        /* \"NFTMarket.sol\":2927:3195  function getorderData(... */\n    tag_7:\n      callvalue\n      dup1\n      iszero\n      tag_34\n      jumpi\n      0x00\n      dup1\n      revert\n    tag_34:\n      pop\n      tag_35\n      0x04\n      dup1\n      calldatasize\n      sub\n      dup2\n      add\n      swap1\n      tag_36\n      swap2\n      swap1\n      tag_37\n      jump\t// in\n    tag_36:\n      tag_38\n      jump\t// in\n    tag_35:\n      mload(0x40)\n      tag_39\n      swap4\n      swap3\n      swap2\n      swap1\n      tag_40\n      jump\t// in\n    tag_39:\n      mload(0x40)\n      dup1\n      swap2\n      sub\n      swap1\n      return\n        /* \"NFTMarket.sol\":827:1259  function list(address seller, uint price, uint tokenId) public {... */\n    tag_8:\n      callvalue\n      dup1\n      iszero\n      tag_41\n      jumpi\n      0x00\n      dup1\n      revert\n    tag_41:\n      pop\n      tag_42\n      0x04\n      dup1\n      calldatasize\n      sub\n      dup2\n      add\n      swap1\n      tag_43\n      swap2\n      swap1\n      tag_44\n      jump\t// in\n    tag_43:\n      tag_45\n      jump\t// in\n    tag_42:\n      stop\n        /* \"NFTMarket.sol\":3254:3610  function getUserOrder(address user) public view returns (uint[] memory) {... */\n    tag_14:\n        /* \"NFTMarket.sol\":3311:3324  uint[] memory */\n      0x60\n        /* \"NFTMarket.sol\":3337:3357  uint userTotalOrders */\n      0x00\n        /* \"NFTMarket.sol\":3360:3374  userTotalOrder */\n      0x06\n        /* \"NFTMarket.sol\":3360:3380  userTotalOrder[user] */\n      0x00\n        /* \"NFTMarket.sol\":3375:3379  user */\n      dup5\n        /* \"NFTMarket.sol\":3360:3380  userTotalOrder[user] */\n      0xffffffffffffffffffffffffffffffffffffffff\n      and\n      0xffffffffffffffffffffffffffffffffffffffff\n      and\n      dup2\n      mstore\n      0x20\n      add\n      swap1\n      dup2\n      mstore\n      0x20\n      add\n      0x00\n      keccak256\n      sload\n        /* \"NFTMarket.sol\":3337:3380  uint userTotalOrders = userTotalOrder[user] */\n      swap1\n      pop\n        /* \"NFTMarket.sol\":3391:3411  uint[] memory orders */\n      0x00\n        /* \"NFTMarket.sol\":3425:3440  userTotalOrders */\n      dup2\n        /* \"NFTMarket.sol\":3414:3441  new uint[](userTotalOrders) */\n      0xffffffffffffffff\n      dup2\n      gt\n      iszero\n      tag_47\n      jumpi\n      tag_48\n      tag_49\n      jump\t// in\n    tag_48:\n    tag_47:\n      mload(0x40)\n      swap1\n      dup1\n      dup3\n      mstore\n      dup1\n      0x20\n      mul\n      0x20\n      add\n      dup3\n      add\n      0x40\n      mstore\n      dup1\n      iszero\n      tag_50\n      jumpi\n      dup2\n      0x20\n      add\n      0x20\n      dup3\n      mul\n      dup1\n      calldatasize\n      dup4\n      calldatacopy\n      dup1\n      dup3\n      add\n      swap2\n      pop\n      pop\n      swap1\n      pop\n    tag_50:\n      pop\n        /* \"NFTMarket.sol\":3391:3441  uint[] memory orders = new uint[](userTotalOrders) */\n      swap1\n      pop\n        /* \"NFTMarket.sol\":3457:3470  uint256 index */\n      0x00\n        /* \"NFTMarket.sol\":3452:3579  for (uint256 index = 0; index < userTotalOrders; index++) {... */\n    tag_51:\n        /* \"NFTMarket.sol\":3484:3499  userTotalOrders */\n      dup3\n        /* \"NFTMarket.sol\":3476:3481  index */\n      dup2\n        /* \"NFTMarket.sol\":3476:3499  index < userTotalOrders */\n      lt\n        /* \"NFTMarket.sol\":3452:3579  for (uint256 index = 0; index < userTotalOrders; index++) {... */\n      iszero\n      tag_52\n      jumpi\n        /* \"NFTMarket.sol\":3541:3550  userOrder */\n      0x05\n        /* \"NFTMarket.sol\":3541:3556  userOrder[user] */\n      0x00\n        /* \"NFTMarket.sol\":3551:3555  user */\n      dup7\n        /* \"NFTMarket.sol\":3541:3556  userOrder[user] */\n      0xffffffffffffffffffffffffffffffffffffffff\n      and\n      0xffffffffffffffffffffffffffffffffffffffff\n      and\n      dup2\n      mstore\n      0x20\n      add\n      swap1\n      dup2\n      mstore\n      0x20\n      add\n      0x00\n      keccak256\n        /* \"NFTMarket.sol\":3541:3567  userOrder[user][index + 1] */\n      0x00\n        /* \"NFTMarket.sol\":3565:3566  1 */\n      0x01\n        /* \"NFTMarket.sol\":3557:3562  index */\n      dup4\n        /* \"NFTMarket.sol\":3557:3566  index + 1 */\n      tag_54\n      swap2\n      swap1\n      tag_55\n      jump\t// in\n    tag_54:\n        /* \"NFTMarket.sol\":3541:3567  userOrder[user][index + 1] */\n      dup2\n      mstore\n      0x20\n      add\n      swap1\n      dup2\n      mstore\n      0x20\n      add\n      0x00\n      keccak256\n      sload\n        /* \"NFTMarket.sol\":3525:3531  orders */\n      dup3\n        /* \"NFTMarket.sol\":3532:3537  index */\n      dup3\n        /* \"NFTMarket.sol\":3525:3538  orders[index] */\n      dup2\n      mload\n      dup2\n      lt\n      tag_56\n      jumpi\n      tag_57\n      tag_58\n      jump\t// in\n    tag_57:\n    tag_56:\n      0x20\n      mul\n      0x20\n      add\n      add\n        /* \"NFTMarket.sol\":3525:3567  orders[index] = userOrder[user][index + 1] */\n      dup2\n      dup2\n      mstore\n      pop\n      pop\n        /* \"NFTMarket.sol\":3501:3508  index++ */\n      dup1\n      dup1\n      0x01\n      add\n      swap2\n      pop\n      pop\n        /* \"NFTMarket.sol\":3452:3579  for (uint256 index = 0; index < userTotalOrders; index++) {... */\n      jump(tag_51)\n    tag_52:\n      pop\n        /* \"NFTMarket.sol\":3596:3602  orders */\n      dup1\n        /* \"NFTMarket.sol\":3589:3602  return orders */\n      swap3\n      pop\n      pop\n      pop\n        /* \"NFTMarket.sol\":3254:3610  function getUserOrder(address user) public view returns (uint[] memory) {... */\n      swap2\n      swap1\n      pop\n      jump\t// out\n        /* \"NFTMarket.sol\":3659:3753  function getExistAllOrder() public view returns (uint256) {... */\n    tag_19:\n        /* \"NFTMarket.sol\":3708:3715  uint256 */\n      0x00\n        /* \"NFTMarket.sol\":3735:3745  totalOrder */\n      sload(0x07)\n        /* \"NFTMarket.sol\":3728:3745  return totalOrder */\n      swap1\n      pop\n        /* \"NFTMarket.sol\":3659:3753  function getExistAllOrder() public view returns (uint256) {... */\n      swap1\n      jump\t// out\n        /* \"NFTMarket.sol\":2554:2874  function unlistNFT(address seller,uint orderId) public {... */\n    tag_26:\n        /* \"NFTMarket.sol\":2638:2647  orderData */\n      0x03\n        /* \"NFTMarket.sol\":2638:2656  orderData[orderId] */\n      0x00\n        /* \"NFTMarket.sol\":2648:2655  orderId */\n      dup3\n        /* \"NFTMarket.sol\":2638:2656  orderData[orderId] */\n      dup2\n      mstore\n      0x20\n      add\n      swap1\n      dup2\n      mstore\n      0x20\n      add\n      0x00\n      keccak256\n        /* \"NFTMarket.sol\":2638:2665  orderData[orderId].sellAddr */\n      0x02\n      add\n      0x00\n      swap1\n      sload\n      swap1\n      0x0100\n      exp\n      swap1\n      div\n      0xffffffffffffffffffffffffffffffffffffffff\n      and\n        /* \"NFTMarket.sol\":2628:2665  seller == orderData[orderId].sellAddr */\n      0xffffffffffffffffffffffffffffffffffffffff\n      and\n        /* \"NFTMarket.sol\":2628:2634  seller */\n      dup3\n        /* \"NFTMarket.sol\":2628:2665  seller == orderData[orderId].sellAddr */\n      0xffffffffffffffffffffffffffffffffffffffff\n      and\n      eq\n        /* \"NFTMarket.sol\":2620:2701  require(seller == orderData[orderId].sellAddr, \"msg.sender is not the NFT owner\") */\n      tag_61\n      jumpi\n      mload(0x40)\n      0x08c379a000000000000000000000000000000000000000000000000000000000\n      dup2\n      mstore\n      0x04\n      add\n      tag_62\n      swap1\n      tag_63\n      jump\t// in\n    tag_62:\n      mload(0x40)\n      dup1\n      swap2\n      sub\n      swap1\n      revert\n    tag_61:\n        /* \"NFTMarket.sol\":2712:2724  uint tokenId */\n      0x00\n        /* \"NFTMarket.sol\":2727:2736  orderData */\n      0x03\n        /* \"NFTMarket.sol\":2727:2745  orderData[orderId] */\n      0x00\n        /* \"NFTMarket.sol\":2737:2744  orderId */\n      dup4\n        /* \"NFTMarket.sol\":2727:2745  orderData[orderId] */\n      dup2\n      mstore\n      0x20\n      add\n      swap1\n      dup2\n      mstore\n      0x20\n      add\n      0x00\n      keccak256\n        /* \"NFTMarket.sol\":2727:2753  orderData[orderId].tokenId */\n      0x01\n      add\n      sload\n        /* \"NFTMarket.sol\":2712:2753  uint tokenId = orderData[orderId].tokenId */\n      swap1\n      pop\n        /* \"NFTMarket.sol\":2771:2781  NFTAddress */\n      0x00\n      dup1\n      sload\n      swap1\n      0x0100\n      exp\n      swap1\n      div\n      0xffffffffffffffffffffffffffffffffffffffff\n      and\n        /* \"NFTMarket.sol\":2764:2795  ERC721(NFTAddress).transferFrom */\n      0xffffffffffffffffffffffffffffffffffffffff\n      and\n      0x23b872dd\n        /* \"NFTMarket.sol\":2804:2808  this */\n      address\n        /* \"NFTMarket.sol\":2811:2817  seller */\n      dup6\n        /* \"NFTMarket.sol\":2819:2826  tokenId */\n      dup5\n        /* \"NFTMarket.sol\":2764:2827  ERC721(NFTAddress).transferFrom(address(this), seller, tokenId) */\n      mload(0x40)\n      dup5\n      0xffffffff\n      and\n      0xe0\n      shl\n      dup2\n      mstore\n      0x04\n      add\n      tag_64\n      swap4\n      swap3\n      swap2\n      swap1\n      tag_65\n      jump\t// in\n    tag_64:\n      0x00\n      mload(0x40)\n      dup1\n      dup4\n      sub\n      dup2\n      0x00\n      dup8\n      dup1\n      extcodesize\n      iszero\n      dup1\n      iszero\n      tag_66\n      jumpi\n      0x00\n      dup1\n      revert\n    tag_66:\n      pop\n      gas\n      call\n      iszero\n      dup1\n      iszero\n      tag_68\n      jumpi\n      returndatasize\n      0x00\n      dup1\n      returndatacopy\n      revert(0x00, returndatasize)\n    tag_68:\n      pop\n      pop\n      pop\n      pop\n        /* \"NFTMarket.sol\":2838:2866  removeOrder(seller, orderId) */\n      tag_69\n        /* \"NFTMarket.sol\":2850:2856  seller */\n      dup4\n        /* \"NFTMarket.sol\":2858:2865  orderId */\n      dup4\n        /* \"NFTMarket.sol\":2838:2849  removeOrder */\n      tag_70\n        /* \"NFTMarket.sol\":2838:2866  removeOrder(seller, orderId) */\n      jump\t// in\n    tag_69:\n        /* \"NFTMarket.sol\":2609:2874  {... */\n      pop\n        /* \"NFTMarket.sol\":2554:2874  function unlistNFT(address seller,uint orderId) public {... */\n      pop\n      pop\n      jump\t// out\n        /* \"NFTMarket.sol\":313:343  uint256 public contractBalance */\n    tag_29:\n      sload(0x02)\n      dup2\n      jump\t// out\n        /* \"NFTMarket.sol\":1284:1856  function buyNFT(address buyer, uint orderId) public payable {... */\n    tag_33:\n        /* \"NFTMarket.sol\":1355:1365  uint price */\n      0x00\n        /* \"NFTMarket.sol\":1368:1377  orderData */\n      0x03\n        /* \"NFTMarket.sol\":1368:1386  orderData[orderId] */\n      0x00\n        /* \"NFTMarket.sol\":1378:1385  orderId */\n      dup4\n        /* \"NFTMarket.sol\":1368:1386  orderData[orderId] */\n      dup2\n      mstore\n      0x20\n      add\n      swap1\n      dup2\n      mstore\n      0x20\n      add\n      0x00\n      keccak256\n        /* \"NFTMarket.sol\":1368:1392  orderData[orderId].price */\n      0x03\n      add\n      sload\n        /* \"NFTMarket.sol\":1355:1392  uint price = orderData[orderId].price */\n      swap1\n      pop\n        /* \"NFTMarket.sol\":1403:1415  uint tokenId */\n      0x00\n        /* \"NFTMarket.sol\":1418:1427  orderData */\n      0x03\n        /* \"NFTMarket.sol\":1418:1436  orderData[orderId] */\n      0x00\n        /* \"NFTMarket.sol\":1428:1435  orderId */\n      dup5\n        /* \"NFTMarket.sol\":1418:1436  orderData[orderId] */\n      dup2\n      mstore\n      0x20\n      add\n      swap1\n      dup2\n      mstore\n      0x20\n      add\n      0x00\n      keccak256\n        /* \"NFTMarket.sol\":1418:1444  orderData[orderId].tokenId */\n      0x01\n      add\n      sload\n        /* \"NFTMarket.sol\":1403:1444  uint tokenId = orderData[orderId].tokenId */\n      swap1\n      pop\n        /* \"NFTMarket.sol\":1455:1469  address seller */\n      0x00\n        /* \"NFTMarket.sol\":1472:1481  orderData */\n      0x03\n        /* \"NFTMarket.sol\":1472:1490  orderData[orderId] */\n      0x00\n        /* \"NFTMarket.sol\":1482:1489  orderId */\n      dup6\n        /* \"NFTMarket.sol\":1472:1490  orderData[orderId] */\n      dup2\n      mstore\n      0x20\n      add\n      swap1\n      dup2\n      mstore\n      0x20\n      add\n      0x00\n      keccak256\n        /* \"NFTMarket.sol\":1472:1499  orderData[orderId].sellAddr */\n      0x02\n      add\n      0x00\n      swap1\n      sload\n      swap1\n      0x0100\n      exp\n      swap1\n      div\n      0xffffffffffffffffffffffffffffffffffffffff\n      and\n        /* \"NFTMarket.sol\":1455:1499  address seller = orderData[orderId].sellAddr */\n      swap1\n      pop\n        /* \"NFTMarket.sol\":1533:1538  price */\n      dup3\n        /* \"NFTMarket.sol\":1520:1529  msg.value */\n      callvalue\n        /* \"NFTMarket.sol\":1520:1538  msg.value >= price */\n      lt\n      iszero\n        /* \"NFTMarket.sol\":1512:1558  require(msg.value >= price,\"price is too low\") */\n      tag_72\n      jumpi\n      mload(0x40)\n      0x08c379a000000000000000000000000000000000000000000000000000000000\n      dup2\n      mstore\n      0x04\n      add\n      tag_73\n      swap1\n      tag_74\n      jump\t// in\n    tag_73:\n      mload(0x40)\n      dup1\n      swap2\n      sub\n      swap1\n      revert\n    tag_72:\n        /* \"NFTMarket.sol\":1648:1658  NFTAddress */\n      0x00\n      dup1\n      sload\n      swap1\n      0x0100\n      exp\n      swap1\n      div\n      0xffffffffffffffffffffffffffffffffffffffff\n      and\n        /* \"NFTMarket.sol\":1641:1667  ERC721(NFTAddress).approve */\n      0xffffffffffffffffffffffffffffffffffffffff\n      and\n      0x095ea7b3\n        /* \"NFTMarket.sol\":1676:1680  this */\n      address\n        /* \"NFTMarket.sol\":1682:1689  tokenId */\n      dup5\n        /* \"NFTMarket.sol\":1641:1690  ERC721(NFTAddress).approve(address(this),tokenId) */\n      mload(0x40)\n      dup4\n      0xffffffff\n      and\n      0xe0\n      shl\n      dup2\n      mstore\n      0x04\n      add\n      tag_75\n      swap3\n      swap2\n      swap1\n      tag_76\n      jump\t// in\n    tag_75:\n      0x00\n      mload(0x40)\n      dup1\n      dup4\n      sub\n      dup2\n      0x00\n      dup8\n      dup1\n      extcodesize\n      iszero\n      dup1\n      iszero\n      tag_77\n      jumpi\n      0x00\n      dup1\n      revert\n    tag_77:\n      pop\n      gas\n      call\n      iszero\n      dup1\n      iszero\n      tag_79\n      jumpi\n      returndatasize\n      0x00\n      dup1\n      returndatacopy\n      revert(0x00, returndatasize)\n    tag_79:\n      pop\n      pop\n      pop\n      pop\n        /* \"NFTMarket.sol\":1708:1718  NFTAddress */\n      0x00\n      dup1\n      sload\n      swap1\n      0x0100\n      exp\n      swap1\n      div\n      0xffffffffffffffffffffffffffffffffffffffff\n      and\n        /* \"NFTMarket.sol\":1701:1732  ERC721(NFTAddress).transferFrom */\n      0xffffffffffffffffffffffffffffffffffffffff\n      and\n      0x23b872dd\n        /* \"NFTMarket.sol\":1741:1745  this */\n      address\n        /* \"NFTMarket.sol\":1748:1753  buyer */\n      dup8\n        /* \"NFTMarket.sol\":1755:1762  tokenId */\n      dup6\n        /* \"NFTMarket.sol\":1701:1763  ERC721(NFTAddress).transferFrom(address(this), buyer, tokenId) */\n      mload(0x40)\n      dup5\n      0xffffffff\n      and\n      0xe0\n      shl\n      dup2\n      mstore\n      0x04\n      add\n      tag_80\n      swap4\n      swap3\n      swap2\n      swap1\n      tag_65\n      jump\t// in\n    tag_80:\n      0x00\n      mload(0x40)\n      dup1\n      dup4\n      sub\n      dup2\n      0x00\n      dup8\n      dup1\n      extcodesize\n      iszero\n      dup1\n      iszero\n      tag_81\n      jumpi\n      0x00\n      dup1\n      revert\n    tag_81:\n      pop\n      gas\n      call\n      iszero\n      dup1\n      iszero\n      tag_83\n      jumpi\n      returndatasize\n      0x00\n      dup1\n      returndatacopy\n      revert(0x00, returndatasize)\n    tag_83:\n      pop\n      pop\n      pop\n      pop\n        /* \"NFTMarket.sol\":1784:1790  seller */\n      dup1\n        /* \"NFTMarket.sol\":1776:1800  payable(seller).transfer */\n      0xffffffffffffffffffffffffffffffffffffffff\n      and\n        /* \"NFTMarket.sol\":1776:1807  payable(seller).transfer(price) */\n      0x08fc\n        /* \"NFTMarket.sol\":1801:1806  price */\n      dup5\n        /* \"NFTMarket.sol\":1776:1807  payable(seller).transfer(price) */\n      swap1\n      dup2\n      iszero\n      mul\n      swap1\n      mload(0x40)\n      0x00\n      mload(0x40)\n      dup1\n      dup4\n      sub\n      dup2\n      dup6\n      dup9\n      dup9\n      call\n      swap4\n      pop\n      pop\n      pop\n      pop\n      iszero\n      dup1\n      iszero\n      tag_85\n      jumpi\n      returndatasize\n      0x00\n      dup1\n      returndatacopy\n      revert(0x00, returndatasize)\n    tag_85:\n      pop\n        /* \"NFTMarket.sol\":1820:1848  removeOrder(seller, orderId) */\n      tag_86\n        /* \"NFTMarket.sol\":1832:1838  seller */\n      dup2\n        /* \"NFTMarket.sol\":1840:1847  orderId */\n      dup6\n        /* \"NFTMarket.sol\":1820:1831  removeOrder */\n      tag_70\n        /* \"NFTMarket.sol\":1820:1848  removeOrder(seller, orderId) */\n      jump\t// in\n    tag_86:\n        /* \"NFTMarket.sol\":1344:1856  {... */\n      pop\n      pop\n      pop\n        /* \"NFTMarket.sol\":1284:1856  function buyNFT(address buyer, uint orderId) public payable {... */\n      pop\n      pop\n      jump\t// out\n        /* \"NFTMarket.sol\":2927:3195  function getorderData(... */\n    tag_38:\n        /* \"NFTMarket.sol\":3000:3012  uint tokenId */\n      0x00\n        /* \"NFTMarket.sol\":3014:3032  address sellerAddr */\n      dup1\n        /* \"NFTMarket.sol\":3034:3044  uint price */\n      0x00\n        /* \"NFTMarket.sol\":3067:3076  orderData */\n      0x03\n        /* \"NFTMarket.sol\":3067:3085  orderData[orderId] */\n      0x00\n        /* \"NFTMarket.sol\":3077:3084  orderId */\n      dup6\n        /* \"NFTMarket.sol\":3067:3085  orderData[orderId] */\n      dup2\n      mstore\n      0x20\n      add\n      swap1\n      dup2\n      mstore\n      0x20\n      add\n      0x00\n      keccak256\n        /* \"NFTMarket.sol\":3067:3093  orderData[orderId].tokenId */\n      0x01\n      add\n      sload\n        /* \"NFTMarket.sol\":3057:3093  tokenId = orderData[orderId].tokenId */\n      swap3\n      pop\n        /* \"NFTMarket.sol\":3117:3126  orderData */\n      0x03\n        /* \"NFTMarket.sol\":3117:3135  orderData[orderId] */\n      0x00\n        /* \"NFTMarket.sol\":3127:3134  orderId */\n      dup6\n        /* \"NFTMarket.sol\":3117:3135  orderData[orderId] */\n      dup2\n      mstore\n      0x20\n      add\n      swap1\n      dup2\n      mstore\n      0x20\n      add\n      0x00\n      keccak256\n        /* \"NFTMarket.sol\":3117:3144  orderData[orderId].sellAddr */\n      0x02\n      add\n      0x00\n      swap1\n      sload\n      swap1\n      0x0100\n      exp\n      swap1\n      div\n      0xffffffffffffffffffffffffffffffffffffffff\n      and\n        /* \"NFTMarket.sol\":3104:3144  sellerAddr = orderData[orderId].sellAddr */\n      swap2\n      pop\n        /* \"NFTMarket.sol\":3163:3172  orderData */\n      0x03\n        /* \"NFTMarket.sol\":3163:3181  orderData[orderId] */\n      0x00\n        /* \"NFTMarket.sol\":3173:3180  orderId */\n      dup6\n        /* \"NFTMarket.sol\":3163:3181  orderData[orderId] */\n      dup2\n      mstore\n      0x20\n      add\n      swap1\n      dup2\n      mstore\n      0x20\n      add\n      0x00\n      keccak256\n        /* \"NFTMarket.sol\":3163:3187  orderData[orderId].price */\n      0x03\n      add\n      sload\n        /* \"NFTMarket.sol\":3155:3187  price = orderData[orderId].price */\n      swap1\n      pop\n        /* \"NFTMarket.sol\":2927:3195  function getorderData(... */\n      swap2\n      swap4\n      swap1\n      swap3\n      pop\n      jump\t// out\n        /* \"NFTMarket.sol\":827:1259  function list(address seller, uint price, uint tokenId) public {... */\n    tag_45:\n        /* \"NFTMarket.sol\":915:916  1 */\n      0x01\n        /* \"NFTMarket.sol\":901:911  OrderIndex */\n      0x08\n      0x00\n        /* \"NFTMarket.sol\":901:916  OrderIndex += 1 */\n      dup3\n      dup3\n      sload\n      tag_89\n      swap2\n      swap1\n      tag_55\n      jump\t// in\n    tag_89:\n      swap3\n      pop\n      pop\n      dup2\n      swap1\n      sstore\n      pop\n        /* \"NFTMarket.sol\":941:942  1 */\n      0x01\n        /* \"NFTMarket.sol\":927:937  totalOrder */\n      0x07\n      0x00\n        /* \"NFTMarket.sol\":927:942  totalOrder += 1 */\n      dup3\n      dup3\n      sload\n      tag_90\n      swap2\n      swap1\n      tag_55\n      jump\t// in\n    tag_90:\n      swap3\n      pop\n      pop\n      dup2\n      swap1\n      sstore\n      pop\n        /* \"NFTMarket.sol\":977:1018  Order(OrderIndex, tokenId, seller, price) */\n      mload(0x40)\n      dup1\n      0x80\n      add\n      0x40\n      mstore\n      dup1\n        /* \"NFTMarket.sol\":983:993  OrderIndex */\n      sload(0x08)\n        /* \"NFTMarket.sol\":977:1018  Order(OrderIndex, tokenId, seller, price) */\n      dup2\n      mstore\n      0x20\n      add\n        /* \"NFTMarket.sol\":995:1002  tokenId */\n      dup3\n        /* \"NFTMarket.sol\":977:1018  Order(OrderIndex, tokenId, seller, price) */\n      dup2\n      mstore\n      0x20\n      add\n        /* \"NFTMarket.sol\":1004:1010  seller */\n      dup5\n        /* \"NFTMarket.sol\":977:1018  Order(OrderIndex, tokenId, seller, price) */\n      0xffffffffffffffffffffffffffffffffffffffff\n      and\n      dup2\n      mstore\n      0x20\n      add\n        /* \"NFTMarket.sol\":1012:1017  price */\n      dup4\n        /* \"NFTMarket.sol\":977:1018  Order(OrderIndex, tokenId, seller, price) */\n      dup2\n      mstore\n      pop\n        /* \"NFTMarket.sol\":953:962  orderData */\n      0x03\n        /* \"NFTMarket.sol\":953:974  orderData[OrderIndex] */\n      0x00\n        /* \"NFTMarket.sol\":963:973  OrderIndex */\n      sload(0x08)\n        /* \"NFTMarket.sol\":953:974  orderData[OrderIndex] */\n      dup2\n      mstore\n      0x20\n      add\n      swap1\n      dup2\n      mstore\n      0x20\n      add\n      0x00\n      keccak256\n        /* \"NFTMarket.sol\":953:1018  orderData[OrderIndex] = Order(OrderIndex, tokenId, seller, price) */\n      0x00\n      dup3\n      add\n      mload\n      dup2\n      0x00\n      add\n      sstore\n      0x20\n      dup3\n      add\n      mload\n      dup2\n      0x01\n      add\n      sstore\n      0x40\n      dup3\n      add\n      mload\n      dup2\n      0x02\n      add\n      exp(0x0100, 0x00)\n      dup2\n      sload\n      dup2\n      0xffffffffffffffffffffffffffffffffffffffff\n      mul\n      not\n      and\n      swap1\n      dup4\n      0xffffffffffffffffffffffffffffffffffffffff\n      and\n      mul\n      or\n      swap1\n      sstore\n      pop\n      0x60\n      dup3\n      add\n      mload\n      dup2\n      0x03\n      add\n      sstore\n      swap1\n      pop\n      pop\n        /* \"NFTMarket.sol\":1055:1056  1 */\n      0x01\n        /* \"NFTMarket.sol\":1029:1043  userTotalOrder */\n      0x06\n        /* \"NFTMarket.sol\":1029:1051  userTotalOrder[seller] */\n      0x00\n        /* \"NFTMarket.sol\":1044:1050  seller */\n      dup6\n        /* \"NFTMarket.sol\":1029:1051  userTotalOrder[seller] */\n      0xffffffffffffffffffffffffffffffffffffffff\n      and\n      0xffffffffffffffffffffffffffffffffffffffff\n      and\n      dup2\n      mstore\n      0x20\n      add\n      swap1\n      dup2\n      mstore\n      0x20\n      add\n      0x00\n      keccak256\n      0x00\n        /* \"NFTMarket.sol\":1029:1056  userTotalOrder[seller] += 1 */\n      dup3\n      dup3\n      sload\n      tag_91\n      swap2\n      swap1\n      tag_55\n      jump\t// in\n    tag_91:\n      swap3\n      pop\n      pop\n      dup2\n      swap1\n      sstore\n      pop\n        /* \"NFTMarket.sol\":1111:1121  OrderIndex */\n      sload(0x08)\n        /* \"NFTMarket.sol\":1067:1076  userOrder */\n      0x05\n        /* \"NFTMarket.sol\":1067:1084  userOrder[seller] */\n      0x00\n        /* \"NFTMarket.sol\":1077:1083  seller */\n      dup6\n        /* \"NFTMarket.sol\":1067:1084  userOrder[seller] */\n      0xffffffffffffffffffffffffffffffffffffffff\n      and\n      0xffffffffffffffffffffffffffffffffffffffff\n      and\n      dup2\n      mstore\n      0x20\n      add\n      swap1\n      dup2\n      mstore\n      0x20\n      add\n      0x00\n      keccak256\n        /* \"NFTMarket.sol\":1067:1108  userOrder[seller][userTotalOrder[seller]] */\n      0x00\n        /* \"NFTMarket.sol\":1085:1099  userTotalOrder */\n      0x06\n        /* \"NFTMarket.sol\":1085:1107  userTotalOrder[seller] */\n      0x00\n        /* \"NFTMarket.sol\":1100:1106  seller */\n      dup8\n        /* \"NFTMarket.sol\":1085:1107  userTotalOrder[seller] */\n      0xffffffffffffffffffffffffffffffffffffffff\n      and\n      0xffffffffffffffffffffffffffffffffffffffff\n      and\n      dup2\n      mstore\n      0x20\n      add\n      swap1\n      dup2\n      mstore\n      0x20\n      add\n      0x00\n      keccak256\n      sload\n        /* \"NFTMarket.sol\":1067:1108  userOrder[seller][userTotalOrder[seller]] */\n      dup2\n      mstore\n      0x20\n      add\n      swap1\n      dup2\n      mstore\n      0x20\n      add\n      0x00\n      keccak256\n        /* \"NFTMarket.sol\":1067:1121  userOrder[seller][userTotalOrder[seller]] = OrderIndex */\n      dup2\n      swap1\n      sstore\n      pop\n        /* \"NFTMarket.sol\":1155:1196  Order(OrderIndex, tokenId, seller, price) */\n      mload(0x40)\n      dup1\n      0x80\n      add\n      0x40\n      mstore\n      dup1\n        /* \"NFTMarket.sol\":1161:1171  OrderIndex */\n      sload(0x08)\n        /* \"NFTMarket.sol\":1155:1196  Order(OrderIndex, tokenId, seller, price) */\n      dup2\n      mstore\n      0x20\n      add\n        /* \"NFTMarket.sol\":1173:1180  tokenId */\n      dup3\n        /* \"NFTMarket.sol\":1155:1196  Order(OrderIndex, tokenId, seller, price) */\n      dup2\n      mstore\n      0x20\n      add\n        /* \"NFTMarket.sol\":1182:1188  seller */\n      dup5\n        /* \"NFTMarket.sol\":1155:1196  Order(OrderIndex, tokenId, seller, price) */\n      0xffffffffffffffffffffffffffffffffffffffff\n      and\n      dup2\n      mstore\n      0x20\n      add\n        /* \"NFTMarket.sol\":1190:1195  price */\n      dup4\n        /* \"NFTMarket.sol\":1155:1196  Order(OrderIndex, tokenId, seller, price) */\n      dup2\n      mstore\n      pop\n        /* \"NFTMarket.sol\":1132:1140  allOrder */\n      0x04\n        /* \"NFTMarket.sol\":1132:1152  allOrder[totalOrder] */\n      0x00\n        /* \"NFTMarket.sol\":1141:1151  totalOrder */\n      sload(0x07)\n        /* \"NFTMarket.sol\":1132:1152  allOrder[totalOrder] */\n      dup2\n      mstore\n      0x20\n      add\n      swap1\n      dup2\n      mstore\n      0x20\n      add\n      0x00\n      keccak256\n        /* \"NFTMarket.sol\":1132:1196  allOrder[totalOrder] = Order(OrderIndex, tokenId, seller, price) */\n      0x00\n      dup3\n      add\n      mload\n      dup2\n      0x00\n      add\n      sstore\n      0x20\n      dup3\n      add\n      mload\n      dup2\n      0x01\n      add\n      sstore\n      0x40\n      dup3\n      add\n      mload\n      dup2\n      0x02\n      add\n      exp(0x0100, 0x00)\n      dup2\n      sload\n      dup2\n      0xffffffffffffffffffffffffffffffffffffffff\n      mul\n      not\n      and\n      swap1\n      dup4\n      0xffffffffffffffffffffffffffffffffffffffff\n      and\n      mul\n      or\n      swap1\n      sstore\n      pop\n      0x60\n      dup3\n      add\n      mload\n      dup2\n      0x03\n      add\n      sstore\n      swap1\n      pop\n      pop\n        /* \"NFTMarket.sol\":827:1259  function list(address seller, uint price, uint tokenId) public {... */\n      pop\n      pop\n      pop\n      jump\t// out\n        /* \"NFTMarket.sol\":1890:2546  function removeOrder(address seller, uint orderId) internal {... */\n    tag_70:\n        /* \"NFTMarket.sol\":1961:1976  address _seller */\n      0x00\n        /* \"NFTMarket.sol\":1979:1988  orderData */\n      0x03\n        /* \"NFTMarket.sol\":1979:1997  orderData[orderId] */\n      0x00\n        /* \"NFTMarket.sol\":1989:1996  orderId */\n      dup4\n        /* \"NFTMarket.sol\":1979:1997  orderData[orderId] */\n      dup2\n      mstore\n      0x20\n      add\n      swap1\n      dup2\n      mstore\n      0x20\n      add\n      0x00\n      keccak256\n        /* \"NFTMarket.sol\":1979:2006  orderData[orderId].sellAddr */\n      0x02\n      add\n      0x00\n      swap1\n      sload\n      swap1\n      0x0100\n      exp\n      swap1\n      div\n      0xffffffffffffffffffffffffffffffffffffffff\n      and\n        /* \"NFTMarket.sol\":1961:2006  address _seller = orderData[orderId].sellAddr */\n      swap1\n      pop\n        /* \"NFTMarket.sol\":2035:2042  _seller */\n      dup1\n        /* \"NFTMarket.sol\":2025:2042  seller == _seller */\n      0xffffffffffffffffffffffffffffffffffffffff\n      and\n        /* \"NFTMarket.sol\":2025:2031  seller */\n      dup4\n        /* \"NFTMarket.sol\":2025:2042  seller == _seller */\n      0xffffffffffffffffffffffffffffffffffffffff\n      and\n      eq\n        /* \"NFTMarket.sol\":2017:2093  require(seller == _seller, \"the 'seller' parameter is not the order seller\") */\n      tag_93\n      jumpi\n      mload(0x40)\n      0x08c379a000000000000000000000000000000000000000000000000000000000\n      dup2\n      mstore\n      0x04\n      add\n      tag_94\n      swap1\n      tag_95\n      jump\t// in\n    tag_94:\n      mload(0x40)\n      dup1\n      swap2\n      sub\n      swap1\n      revert\n    tag_93:\n        /* \"NFTMarket.sol\":2111:2124  uint256 index */\n      0x00\n        /* \"NFTMarket.sol\":2127:2128  1 */\n      0x01\n        /* \"NFTMarket.sol\":2111:2128  uint256 index = 1 */\n      swap1\n      pop\n        /* \"NFTMarket.sol\":2106:2420  for (uint256 index = 1; index < userTotalOrder[seller]; index++) {... */\n    tag_96:\n        /* \"NFTMarket.sol\":2138:2152  userTotalOrder */\n      0x06\n        /* \"NFTMarket.sol\":2138:2160  userTotalOrder[seller] */\n      0x00\n        /* \"NFTMarket.sol\":2153:2159  seller */\n      dup6\n        /* \"NFTMarket.sol\":2138:2160  userTotalOrder[seller] */\n      0xffffffffffffffffffffffffffffffffffffffff\n      and\n      0xffffffffffffffffffffffffffffffffffffffff\n      and\n      dup2\n      mstore\n      0x20\n      add\n      swap1\n      dup2\n      mstore\n      0x20\n      add\n      0x00\n      keccak256\n      sload\n        /* \"NFTMarket.sol\":2130:2135  index */\n      dup2\n        /* \"NFTMarket.sol\":2130:2160  index < userTotalOrder[seller] */\n      lt\n        /* \"NFTMarket.sol\":2106:2420  for (uint256 index = 1; index < userTotalOrder[seller]; index++) {... */\n      iszero\n      tag_97\n      jumpi\n        /* \"NFTMarket.sol\":2186:2199  uint _orderId */\n      0x00\n        /* \"NFTMarket.sol\":2202:2211  userOrder */\n      0x05\n        /* \"NFTMarket.sol\":2202:2219  userOrder[seller] */\n      0x00\n        /* \"NFTMarket.sol\":2212:2218  seller */\n      dup7\n        /* \"NFTMarket.sol\":2202:2219  userOrder[seller] */\n      0xffffffffffffffffffffffffffffffffffffffff\n      and\n      0xffffffffffffffffffffffffffffffffffffffff\n      and\n      dup2\n      mstore\n      0x20\n      add\n      swap1\n      dup2\n      mstore\n      0x20\n      add\n      0x00\n      keccak256\n        /* \"NFTMarket.sol\":2202:2226  userOrder[seller][index] */\n      0x00\n        /* \"NFTMarket.sol\":2220:2225  index */\n      dup4\n        /* \"NFTMarket.sol\":2202:2226  userOrder[seller][index] */\n      dup2\n      mstore\n      0x20\n      add\n      swap1\n      dup2\n      mstore\n      0x20\n      add\n      0x00\n      keccak256\n      sload\n        /* \"NFTMarket.sol\":2186:2226  uint _orderId = userOrder[seller][index] */\n      swap1\n      pop\n        /* \"NFTMarket.sol\":2257:2264  orderId */\n      dup4\n        /* \"NFTMarket.sol\":2245:2253  _orderId */\n      dup2\n        /* \"NFTMarket.sol\":2245:2264  _orderId == orderId */\n      sub\n        /* \"NFTMarket.sol\":2241:2409  if (_orderId == orderId) {... */\n      tag_99\n      jumpi\n        /* \"NFTMarket.sol\":2312:2321  userOrder */\n      0x05\n        /* \"NFTMarket.sol\":2312:2329  userOrder[seller] */\n      0x00\n        /* \"NFTMarket.sol\":2322:2328  seller */\n      dup7\n        /* \"NFTMarket.sol\":2312:2329  userOrder[seller] */\n      0xffffffffffffffffffffffffffffffffffffffff\n      and\n      0xffffffffffffffffffffffffffffffffffffffff\n      and\n      dup2\n      mstore\n      0x20\n      add\n      swap1\n      dup2\n      mstore\n      0x20\n      add\n      0x00\n      keccak256\n        /* \"NFTMarket.sol\":2312:2393  userOrder[seller][... */\n      0x00\n        /* \"NFTMarket.sol\":2352:2366  userTotalOrder */\n      0x06\n        /* \"NFTMarket.sol\":2352:2374  userTotalOrder[seller] */\n      0x00\n        /* \"NFTMarket.sol\":2367:2373  seller */\n      dup9\n        /* \"NFTMarket.sol\":2352:2374  userTotalOrder[seller] */\n      0xffffffffffffffffffffffffffffffffffffffff\n      and\n      0xffffffffffffffffffffffffffffffffffffffff\n      and\n      dup2\n      mstore\n      0x20\n      add\n      swap1\n      dup2\n      mstore\n      0x20\n      add\n      0x00\n      keccak256\n      sload\n        /* \"NFTMarket.sol\":2312:2393  userOrder[seller][... */\n      dup2\n      mstore\n      0x20\n      add\n      swap1\n      dup2\n      mstore\n      0x20\n      add\n      0x00\n      keccak256\n      sload\n        /* \"NFTMarket.sol\":2285:2294  userOrder */\n      0x05\n        /* \"NFTMarket.sol\":2285:2302  userOrder[seller] */\n      0x00\n        /* \"NFTMarket.sol\":2295:2301  seller */\n      dup8\n        /* \"NFTMarket.sol\":2285:2302  userOrder[seller] */\n      0xffffffffffffffffffffffffffffffffffffffff\n      and\n      0xffffffffffffffffffffffffffffffffffffffff\n      and\n      dup2\n      mstore\n      0x20\n      add\n      swap1\n      dup2\n      mstore\n      0x20\n      add\n      0x00\n      keccak256\n        /* \"NFTMarket.sol\":2285:2309  userOrder[seller][index] */\n      0x00\n        /* \"NFTMarket.sol\":2303:2308  index */\n      dup5\n        /* \"NFTMarket.sol\":2285:2309  userOrder[seller][index] */\n      dup2\n      mstore\n      0x20\n      add\n      swap1\n      dup2\n      mstore\n      0x20\n      add\n      0x00\n      keccak256\n        /* \"NFTMarket.sol\":2285:2393  userOrder[seller][index] = userOrder[seller][... */\n      dup2\n      swap1\n      sstore\n      pop\n        /* \"NFTMarket.sol\":2241:2409  if (_orderId == orderId) {... */\n    tag_99:\n        /* \"NFTMarket.sol\":2171:2420  {... */\n      pop\n        /* \"NFTMarket.sol\":2162:2169  index++ */\n      dup1\n      dup1\n      0x01\n      add\n      swap2\n      pop\n      pop\n        /* \"NFTMarket.sol\":2106:2420  for (uint256 index = 1; index < userTotalOrder[seller]; index++) {... */\n      jump(tag_96)\n    tag_97:\n      pop\n        /* \"NFTMarket.sol\":2458:2459  1 */\n      0x01\n        /* \"NFTMarket.sol\":2432:2446  userTotalOrder */\n      0x06\n        /* \"NFTMarket.sol\":2432:2454  userTotalOrder[seller] */\n      0x00\n        /* \"NFTMarket.sol\":2447:2453  seller */\n      dup6\n        /* \"NFTMarket.sol\":2432:2454  userTotalOrder[seller] */\n      0xffffffffffffffffffffffffffffffffffffffff\n      and\n      0xffffffffffffffffffffffffffffffffffffffff\n      and\n      dup2\n      mstore\n      0x20\n      add\n      swap1\n      dup2\n      mstore\n      0x20\n      add\n      0x00\n      keccak256\n      0x00\n        /* \"NFTMarket.sol\":2432:2459  userTotalOrder[seller] -= 1 */\n      dup3\n      dup3\n      sload\n      tag_100\n      swap2\n      swap1\n      tag_101\n      jump\t// in\n    tag_100:\n      swap3\n      pop\n      pop\n      dup2\n      swap1\n      sstore\n      pop\n        /* \"NFTMarket.sol\":2492:2500  allOrder */\n      0x04\n        /* \"NFTMarket.sol\":2492:2512  allOrder[totalOrder] */\n      0x00\n        /* \"NFTMarket.sol\":2501:2511  totalOrder */\n      sload(0x07)\n        /* \"NFTMarket.sol\":2492:2512  allOrder[totalOrder] */\n      dup2\n      mstore\n      0x20\n      add\n      swap1\n      dup2\n      mstore\n      0x20\n      add\n      0x00\n      keccak256\n        /* \"NFTMarket.sol\":2472:2480  allOrder */\n      0x04\n        /* \"NFTMarket.sol\":2472:2489  allOrder[orderId] */\n      0x00\n        /* \"NFTMarket.sol\":2481:2488  orderId */\n      dup5\n        /* \"NFTMarket.sol\":2472:2489  allOrder[orderId] */\n      dup2\n      mstore\n      0x20\n      add\n      swap1\n      dup2\n      mstore\n      0x20\n      add\n      0x00\n      keccak256\n        /* \"NFTMarket.sol\":2472:2512  allOrder[orderId] = allOrder[totalOrder] */\n      0x00\n      dup3\n      add\n      sload\n      dup2\n      0x00\n      add\n      sstore\n      0x01\n      dup3\n      add\n      sload\n      dup2\n      0x01\n      add\n      sstore\n      0x02\n      dup3\n      add\n      0x00\n      swap1\n      sload\n      swap1\n      0x0100\n      exp\n      swap1\n      div\n      0xffffffffffffffffffffffffffffffffffffffff\n      and\n      dup2\n      0x02\n      add\n      exp(0x0100, 0x00)\n      dup2\n      sload\n      dup2\n      0xffffffffffffffffffffffffffffffffffffffff\n      mul\n      not\n      and\n      swap1\n      dup4\n      0xffffffffffffffffffffffffffffffffffffffff\n      and\n      mul\n      or\n      swap1\n      sstore\n      pop\n      0x03\n      dup3\n      add\n      sload\n      dup2\n      0x03\n      add\n      sstore\n      swap1\n      pop\n      pop\n        /* \"NFTMarket.sol\":2537:2538  1 */\n      0x01\n        /* \"NFTMarket.sol\":2523:2533  totalOrder */\n      0x07\n      0x00\n        /* \"NFTMarket.sol\":2523:2538  totalOrder -= 1 */\n      dup3\n      dup3\n      sload\n      tag_102\n      swap2\n      swap1\n      tag_101\n      jump\t// in\n    tag_102:\n      swap3\n      pop\n      pop\n      dup2\n      swap1\n      sstore\n      pop\n        /* \"NFTMarket.sol\":1950:2546  {... */\n      pop\n        /* \"NFTMarket.sol\":1890:2546  function removeOrder(address seller, uint orderId) internal {... */\n      pop\n      pop\n      jump\t// out\n        /* \"#utility.yul\":88:205   */\n    tag_104:\n        /* \"#utility.yul\":197:198   */\n      0x00\n        /* \"#utility.yul\":194:195   */\n      dup1\n        /* \"#utility.yul\":187:199   */\n      revert\n        /* \"#utility.yul\":334:460   */\n    tag_106:\n        /* \"#utility.yul\":371:378   */\n      0x00\n        /* \"#utility.yul\":411:453   */\n      0xffffffffffffffffffffffffffffffffffffffff\n        /* \"#utility.yul\":404:409   */\n      dup3\n        /* \"#utility.yul\":400:454   */\n      and\n        /* \"#utility.yul\":389:454   */\n      swap1\n      pop\n        /* \"#utility.yul\":334:460   */\n      swap2\n      swap1\n      pop\n      jump\t// out\n        /* \"#utility.yul\":466:562   */\n    tag_107:\n        /* \"#utility.yul\":503:510   */\n      0x00\n        /* \"#utility.yul\":532:556   */\n      tag_136\n        /* \"#utility.yul\":550:555   */\n      dup3\n        /* \"#utility.yul\":532:556   */\n      tag_106\n      jump\t// in\n    tag_136:\n        /* \"#utility.yul\":521:556   */\n      swap1\n      pop\n        /* \"#utility.yul\":466:562   */\n      swap2\n      swap1\n      pop\n      jump\t// out\n        /* \"#utility.yul\":568:690   */\n    tag_108:\n        /* \"#utility.yul\":641:665   */\n      tag_138\n        /* \"#utility.yul\":659:664   */\n      dup2\n        /* \"#utility.yul\":641:665   */\n      tag_107\n      jump\t// in\n    tag_138:\n        /* \"#utility.yul\":634:639   */\n      dup2\n        /* \"#utility.yul\":631:666   */\n      eq\n        /* \"#utility.yul\":621:684   */\n      tag_139\n      jumpi\n        /* \"#utility.yul\":680:681   */\n      0x00\n        /* \"#utility.yul\":677:678   */\n      dup1\n        /* \"#utility.yul\":670:682   */\n      revert\n        /* \"#utility.yul\":621:684   */\n    tag_139:\n        /* \"#utility.yul\":568:690   */\n      pop\n      jump\t// out\n        /* \"#utility.yul\":696:835   */\n    tag_109:\n        /* \"#utility.yul\":742:747   */\n      0x00\n        /* \"#utility.yul\":780:786   */\n      dup2\n        /* \"#utility.yul\":767:787   */\n      calldataload\n        /* \"#utility.yul\":758:787   */\n      swap1\n      pop\n        /* \"#utility.yul\":796:829   */\n      tag_141\n        /* \"#utility.yul\":823:828   */\n      dup2\n        /* \"#utility.yul\":796:829   */\n      tag_108\n      jump\t// in\n    tag_141:\n        /* \"#utility.yul\":696:835   */\n      swap3\n      swap2\n      pop\n      pop\n      jump\t// out\n        /* \"#utility.yul\":841:1170   */\n    tag_13:\n        /* \"#utility.yul\":900:906   */\n      0x00\n        /* \"#utility.yul\":949:951   */\n      0x20\n        /* \"#utility.yul\":937:946   */\n      dup3\n        /* \"#utility.yul\":928:935   */\n      dup5\n        /* \"#utility.yul\":924:947   */\n      sub\n        /* \"#utility.yul\":920:952   */\n      slt\n        /* \"#utility.yul\":917:1036   */\n      iszero\n      tag_143\n      jumpi\n        /* \"#utility.yul\":955:1034   */\n      tag_144\n      tag_104\n      jump\t// in\n    tag_144:\n        /* \"#utility.yul\":917:1036   */\n    tag_143:\n        /* \"#utility.yul\":1075:1076   */\n      0x00\n        /* \"#utility.yul\":1100:1153   */\n      tag_145\n        /* \"#utility.yul\":1145:1152   */\n      dup5\n        /* \"#utility.yul\":1136:1142   */\n      dup3\n        /* \"#utility.yul\":1125:1134   */\n      dup6\n        /* \"#utility.yul\":1121:1143   */\n      add\n        /* \"#utility.yul\":1100:1153   */\n      tag_109\n      jump\t// in\n    tag_145:\n        /* \"#utility.yul\":1090:1153   */\n      swap2\n      pop\n        /* \"#utility.yul\":1046:1163   */\n      pop\n        /* \"#utility.yul\":841:1170   */\n      swap3\n      swap2\n      pop\n      pop\n      jump\t// out\n        /* \"#utility.yul\":1176:1290   */\n    tag_110:\n        /* \"#utility.yul\":1243:1249   */\n      0x00\n        /* \"#utility.yul\":1277:1282   */\n      dup2\n        /* \"#utility.yul\":1271:1283   */\n      mload\n        /* \"#utility.yul\":1261:1283   */\n      swap1\n      pop\n        /* \"#utility.yul\":1176:1290   */\n      swap2\n      swap1\n      pop\n      jump\t// out\n        /* \"#utility.yul\":1296:1480   */\n    tag_111:\n        /* \"#utility.yul\":1395:1406   */\n      0x00\n        /* \"#utility.yul\":1429:1435   */\n      dup3\n        /* \"#utility.yul\":1424:1427   */\n      dup3\n        /* \"#utility.yul\":1417:1436   */\n      mstore\n        /* \"#utility.yul\":1469:1473   */\n      0x20\n        /* \"#utility.yul\":1464:1467   */\n      dup3\n        /* \"#utility.yul\":1460:1474   */\n      add\n        /* \"#utility.yul\":1445:1474   */\n      swap1\n      pop\n        /* \"#utility.yul\":1296:1480   */\n      swap3\n      swap2\n      pop\n      pop\n      jump\t// out\n        /* \"#utility.yul\":1486:1618   */\n    tag_112:\n        /* \"#utility.yul\":1553:1557   */\n      0x00\n        /* \"#utility.yul\":1576:1579   */\n      dup2\n        /* \"#utility.yul\":1568:1579   */\n      swap1\n      pop\n        /* \"#utility.yul\":1606:1610   */\n      0x20\n        /* \"#utility.yul\":1601:1604   */\n      dup3\n        /* \"#utility.yul\":1597:1611   */\n      add\n        /* \"#utility.yul\":1589:1611   */\n      swap1\n      pop\n        /* \"#utility.yul\":1486:1618   */\n      swap2\n      swap1\n      pop\n      jump\t// out\n        /* \"#utility.yul\":1624:1701   */\n    tag_113:\n        /* \"#utility.yul\":1661:1668   */\n      0x00\n        /* \"#utility.yul\":1690:1695   */\n      dup2\n        /* \"#utility.yul\":1679:1695   */\n      swap1\n      pop\n        /* \"#utility.yul\":1624:1701   */\n      swap2\n      swap1\n      pop\n      jump\t// out\n        /* \"#utility.yul\":1707:1815   */\n    tag_114:\n        /* \"#utility.yul\":1784:1808   */\n      tag_151\n        /* \"#utility.yul\":1802:1807   */\n      dup2\n        /* \"#utility.yul\":1784:1808   */\n      tag_113\n      jump\t// in\n    tag_151:\n        /* \"#utility.yul\":1779:1782   */\n      dup3\n        /* \"#utility.yul\":1772:1809   */\n      mstore\n        /* \"#utility.yul\":1707:1815   */\n      pop\n      pop\n      jump\t// out\n        /* \"#utility.yul\":1821:2000   */\n    tag_115:\n        /* \"#utility.yul\":1890:1900   */\n      0x00\n        /* \"#utility.yul\":1911:1957   */\n      tag_153\n        /* \"#utility.yul\":1953:1956   */\n      dup4\n        /* \"#utility.yul\":1945:1951   */\n      dup4\n        /* \"#utility.yul\":1911:1957   */\n      tag_114\n      jump\t// in\n    tag_153:\n        /* \"#utility.yul\":1989:1993   */\n      0x20\n        /* \"#utility.yul\":1984:1987   */\n      dup4\n        /* \"#utility.yul\":1980:1994   */\n      add\n        /* \"#utility.yul\":1966:1994   */\n      swap1\n      pop\n        /* \"#utility.yul\":1821:2000   */\n      swap3\n      swap2\n      pop\n      pop\n      jump\t// out\n        /* \"#utility.yul\":2006:2119   */\n    tag_116:\n        /* \"#utility.yul\":2076:2080   */\n      0x00\n        /* \"#utility.yul\":2108:2112   */\n      0x20\n        /* \"#utility.yul\":2103:2106   */\n      dup3\n        /* \"#utility.yul\":2099:2113   */\n      add\n        /* \"#utility.yul\":2091:2113   */\n      swap1\n      pop\n        /* \"#utility.yul\":2006:2119   */\n      swap2\n      swap1\n      pop\n      jump\t// out\n        /* \"#utility.yul\":2155:2887   */\n    tag_117:\n        /* \"#utility.yul\":2274:2277   */\n      0x00\n        /* \"#utility.yul\":2303:2357   */\n      tag_156\n        /* \"#utility.yul\":2351:2356   */\n      dup3\n        /* \"#utility.yul\":2303:2357   */\n      tag_110\n      jump\t// in\n    tag_156:\n        /* \"#utility.yul\":2373:2459   */\n      tag_157\n        /* \"#utility.yul\":2452:2458   */\n      dup2\n        /* \"#utility.yul\":2447:2450   */\n      dup6\n        /* \"#utility.yul\":2373:2459   */\n      tag_111\n      jump\t// in\n    tag_157:\n        /* \"#utility.yul\":2366:2459   */\n      swap4\n      pop\n        /* \"#utility.yul\":2483:2539   */\n      tag_158\n        /* \"#utility.yul\":2533:2538   */\n      dup4\n        /* \"#utility.yul\":2483:2539   */\n      tag_112\n      jump\t// in\n    tag_158:\n        /* \"#utility.yul\":2562:2569   */\n      dup1\n        /* \"#utility.yul\":2593:2594   */\n      0x00\n        /* \"#utility.yul\":2578:2862   */\n    tag_159:\n        /* \"#utility.yul\":2603:2609   */\n      dup4\n        /* \"#utility.yul\":2600:2601   */\n      dup2\n        /* \"#utility.yul\":2597:2610   */\n      lt\n        /* \"#utility.yul\":2578:2862   */\n      iszero\n      tag_161\n      jumpi\n        /* \"#utility.yul\":2679:2685   */\n      dup2\n        /* \"#utility.yul\":2673:2686   */\n      mload\n        /* \"#utility.yul\":2706:2769   */\n      tag_162\n        /* \"#utility.yul\":2765:2768   */\n      dup9\n        /* \"#utility.yul\":2750:2763   */\n      dup3\n        /* \"#utility.yul\":2706:2769   */\n      tag_115\n      jump\t// in\n    tag_162:\n        /* \"#utility.yul\":2699:2769   */\n      swap8\n      pop\n        /* \"#utility.yul\":2792:2852   */\n      tag_163\n        /* \"#utility.yul\":2845:2851   */\n      dup4\n        /* \"#utility.yul\":2792:2852   */\n      tag_116\n      jump\t// in\n    tag_163:\n        /* \"#utility.yul\":2782:2852   */\n      swap3\n      pop\n        /* \"#utility.yul\":2638:2862   */\n      pop\n        /* \"#utility.yul\":2625:2626   */\n      0x01\n        /* \"#utility.yul\":2622:2623   */\n      dup2\n        /* \"#utility.yul\":2618:2627   */\n      add\n        /* \"#utility.yul\":2613:2627   */\n      swap1\n      pop\n        /* \"#utility.yul\":2578:2862   */\n      jump(tag_159)\n    tag_161:\n        /* \"#utility.yul\":2582:2596   */\n      pop\n        /* \"#utility.yul\":2878:2881   */\n      dup6\n        /* \"#utility.yul\":2871:2881   */\n      swap4\n      pop\n        /* \"#utility.yul\":2279:2887   */\n      pop\n      pop\n      pop\n        /* \"#utility.yul\":2155:2887   */\n      swap3\n      swap2\n      pop\n      pop\n      jump\t// out\n        /* \"#utility.yul\":2893:3266   */\n    tag_16:\n        /* \"#utility.yul\":3036:3040   */\n      0x00\n        /* \"#utility.yul\":3074:3076   */\n      0x20\n        /* \"#utility.yul\":3063:3072   */\n      dup3\n        /* \"#utility.yul\":3059:3077   */\n      add\n        /* \"#utility.yul\":3051:3077   */\n      swap1\n      pop\n        /* \"#utility.yul\":3123:3132   */\n      dup2\n        /* \"#utility.yul\":3117:3121   */\n      dup2\n        /* \"#utility.yul\":3113:3133   */\n      sub\n        /* \"#utility.yul\":3109:3110   */\n      0x00\n        /* \"#utility.yul\":3098:3107   */\n      dup4\n        /* \"#utility.yul\":3094:3111   */\n      add\n        /* \"#utility.yul\":3087:3134   */\n      mstore\n        /* \"#utility.yul\":3151:3259   */\n      tag_165\n        /* \"#utility.yul\":3254:3258   */\n      dup2\n        /* \"#utility.yul\":3245:3251   */\n      dup5\n        /* \"#utility.yul\":3151:3259   */\n      tag_117\n      jump\t// in\n    tag_165:\n        /* \"#utility.yul\":3143:3259   */\n      swap1\n      pop\n        /* \"#utility.yul\":2893:3266   */\n      swap3\n      swap2\n      pop\n      pop\n      jump\t// out\n        /* \"#utility.yul\":3272:3390   */\n    tag_118:\n        /* \"#utility.yul\":3359:3383   */\n      tag_167\n        /* \"#utility.yul\":3377:3382   */\n      dup2\n        /* \"#utility.yul\":3359:3383   */\n      tag_113\n      jump\t// in\n    tag_167:\n        /* \"#utility.yul\":3354:3357   */\n      dup3\n        /* \"#utility.yul\":3347:3384   */\n      mstore\n        /* \"#utility.yul\":3272:3390   */\n      pop\n      pop\n      jump\t// out\n        /* \"#utility.yul\":3396:3618   */\n    tag_21:\n        /* \"#utility.yul\":3489:3493   */\n      0x00\n        /* \"#utility.yul\":3527:3529   */\n      0x20\n        /* \"#utility.yul\":3516:3525   */\n      dup3\n        /* \"#utility.yul\":3512:3530   */\n      add\n        /* \"#utility.yul\":3504:3530   */\n      swap1\n      pop\n        /* \"#utility.yul\":3540:3611   */\n      tag_169\n        /* \"#utility.yul\":3608:3609   */\n      0x00\n        /* \"#utility.yul\":3597:3606   */\n      dup4\n        /* \"#utility.yul\":3593:3610   */\n      add\n        /* \"#utility.yul\":3584:3590   */\n      dup5\n        /* \"#utility.yul\":3540:3611   */\n      tag_118\n      jump\t// in\n    tag_169:\n        /* \"#utility.yul\":3396:3618   */\n      swap3\n      swap2\n      pop\n      pop\n      jump\t// out\n        /* \"#utility.yul\":3624:3746   */\n    tag_119:\n        /* \"#utility.yul\":3697:3721   */\n      tag_171\n        /* \"#utility.yul\":3715:3720   */\n      dup2\n        /* \"#utility.yul\":3697:3721   */\n      tag_113\n      jump\t// in\n    tag_171:\n        /* \"#utility.yul\":3690:3695   */\n      dup2\n        /* \"#utility.yul\":3687:3722   */\n      eq\n        /* \"#utility.yul\":3677:3740   */\n      tag_172\n      jumpi\n        /* \"#utility.yul\":3736:3737   */\n      0x00\n        /* \"#utility.yul\":3733:3734   */\n      dup1\n        /* \"#utility.yul\":3726:3738   */\n      revert\n        /* \"#utility.yul\":3677:3740   */\n    tag_172:\n        /* \"#utility.yul\":3624:3746   */\n      pop\n      jump\t// out\n        /* \"#utility.yul\":3752:3891   */\n    tag_120:\n        /* \"#utility.yul\":3798:3803   */\n      0x00\n        /* \"#utility.yul\":3836:3842   */\n      dup2\n        /* \"#utility.yul\":3823:3843   */\n      calldataload\n        /* \"#utility.yul\":3814:3843   */\n      swap1\n      pop\n        /* \"#utility.yul\":3852:3885   */\n      tag_174\n        /* \"#utility.yul\":3879:3884   */\n      dup2\n        /* \"#utility.yul\":3852:3885   */\n      tag_119\n      jump\t// in\n    tag_174:\n        /* \"#utility.yul\":3752:3891   */\n      swap3\n      swap2\n      pop\n      pop\n      jump\t// out\n        /* \"#utility.yul\":3897:4371   */\n    tag_25:\n        /* \"#utility.yul\":3965:3971   */\n      0x00\n        /* \"#utility.yul\":3973:3979   */\n      dup1\n        /* \"#utility.yul\":4022:4024   */\n      0x40\n        /* \"#utility.yul\":4010:4019   */\n      dup4\n        /* \"#utility.yul\":4001:4008   */\n      dup6\n        /* \"#utility.yul\":3997:4020   */\n      sub\n        /* \"#utility.yul\":3993:4025   */\n      slt\n        /* \"#utility.yul\":3990:4109   */\n      iszero\n      tag_176\n      jumpi\n        /* \"#utility.yul\":4028:4107   */\n      tag_177\n      tag_104\n      jump\t// in\n    tag_177:\n        /* \"#utility.yul\":3990:4109   */\n    tag_176:\n        /* \"#utility.yul\":4148:4149   */\n      0x00\n        /* \"#utility.yul\":4173:4226   */\n      tag_178\n        /* \"#utility.yul\":4218:4225   */\n      dup6\n        /* \"#utility.yul\":4209:4215   */\n      dup3\n        /* \"#utility.yul\":4198:4207   */\n      dup7\n        /* \"#utility.yul\":4194:4216   */\n      add\n        /* \"#utility.yul\":4173:4226   */\n      tag_109\n      jump\t// in\n    tag_178:\n        /* \"#utility.yul\":4163:4226   */\n      swap3\n      pop\n        /* \"#utility.yul\":4119:4236   */\n      pop\n        /* \"#utility.yul\":4275:4277   */\n      0x20\n        /* \"#utility.yul\":4301:4354   */\n      tag_179\n        /* \"#utility.yul\":4346:4353   */\n      dup6\n        /* \"#utility.yul\":4337:4343   */\n      dup3\n        /* \"#utility.yul\":4326:4335   */\n      dup7\n        /* \"#utility.yul\":4322:4344   */\n      add\n        /* \"#utility.yul\":4301:4354   */\n      tag_120\n      jump\t// in\n    tag_179:\n        /* \"#utility.yul\":4291:4354   */\n      swap2\n      pop\n        /* \"#utility.yul\":4246:4364   */\n      pop\n        /* \"#utility.yul\":3897:4371   */\n      swap3\n      pop\n      swap3\n      swap1\n      pop\n      jump\t// out\n        /* \"#utility.yul\":4377:4706   */\n    tag_37:\n        /* \"#utility.yul\":4436:4442   */\n      0x00\n        /* \"#utility.yul\":4485:4487   */\n      0x20\n        /* \"#utility.yul\":4473:4482   */\n      dup3\n        /* \"#utility.yul\":4464:4471   */\n      dup5\n        /* \"#utility.yul\":4460:4483   */\n      sub\n        /* \"#utility.yul\":4456:4488   */\n      slt\n        /* \"#utility.yul\":4453:4572   */\n      iszero\n      tag_181\n      jumpi\n        /* \"#utility.yul\":4491:4570   */\n      tag_182\n      tag_104\n      jump\t// in\n    tag_182:\n        /* \"#utility.yul\":4453:4572   */\n    tag_181:\n        /* \"#utility.yul\":4611:4612   */\n      0x00\n        /* \"#utility.yul\":4636:4689   */\n      tag_183\n        /* \"#utility.yul\":4681:4688   */\n      dup5\n        /* \"#utility.yul\":4672:4678   */\n      dup3\n        /* \"#utility.yul\":4661:4670   */\n      dup6\n        /* \"#utility.yul\":4657:4679   */\n      add\n        /* \"#utility.yul\":4636:4689   */\n      tag_120\n      jump\t// in\n    tag_183:\n        /* \"#utility.yul\":4626:4689   */\n      swap2\n      pop\n        /* \"#utility.yul\":4582:4699   */\n      pop\n        /* \"#utility.yul\":4377:4706   */\n      swap3\n      swap2\n      pop\n      pop\n      jump\t// out\n        /* \"#utility.yul\":4712:4830   */\n    tag_121:\n        /* \"#utility.yul\":4799:4823   */\n      tag_185\n        /* \"#utility.yul\":4817:4822   */\n      dup2\n        /* \"#utility.yul\":4799:4823   */\n      tag_107\n      jump\t// in\n    tag_185:\n        /* \"#utility.yul\":4794:4797   */\n      dup3\n        /* \"#utility.yul\":4787:4824   */\n      mstore\n        /* \"#utility.yul\":4712:4830   */\n      pop\n      pop\n      jump\t// out\n        /* \"#utility.yul\":4836:5278   */\n    tag_40:\n        /* \"#utility.yul\":4985:4989   */\n      0x00\n        /* \"#utility.yul\":5023:5025   */\n      0x60\n        /* \"#utility.yul\":5012:5021   */\n      dup3\n        /* \"#utility.yul\":5008:5026   */\n      add\n        /* \"#utility.yul\":5000:5026   */\n      swap1\n      pop\n        /* \"#utility.yul\":5036:5107   */\n      tag_187\n        /* \"#utility.yul\":5104:5105   */\n      0x00\n        /* \"#utility.yul\":5093:5102   */\n      dup4\n        /* \"#utility.yul\":5089:5106   */\n      add\n        /* \"#utility.yul\":5080:5086   */\n      dup7\n        /* \"#utility.yul\":5036:5107   */\n      tag_118\n      jump\t// in\n    tag_187:\n        /* \"#utility.yul\":5117:5189   */\n      tag_188\n        /* \"#utility.yul\":5185:5187   */\n      0x20\n        /* \"#utility.yul\":5174:5183   */\n      dup4\n        /* \"#utility.yul\":5170:5188   */\n      add\n        /* \"#utility.yul\":5161:5167   */\n      dup6\n        /* \"#utility.yul\":5117:5189   */\n      tag_121\n      jump\t// in\n    tag_188:\n        /* \"#utility.yul\":5199:5271   */\n      tag_189\n        /* \"#utility.yul\":5267:5269   */\n      0x40\n        /* \"#utility.yul\":5256:5265   */\n      dup4\n        /* \"#utility.yul\":5252:5270   */\n      add\n        /* \"#utility.yul\":5243:5249   */\n      dup5\n        /* \"#utility.yul\":5199:5271   */\n      tag_118\n      jump\t// in\n    tag_189:\n        /* \"#utility.yul\":4836:5278   */\n      swap5\n      swap4\n      pop\n      pop\n      pop\n      pop\n      jump\t// out\n        /* \"#utility.yul\":5284:5903   */\n    tag_44:\n        /* \"#utility.yul\":5361:5367   */\n      0x00\n        /* \"#utility.yul\":5369:5375   */\n      dup1\n        /* \"#utility.yul\":5377:5383   */\n      0x00\n        /* \"#utility.yul\":5426:5428   */\n      0x60\n        /* \"#utility.yul\":5414:5423   */\n      dup5\n        /* \"#utility.yul\":5405:5412   */\n      dup7\n        /* \"#utility.yul\":5401:5424   */\n      sub\n        /* \"#utility.yul\":5397:5429   */\n      slt\n        /* \"#utility.yul\":5394:5513   */\n      iszero\n      tag_191\n      jumpi\n        /* \"#utility.yul\":5432:5511   */\n      tag_192\n      tag_104\n      jump\t// in\n    tag_192:\n        /* \"#utility.yul\":5394:5513   */\n    tag_191:\n        /* \"#utility.yul\":5552:5553   */\n      0x00\n        /* \"#utility.yul\":5577:5630   */\n      tag_193\n        /* \"#utility.yul\":5622:5629   */\n      dup7\n        /* \"#utility.yul\":5613:5619   */\n      dup3\n        /* \"#utility.yul\":5602:5611   */\n      dup8\n        /* \"#utility.yul\":5598:5620   */\n      add\n        /* \"#utility.yul\":5577:5630   */\n      tag_109\n      jump\t// in\n    tag_193:\n        /* \"#utility.yul\":5567:5630   */\n      swap4\n      pop\n        /* \"#utility.yul\":5523:5640   */\n      pop\n        /* \"#utility.yul\":5679:5681   */\n      0x20\n        /* \"#utility.yul\":5705:5758   */\n      tag_194\n        /* \"#utility.yul\":5750:5757   */\n      dup7\n        /* \"#utility.yul\":5741:5747   */\n      dup3\n        /* \"#utility.yul\":5730:5739   */\n      dup8\n        /* \"#utility.yul\":5726:5748   */\n      add\n        /* \"#utility.yul\":5705:5758   */\n      tag_120\n      jump\t// in\n    tag_194:\n        /* \"#utility.yul\":5695:5758   */\n      swap3\n      pop\n        /* \"#utility.yul\":5650:5768   */\n      pop\n        /* \"#utility.yul\":5807:5809   */\n      0x40\n        /* \"#utility.yul\":5833:5886   */\n      tag_195\n        /* \"#utility.yul\":5878:5885   */\n      dup7\n        /* \"#utility.yul\":5869:5875   */\n      dup3\n        /* \"#utility.yul\":5858:5867   */\n      dup8\n        /* \"#utility.yul\":5854:5876   */\n      add\n        /* \"#utility.yul\":5833:5886   */\n      tag_120\n      jump\t// in\n    tag_195:\n        /* \"#utility.yul\":5823:5886   */\n      swap2\n      pop\n        /* \"#utility.yul\":5778:5896   */\n      pop\n        /* \"#utility.yul\":5284:5903   */\n      swap3\n      pop\n      swap3\n      pop\n      swap3\n      jump\t// out\n        /* \"#utility.yul\":5909:6089   */\n    tag_49:\n        /* \"#utility.yul\":5957:6034   */\n      0x4e487b7100000000000000000000000000000000000000000000000000000000\n        /* \"#utility.yul\":5954:5955   */\n      0x00\n        /* \"#utility.yul\":5947:6035   */\n      mstore\n        /* \"#utility.yul\":6054:6058   */\n      0x41\n        /* \"#utility.yul\":6051:6052   */\n      0x04\n        /* \"#utility.yul\":6044:6059   */\n      mstore\n        /* \"#utility.yul\":6078:6082   */\n      0x24\n        /* \"#utility.yul\":6075:6076   */\n      0x00\n        /* \"#utility.yul\":6068:6083   */\n      revert\n        /* \"#utility.yul\":6095:6275   */\n    tag_122:\n        /* \"#utility.yul\":6143:6220   */\n      0x4e487b7100000000000000000000000000000000000000000000000000000000\n        /* \"#utility.yul\":6140:6141   */\n      0x00\n        /* \"#utility.yul\":6133:6221   */\n      mstore\n        /* \"#utility.yul\":6240:6244   */\n      0x11\n        /* \"#utility.yul\":6237:6238   */\n      0x04\n        /* \"#utility.yul\":6230:6245   */\n      mstore\n        /* \"#utility.yul\":6264:6268   */\n      0x24\n        /* \"#utility.yul\":6261:6262   */\n      0x00\n        /* \"#utility.yul\":6254:6269   */\n      revert\n        /* \"#utility.yul\":6281:6472   */\n    tag_55:\n        /* \"#utility.yul\":6321:6324   */\n      0x00\n        /* \"#utility.yul\":6340:6360   */\n      tag_199\n        /* \"#utility.yul\":6358:6359   */\n      dup3\n        /* \"#utility.yul\":6340:6360   */\n      tag_113\n      jump\t// in\n    tag_199:\n        /* \"#utility.yul\":6335:6360   */\n      swap2\n      pop\n        /* \"#utility.yul\":6374:6394   */\n      tag_200\n        /* \"#utility.yul\":6392:6393   */\n      dup4\n        /* \"#utility.yul\":6374:6394   */\n      tag_113\n      jump\t// in\n    tag_200:\n        /* \"#utility.yul\":6369:6394   */\n      swap3\n      pop\n        /* \"#utility.yul\":6417:6418   */\n      dup3\n        /* \"#utility.yul\":6414:6415   */\n      dup3\n        /* \"#utility.yul\":6410:6419   */\n      add\n        /* \"#utility.yul\":6403:6419   */\n      swap1\n      pop\n        /* \"#utility.yul\":6438:6441   */\n      dup1\n        /* \"#utility.yul\":6435:6436   */\n      dup3\n        /* \"#utility.yul\":6432:6442   */\n      gt\n        /* \"#utility.yul\":6429:6465   */\n      iszero\n      tag_201\n      jumpi\n        /* \"#utility.yul\":6445:6463   */\n      tag_202\n      tag_122\n      jump\t// in\n    tag_202:\n        /* \"#utility.yul\":6429:6465   */\n    tag_201:\n        /* \"#utility.yul\":6281:6472   */\n      swap3\n      swap2\n      pop\n      pop\n      jump\t// out\n        /* \"#utility.yul\":6478:6658   */\n    tag_58:\n        /* \"#utility.yul\":6526:6603   */\n      0x4e487b7100000000000000000000000000000000000000000000000000000000\n        /* \"#utility.yul\":6523:6524   */\n      0x00\n        /* \"#utility.yul\":6516:6604   */\n      mstore\n        /* \"#utility.yul\":6623:6627   */\n      0x32\n        /* \"#utility.yul\":6620:6621   */\n      0x04\n        /* \"#utility.yul\":6613:6628   */\n      mstore\n        /* \"#utility.yul\":6647:6651   */\n      0x24\n        /* \"#utility.yul\":6644:6645   */\n      0x00\n        /* \"#utility.yul\":6637:6652   */\n      revert\n        /* \"#utility.yul\":6664:6833   */\n    tag_123:\n        /* \"#utility.yul\":6748:6759   */\n      0x00\n        /* \"#utility.yul\":6782:6788   */\n      dup3\n        /* \"#utility.yul\":6777:6780   */\n      dup3\n        /* \"#utility.yul\":6770:6789   */\n      mstore\n        /* \"#utility.yul\":6822:6826   */\n      0x20\n        /* \"#utility.yul\":6817:6820   */\n      dup3\n        /* \"#utility.yul\":6813:6827   */\n      add\n        /* \"#utility.yul\":6798:6827   */\n      swap1\n      pop\n        /* \"#utility.yul\":6664:6833   */\n      swap3\n      swap2\n      pop\n      pop\n      jump\t// out\n        /* \"#utility.yul\":6839:7020   */\n    tag_124:\n        /* \"#utility.yul\":6979:7012   */\n      0x6d73672e73656e646572206973206e6f7420746865204e4654206f776e657200\n        /* \"#utility.yul\":6975:6976   */\n      0x00\n        /* \"#utility.yul\":6967:6973   */\n      dup3\n        /* \"#utility.yul\":6963:6977   */\n      add\n        /* \"#utility.yul\":6956:7013   */\n      mstore\n        /* \"#utility.yul\":6839:7020   */\n      pop\n      jump\t// out\n        /* \"#utility.yul\":7026:7392   */\n    tag_125:\n        /* \"#utility.yul\":7168:7171   */\n      0x00\n        /* \"#utility.yul\":7189:7256   */\n      tag_207\n        /* \"#utility.yul\":7253:7255   */\n      0x1f\n        /* \"#utility.yul\":7248:7251   */\n      dup4\n        /* \"#utility.yul\":7189:7256   */\n      tag_123\n      jump\t// in\n    tag_207:\n        /* \"#utility.yul\":7182:7256   */\n      swap2\n      pop\n        /* \"#utility.yul\":7265:7358   */\n      tag_208\n        /* \"#utility.yul\":7354:7357   */\n      dup3\n        /* \"#utility.yul\":7265:7358   */\n      tag_124\n      jump\t// in\n    tag_208:\n        /* \"#utility.yul\":7383:7385   */\n      0x20\n        /* \"#utility.yul\":7378:7381   */\n      dup3\n        /* \"#utility.yul\":7374:7386   */\n      add\n        /* \"#utility.yul\":7367:7386   */\n      swap1\n      pop\n        /* \"#utility.yul\":7026:7392   */\n      swap2\n      swap1\n      pop\n      jump\t// out\n        /* \"#utility.yul\":7398:7817   */\n    tag_63:\n        /* \"#utility.yul\":7564:7568   */\n      0x00\n        /* \"#utility.yul\":7602:7604   */\n      0x20\n        /* \"#utility.yul\":7591:7600   */\n      dup3\n        /* \"#utility.yul\":7587:7605   */\n      add\n        /* \"#utility.yul\":7579:7605   */\n      swap1\n      pop\n        /* \"#utility.yul\":7651:7660   */\n      dup2\n        /* \"#utility.yul\":7645:7649   */\n      dup2\n        /* \"#utility.yul\":7641:7661   */\n      sub\n        /* \"#utility.yul\":7637:7638   */\n      0x00\n        /* \"#utility.yul\":7626:7635   */\n      dup4\n        /* \"#utility.yul\":7622:7639   */\n      add\n        /* \"#utility.yul\":7615:7662   */\n      mstore\n        /* \"#utility.yul\":7679:7810   */\n      tag_210\n        /* \"#utility.yul\":7805:7809   */\n      dup2\n        /* \"#utility.yul\":7679:7810   */\n      tag_125\n      jump\t// in\n    tag_210:\n        /* \"#utility.yul\":7671:7810   */\n      swap1\n      pop\n        /* \"#utility.yul\":7398:7817   */\n      swap2\n      swap1\n      pop\n      jump\t// out\n        /* \"#utility.yul\":7823:8265   */\n    tag_65:\n        /* \"#utility.yul\":7972:7976   */\n      0x00\n        /* \"#utility.yul\":8010:8012   */\n      0x60\n        /* \"#utility.yul\":7999:8008   */\n      dup3\n        /* \"#utility.yul\":7995:8013   */\n      add\n        /* \"#utility.yul\":7987:8013   */\n      swap1\n      pop\n        /* \"#utility.yul\":8023:8094   */\n      tag_212\n        /* \"#utility.yul\":8091:8092   */\n      0x00\n        /* \"#utility.yul\":8080:8089   */\n      dup4\n        /* \"#utility.yul\":8076:8093   */\n      add\n        /* \"#utility.yul\":8067:8073   */\n      dup7\n        /* \"#utility.yul\":8023:8094   */\n      tag_121\n      jump\t// in\n    tag_212:\n        /* \"#utility.yul\":8104:8176   */\n      tag_213\n        /* \"#utility.yul\":8172:8174   */\n      0x20\n        /* \"#utility.yul\":8161:8170   */\n      dup4\n        /* \"#utility.yul\":8157:8175   */\n      add\n        /* \"#utility.yul\":8148:8154   */\n      dup6\n        /* \"#utility.yul\":8104:8176   */\n      tag_121\n      jump\t// in\n    tag_213:\n        /* \"#utility.yul\":8186:8258   */\n      tag_214\n        /* \"#utility.yul\":8254:8256   */\n      0x40\n        /* \"#utility.yul\":8243:8252   */\n      dup4\n        /* \"#utility.yul\":8239:8257   */\n      add\n        /* \"#utility.yul\":8230:8236   */\n      dup5\n        /* \"#utility.yul\":8186:8258   */\n      tag_118\n      jump\t// in\n    tag_214:\n        /* \"#utility.yul\":7823:8265   */\n      swap5\n      swap4\n      pop\n      pop\n      pop\n      pop\n      jump\t// out\n        /* \"#utility.yul\":8271:8437   */\n    tag_126:\n        /* \"#utility.yul\":8411:8429   */\n      0x707269636520697320746f6f206c6f7700000000000000000000000000000000\n        /* \"#utility.yul\":8407:8408   */\n      0x00\n        /* \"#utility.yul\":8399:8405   */\n      dup3\n        /* \"#utility.yul\":8395:8409   */\n      add\n        /* \"#utility.yul\":8388:8430   */\n      mstore\n        /* \"#utility.yul\":8271:8437   */\n      pop\n      jump\t// out\n        /* \"#utility.yul\":8443:8809   */\n    tag_127:\n        /* \"#utility.yul\":8585:8588   */\n      0x00\n        /* \"#utility.yul\":8606:8673   */\n      tag_217\n        /* \"#utility.yul\":8670:8672   */\n      0x10\n        /* \"#utility.yul\":8665:8668   */\n      dup4\n        /* \"#utility.yul\":8606:8673   */\n      tag_123\n      jump\t// in\n    tag_217:\n        /* \"#utility.yul\":8599:8673   */\n      swap2\n      pop\n        /* \"#utility.yul\":8682:8775   */\n      tag_218\n        /* \"#utility.yul\":8771:8774   */\n      dup3\n        /* \"#utility.yul\":8682:8775   */\n      tag_126\n      jump\t// in\n    tag_218:\n        /* \"#utility.yul\":8800:8802   */\n      0x20\n        /* \"#utility.yul\":8795:8798   */\n      dup3\n        /* \"#utility.yul\":8791:8803   */\n      add\n        /* \"#utility.yul\":8784:8803   */\n      swap1\n      pop\n        /* \"#utility.yul\":8443:8809   */\n      swap2\n      swap1\n      pop\n      jump\t// out\n        /* \"#utility.yul\":8815:9234   */\n    tag_74:\n        /* \"#utility.yul\":8981:8985   */\n      0x00\n        /* \"#utility.yul\":9019:9021   */\n      0x20\n        /* \"#utility.yul\":9008:9017   */\n      dup3\n        /* \"#utility.yul\":9004:9022   */\n      add\n        /* \"#utility.yul\":8996:9022   */\n      swap1\n      pop\n        /* \"#utility.yul\":9068:9077   */\n      dup2\n        /* \"#utility.yul\":9062:9066   */\n      dup2\n        /* \"#utility.yul\":9058:9078   */\n      sub\n        /* \"#utility.yul\":9054:9055   */\n      0x00\n        /* \"#utility.yul\":9043:9052   */\n      dup4\n        /* \"#utility.yul\":9039:9056   */\n      add\n        /* \"#utility.yul\":9032:9079   */\n      mstore\n        /* \"#utility.yul\":9096:9227   */\n      tag_220\n        /* \"#utility.yul\":9222:9226   */\n      dup2\n        /* \"#utility.yul\":9096:9227   */\n      tag_127\n      jump\t// in\n    tag_220:\n        /* \"#utility.yul\":9088:9227   */\n      swap1\n      pop\n        /* \"#utility.yul\":8815:9234   */\n      swap2\n      swap1\n      pop\n      jump\t// out\n        /* \"#utility.yul\":9240:9572   */\n    tag_76:\n        /* \"#utility.yul\":9361:9365   */\n      0x00\n        /* \"#utility.yul\":9399:9401   */\n      0x40\n        /* \"#utility.yul\":9388:9397   */\n      dup3\n        /* \"#utility.yul\":9384:9402   */\n      add\n        /* \"#utility.yul\":9376:9402   */\n      swap1\n      pop\n        /* \"#utility.yul\":9412:9483   */\n      tag_222\n        /* \"#utility.yul\":9480:9481   */\n      0x00\n        /* \"#utility.yul\":9469:9478   */\n      dup4\n        /* \"#utility.yul\":9465:9482   */\n      add\n        /* \"#utility.yul\":9456:9462   */\n      dup6\n        /* \"#utility.yul\":9412:9483   */\n      tag_121\n      jump\t// in\n    tag_222:\n        /* \"#utility.yul\":9493:9565   */\n      tag_223\n        /* \"#utility.yul\":9561:9563   */\n      0x20\n        /* \"#utility.yul\":9550:9559   */\n      dup4\n        /* \"#utility.yul\":9546:9564   */\n      add\n        /* \"#utility.yul\":9537:9543   */\n      dup5\n        /* \"#utility.yul\":9493:9565   */\n      tag_118\n      jump\t// in\n    tag_223:\n        /* \"#utility.yul\":9240:9572   */\n      swap4\n      swap3\n      pop\n      pop\n      pop\n      jump\t// out\n        /* \"#utility.yul\":9578:9811   */\n    tag_128:\n        /* \"#utility.yul\":9718:9752   */\n      0x746865202773656c6c65722720706172616d65746572206973206e6f74207468\n        /* \"#utility.yul\":9714:9715   */\n      0x00\n        /* \"#utility.yul\":9706:9712   */\n      dup3\n        /* \"#utility.yul\":9702:9716   */\n      add\n        /* \"#utility.yul\":9695:9753   */\n      mstore\n        /* \"#utility.yul\":9787:9803   */\n      0x65206f726465722073656c6c6572000000000000000000000000000000000000\n        /* \"#utility.yul\":9782:9784   */\n      0x20\n        /* \"#utility.yul\":9774:9780   */\n      dup3\n        /* \"#utility.yul\":9770:9785   */\n      add\n        /* \"#utility.yul\":9763:9804   */\n      mstore\n        /* \"#utility.yul\":9578:9811   */\n      pop\n      jump\t// out\n        /* \"#utility.yul\":9817:10183   */\n    tag_129:\n        /* \"#utility.yul\":9959:9962   */\n      0x00\n        /* \"#utility.yul\":9980:10047   */\n      tag_226\n        /* \"#utility.yul\":10044:10046   */\n      0x2e\n        /* \"#utility.yul\":10039:10042   */\n      dup4\n        /* \"#utility.yul\":9980:10047   */\n      tag_123\n      jump\t// in\n    tag_226:\n        /* \"#utility.yul\":9973:10047   */\n      swap2\n      pop\n        /* \"#utility.yul\":10056:10149   */\n      tag_227\n        /* \"#utility.yul\":10145:10148   */\n      dup3\n        /* \"#utility.yul\":10056:10149   */\n      tag_128\n      jump\t// in\n    tag_227:\n        /* \"#utility.yul\":10174:10176   */\n      0x40\n        /* \"#utility.yul\":10169:10172   */\n      dup3\n        /* \"#utility.yul\":10165:10177   */\n      add\n        /* \"#utility.yul\":10158:10177   */\n      swap1\n      pop\n        /* \"#utility.yul\":9817:10183   */\n      swap2\n      swap1\n      pop\n      jump\t// out\n        /* \"#utility.yul\":10189:10608   */\n    tag_95:\n        /* \"#utility.yul\":10355:10359   */\n      0x00\n        /* \"#utility.yul\":10393:10395   */\n      0x20\n        /* \"#utility.yul\":10382:10391   */\n      dup3\n        /* \"#utility.yul\":10378:10396   */\n      add\n        /* \"#utility.yul\":10370:10396   */\n      swap1\n      pop\n        /* \"#utility.yul\":10442:10451   */\n      dup2\n        /* \"#utility.yul\":10436:10440   */\n      dup2\n        /* \"#utility.yul\":10432:10452   */\n      sub\n        /* \"#utility.yul\":10428:10429   */\n      0x00\n        /* \"#utility.yul\":10417:10426   */\n      dup4\n        /* \"#utility.yul\":10413:10430   */\n      add\n        /* \"#utility.yul\":10406:10453   */\n      mstore\n        /* \"#utility.yul\":10470:10601   */\n      tag_229\n        /* \"#utility.yul\":10596:10600   */\n      dup2\n        /* \"#utility.yul\":10470:10601   */\n      tag_129\n      jump\t// in\n    tag_229:\n        /* \"#utility.yul\":10462:10601   */\n      swap1\n      pop\n        /* \"#utility.yul\":10189:10608   */\n      swap2\n      swap1\n      pop\n      jump\t// out\n        /* \"#utility.yul\":10614:10808   */\n    tag_101:\n        /* \"#utility.yul\":10654:10658   */\n      0x00\n        /* \"#utility.yul\":10674:10694   */\n      tag_231\n        /* \"#utility.yul\":10692:10693   */\n      dup3\n        /* \"#utility.yul\":10674:10694   */\n      tag_113\n      jump\t// in\n    tag_231:\n        /* \"#utility.yul\":10669:10694   */\n      swap2\n      pop\n        /* \"#utility.yul\":10708:10728   */\n      tag_232\n        /* \"#utility.yul\":10726:10727   */\n      dup4\n        /* \"#utility.yul\":10708:10728   */\n      tag_113\n      jump\t// in\n    tag_232:\n        /* \"#utility.yul\":10703:10728   */\n      swap3\n      pop\n        /* \"#utility.yul\":10752:10753   */\n      dup3\n        /* \"#utility.yul\":10749:10750   */\n      dup3\n        /* \"#utility.yul\":10745:10754   */\n      sub\n        /* \"#utility.yul\":10737:10754   */\n      swap1\n      pop\n        /* \"#utility.yul\":10776:10777   */\n      dup2\n        /* \"#utility.yul\":10770:10774   */\n      dup2\n        /* \"#utility.yul\":10767:10778   */\n      gt\n        /* \"#utility.yul\":10764:10801   */\n      iszero\n      tag_233\n      jumpi\n        /* \"#utility.yul\":10781:10799   */\n      tag_234\n      tag_122\n      jump\t// in\n    tag_234:\n        /* \"#utility.yul\":10764:10801   */\n    tag_233:\n        /* \"#utility.yul\":10614:10808   */\n      swap3\n      swap2\n      pop\n      pop\n      jump\t// out\n\n    auxdata: 0xa2646970667358221220f32bb66d1046a1361ab105fdc18358add7ac42d175a06fd244c2359ebf2c0f6764736f6c63430008180033\n}\n",
				"bytecode": {
					"linkReferences": {},
					"object": "608060405234801562000010575f80fd5b506040516200137f3803806200137f833981810160405281019062000036919062000121565b805f806101000a81548173ffffffffffffffffffffffffffffffffffffffff021916908373ffffffffffffffffffffffffffffffffffffffff1602179055503360015f6101000a81548173ffffffffffffffffffffffffffffffffffffffff021916908373ffffffffffffffffffffffffffffffffffffffff1602179055505062000151565b5f80fd5b5f73ffffffffffffffffffffffffffffffffffffffff82169050919050565b5f620000eb82620000c0565b9050919050565b620000fd81620000df565b811462000108575f80fd5b50565b5f815190506200011b81620000f2565b92915050565b5f60208284031215620001395762000138620000bc565b5b5f62000148848285016200010b565b91505092915050565b611220806200015f5f395ff3fe60806040526004361061006f575f3560e01c80638b7afe2e1161004d5780638b7afe2e14610101578063a82ba76f1461012b578063c6362a5914610147578063dda342bb146101855761006f565b806341a6506b146100735780634e9c378f146100af5780637fc27efd146100d9575b5f80fd5b34801561007e575f80fd5b5061009960048036038101906100949190610cd9565b6101ad565b6040516100a69190610dc4565b60405180910390f35b3480156100ba575f80fd5b506100c36102d6565b6040516100d09190610df3565b60405180910390f35b3480156100e4575f80fd5b506100ff60048036038101906100fa9190610e36565b6102df565b005b34801561010c575f80fd5b50610115610430565b6040516101229190610df3565b60405180910390f35b61014560048036038101906101409190610e36565b610436565b005b348015610152575f80fd5b5061016d60048036038101906101689190610e74565b610645565b60405161017c93929190610eae565b60405180910390f35b348015610190575f80fd5b506101ab60048036038101906101a69190610ee3565b6106b3565b005b60605f60065f8473ffffffffffffffffffffffffffffffffffffffff1673ffffffffffffffffffffffffffffffffffffffff1681526020019081526020015f205490505f8167ffffffffffffffff81111561020b5761020a610f33565b5b6040519080825280602002602001820160405280156102395781602001602082028036833780820191505090505b5090505f5b828110156102cb5760055f8673ffffffffffffffffffffffffffffffffffffffff1673ffffffffffffffffffffffffffffffffffffffff1681526020019081526020015f205f6001836102919190610f8d565b81526020019081526020015f20548282815181106102b2576102b1610fc0565b5b602002602001018181525050808060010191505061023e565b508092505050919050565b5f600754905090565b60035f8281526020019081526020015f206002015f9054906101000a900473ffffffffffffffffffffffffffffffffffffffff1673ffffffffffffffffffffffffffffffffffffffff168273ffffffffffffffffffffffffffffffffffffffff1614610380576040517f08c379a000000000000000000000000000000000000000000000000000000000815260040161037790611047565b60405180910390fd5b5f60035f8381526020019081526020015f206001015490505f8054906101000a900473ffffffffffffffffffffffffffffffffffffffff1673ffffffffffffffffffffffffffffffffffffffff166323b872dd3085846040518463ffffffff1660e01b81526004016103f493929190611065565b5f604051808303815f87803b15801561040b575f80fd5b505af115801561041d573d5f803e3d5ffd5b5050505061042b8383610930565b505050565b60025481565b5f60035f8381526020019081526020015f206003015490505f60035f8481526020019081526020015f206001015490505f60035f8581526020019081526020015f206002015f9054906101000a900473ffffffffffffffffffffffffffffffffffffffff169050823410156104e0576040517f08c379a00000000000000000000000000000000000000000000000000000000081526004016104d7906110e4565b60405180910390fd5b5f8054906101000a900473ffffffffffffffffffffffffffffffffffffffff1673ffffffffffffffffffffffffffffffffffffffff1663095ea7b330846040518363ffffffff1660e01b815260040161053a929190611102565b5f604051808303815f87803b158015610551575f80fd5b505af1158015610563573d5f803e3d5ffd5b505050505f8054906101000a900473ffffffffffffffffffffffffffffffffffffffff1673ffffffffffffffffffffffffffffffffffffffff166323b872dd3087856040518463ffffffff1660e01b81526004016105c393929190611065565b5f604051808303815f87803b1580156105da575f80fd5b505af11580156105ec573d5f803e3d5ffd5b505050508073ffffffffffffffffffffffffffffffffffffffff166108fc8490811502906040515f60405180830381858888f19350505050158015610633573d5f803e3d5ffd5b5061063e8185610930565b5050505050565b5f805f60035f8581526020019081526020015f2060010154925060035f8581526020019081526020015f206002015f9054906101000a900473ffffffffffffffffffffffffffffffffffffffff16915060035f8581526020019081526020015f206003015490509193909250565b600160085f8282546106c59190610f8d565b92505081905550600160075f8282546106de9190610f8d565b92505081905550604051806080016040528060085481526020018281526020018473ffffffffffffffffffffffffffffffffffffffff1681526020018381525060035f60085481526020019081526020015f205f820151815f0155602082015181600101556040820151816002015f6101000a81548173ffffffffffffffffffffffffffffffffffffffff021916908373ffffffffffffffffffffffffffffffffffffffff16021790555060608201518160030155905050600160065f8573ffffffffffffffffffffffffffffffffffffffff1673ffffffffffffffffffffffffffffffffffffffff1681526020019081526020015f205f8282546107e39190610f8d565b9250508190555060085460055f8573ffffffffffffffffffffffffffffffffffffffff1673ffffffffffffffffffffffffffffffffffffffff1681526020019081526020015f205f60065f8773ffffffffffffffffffffffffffffffffffffffff1673ffffffffffffffffffffffffffffffffffffffff1681526020019081526020015f205481526020019081526020015f2081905550604051806080016040528060085481526020018281526020018473ffffffffffffffffffffffffffffffffffffffff1681526020018381525060045f60075481526020019081526020015f205f820151815f0155602082015181600101556040820151816002015f6101000a81548173ffffffffffffffffffffffffffffffffffffffff021916908373ffffffffffffffffffffffffffffffffffffffff16021790555060608201518160030155905050505050565b5f60035f8381526020019081526020015f206002015f9054906101000a900473ffffffffffffffffffffffffffffffffffffffff1690508073ffffffffffffffffffffffffffffffffffffffff168373ffffffffffffffffffffffffffffffffffffffff16146109d5576040517f08c379a00000000000000000000000000000000000000000000000000000000081526004016109cc90611199565b60405180910390fd5b5f600190505b60065f8573ffffffffffffffffffffffffffffffffffffffff1673ffffffffffffffffffffffffffffffffffffffff1681526020019081526020015f2054811015610b60575f60055f8673ffffffffffffffffffffffffffffffffffffffff1673ffffffffffffffffffffffffffffffffffffffff1681526020019081526020015f205f8381526020019081526020015f20549050838103610b525760055f8673ffffffffffffffffffffffffffffffffffffffff1673ffffffffffffffffffffffffffffffffffffffff1681526020019081526020015f205f60065f8873ffffffffffffffffffffffffffffffffffffffff1673ffffffffffffffffffffffffffffffffffffffff1681526020019081526020015f205481526020019081526020015f205460055f8773ffffffffffffffffffffffffffffffffffffffff1673ffffffffffffffffffffffffffffffffffffffff1681526020019081526020015f205f8481526020019081526020015f20819055505b5080806001019150506109db565b50600160065f8573ffffffffffffffffffffffffffffffffffffffff1673ffffffffffffffffffffffffffffffffffffffff1681526020019081526020015f205f828254610bae91906111b7565b9250508190555060045f60075481526020019081526020015f2060045f8481526020019081526020015f205f820154815f015560018201548160010155600282015f9054906101000a900473ffffffffffffffffffffffffffffffffffffffff16816002015f6101000a81548173ffffffffffffffffffffffffffffffffffffffff021916908373ffffffffffffffffffffffffffffffffffffffff16021790555060038201548160030155905050600160075f828254610c6f91906111b7565b92505081905550505050565b5f80fd5b5f73ffffffffffffffffffffffffffffffffffffffff82169050919050565b5f610ca882610c7f565b9050919050565b610cb881610c9e565b8114610cc2575f80fd5b50565b5f81359050610cd381610caf565b92915050565b5f60208284031215610cee57610ced610c7b565b5b5f610cfb84828501610cc5565b91505092915050565b5f81519050919050565b5f82825260208201905092915050565b5f819050602082019050919050565b5f819050919050565b610d3f81610d2d565b82525050565b5f610d508383610d36565b60208301905092915050565b5f602082019050919050565b5f610d7282610d04565b610d7c8185610d0e565b9350610d8783610d1e565b805f5b83811015610db7578151610d9e8882610d45565b9750610da983610d5c565b925050600181019050610d8a565b5085935050505092915050565b5f6020820190508181035f830152610ddc8184610d68565b905092915050565b610ded81610d2d565b82525050565b5f602082019050610e065f830184610de4565b92915050565b610e1581610d2d565b8114610e1f575f80fd5b50565b5f81359050610e3081610e0c565b92915050565b5f8060408385031215610e4c57610e4b610c7b565b5b5f610e5985828601610cc5565b9250506020610e6a85828601610e22565b9150509250929050565b5f60208284031215610e8957610e88610c7b565b5b5f610e9684828501610e22565b91505092915050565b610ea881610c9e565b82525050565b5f606082019050610ec15f830186610de4565b610ece6020830185610e9f565b610edb6040830184610de4565b949350505050565b5f805f60608486031215610efa57610ef9610c7b565b5b5f610f0786828701610cc5565b9350506020610f1886828701610e22565b9250506040610f2986828701610e22565b9150509250925092565b7f4e487b71000000000000000000000000000000000000000000000000000000005f52604160045260245ffd5b7f4e487b71000000000000000000000000000000000000000000000000000000005f52601160045260245ffd5b5f610f9782610d2d565b9150610fa283610d2d565b9250828201905080821115610fba57610fb9610f60565b5b92915050565b7f4e487b71000000000000000000000000000000000000000000000000000000005f52603260045260245ffd5b5f82825260208201905092915050565b7f6d73672e73656e646572206973206e6f7420746865204e4654206f776e6572005f82015250565b5f611031601f83610fed565b915061103c82610ffd565b602082019050919050565b5f6020820190508181035f83015261105e81611025565b9050919050565b5f6060820190506110785f830186610e9f565b6110856020830185610e9f565b6110926040830184610de4565b949350505050565b7f707269636520697320746f6f206c6f77000000000000000000000000000000005f82015250565b5f6110ce601083610fed565b91506110d98261109a565b602082019050919050565b5f6020820190508181035f8301526110fb816110c2565b9050919050565b5f6040820190506111155f830185610e9f565b6111226020830184610de4565b9392505050565b7f746865202773656c6c65722720706172616d65746572206973206e6f742074685f8201527f65206f726465722073656c6c6572000000000000000000000000000000000000602082015250565b5f611183602e83610fed565b915061118e82611129565b604082019050919050565b5f6020820190508181035f8301526111b081611177565b9050919050565b5f6111c182610d2d565b91506111cc83610d2d565b92508282039050818111156111e4576111e3610f60565b5b9291505056fea2646970667358221220f32bb66d1046a1361ab105fdc18358add7ac42d175a06fd244c2359ebf2c0f6764736f6c63430008180033",
					"opcodes": "PUSH1 0x80 PUSH1 0x40 MSTORE CALLVALUE DUP1 ISZERO PUSH3 0x10 JUMPI PUSH0 DUP1 REVERT JUMPDEST POP PUSH1 0x40 MLOAD PUSH3 0x137F CODESIZE SUB DUP1 PUSH3 0x137F DUP4 CODECOPY DUP2 DUP2 ADD PUSH1 0x40 MSTORE DUP2 ADD SWAP1 PUSH3 0x36 SWAP2 SWAP1 PUSH3 0x121 JUMP JUMPDEST DUP1 PUSH0 DUP1 PUSH2 0x100 EXP DUP2 SLOAD DUP2 PUSH20 0xFFFFFFFFFFFFFFFFFFFFFFFFFFFFFFFFFFFFFFFF MUL NOT AND SWAP1 DUP4 PUSH20 0xFFFFFFFFFFFFFFFFFFFFFFFFFFFFFFFFFFFFFFFF AND MUL OR SWAP1 SSTORE POP CALLER PUSH1 0x1 PUSH0 PUSH2 0x100 EXP DUP2 SLOAD DUP2 PUSH20 0xFFFFFFFFFFFFFFFFFFFFFFFFFFFFFFFFFFFFFFFF MUL NOT AND SWAP1 DUP4 PUSH20 0xFFFFFFFFFFFFFFFFFFFFFFFFFFFFFFFFFFFFFFFF AND MUL OR SWAP1 SSTORE POP POP PUSH3 0x151 JUMP JUMPDEST PUSH0 DUP1 REVERT JUMPDEST PUSH0 PUSH20 0xFFFFFFFFFFFFFFFFFFFFFFFFFFFFFFFFFFFFFFFF DUP3 AND SWAP1 POP SWAP2 SWAP1 POP JUMP JUMPDEST PUSH0 PUSH3 0xEB DUP3 PUSH3 0xC0 JUMP JUMPDEST SWAP1 POP SWAP2 SWAP1 POP JUMP JUMPDEST PUSH3 0xFD DUP2 PUSH3 0xDF JUMP JUMPDEST DUP2 EQ PUSH3 0x108 JUMPI PUSH0 DUP1 REVERT JUMPDEST POP JUMP JUMPDEST PUSH0 DUP2 MLOAD SWAP1 POP PUSH3 0x11B DUP2 PUSH3 0xF2 JUMP JUMPDEST SWAP3 SWAP2 POP POP JUMP JUMPDEST PUSH0 PUSH1 0x20 DUP3 DUP5 SUB SLT ISZERO PUSH3 0x139 JUMPI PUSH3 0x138 PUSH3 0xBC JUMP JUMPDEST JUMPDEST PUSH0 PUSH3 0x148 DUP5 DUP3 DUP6 ADD PUSH3 0x10B JUMP JUMPDEST SWAP2 POP POP SWAP3 SWAP2 POP POP JUMP JUMPDEST PUSH2 0x1220 DUP1 PUSH3 0x15F PUSH0 CODECOPY PUSH0 RETURN INVALID PUSH1 0x80 PUSH1 0x40 MSTORE PUSH1 0x4 CALLDATASIZE LT PUSH2 0x6F JUMPI PUSH0 CALLDATALOAD PUSH1 0xE0 SHR DUP1 PUSH4 0x8B7AFE2E GT PUSH2 0x4D JUMPI DUP1 PUSH4 0x8B7AFE2E EQ PUSH2 0x101 JUMPI DUP1 PUSH4 0xA82BA76F EQ PUSH2 0x12B JUMPI DUP1 PUSH4 0xC6362A59 EQ PUSH2 0x147 JUMPI DUP1 PUSH4 0xDDA342BB EQ PUSH2 0x185 JUMPI PUSH2 0x6F JUMP JUMPDEST DUP1 PUSH4 0x41A6506B EQ PUSH2 0x73 JUMPI DUP1 PUSH4 0x4E9C378F EQ PUSH2 0xAF JUMPI DUP1 PUSH4 0x7FC27EFD EQ PUSH2 0xD9 JUMPI JUMPDEST PUSH0 DUP1 REVERT JUMPDEST CALLVALUE DUP1 ISZERO PUSH2 0x7E JUMPI PUSH0 DUP1 REVERT JUMPDEST POP PUSH2 0x99 PUSH1 0x4 DUP1 CALLDATASIZE SUB DUP2 ADD SWAP1 PUSH2 0x94 SWAP2 SWAP1 PUSH2 0xCD9 JUMP JUMPDEST PUSH2 0x1AD JUMP JUMPDEST PUSH1 0x40 MLOAD PUSH2 0xA6 SWAP2 SWAP1 PUSH2 0xDC4 JUMP JUMPDEST PUSH1 0x40 MLOAD DUP1 SWAP2 SUB SWAP1 RETURN JUMPDEST CALLVALUE DUP1 ISZERO PUSH2 0xBA JUMPI PUSH0 DUP1 REVERT JUMPDEST POP PUSH2 0xC3 PUSH2 0x2D6 JUMP JUMPDEST PUSH1 0x40 MLOAD PUSH2 0xD0 SWAP2 SWAP1 PUSH2 0xDF3 JUMP JUMPDEST PUSH1 0x40 MLOAD DUP1 SWAP2 SUB SWAP1 RETURN JUMPDEST CALLVALUE DUP1 ISZERO PUSH2 0xE4 JUMPI PUSH0 DUP1 REVERT JUMPDEST POP PUSH2 0xFF PUSH1 0x4 DUP1 CALLDATASIZE SUB DUP2 ADD SWAP1 PUSH2 0xFA SWAP2 SWAP1 PUSH2 0xE36 JUMP JUMPDEST PUSH2 0x2DF JUMP JUMPDEST STOP JUMPDEST CALLVALUE DUP1 ISZERO PUSH2 0x10C JUMPI PUSH0 DUP1 REVERT JUMPDEST POP PUSH2 0x115 PUSH2 0x430 JUMP JUMPDEST PUSH1 0x40 MLOAD PUSH2 0x122 SWAP2 SWAP1 PUSH2 0xDF3 JUMP JUMPDEST PUSH1 0x40 MLOAD DUP1 SWAP2 SUB SWAP1 RETURN JUMPDEST PUSH2 0x145 PUSH1 0x4 DUP1 CALLDATASIZE SUB DUP2 ADD SWAP1 PUSH2 0x140 SWAP2 SWAP1 PUSH2 0xE36 JUMP JUMPDEST PUSH2 0x436 JUMP JUMPDEST STOP JUMPDEST CALLVALUE DUP1 ISZERO PUSH2 0x152 JUMPI PUSH0 DUP1 REVERT JUMPDEST POP PUSH2 0x16D PUSH1 0x4 DUP1 CALLDATASIZE SUB DUP2 ADD SWAP1 PUSH2 0x168 SWAP2 SWAP1 PUSH2 0xE74 JUMP JUMPDEST PUSH2 0x645 JUMP JUMPDEST PUSH1 0x40 MLOAD PUSH2 0x17C SWAP4 SWAP3 SWAP2 SWAP1 PUSH2 0xEAE JUMP JUMPDEST PUSH1 0x40 MLOAD DUP1 SWAP2 SUB SWAP1 RETURN JUMPDEST CALLVALUE DUP1 ISZERO PUSH2 0x190 JUMPI PUSH0 DUP1 REVERT JUMPDEST POP PUSH2 0x1AB PUSH1 0x4 DUP1 CALLDATASIZE SUB DUP2 ADD SWAP1 PUSH2 0x1A6 SWAP2 SWAP1 PUSH2 0xEE3 JUMP JUMPDEST PUSH2 0x6B3 JUMP JUMPDEST STOP JUMPDEST PUSH1 0x60 PUSH0 PUSH1 0x6 PUSH0 DUP5 PUSH20 0xFFFFFFFFFFFFFFFFFFFFFFFFFFFFFFFFFFFFFFFF AND PUSH20 0xFFFFFFFFFFFFFFFFFFFFFFFFFFFFFFFFFFFFFFFF AND DUP2 MSTORE PUSH1 0x20 ADD SWAP1 DUP2 MSTORE PUSH1 0x20 ADD PUSH0 KECCAK256 SLOAD SWAP1 POP PUSH0 DUP2 PUSH8 0xFFFFFFFFFFFFFFFF DUP2 GT ISZERO PUSH2 0x20B JUMPI PUSH2 0x20A PUSH2 0xF33 JUMP JUMPDEST JUMPDEST PUSH1 0x40 MLOAD SWAP1 DUP1 DUP3 MSTORE DUP1 PUSH1 0x20 MUL PUSH1 0x20 ADD DUP3 ADD PUSH1 0x40 MSTORE DUP1 ISZERO PUSH2 0x239 JUMPI DUP2 PUSH1 0x20 ADD PUSH1 0x20 DUP3 MUL DUP1 CALLDATASIZE DUP4 CALLDATACOPY DUP1 DUP3 ADD SWAP2 POP POP SWAP1 POP JUMPDEST POP SWAP1 POP PUSH0 JUMPDEST DUP3 DUP2 LT ISZERO PUSH2 0x2CB JUMPI PUSH1 0x5 PUSH0 DUP7 PUSH20 0xFFFFFFFFFFFFFFFFFFFFFFFFFFFFFFFFFFFFFFFF AND PUSH20 0xFFFFFFFFFFFFFFFFFFFFFFFFFFFFFFFFFFFFFFFF AND DUP2 MSTORE PUSH1 0x20 ADD SWAP1 DUP2 MSTORE PUSH1 0x20 ADD PUSH0 KECCAK256 PUSH0 PUSH1 0x1 DUP4 PUSH2 0x291 SWAP2 SWAP1 PUSH2 0xF8D JUMP JUMPDEST DUP2 MSTORE PUSH1 0x20 ADD SWAP1 DUP2 MSTORE PUSH1 0x20 ADD PUSH0 KECCAK256 SLOAD DUP3 DUP3 DUP2 MLOAD DUP2 LT PUSH2 0x2B2 JUMPI PUSH2 0x2B1 PUSH2 0xFC0 JUMP JUMPDEST JUMPDEST PUSH1 0x20 MUL PUSH1 0x20 ADD ADD DUP2 DUP2 MSTORE POP POP DUP1 DUP1 PUSH1 0x1 ADD SWAP2 POP POP PUSH2 0x23E JUMP JUMPDEST POP DUP1 SWAP3 POP POP POP SWAP2 SWAP1 POP JUMP JUMPDEST PUSH0 PUSH1 0x7 SLOAD SWAP1 POP SWAP1 JUMP JUMPDEST PUSH1 0x3 PUSH0 DUP3 DUP2 MSTORE PUSH1 0x20 ADD SWAP1 DUP2 MSTORE PUSH1 0x20 ADD PUSH0 KECCAK256 PUSH1 0x2 ADD PUSH0 SWAP1 SLOAD SWAP1 PUSH2 0x100 EXP SWAP1 DIV PUSH20 0xFFFFFFFFFFFFFFFFFFFFFFFFFFFFFFFFFFFFFFFF AND PUSH20 0xFFFFFFFFFFFFFFFFFFFFFFFFFFFFFFFFFFFFFFFF AND DUP3 PUSH20 0xFFFFFFFFFFFFFFFFFFFFFFFFFFFFFFFFFFFFFFFF AND EQ PUSH2 0x380 JUMPI PUSH1 0x40 MLOAD PUSH32 0x8C379A000000000000000000000000000000000000000000000000000000000 DUP2 MSTORE PUSH1 0x4 ADD PUSH2 0x377 SWAP1 PUSH2 0x1047 JUMP JUMPDEST PUSH1 0x40 MLOAD DUP1 SWAP2 SUB SWAP1 REVERT JUMPDEST PUSH0 PUSH1 0x3 PUSH0 DUP4 DUP2 MSTORE PUSH1 0x20 ADD SWAP1 DUP2 MSTORE PUSH1 0x20 ADD PUSH0 KECCAK256 PUSH1 0x1 ADD SLOAD SWAP1 POP PUSH0 DUP1 SLOAD SWAP1 PUSH2 0x100 EXP SWAP1 DIV PUSH20 0xFFFFFFFFFFFFFFFFFFFFFFFFFFFFFFFFFFFFFFFF AND PUSH20 0xFFFFFFFFFFFFFFFFFFFFFFFFFFFFFFFFFFFFFFFF AND PUSH4 0x23B872DD ADDRESS DUP6 DUP5 PUSH1 0x40 MLOAD DUP5 PUSH4 0xFFFFFFFF AND PUSH1 0xE0 SHL DUP2 MSTORE PUSH1 0x4 ADD PUSH2 0x3F4 SWAP4 SWAP3 SWAP2 SWAP1 PUSH2 0x1065 JUMP JUMPDEST PUSH0 PUSH1 0x40 MLOAD DUP1 DUP4 SUB DUP2 PUSH0 DUP8 DUP1 EXTCODESIZE ISZERO DUP1 ISZERO PUSH2 0x40B JUMPI PUSH0 DUP1 REVERT JUMPDEST POP GAS CALL ISZERO DUP1 ISZERO PUSH2 0x41D JUMPI RETURNDATASIZE PUSH0 DUP1 RETURNDATACOPY RETURNDATASIZE PUSH0 REVERT JUMPDEST POP POP POP POP PUSH2 0x42B DUP4 DUP4 PUSH2 0x930 JUMP JUMPDEST POP POP POP JUMP JUMPDEST PUSH1 0x2 SLOAD DUP2 JUMP JUMPDEST PUSH0 PUSH1 0x3 PUSH0 DUP4 DUP2 MSTORE PUSH1 0x20 ADD SWAP1 DUP2 MSTORE PUSH1 0x20 ADD PUSH0 KECCAK256 PUSH1 0x3 ADD SLOAD SWAP1 POP PUSH0 PUSH1 0x3 PUSH0 DUP5 DUP2 MSTORE PUSH1 0x20 ADD SWAP1 DUP2 MSTORE PUSH1 0x20 ADD PUSH0 KECCAK256 PUSH1 0x1 ADD SLOAD SWAP1 POP PUSH0 PUSH1 0x3 PUSH0 DUP6 DUP2 MSTORE PUSH1 0x20 ADD SWAP1 DUP2 MSTORE PUSH1 0x20 ADD PUSH0 KECCAK256 PUSH1 0x2 ADD PUSH0 SWAP1 SLOAD SWAP1 PUSH2 0x100 EXP SWAP1 DIV PUSH20 0xFFFFFFFFFFFFFFFFFFFFFFFFFFFFFFFFFFFFFFFF AND SWAP1 POP DUP3 CALLVALUE LT ISZERO PUSH2 0x4E0 JUMPI PUSH1 0x40 MLOAD PUSH32 0x8C379A000000000000000000000000000000000000000000000000000000000 DUP2 MSTORE PUSH1 0x4 ADD PUSH2 0x4D7 SWAP1 PUSH2 0x10E4 JUMP JUMPDEST PUSH1 0x40 MLOAD DUP1 SWAP2 SUB SWAP1 REVERT JUMPDEST PUSH0 DUP1 SLOAD SWAP1 PUSH2 0x100 EXP SWAP1 DIV PUSH20 0xFFFFFFFFFFFFFFFFFFFFFFFFFFFFFFFFFFFFFFFF AND PUSH20 0xFFFFFFFFFFFFFFFFFFFFFFFFFFFFFFFFFFFFFFFF AND PUSH4 0x95EA7B3 ADDRESS DUP5 PUSH1 0x40 MLOAD DUP4 PUSH4 0xFFFFFFFF AND PUSH1 0xE0 SHL DUP2 MSTORE PUSH1 0x4 ADD PUSH2 0x53A SWAP3 SWAP2 SWAP1 PUSH2 0x1102 JUMP JUMPDEST PUSH0 PUSH1 0x40 MLOAD DUP1 DUP4 SUB DUP2 PUSH0 DUP8 DUP1 EXTCODESIZE ISZERO DUP1 ISZERO PUSH2 0x551 JUMPI PUSH0 DUP1 REVERT JUMPDEST POP GAS CALL ISZERO DUP1 ISZERO PUSH2 0x563 JUMPI RETURNDATASIZE PUSH0 DUP1 RETURNDATACOPY RETURNDATASIZE PUSH0 REVERT JUMPDEST POP POP POP POP PUSH0 DUP1 SLOAD SWAP1 PUSH2 0x100 EXP SWAP1 DIV PUSH20 0xFFFFFFFFFFFFFFFFFFFFFFFFFFFFFFFFFFFFFFFF AND PUSH20 0xFFFFFFFFFFFFFFFFFFFFFFFFFFFFFFFFFFFFFFFF AND PUSH4 0x23B872DD ADDRESS DUP8 DUP6 PUSH1 0x40 MLOAD DUP5 PUSH4 0xFFFFFFFF AND PUSH1 0xE0 SHL DUP2 MSTORE PUSH1 0x4 ADD PUSH2 0x5C3 SWAP4 SWAP3 SWAP2 SWAP1 PUSH2 0x1065 JUMP JUMPDEST PUSH0 PUSH1 0x40 MLOAD DUP1 DUP4 SUB DUP2 PUSH0 DUP8 DUP1 EXTCODESIZE ISZERO DUP1 ISZERO PUSH2 0x5DA JUMPI PUSH0 DUP1 REVERT JUMPDEST POP GAS CALL ISZERO DUP1 ISZERO PUSH2 0x5EC JUMPI RETURNDATASIZE PUSH0 DUP1 RETURNDATACOPY RETURNDATASIZE PUSH0 REVERT JUMPDEST POP POP POP POP DUP1 PUSH20 0xFFFFFFFFFFFFFFFFFFFFFFFFFFFFFFFFFFFFFFFF AND PUSH2 0x8FC DUP5 SWAP1 DUP2 ISZERO MUL SWAP1 PUSH1 0x40 MLOAD PUSH0 PUSH1 0x40 MLOAD DUP1 DUP4 SUB DUP2 DUP6 DUP9 DUP9 CALL SWAP4 POP POP POP POP ISZERO DUP1 ISZERO PUSH2 0x633 JUMPI RETURNDATASIZE PUSH0 DUP1 RETURNDATACOPY RETURNDATASIZE PUSH0 REVERT JUMPDEST POP PUSH2 0x63E DUP2 DUP6 PUSH2 0x930 JUMP JUMPDEST POP POP POP POP POP JUMP JUMPDEST PUSH0 DUP1 PUSH0 PUSH1 0x3 PUSH0 DUP6 DUP2 MSTORE PUSH1 0x20 ADD SWAP1 DUP2 MSTORE PUSH1 0x20 ADD PUSH0 KECCAK256 PUSH1 0x1 ADD SLOAD SWAP3 POP PUSH1 0x3 PUSH0 DUP6 DUP2 MSTORE PUSH1 0x20 ADD SWAP1 DUP2 MSTORE PUSH1 0x20 ADD PUSH0 KECCAK256 PUSH1 0x2 ADD PUSH0 SWAP1 SLOAD SWAP1 PUSH2 0x100 EXP SWAP1 DIV PUSH20 0xFFFFFFFFFFFFFFFFFFFFFFFFFFFFFFFFFFFFFFFF AND SWAP2 POP PUSH1 0x3 PUSH0 DUP6 DUP2 MSTORE PUSH1 0x20 ADD SWAP1 DUP2 MSTORE PUSH1 0x20 ADD PUSH0 KECCAK256 PUSH1 0x3 ADD SLOAD SWAP1 POP SWAP2 SWAP4 SWAP1 SWAP3 POP JUMP JUMPDEST PUSH1 0x1 PUSH1 0x8 PUSH0 DUP3 DUP3 SLOAD PUSH2 0x6C5 SWAP2 SWAP1 PUSH2 0xF8D JUMP JUMPDEST SWAP3 POP POP DUP2 SWAP1 SSTORE POP PUSH1 0x1 PUSH1 0x7 PUSH0 DUP3 DUP3 SLOAD PUSH2 0x6DE SWAP2 SWAP1 PUSH2 0xF8D JUMP JUMPDEST SWAP3 POP POP DUP2 SWAP1 SSTORE POP PUSH1 0x40 MLOAD DUP1 PUSH1 0x80 ADD PUSH1 0x40 MSTORE DUP1 PUSH1 0x8 SLOAD DUP2 MSTORE PUSH1 0x20 ADD DUP3 DUP2 MSTORE PUSH1 0x20 ADD DUP5 PUSH20 0xFFFFFFFFFFFFFFFFFFFFFFFFFFFFFFFFFFFFFFFF AND DUP2 MSTORE PUSH1 0x20 ADD DUP4 DUP2 MSTORE POP PUSH1 0x3 PUSH0 PUSH1 0x8 SLOAD DUP2 MSTORE PUSH1 0x20 ADD SWAP1 DUP2 MSTORE PUSH1 0x20 ADD PUSH0 KECCAK256 PUSH0 DUP3 ADD MLOAD DUP2 PUSH0 ADD SSTORE PUSH1 0x20 DUP3 ADD MLOAD DUP2 PUSH1 0x1 ADD SSTORE PUSH1 0x40 DUP3 ADD MLOAD DUP2 PUSH1 0x2 ADD PUSH0 PUSH2 0x100 EXP DUP2 SLOAD DUP2 PUSH20 0xFFFFFFFFFFFFFFFFFFFFFFFFFFFFFFFFFFFFFFFF MUL NOT AND SWAP1 DUP4 PUSH20 0xFFFFFFFFFFFFFFFFFFFFFFFFFFFFFFFFFFFFFFFF AND MUL OR SWAP1 SSTORE POP PUSH1 0x60 DUP3 ADD MLOAD DUP2 PUSH1 0x3 ADD SSTORE SWAP1 POP POP PUSH1 0x1 PUSH1 0x6 PUSH0 DUP6 PUSH20 0xFFFFFFFFFFFFFFFFFFFFFFFFFFFFFFFFFFFFFFFF AND PUSH20 0xFFFFFFFFFFFFFFFFFFFFFFFFFFFFFFFFFFFFFFFF AND DUP2 MSTORE PUSH1 0x20 ADD SWAP1 DUP2 MSTORE PUSH1 0x20 ADD PUSH0 KECCAK256 PUSH0 DUP3 DUP3 SLOAD PUSH2 0x7E3 SWAP2 SWAP1 PUSH2 0xF8D JUMP JUMPDEST SWAP3 POP POP DUP2 SWAP1 SSTORE POP PUSH1 0x8 SLOAD PUSH1 0x5 PUSH0 DUP6 PUSH20 0xFFFFFFFFFFFFFFFFFFFFFFFFFFFFFFFFFFFFFFFF AND PUSH20 0xFFFFFFFFFFFFFFFFFFFFFFFFFFFFFFFFFFFFFFFF AND DUP2 MSTORE PUSH1 0x20 ADD SWAP1 DUP2 MSTORE PUSH1 0x20 ADD PUSH0 KECCAK256 PUSH0 PUSH1 0x6 PUSH0 DUP8 PUSH20 0xFFFFFFFFFFFFFFFFFFFFFFFFFFFFFFFFFFFFFFFF AND PUSH20 0xFFFFFFFFFFFFFFFFFFFFFFFFFFFFFFFFFFFFFFFF AND DUP2 MSTORE PUSH1 0x20 ADD SWAP1 DUP2 MSTORE PUSH1 0x20 ADD PUSH0 KECCAK256 SLOAD DUP2 MSTORE PUSH1 0x20 ADD SWAP1 DUP2 MSTORE PUSH1 0x20 ADD PUSH0 KECCAK256 DUP2 SWAP1 SSTORE POP PUSH1 0x40 MLOAD DUP1 PUSH1 0x80 ADD PUSH1 0x40 MSTORE DUP1 PUSH1 0x8 SLOAD DUP2 MSTORE PUSH1 0x20 ADD DUP3 DUP2 MSTORE PUSH1 0x20 ADD DUP5 PUSH20 0xFFFFFFFFFFFFFFFFFFFFFFFFFFFFFFFFFFFFFFFF AND DUP2 MSTORE PUSH1 0x20 ADD DUP4 DUP2 MSTORE POP PUSH1 0x4 PUSH0 PUSH1 0x7 SLOAD DUP2 MSTORE PUSH1 0x20 ADD SWAP1 DUP2 MSTORE PUSH1 0x20 ADD PUSH0 KECCAK256 PUSH0 DUP3 ADD MLOAD DUP2 PUSH0 ADD SSTORE PUSH1 0x20 DUP3 ADD MLOAD DUP2 PUSH1 0x1 ADD SSTORE PUSH1 0x40 DUP3 ADD MLOAD DUP2 PUSH1 0x2 ADD PUSH0 PUSH2 0x100 EXP DUP2 SLOAD DUP2 PUSH20 0xFFFFFFFFFFFFFFFFFFFFFFFFFFFFFFFFFFFFFFFF MUL NOT AND SWAP1 DUP4 PUSH20 0xFFFFFFFFFFFFFFFFFFFFFFFFFFFFFFFFFFFFFFFF AND MUL OR SWAP1 SSTORE POP PUSH1 0x60 DUP3 ADD MLOAD DUP2 PUSH1 0x3 ADD SSTORE SWAP1 POP POP POP POP POP JUMP JUMPDEST PUSH0 PUSH1 0x3 PUSH0 DUP4 DUP2 MSTORE PUSH1 0x20 ADD SWAP1 DUP2 MSTORE PUSH1 0x20 ADD PUSH0 KECCAK256 PUSH1 0x2 ADD PUSH0 SWAP1 SLOAD SWAP1 PUSH2 0x100 EXP SWAP1 DIV PUSH20 0xFFFFFFFFFFFFFFFFFFFFFFFFFFFFFFFFFFFFFFFF AND SWAP1 POP DUP1 PUSH20 0xFFFFFFFFFFFFFFFFFFFFFFFFFFFFFFFFFFFFFFFF AND DUP4 PUSH20 0xFFFFFFFFFFFFFFFFFFFFFFFFFFFFFFFFFFFFFFFF AND EQ PUSH2 0x9D5 JUMPI PUSH1 0x40 MLOAD PUSH32 0x8C379A000000000000000000000000000000000000000000000000000000000 DUP2 MSTORE PUSH1 0x4 ADD PUSH2 0x9CC SWAP1 PUSH2 0x1199 JUMP JUMPDEST PUSH1 0x40 MLOAD DUP1 SWAP2 SUB SWAP1 REVERT JUMPDEST PUSH0 PUSH1 0x1 SWAP1 POP JUMPDEST PUSH1 0x6 PUSH0 DUP6 PUSH20 0xFFFFFFFFFFFFFFFFFFFFFFFFFFFFFFFFFFFFFFFF AND PUSH20 0xFFFFFFFFFFFFFFFFFFFFFFFFFFFFFFFFFFFFFFFF AND DUP2 MSTORE PUSH1 0x20 ADD SWAP1 DUP2 MSTORE PUSH1 0x20 ADD PUSH0 KECCAK256 SLOAD DUP2 LT ISZERO PUSH2 0xB60 JUMPI PUSH0 PUSH1 0x5 PUSH0 DUP7 PUSH20 0xFFFFFFFFFFFFFFFFFFFFFFFFFFFFFFFFFFFFFFFF AND PUSH20 0xFFFFFFFFFFFFFFFFFFFFFFFFFFFFFFFFFFFFFFFF AND DUP2 MSTORE PUSH1 0x20 ADD SWAP1 DUP2 MSTORE PUSH1 0x20 ADD PUSH0 KECCAK256 PUSH0 DUP4 DUP2 MSTORE PUSH1 0x20 ADD SWAP1 DUP2 MSTORE PUSH1 0x20 ADD PUSH0 KECCAK256 SLOAD SWAP1 POP DUP4 DUP2 SUB PUSH2 0xB52 JUMPI PUSH1 0x5 PUSH0 DUP7 PUSH20 0xFFFFFFFFFFFFFFFFFFFFFFFFFFFFFFFFFFFFFFFF AND PUSH20 0xFFFFFFFFFFFFFFFFFFFFFFFFFFFFFFFFFFFFFFFF AND DUP2 MSTORE PUSH1 0x20 ADD SWAP1 DUP2 MSTORE PUSH1 0x20 ADD PUSH0 KECCAK256 PUSH0 PUSH1 0x6 PUSH0 DUP9 PUSH20 0xFFFFFFFFFFFFFFFFFFFFFFFFFFFFFFFFFFFFFFFF AND PUSH20 0xFFFFFFFFFFFFFFFFFFFFFFFFFFFFFFFFFFFFFFFF AND DUP2 MSTORE PUSH1 0x20 ADD SWAP1 DUP2 MSTORE PUSH1 0x20 ADD PUSH0 KECCAK256 SLOAD DUP2 MSTORE PUSH1 0x20 ADD SWAP1 DUP2 MSTORE PUSH1 0x20 ADD PUSH0 KECCAK256 SLOAD PUSH1 0x5 PUSH0 DUP8 PUSH20 0xFFFFFFFFFFFFFFFFFFFFFFFFFFFFFFFFFFFFFFFF AND PUSH20 0xFFFFFFFFFFFFFFFFFFFFFFFFFFFFFFFFFFFFFFFF AND DUP2 MSTORE PUSH1 0x20 ADD SWAP1 DUP2 MSTORE PUSH1 0x20 ADD PUSH0 KECCAK256 PUSH0 DUP5 DUP2 MSTORE PUSH1 0x20 ADD SWAP1 DUP2 MSTORE PUSH1 0x20 ADD PUSH0 KECCAK256 DUP2 SWAP1 SSTORE POP JUMPDEST POP DUP1 DUP1 PUSH1 0x1 ADD SWAP2 POP POP PUSH2 0x9DB JUMP JUMPDEST POP PUSH1 0x1 PUSH1 0x6 PUSH0 DUP6 PUSH20 0xFFFFFFFFFFFFFFFFFFFFFFFFFFFFFFFFFFFFFFFF AND PUSH20 0xFFFFFFFFFFFFFFFFFFFFFFFFFFFFFFFFFFFFFFFF AND DUP2 MSTORE PUSH1 0x20 ADD SWAP1 DUP2 MSTORE PUSH1 0x20 ADD PUSH0 KECCAK256 PUSH0 DUP3 DUP3 SLOAD PUSH2 0xBAE SWAP2 SWAP1 PUSH2 0x11B7 JUMP JUMPDEST SWAP3 POP POP DUP2 SWAP1 SSTORE POP PUSH1 0x4 PUSH0 PUSH1 0x7 SLOAD DUP2 MSTORE PUSH1 0x20 ADD SWAP1 DUP2 MSTORE PUSH1 0x20 ADD PUSH0 KECCAK256 PUSH1 0x4 PUSH0 DUP5 DUP2 MSTORE PUSH1 0x20 ADD SWAP1 DUP2 MSTORE PUSH1 0x20 ADD PUSH0 KECCAK256 PUSH0 DUP3 ADD SLOAD DUP2 PUSH0 ADD SSTORE PUSH1 0x1 DUP3 ADD SLOAD DUP2 PUSH1 0x1 ADD SSTORE PUSH1 0x2 DUP3 ADD PUSH0 SWAP1 SLOAD SWAP1 PUSH2 0x100 EXP SWAP1 DIV PUSH20 0xFFFFFFFFFFFFFFFFFFFFFFFFFFFFFFFFFFFFFFFF AND DUP2 PUSH1 0x2 ADD PUSH0 PUSH2 0x100 EXP DUP2 SLOAD DUP2 PUSH20 0xFFFFFFFFFFFFFFFFFFFFFFFFFFFFFFFFFFFFFFFF MUL NOT AND SWAP1 DUP4 PUSH20 0xFFFFFFFFFFFFFFFFFFFFFFFFFFFFFFFFFFFFFFFF AND MUL OR SWAP1 SSTORE POP PUSH1 0x3 DUP3 ADD SLOAD DUP2 PUSH1 0x3 ADD SSTORE SWAP1 POP POP PUSH1 0x1 PUSH1 0x7 PUSH0 DUP3 DUP3 SLOAD PUSH2 0xC6F SWAP2 SWAP1 PUSH2 0x11B7 JUMP JUMPDEST SWAP3 POP POP DUP2 SWAP1 SSTORE POP POP POP POP JUMP JUMPDEST PUSH0 DUP1 REVERT JUMPDEST PUSH0 PUSH20 0xFFFFFFFFFFFFFFFFFFFFFFFFFFFFFFFFFFFFFFFF DUP3 AND SWAP1 POP SWAP2 SWAP1 POP JUMP JUMPDEST PUSH0 PUSH2 0xCA8 DUP3 PUSH2 0xC7F JUMP JUMPDEST SWAP1 POP SWAP2 SWAP1 POP JUMP JUMPDEST PUSH2 0xCB8 DUP2 PUSH2 0xC9E JUMP JUMPDEST DUP2 EQ PUSH2 0xCC2 JUMPI PUSH0 DUP1 REVERT JUMPDEST POP JUMP JUMPDEST PUSH0 DUP2 CALLDATALOAD SWAP1 POP PUSH2 0xCD3 DUP2 PUSH2 0xCAF JUMP JUMPDEST SWAP3 SWAP2 POP POP JUMP JUMPDEST PUSH0 PUSH1 0x20 DUP3 DUP5 SUB SLT ISZERO PUSH2 0xCEE JUMPI PUSH2 0xCED PUSH2 0xC7B JUMP JUMPDEST JUMPDEST PUSH0 PUSH2 0xCFB DUP5 DUP3 DUP6 ADD PUSH2 0xCC5 JUMP JUMPDEST SWAP2 POP POP SWAP3 SWAP2 POP POP JUMP JUMPDEST PUSH0 DUP2 MLOAD SWAP1 POP SWAP2 SWAP1 POP JUMP JUMPDEST PUSH0 DUP3 DUP3 MSTORE PUSH1 0x20 DUP3 ADD SWAP1 POP SWAP3 SWAP2 POP POP JUMP JUMPDEST PUSH0 DUP2 SWAP1 POP PUSH1 0x20 DUP3 ADD SWAP1 POP SWAP2 SWAP1 POP JUMP JUMPDEST PUSH0 DUP2 SWAP1 POP SWAP2 SWAP1 POP JUMP JUMPDEST PUSH2 0xD3F DUP2 PUSH2 0xD2D JUMP JUMPDEST DUP3 MSTORE POP POP JUMP JUMPDEST PUSH0 PUSH2 0xD50 DUP4 DUP4 PUSH2 0xD36 JUMP JUMPDEST PUSH1 0x20 DUP4 ADD SWAP1 POP SWAP3 SWAP2 POP POP JUMP JUMPDEST PUSH0 PUSH1 0x20 DUP3 ADD SWAP1 POP SWAP2 SWAP1 POP JUMP JUMPDEST PUSH0 PUSH2 0xD72 DUP3 PUSH2 0xD04 JUMP JUMPDEST PUSH2 0xD7C DUP2 DUP6 PUSH2 0xD0E JUMP JUMPDEST SWAP4 POP PUSH2 0xD87 DUP4 PUSH2 0xD1E JUMP JUMPDEST DUP1 PUSH0 JUMPDEST DUP4 DUP2 LT ISZERO PUSH2 0xDB7 JUMPI DUP2 MLOAD PUSH2 0xD9E DUP9 DUP3 PUSH2 0xD45 JUMP JUMPDEST SWAP8 POP PUSH2 0xDA9 DUP4 PUSH2 0xD5C JUMP JUMPDEST SWAP3 POP POP PUSH1 0x1 DUP2 ADD SWAP1 POP PUSH2 0xD8A JUMP JUMPDEST POP DUP6 SWAP4 POP POP POP POP SWAP3 SWAP2 POP POP JUMP JUMPDEST PUSH0 PUSH1 0x20 DUP3 ADD SWAP1 POP DUP2 DUP2 SUB PUSH0 DUP4 ADD MSTORE PUSH2 0xDDC DUP2 DUP5 PUSH2 0xD68 JUMP JUMPDEST SWAP1 POP SWAP3 SWAP2 POP POP JUMP JUMPDEST PUSH2 0xDED DUP2 PUSH2 0xD2D JUMP JUMPDEST DUP3 MSTORE POP POP JUMP JUMPDEST PUSH0 PUSH1 0x20 DUP3 ADD SWAP1 POP PUSH2 0xE06 PUSH0 DUP4 ADD DUP5 PUSH2 0xDE4 JUMP JUMPDEST SWAP3 SWAP2 POP POP JUMP JUMPDEST PUSH2 0xE15 DUP2 PUSH2 0xD2D JUMP JUMPDEST DUP2 EQ PUSH2 0xE1F JUMPI PUSH0 DUP1 REVERT JUMPDEST POP JUMP JUMPDEST PUSH0 DUP2 CALLDATALOAD SWAP1 POP PUSH2 0xE30 DUP2 PUSH2 0xE0C JUMP JUMPDEST SWAP3 SWAP2 POP POP JUMP JUMPDEST PUSH0 DUP1 PUSH1 0x40 DUP4 DUP6 SUB SLT ISZERO PUSH2 0xE4C JUMPI PUSH2 0xE4B PUSH2 0xC7B JUMP JUMPDEST JUMPDEST PUSH0 PUSH2 0xE59 DUP6 DUP3 DUP7 ADD PUSH2 0xCC5 JUMP JUMPDEST SWAP3 POP POP PUSH1 0x20 PUSH2 0xE6A DUP6 DUP3 DUP7 ADD PUSH2 0xE22 JUMP JUMPDEST SWAP2 POP POP SWAP3 POP SWAP3 SWAP1 POP JUMP JUMPDEST PUSH0 PUSH1 0x20 DUP3 DUP5 SUB SLT ISZERO PUSH2 0xE89 JUMPI PUSH2 0xE88 PUSH2 0xC7B JUMP JUMPDEST JUMPDEST PUSH0 PUSH2 0xE96 DUP5 DUP3 DUP6 ADD PUSH2 0xE22 JUMP JUMPDEST SWAP2 POP POP SWAP3 SWAP2 POP POP JUMP JUMPDEST PUSH2 0xEA8 DUP2 PUSH2 0xC9E JUMP JUMPDEST DUP3 MSTORE POP POP JUMP JUMPDEST PUSH0 PUSH1 0x60 DUP3 ADD SWAP1 POP PUSH2 0xEC1 PUSH0 DUP4 ADD DUP7 PUSH2 0xDE4 JUMP JUMPDEST PUSH2 0xECE PUSH1 0x20 DUP4 ADD DUP6 PUSH2 0xE9F JUMP JUMPDEST PUSH2 0xEDB PUSH1 0x40 DUP4 ADD DUP5 PUSH2 0xDE4 JUMP JUMPDEST SWAP5 SWAP4 POP POP POP POP JUMP JUMPDEST PUSH0 DUP1 PUSH0 PUSH1 0x60 DUP5 DUP7 SUB SLT ISZERO PUSH2 0xEFA JUMPI PUSH2 0xEF9 PUSH2 0xC7B JUMP JUMPDEST JUMPDEST PUSH0 PUSH2 0xF07 DUP7 DUP3 DUP8 ADD PUSH2 0xCC5 JUMP JUMPDEST SWAP4 POP POP PUSH1 0x20 PUSH2 0xF18 DUP7 DUP3 DUP8 ADD PUSH2 0xE22 JUMP JUMPDEST SWAP3 POP POP PUSH1 0x40 PUSH2 0xF29 DUP7 DUP3 DUP8 ADD PUSH2 0xE22 JUMP JUMPDEST SWAP2 POP POP SWAP3 POP SWAP3 POP SWAP3 JUMP JUMPDEST PUSH32 0x4E487B7100000000000000000000000000000000000000000000000000000000 PUSH0 MSTORE PUSH1 0x41 PUSH1 0x4 MSTORE PUSH1 0x24 PUSH0 REVERT JUMPDEST PUSH32 0x4E487B7100000000000000000000000000000000000000000000000000000000 PUSH0 MSTORE PUSH1 0x11 PUSH1 0x4 MSTORE PUSH1 0x24 PUSH0 REVERT JUMPDEST PUSH0 PUSH2 0xF97 DUP3 PUSH2 0xD2D JUMP JUMPDEST SWAP2 POP PUSH2 0xFA2 DUP4 PUSH2 0xD2D JUMP JUMPDEST SWAP3 POP DUP3 DUP3 ADD SWAP1 POP DUP1 DUP3 GT ISZERO PUSH2 0xFBA JUMPI PUSH2 0xFB9 PUSH2 0xF60 JUMP JUMPDEST JUMPDEST SWAP3 SWAP2 POP POP JUMP JUMPDEST PUSH32 0x4E487B7100000000000000000000000000000000000000000000000000000000 PUSH0 MSTORE PUSH1 0x32 PUSH1 0x4 MSTORE PUSH1 0x24 PUSH0 REVERT JUMPDEST PUSH0 DUP3 DUP3 MSTORE PUSH1 0x20 DUP3 ADD SWAP1 POP SWAP3 SWAP2 POP POP JUMP JUMPDEST PUSH32 0x6D73672E73656E646572206973206E6F7420746865204E4654206F776E657200 PUSH0 DUP3 ADD MSTORE POP JUMP JUMPDEST PUSH0 PUSH2 0x1031 PUSH1 0x1F DUP4 PUSH2 0xFED JUMP JUMPDEST SWAP2 POP PUSH2 0x103C DUP3 PUSH2 0xFFD JUMP JUMPDEST PUSH1 0x20 DUP3 ADD SWAP1 POP SWAP2 SWAP1 POP JUMP JUMPDEST PUSH0 PUSH1 0x20 DUP3 ADD SWAP1 POP DUP2 DUP2 SUB PUSH0 DUP4 ADD MSTORE PUSH2 0x105E DUP2 PUSH2 0x1025 JUMP JUMPDEST SWAP1 POP SWAP2 SWAP1 POP JUMP JUMPDEST PUSH0 PUSH1 0x60 DUP3 ADD SWAP1 POP PUSH2 0x1078 PUSH0 DUP4 ADD DUP7 PUSH2 0xE9F JUMP JUMPDEST PUSH2 0x1085 PUSH1 0x20 DUP4 ADD DUP6 PUSH2 0xE9F JUMP JUMPDEST PUSH2 0x1092 PUSH1 0x40 DUP4 ADD DUP5 PUSH2 0xDE4 JUMP JUMPDEST SWAP5 SWAP4 POP POP POP POP JUMP JUMPDEST PUSH32 0x707269636520697320746F6F206C6F7700000000000000000000000000000000 PUSH0 DUP3 ADD MSTORE POP JUMP JUMPDEST PUSH0 PUSH2 0x10CE PUSH1 0x10 DUP4 PUSH2 0xFED JUMP JUMPDEST SWAP2 POP PUSH2 0x10D9 DUP3 PUSH2 0x109A JUMP JUMPDEST PUSH1 0x20 DUP3 ADD SWAP1 POP SWAP2 SWAP1 POP JUMP JUMPDEST PUSH0 PUSH1 0x20 DUP3 ADD SWAP1 POP DUP2 DUP2 SUB PUSH0 DUP4 ADD MSTORE PUSH2 0x10FB DUP2 PUSH2 0x10C2 JUMP JUMPDEST SWAP1 POP SWAP2 SWAP1 POP JUMP JUMPDEST PUSH0 PUSH1 0x40 DUP3 ADD SWAP1 POP PUSH2 0x1115 PUSH0 DUP4 ADD DUP6 PUSH2 0xE9F JUMP JUMPDEST PUSH2 0x1122 PUSH1 0x20 DUP4 ADD DUP5 PUSH2 0xDE4 JUMP JUMPDEST SWAP4 SWAP3 POP POP POP JUMP JUMPDEST PUSH32 0x746865202773656C6C65722720706172616D65746572206973206E6F74207468 PUSH0 DUP3 ADD MSTORE PUSH32 0x65206F726465722073656C6C6572000000000000000000000000000000000000 PUSH1 0x20 DUP3 ADD MSTORE POP JUMP JUMPDEST PUSH0 PUSH2 0x1183 PUSH1 0x2E DUP4 PUSH2 0xFED JUMP JUMPDEST SWAP2 POP PUSH2 0x118E DUP3 PUSH2 0x1129 JUMP JUMPDEST PUSH1 0x40 DUP3 ADD SWAP1 POP SWAP2 SWAP1 POP JUMP JUMPDEST PUSH0 PUSH1 0x20 DUP3 ADD SWAP1 POP DUP2 DUP2 SUB PUSH0 DUP4 ADD MSTORE PUSH2 0x11B0 DUP2 PUSH2 0x1177 JUMP JUMPDEST SWAP1 POP SWAP2 SWAP1 POP JUMP JUMPDEST PUSH0 PUSH2 0x11C1 DUP3 PUSH2 0xD2D JUMP JUMPDEST SWAP2 POP PUSH2 0x11CC DUP4 PUSH2 0xD2D JUMP JUMPDEST SWAP3 POP DUP3 DUP3 SUB SWAP1 POP DUP2 DUP2 GT ISZERO PUSH2 0x11E4 JUMPI PUSH2 0x11E3 PUSH2 0xF60 JUMP JUMPDEST JUMPDEST SWAP3 SWAP2 POP POP JUMP INVALID LOG2 PUSH5 0x6970667358 0x22 SLT KECCAK256 RETURN 0x2B 0xB6 PUSH14 0x1046A1361AB105FDC18358ADD7AC TIMESTAMP 0xD1 PUSH22 0xA06FD244C2359EBF2C0F6764736F6C63430008180033 "
				},
				"gasEstimates": {
					"creation": {
						"codeDepositCost": "928000",
						"executionCost": "infinite",
						"totalCost": "infinite"
					},
					"external": {
						"buyNFT(address,uint256)": "infinite",
						"contractBalance()": "2425",
						"getExistAllOrder()": "2455",
						"getUserOrder(address)": "infinite",
						"getorderData(uint256)": "infinite",
						"list(address,uint256,uint256)": "infinite",
						"unlistNFT(address,uint256)": "infinite"
					},
					"internal": {
						"removeOrder(address,uint256)": "infinite"
					}
				},
				"methodIdentifiers": {
					"buyNFT(address,uint256)": "a82ba76f",
					"contractBalance()": "8b7afe2e",
					"getExistAllOrder()": "4e9c378f",
					"getUserOrder(address)": "41a6506b",
					"getorderData(uint256)": "c6362a59",
					"list(address,uint256,uint256)": "dda342bb",
					"unlistNFT(address,uint256)": "7fc27efd"
				}
			},
			"storageLayout": {
				"storage": [
					{
						"astId": 2808,
						"contract": "NFTMarket.sol:NFTMarket",
						"label": "NFTAddress",
						"offset": 0,
						"slot": "0",
						"type": "t_address"
					},
					{
						"astId": 2810,
						"contract": "NFTMarket.sol:NFTMarket",
						"label": "owner",
						"offset": 0,
						"slot": "1",
						"type": "t_address"
					},
					{
						"astId": 2812,
						"contract": "NFTMarket.sol:NFTMarket",
						"label": "contractBalance",
						"offset": 0,
						"slot": "2",
						"type": "t_uint256"
					},
					{
						"astId": 2826,
						"contract": "NFTMarket.sol:NFTMarket",
						"label": "orderData",
						"offset": 0,
						"slot": "3",
						"type": "t_mapping(t_uint256,t_struct(Order)2821_storage)"
					},
					{
						"astId": 2831,
						"contract": "NFTMarket.sol:NFTMarket",
						"label": "allOrder",
						"offset": 0,
						"slot": "4",
						"type": "t_mapping(t_uint256,t_struct(Order)2821_storage)"
					},
					{
						"astId": 2837,
						"contract": "NFTMarket.sol:NFTMarket",
						"label": "userOrder",
						"offset": 0,
						"slot": "5",
						"type": "t_mapping(t_address,t_mapping(t_uint256,t_uint256))"
					},
					{
						"astId": 2841,
						"contract": "NFTMarket.sol:NFTMarket",
						"label": "userTotalOrder",
						"offset": 0,
						"slot": "6",
						"type": "t_mapping(t_address,t_uint256)"
					},
					{
						"astId": 2843,
						"contract": "NFTMarket.sol:NFTMarket",
						"label": "totalOrder",
						"offset": 0,
						"slot": "7",
						"type": "t_uint256"
					},
					{
						"astId": 2845,
						"contract": "NFTMarket.sol:NFTMarket",
						"label": "OrderIndex",
						"offset": 0,
						"slot": "8",
						"type": "t_uint256"
					}
				],
				"types": {
					"t_address": {
						"encoding": "inplace",
						"label": "address",
						"numberOfBytes": "20"
					},
					"t_mapping(t_address,t_mapping(t_uint256,t_uint256))": {
						"encoding": "mapping",
						"key": "t_address",
						"label": "mapping(address => mapping(uint256 => uint256))",
						"numberOfBytes": "32",
						"value": "t_mapping(t_uint256,t_uint256)"
					},
					"t_mapping(t_address,t_uint256)": {
						"encoding": "mapping",
						"key": "t_address",
						"label": "mapping(address => uint256)",
						"numberOfBytes": "32",
						"value": "t_uint256"
					},
					"t_mapping(t_uint256,t_struct(Order)2821_storage)": {
						"encoding": "mapping",
						"key": "t_uint256",
						"label": "mapping(uint256 => struct NFTMarket.Order)",
						"numberOfBytes": "32",
						"value": "t_struct(Order)2821_storage"
					},
					"t_mapping(t_uint256,t_uint256)": {
						"encoding": "mapping",
						"key": "t_uint256",
						"label": "mapping(uint256 => uint256)",
						"numberOfBytes": "32",
						"value": "t_uint256"
					},
					"t_struct(Order)2821_storage": {
						"encoding": "inplace",
						"label": "struct NFTMarket.Order",
						"members": [
							{
								"astId": 2814,
								"contract": "NFTMarket.sol:NFTMarket",
								"label": "orderId",
								"offset": 0,
								"slot": "0",
								"type": "t_uint256"
							},
							{
								"astId": 2816,
								"contract": "NFTMarket.sol:NFTMarket",
								"label": "tokenId",
								"offset": 0,
								"slot": "1",
								"type": "t_uint256"
							},
							{
								"astId": 2818,
								"contract": "NFTMarket.sol:NFTMarket",
								"label": "sellAddr",
								"offset": 0,
								"slot": "2",
								"type": "t_address"
							},
							{
								"astId": 2820,
								"contract": "NFTMarket.sol:NFTMarket",
								"label": "price",
								"offset": 0,
								"slot": "3",
								"type": "t_uint256"
							}
						],
						"numberOfBytes": "128"
					},
					"t_uint256": {
						"encoding": "inplace",
						"label": "uint256",
						"numberOfBytes": "32"
					}
				}
			},
			"userdoc": {
				"kind": "user",
				"methods": {},
				"version": 1
			}
		}
	}
}